{
  "_format": "hh-sol-artifact-1",
  "contractName": "LRouter",
  "sourceName": "contracts/periphery/LRouter.sol",
  "abi": [
    {
      "inputs": [
        {
          "internalType": "address",
          "name": "factory",
          "type": "address"
        },
        {
          "internalType": "address",
          "name": "weth",
          "type": "address"
        }
      ],
      "stateMutability": "nonpayable",
      "type": "constructor"
    },
    {
      "inputs": [
        {
          "internalType": "address",
          "name": "target",
          "type": "address"
        }
      ],
      "name": "AddressEmptyCode",
      "type": "error"
    },
    {
      "inputs": [
        {
          "internalType": "address",
          "name": "account",
          "type": "address"
        }
      ],
      "name": "AddressInsufficientBalance",
      "type": "error"
    },
    {
      "inputs": [],
      "name": "Expired",
      "type": "error"
    },
    {
      "inputs": [],
      "name": "FailedInnerCall",
      "type": "error"
    },
    {
      "inputs": [],
      "name": "ReentrancyGuardReentrantCall",
      "type": "error"
    },
    {
      "inputs": [
        {
          "internalType": "address",
          "name": "token",
          "type": "address"
        }
      ],
      "name": "SafeERC20FailedOperation",
      "type": "error"
    },
    {
      "inputs": [],
      "name": "FACTORY",
      "outputs": [
        {
          "internalType": "address",
          "name": "",
          "type": "address"
        }
      ],
      "stateMutability": "view",
      "type": "function"
    },
    {
      "inputs": [
        {
          "components": [
            {
              "internalType": "address",
              "name": "tokenA",
              "type": "address"
            },
            {
              "internalType": "address",
              "name": "tokenB",
              "type": "address"
            },
            {
              "internalType": "uint256",
              "name": "amountADesired",
              "type": "uint256"
            },
            {
              "internalType": "uint256",
              "name": "amountBDesired",
              "type": "uint256"
            },
            {
              "internalType": "uint256",
              "name": "amountAMin",
              "type": "uint256"
            },
            {
              "internalType": "uint256",
              "name": "amountBMin",
              "type": "uint256"
            },
            {
              "internalType": "address",
              "name": "to",
              "type": "address"
            },
            {
              "internalType": "uint256",
              "name": "deadline",
              "type": "uint256"
            }
          ],
          "internalType": "struct LRouter.AddLiquidity",
          "name": "params",
          "type": "tuple"
        }
      ],
      "name": "addLiquidity",
      "outputs": [
        {
          "internalType": "uint256",
          "name": "amountA",
          "type": "uint256"
        },
        {
          "internalType": "uint256",
          "name": "amountB",
          "type": "uint256"
        },
        {
          "internalType": "uint256",
          "name": "liquidity",
          "type": "uint256"
        },
        {
          "internalType": "address",
          "name": "pair",
          "type": "address"
        }
      ],
      "stateMutability": "nonpayable",
      "type": "function"
    },
    {
      "inputs": [
        {
          "internalType": "uint256",
          "name": "",
          "type": "uint256"
        }
      ],
      "name": "collateralPools",
      "outputs": [
        {
          "internalType": "address",
          "name": "",
          "type": "address"
        }
      ],
      "stateMutability": "view",
      "type": "function"
    },
    {
      "inputs": [
        {
          "internalType": "contract IERC20",
          "name": "token",
          "type": "address"
        },
        {
          "internalType": "uint256",
          "name": "assets",
          "type": "uint256"
        },
        {
          "internalType": "address",
          "name": "receiver",
          "type": "address"
        }
      ],
      "name": "depositCollateral",
      "outputs": [
        {
          "internalType": "uint256",
          "name": "amountA",
          "type": "uint256"
        },
        {
          "internalType": "uint256",
          "name": "amountB",
          "type": "uint256"
        },
        {
          "internalType": "address",
          "name": "pair",
          "type": "address"
        }
      ],
      "stateMutability": "nonpayable",
      "type": "function"
    },
    {
      "inputs": [
        {
          "internalType": "address",
          "name": "owner",
          "type": "address"
        }
      ],
      "name": "getAmmPools",
      "outputs": [
        {
          "components": [
            {
              "internalType": "address",
              "name": "pool",
              "type": "address"
            },
            {
              "internalType": "address",
              "name": "token0",
              "type": "address"
            },
            {
              "internalType": "address",
              "name": "token1",
              "type": "address"
            },
            {
              "internalType": "uint112",
              "name": "reserve0",
              "type": "uint112"
            },
            {
              "internalType": "uint112",
              "name": "reserve1",
              "type": "uint112"
            },
            {
              "internalType": "uint256",
              "name": "fee0",
              "type": "uint256"
            },
            {
              "internalType": "uint256",
              "name": "fee1",
              "type": "uint256"
            }
          ],
          "internalType": "struct LRouter.Pool[]",
          "name": "allPools",
          "type": "tuple[]"
        }
      ],
      "stateMutability": "nonpayable",
      "type": "function"
    },
    {
      "inputs": [
        {
          "internalType": "uint256",
          "name": "",
          "type": "uint256"
        }
      ],
      "name": "pools",
      "outputs": [
        {
          "internalType": "address",
          "name": "",
          "type": "address"
        }
      ],
      "stateMutability": "view",
      "type": "function"
    },
    {
      "inputs": [
        {
          "internalType": "address",
          "name": "tokenA",
          "type": "address"
        },
        {
          "internalType": "address",
          "name": "tokenB",
          "type": "address"
        },
        {
          "internalType": "uint256",
          "name": "liquidity",
          "type": "uint256"
        },
        {
          "internalType": "uint256",
          "name": "amountAMin",
          "type": "uint256"
        },
        {
          "internalType": "uint256",
          "name": "amountBMin",
          "type": "uint256"
        },
        {
          "internalType": "address",
          "name": "to",
          "type": "address"
        },
        {
          "internalType": "uint32",
          "name": "deadline",
          "type": "uint32"
        }
      ],
      "name": "removeLiquidity",
      "outputs": [
        {
          "internalType": "uint256",
          "name": "amountA",
          "type": "uint256"
        },
        {
          "internalType": "uint256",
          "name": "amountB",
          "type": "uint256"
        }
      ],
      "stateMutability": "nonpayable",
      "type": "function"
    },
    {
      "inputs": [
        {
          "internalType": "address",
          "name": "pair",
          "type": "address"
        },
        {
          "internalType": "uint256",
          "name": "liquidity",
          "type": "uint256"
        },
        {
          "internalType": "uint256",
          "name": "amountAMin",
          "type": "uint256"
        },
        {
          "internalType": "uint256",
          "name": "amountBMin",
          "type": "uint256"
        },
        {
          "internalType": "address",
          "name": "to",
          "type": "address"
        },
        {
          "internalType": "uint32",
          "name": "deadline",
          "type": "uint32"
        }
      ],
      "name": "removeLiquidityPair",
      "outputs": [
        {
          "internalType": "uint256",
          "name": "amountA",
          "type": "uint256"
        },
        {
          "internalType": "uint256",
          "name": "amountB",
          "type": "uint256"
        }
      ],
      "stateMutability": "nonpayable",
      "type": "function"
    },
    {
      "inputs": [
        {
          "internalType": "uint112",
          "name": "amountIn",
          "type": "uint112"
        },
        {
          "internalType": "uint112",
          "name": "amountOutMin",
          "type": "uint112"
        },
        {
          "internalType": "address[]",
          "name": "path",
          "type": "address[]"
        },
        {
          "internalType": "address",
          "name": "to",
          "type": "address"
        },
        {
          "internalType": "uint256",
          "name": "deadline",
          "type": "uint256"
        }
      ],
      "name": "swapExactTokenForToken",
      "outputs": [],
      "stateMutability": "nonpayable",
      "type": "function"
    },
    {
      "stateMutability": "payable",
      "type": "receive"
    }
  ],
  "bytecode": "0x60a06040523480156200001157600080fd5b5060405162001d6738038062001d67833981016040819052620000349162000069565b5060016000556001600160a01b0316608052620000a1565b80516001600160a01b03811681146200006457600080fd5b919050565b600080604083850312156200007d57600080fd5b62000088836200004c565b915062000098602084016200004c565b90509250929050565b608051611c79620000ee6000396000818161016f01528181610401015281816104a8015281816105530152818161088d01528181610b200152818161100101526110cc0152611c796000f3fe60806040526004361061008a5760003560e01c80636dbe4ef2116100595780636dbe4ef2146101a957806381744501146101c9578063ac4afa38146101e9578063e00f6f6714610209578063f96bd4641461022b57600080fd5b8063178bade21461009657806322425480146100d057806323790216146101145780632dd310001461015d57600080fd5b3661009157005b600080fd5b3480156100a257600080fd5b506100b66100b1366004611706565b610258565b604080519283526020830191909152015b60405180910390f35b3480156100dc57600080fd5b506100f06100eb36600461176d565b6103d9565b6040805193845260208401929092526001600160a01b0316908201526060016100c7565b34801561012057600080fd5b5061013461012f3660046117af565b610705565b604080519485526020850193909352918301526001600160a01b031660608201526080016100c7565b34801561016957600080fd5b506101917f000000000000000000000000000000000000000000000000000000000000000081565b6040516001600160a01b0390911681526020016100c7565b3480156101b557600080fd5b506101916101c43660046117c8565b61080e565b3480156101d557600080fd5b506100b66101e43660046117e1565b610838565b3480156101f557600080fd5b506101916102043660046117c8565b610a83565b34801561021557600080fd5b50610229610224366004611871565b610a93565b005b34801561023757600080fd5b5061024b610246366004611925565b610cf3565b6040516100c79190611942565b6000808263ffffffff168042111561028357604051630407b05b60e31b815260040160405180910390fd5b6040516323b872dd60e01b81523360048201526001600160a01b038a1660248201819052604482018a9052906323b872dd906064016020604051808303816000875af11580156102d7573d6000803e3d6000fd5b505050506040513d601f19601f820116820180604052508101906102fb91906119e3565b5060405163226bf2d160e21b81526001600160a01b03868116600483015260009182918c16906389afcb449060240160408051808303816000875af1158015610348573d6000803e3d6000fd5b505050506040513d601f19601f8201168201806040525081019061036c9190611a05565b6001600160701b031691506001600160701b03169150888210156103ab5760405162461bcd60e51b81526004016103a290611a3f565b60405180910390fd5b878110156103cb5760405162461bcd60e51b81526004016103a290611a6f565b505050965096945050505050565b60405163292979d160e11b81526001600160a01b0384811660048301526000918291829182917f00000000000000000000000000000000000000000000000000000000000000001690635252f3a290602401602060405180830381865afa158015610448573d6000803e3d6000fd5b505050506040513d601f19601f8201168201806040525081019061046c9190611a9f565b90506104836001600160a01b038816333089610f91565b6001600160a01b0381166106125760405163095ea7b360e01b81526001600160a01b037f0000000000000000000000000000000000000000000000000000000000000000811660048301526024820188905288169063095ea7b3906044016020604051808303816000875af1158015610500573d6000803e3d6000fd5b505050506040513d601f19601f8201168201806040525081019061052491906119e3565b506040516318815cb760e01b81526001600160a01b0388811660048301526024820188905286811660448301527f000000000000000000000000000000000000000000000000000000000000000016906318815cb7906064016020604051808303816000875af115801561059c573d6000803e3d6000fd5b505050506040513d601f19601f820116820180604052508101906105c09190611a9f565b600280546001810182556000919091527f405787fa12a823e0f2b7631cc41b3ba8828b3321ca811111fa75cd3aa3bb5ace0180546001600160a01b0319166001600160a01b03831617905590506106fb565b60405163095ea7b360e01b81526001600160a01b0382811660048301526024820188905288169063095ea7b3906044016020604051808303816000875af1158015610661573d6000803e3d6000fd5b505050506040513d601f19601f8201168201806040525081019061068591906119e3565b50604051636e553f6560e01b8152600481018790526001600160a01b038681166024830152821690636e553f65906044016020604051808303816000875af11580156106d5573d6000803e3d6000fd5b505050506040513d601f19601f820116820180604052508101906106f99190611abc565b505b5093509350939050565b6000806000808460e001358042111561073157604051630407b05b60e31b815260040160405180910390fd5b61073a86610ff1565b9196509450915061076533838761075460208b018b611925565b6001600160a01b0316929190610f91565b61077b33838661075460408b0160208c01611925565b6001600160a01b038216636a62784261079a60e0890160c08a01611925565b6040516001600160e01b031960e084901b1681526001600160a01b0390911660048201526024016020604051808303816000875af11580156107e0573d6000803e3d6000fd5b505050506040513d601f19601f820116820180604052508101906108049190611abc565b9250509193509193565b6002818154811061081e57600080fd5b6000918252602090912001546001600160a01b0316905081565b6000808263ffffffff168042111561086357604051630407b05b60e31b815260040160405180910390fd5b60405163298d501f60e11b81526001600160a01b038b811660048301528a811660248301526000917f00000000000000000000000000000000000000000000000000000000000000009091169063531aa03e90604401602060405180830381865afa1580156108d6573d6000803e3d6000fd5b505050506040513d601f19601f820116820180604052508101906108fa9190611a9f565b6040516323b872dd60e01b81523360048201526001600160a01b03821660248201819052604482018c90529192506323b872dd906064016020604051808303816000875af1158015610950573d6000803e3d6000fd5b505050506040513d601f19601f8201168201806040525081019061097491906119e3565b5060405163226bf2d160e21b81526001600160a01b03878116600483015260009182918416906389afcb449060240160408051808303816000875af11580156109c1573d6000803e3d6000fd5b505050506040513d601f19601f820116820180604052508101906109e59190611a05565b6001600160701b031691506001600160701b031691506000610a078e8e6112e2565b509050806001600160a01b03168e6001600160a01b031614610a2a578183610a2d565b82825b90975095508a871015610a525760405162461bcd60e51b81526004016103a290611a3f565b89861015610a725760405162461bcd60e51b81526004016103a290611a6f565b505050505097509795505050505050565b6001818154811061081e57600080fd5b8080421115610ab557604051630407b05b60e31b815260040160405180910390fd5b600085856001818110610aca57610aca611ad5565b9050602002016020810190610adf9190611925565b6001600160a01b031686866000818110610afb57610afb611ad5565b9050602002016020810190610b109190611925565b6001600160a01b031611905060007f00000000000000000000000000000000000000000000000000000000000000006001600160a01b031663531aa03e88886000818110610b6057610b60611ad5565b9050602002016020810190610b759190611925565b89896001818110610b8857610b88611ad5565b9050602002016020810190610b9d9190611925565b6040516001600160e01b031960e085901b1681526001600160a01b03928316600482015291166024820152604401602060405180830381865afa158015610be8573d6000803e3d6000fd5b505050506040513d601f19601f82011682018060405250810190610c0c9190611a9f565b9050610c4533828b6001600160701b03168a8a6000818110610c3057610c30611ad5565b90506020020160208101906107549190611925565b8760008084610c5657826000610c5a565b6000835b60405163681e0f6360e11b81526001600160701b038084166004830152821660248201526001600160a01b038b811660448301529294509092509085169063d03c1ec69060640160408051808303816000875af1158015610cbf573d6000803e3d6000fd5b505050506040513d601f19601f82011682018060405250810190610ce39190611a05565b5050505050505050505050505050565b6001546060908067ffffffffffffffff811115610d1257610d12611aeb565b604051908082528060200260200182016040528015610d7957816020015b6040805160e08101825260008082526020808301829052928201819052606082018190526080820181905260a0820181905260c08201528252600019909201910181610d305790505b50915060005b81811015610f8a57600060018281548110610d9c57610d9c611ad5565b60009182526020822001546040805163154d950160e31b815281516001600160a01b0390931694508392859263aa6ca80892600480820193918290030181865afa158015610dee573d6000803e3d6000fd5b505050506040513d601f19601f82011682018060405250810190610e129190611b01565b91509150600080846001600160a01b0316630902f1ac6040518163ffffffff1660e01b8152600401606060405180830381865afa158015610e57573d6000803e3d6000fd5b505050506040513d601f19601f82011682018060405250810190610e7b9190611b30565b506040516246613160e11b81526001600160a01b038c81166004830152929450909250600091829190881690628cc262906024016040805180830381865afa158015610ecb573d6000803e3d6000fd5b505050506040513d601f19601f82011682018060405250810190610eef9190611b72565b915091506040518060e00160405280886001600160a01b03168152602001876001600160a01b03168152602001866001600160a01b03168152602001856001600160701b03168152602001846001600160701b03168152602001838152602001828152508a8981518110610f6557610f65611ad5565b6020026020010181905250505050505050508080610f8290611bac565b915050610d7f565b5050919050565b604080516001600160a01b0385811660248301528416604482015260648082018490528251808303909101815260849091019091526020810180516001600160e01b03166323b872dd60e01b179052610feb9085906113b0565b50505050565b6000808080806001600160a01b037f00000000000000000000000000000000000000000000000000000000000000001663531aa03e6110336020890189611925565b61104360408a0160208b01611925565b6040516001600160e01b031960e085901b1681526001600160a01b03928316600482015291166024820152604401602060405180830381865afa15801561108e573d6000803e3d6000fd5b505050506040513d601f19601f820116820180604052508101906110b29190611a9f565b92506001600160a01b0383166111e1576001600160a01b037f00000000000000000000000000000000000000000000000000000000000000001663c9c653966110fe6020890189611925565b61110e60408a0160208b01611925565b6040516001600160e01b031960e085901b1681526001600160a01b039283166004820152911660248201526044016020604051808303816000875af115801561115b573d6000803e3d6000fd5b505050506040513d601f19601f8201168201806040525081019061117f9190611a9f565b6001805480820182556000919091527fb10e2d527612073b26eecdfd717e6a320cf44b4afac2b0732d9fcbe2b7fa0cf60180546001600160a01b0319166001600160a01b038316179055604087013595506060870135945092506112db915050565b611207836111f26020890189611925565b61120260408a0160208b01611925565b611418565b909250905081158015611218575080155b156112305760408601359450606086013593506112d8565b6000611241876040013584846114d8565b905086606001358111611281578660a001358110156112725760405162461bcd60e51b81526004016103a290611a6f565b604087013595509350836112d6565b6000611292886060013584866114d8565b905087604001358111156112a8576112a8611bc5565b87608001358110156112cc5760405162461bcd60e51b81526004016103a290611a3f565b9550606087013594505b505b50505b9193909250565b600080826001600160a01b0316846001600160a01b03160361133c5760405162461bcd60e51b81526020600482015260136024820152724944454e544943414c5f41444452455353455360681b60448201526064016103a2565b826001600160a01b0316846001600160a01b03161061135c57828461135f565b83835b90925090506001600160a01b0382166113a95760405162461bcd60e51b815260206004820152600c60248201526b5a45524f5f4144445245535360a01b60448201526064016103a2565b9250929050565b60006113c56001600160a01b03841683611591565b905080516000141580156113ea5750808060200190518101906113e891906119e3565b155b1561141357604051635274afe760e01b81526001600160a01b03841660048201526024016103a2565b505050565b600080600061142785856112e2565b509050600080876001600160a01b0316630902f1ac6040518163ffffffff1660e01b8152600401606060405180830381865afa15801561146b573d6000803e3d6000fd5b505050506040513d601f19601f8201168201806040525081019061148f9190611b30565b506001600160701b031691506001600160701b03169150826001600160a01b0316876001600160a01b0316146114c65780826114c9565b81815b90999098509650505050505050565b600080841161151f5760405162461bcd60e51b8152602060048201526013602482015272125394d551919250d251539517d05353d55395606a1b60448201526064016103a2565b60008311801561152f5750600082115b6115745760405162461bcd60e51b8152602060048201526016602482015275494e53554646494349454e545f4c495155494449545960501b60448201526064016103a2565b8261157f8386611bdb565b6115899190611bf2565b949350505050565b606061159f838360006115a8565b90505b92915050565b6060814710156115cd5760405163cd78605960e01b81523060048201526024016103a2565b600080856001600160a01b031684866040516115e99190611c14565b60006040518083038185875af1925050503d8060008114611626576040519150601f19603f3d011682016040523d82523d6000602084013e61162b565b606091505b509150915061163b868383611647565b925050505b9392505050565b60608261165c57611657826116a3565b611640565b815115801561167357506001600160a01b0384163b155b1561169c57604051639996b31560e01b81526001600160a01b03851660048201526024016103a2565b5080611640565b8051156116b35780518082602001fd5b604051630a12f52160e11b815260040160405180910390fd5b50565b6001600160a01b03811681146116cc57600080fd5b80356116ef816116cf565b919050565b63ffffffff811681146116cc57600080fd5b60008060008060008060c0878903121561171f57600080fd5b863561172a816116cf565b9550602087013594506040870135935060608701359250608087013561174f816116cf565b915060a087013561175f816116f4565b809150509295509295509295565b60008060006060848603121561178257600080fd5b833561178d816116cf565b92506020840135915060408401356117a4816116cf565b809150509250925092565b600061010082840312156117c257600080fd5b50919050565b6000602082840312156117da57600080fd5b5035919050565b600080600080600080600060e0888a0312156117fc57600080fd5b8735611807816116cf565b96506020880135611817816116cf565b955060408801359450606088013593506080880135925060a088013561183c816116cf565b915060c088013561184c816116f4565b8091505092959891949750929550565b6001600160701b03811681146116cc57600080fd5b60008060008060008060a0878903121561188a57600080fd5b86356118958161185c565b955060208701356118a58161185c565b9450604087013567ffffffffffffffff808211156118c257600080fd5b818901915089601f8301126118d657600080fd5b8135818111156118e557600080fd5b8a60208260051b85010111156118fa57600080fd5b602083019650809550505050611912606088016116e4565b9150608087013590509295509295509295565b60006020828403121561193757600080fd5b8135611640816116cf565b602080825282518282018190526000919060409081850190868401855b828110156119d657815180516001600160a01b039081168652878201518116888701528682015116868601526060808201516001600160701b03908116918701919091526080808301519091169086015260a0808201519086015260c0908101519085015260e0909301929085019060010161195f565b5091979650505050505050565b6000602082840312156119f557600080fd5b8151801515811461164057600080fd5b60008060408385031215611a1857600080fd5b8251611a238161185c565b6020840151909250611a348161185c565b809150509250929050565b60208082526016908201527508125394d551919250d251539517d057d05353d5539560521b604082015260600190565b60208082526016908201527508125394d551919250d251539517d097d05353d5539560521b604082015260600190565b600060208284031215611ab157600080fd5b8151611640816116cf565b600060208284031215611ace57600080fd5b5051919050565b634e487b7160e01b600052603260045260246000fd5b634e487b7160e01b600052604160045260246000fd5b60008060408385031215611b1457600080fd5b8251611b1f816116cf565b6020840151909250611a34816116cf565b600080600060608486031215611b4557600080fd5b8351611b508161185c565b6020850151909350611b618161185c565b60408501519092506117a4816116f4565b60008060408385031215611b8557600080fd5b505080516020909101519092909150565b634e487b7160e01b600052601160045260246000fd5b600060018201611bbe57611bbe611b96565b5060010190565b634e487b7160e01b600052600160045260246000fd5b80820281158282048414176115a2576115a2611b96565b600082611c0f57634e487b7160e01b600052601260045260246000fd5b500490565b6000825160005b81811015611c355760208186018101518583015201611c1b565b50600092019182525091905056fea26469706673582212202f0c78646b8b95dc7b235992e67f2554e508ca2596d10be61f3f0695f279448464736f6c63430008140033",
  "linkReferences": {},
  "deployedLinkReferences": {}
}