{
  "_format": "hh-sol-artifact-1",
  "contractName": "LRouter",
  "sourceName": "contracts/periphery/LRouter.sol",
  "abi": [
    {
      "inputs": [
        {
          "internalType": "address",
          "name": "factory",
          "type": "address"
        },
        {
          "internalType": "address",
          "name": "weth",
          "type": "address"
        }
      ],
      "stateMutability": "nonpayable",
      "type": "constructor"
    },
    {
      "inputs": [
        {
          "internalType": "address",
          "name": "target",
          "type": "address"
        }
      ],
      "name": "AddressEmptyCode",
      "type": "error"
    },
    {
      "inputs": [
        {
          "internalType": "address",
          "name": "account",
          "type": "address"
        }
      ],
      "name": "AddressInsufficientBalance",
      "type": "error"
    },
    {
      "inputs": [],
      "name": "Expired",
      "type": "error"
    },
    {
      "inputs": [],
      "name": "FailedInnerCall",
      "type": "error"
    },
    {
      "inputs": [],
      "name": "ReentrancyGuardReentrantCall",
      "type": "error"
    },
    {
      "inputs": [
        {
          "internalType": "address",
          "name": "token",
          "type": "address"
        }
      ],
      "name": "SafeERC20FailedOperation",
      "type": "error"
    },
    {
      "inputs": [],
      "name": "FACTORY",
      "outputs": [
        {
          "internalType": "address",
          "name": "",
          "type": "address"
        }
      ],
      "stateMutability": "view",
      "type": "function"
    },
    {
      "inputs": [
        {
          "components": [
            {
              "internalType": "address",
              "name": "tokenA",
              "type": "address"
            },
            {
              "internalType": "address",
              "name": "tokenB",
              "type": "address"
            },
            {
              "internalType": "uint256",
              "name": "amountADesired",
              "type": "uint256"
            },
            {
              "internalType": "uint256",
              "name": "amountBDesired",
              "type": "uint256"
            },
            {
              "internalType": "uint256",
              "name": "amountAMin",
              "type": "uint256"
            },
            {
              "internalType": "uint256",
              "name": "amountBMin",
              "type": "uint256"
            },
            {
              "internalType": "address",
              "name": "to",
              "type": "address"
            },
            {
              "internalType": "uint256",
              "name": "deadline",
              "type": "uint256"
            }
          ],
          "internalType": "struct LRouter.AddLiquidity",
          "name": "params",
          "type": "tuple"
        }
      ],
      "name": "addLiquidity",
      "outputs": [
        {
          "internalType": "uint256",
          "name": "amountA",
          "type": "uint256"
        },
        {
          "internalType": "uint256",
          "name": "amountB",
          "type": "uint256"
        },
        {
          "internalType": "uint256",
          "name": "liquidity",
          "type": "uint256"
        },
        {
          "internalType": "address",
          "name": "pair",
          "type": "address"
        }
      ],
      "stateMutability": "nonpayable",
      "type": "function"
    },
    {
      "inputs": [
        {
          "internalType": "uint256",
          "name": "",
          "type": "uint256"
        }
      ],
      "name": "collateralPools",
      "outputs": [
        {
          "internalType": "address",
          "name": "",
          "type": "address"
        }
      ],
      "stateMutability": "view",
      "type": "function"
    },
    {
      "inputs": [
        {
          "internalType": "contract IERC20",
          "name": "token",
          "type": "address"
        },
        {
          "internalType": "uint256",
          "name": "assets",
          "type": "uint256"
        },
        {
          "internalType": "address",
          "name": "receiver",
          "type": "address"
        }
      ],
      "name": "depositCollateral",
      "outputs": [
        {
          "internalType": "uint256",
          "name": "amountA",
          "type": "uint256"
        },
        {
          "internalType": "uint256",
          "name": "amountB",
          "type": "uint256"
        },
        {
          "internalType": "address",
          "name": "pair",
          "type": "address"
        }
      ],
      "stateMutability": "nonpayable",
      "type": "function"
    },
    {
      "inputs": [
        {
          "internalType": "address",
          "name": "owner",
          "type": "address"
        }
      ],
      "name": "getAmmPools",
      "outputs": [
        {
          "components": [
            {
              "internalType": "address",
              "name": "pool",
              "type": "address"
            },
            {
              "internalType": "address",
              "name": "token0",
              "type": "address"
            },
            {
              "internalType": "address",
              "name": "token1",
              "type": "address"
            },
            {
              "internalType": "uint112",
              "name": "reserve0",
              "type": "uint112"
            },
            {
              "internalType": "uint112",
              "name": "reserve1",
              "type": "uint112"
            }
          ],
          "internalType": "struct LRouter.Pool[]",
          "name": "allPools",
          "type": "tuple[]"
        }
      ],
      "stateMutability": "nonpayable",
      "type": "function"
    },
    {
      "inputs": [
        {
          "internalType": "uint256",
          "name": "",
          "type": "uint256"
        }
      ],
      "name": "pools",
      "outputs": [
        {
          "internalType": "address",
          "name": "",
          "type": "address"
        }
      ],
      "stateMutability": "view",
      "type": "function"
    },
    {
      "inputs": [
        {
          "internalType": "address",
          "name": "tokenA",
          "type": "address"
        },
        {
          "internalType": "address",
          "name": "tokenB",
          "type": "address"
        },
        {
          "internalType": "uint256",
          "name": "liquidity",
          "type": "uint256"
        },
        {
          "internalType": "uint256",
          "name": "amountAMin",
          "type": "uint256"
        },
        {
          "internalType": "uint256",
          "name": "amountBMin",
          "type": "uint256"
        },
        {
          "internalType": "address",
          "name": "to",
          "type": "address"
        },
        {
          "internalType": "uint256",
          "name": "deadline",
          "type": "uint256"
        }
      ],
      "name": "removeLiquidity",
      "outputs": [
        {
          "internalType": "uint256",
          "name": "amountA",
          "type": "uint256"
        },
        {
          "internalType": "uint256",
          "name": "amountB",
          "type": "uint256"
        }
      ],
      "stateMutability": "nonpayable",
      "type": "function"
    },
    {
      "inputs": [
        {
          "internalType": "uint112",
          "name": "amountIn",
          "type": "uint112"
        },
        {
          "internalType": "uint112",
          "name": "amountOutMin",
          "type": "uint112"
        },
        {
          "internalType": "address[]",
          "name": "path",
          "type": "address[]"
        },
        {
          "internalType": "address",
          "name": "to",
          "type": "address"
        },
        {
          "internalType": "uint256",
          "name": "deadline",
          "type": "uint256"
        }
      ],
      "name": "swapExactTokenForToken",
      "outputs": [],
      "stateMutability": "nonpayable",
      "type": "function"
    },
    {
      "stateMutability": "payable",
      "type": "receive"
    }
  ],
  "bytecode": "0x60a06040523480156200001157600080fd5b5060405162001aa638038062001aa6833981016040819052620000349162000069565b5060016000556001600160a01b0316608052620000a1565b80516001600160a01b03811681146200006457600080fd5b919050565b600080604083850312156200007d57600080fd5b62000088836200004c565b915062000098602084016200004c565b90509250929050565b6080516119b8620000ee6000396000818161012f01528181610255015281816102fc015281816103a7015281816106eb015281816109c501528181610e170152610ee201526119b86000f3fe60806040526004361061007f5760003560e01c8063ac4afa381161004e578063ac4afa3814610189578063baa2abde146101a9578063e00f6f67146101de578063f96bd4641461020057600080fd5b8063224254801461008b57806323790216146100d45780632dd310001461011d5780636dbe4ef21461016957600080fd5b3661008657005b600080fd5b34801561009757600080fd5b506100ab6100a6366004611546565b61022d565b6040805193845260208401929092526001600160a01b0316908201526060015b60405180910390f35b3480156100e057600080fd5b506100f46100ef366004611588565b610559565b604080519485526020850193909352918301526001600160a01b031660608201526080016100cb565b34801561012957600080fd5b506101517f000000000000000000000000000000000000000000000000000000000000000081565b6040516001600160a01b0390911681526020016100cb565b34801561017557600080fd5b506101516101843660046115a1565b610662565b34801561019557600080fd5b506101516101a43660046115a1565b61068c565b3480156101b557600080fd5b506101c96101c43660046115ba565b61069c565b604080519283526020830191909152016100cb565b3480156101ea57600080fd5b506101fe6101f9366004611641565b610938565b005b34801561020c57600080fd5b5061022061021b3660046116f5565b610b98565b6040516100cb9190611712565b60405163292979d160e11b81526001600160a01b0384811660048301526000918291829182917f00000000000000000000000000000000000000000000000000000000000000001690635252f3a290602401602060405180830381865afa15801561029c573d6000803e3d6000fd5b505050506040513d601f19601f820116820180604052508101906102c0919061179d565b90506102d76001600160a01b038816333089610da7565b6001600160a01b0381166104665760405163095ea7b360e01b81526001600160a01b037f0000000000000000000000000000000000000000000000000000000000000000811660048301526024820188905288169063095ea7b3906044016020604051808303816000875af1158015610354573d6000803e3d6000fd5b505050506040513d601f19601f8201168201806040525081019061037891906117ba565b506040516318815cb760e01b81526001600160a01b0388811660048301526024820188905286811660448301527f000000000000000000000000000000000000000000000000000000000000000016906318815cb7906064016020604051808303816000875af11580156103f0573d6000803e3d6000fd5b505050506040513d601f19601f82011682018060405250810190610414919061179d565b600280546001810182556000919091527f405787fa12a823e0f2b7631cc41b3ba8828b3321ca811111fa75cd3aa3bb5ace0180546001600160a01b0319166001600160a01b038316179055905061054f565b60405163095ea7b360e01b81526001600160a01b0382811660048301526024820188905288169063095ea7b3906044016020604051808303816000875af11580156104b5573d6000803e3d6000fd5b505050506040513d601f19601f820116820180604052508101906104d991906117ba565b50604051636e553f6560e01b8152600481018790526001600160a01b038681166024830152821690636e553f65906044016020604051808303816000875af1158015610529573d6000803e3d6000fd5b505050506040513d601f19601f8201168201806040525081019061054d91906117dc565b505b5093509350939050565b6000806000808460e001358042111561058557604051630407b05b60e31b815260040160405180910390fd5b61058e86610e07565b919650945091506105b93383876105a860208b018b6116f5565b6001600160a01b0316929190610da7565b6105cf3383866105a860408b0160208c016116f5565b6001600160a01b038216636a6278426105ee60e0890160c08a016116f5565b6040516001600160e01b031960e084901b1681526001600160a01b0390911660048201526024016020604051808303816000875af1158015610634573d6000803e3d6000fd5b505050506040513d601f19601f8201168201806040525081019061065891906117dc565b9250509193509193565b6002818154811061067257600080fd5b6000918252602090912001546001600160a01b0316905081565b6001818154811061067257600080fd5b60008082804211156106c157604051630407b05b60e31b815260040160405180910390fd5b60405163298d501f60e11b81526001600160a01b038b811660048301528a811660248301526000917f00000000000000000000000000000000000000000000000000000000000000009091169063531aa03e90604401602060405180830381865afa158015610734573d6000803e3d6000fd5b505050506040513d601f19601f82011682018060405250810190610758919061179d565b6040516323b872dd60e01b81523360048201526001600160a01b03821660248201819052604482018c90529192506323b872dd906064016020604051808303816000875af11580156107ae573d6000803e3d6000fd5b505050506040513d601f19601f820116820180604052508101906107d291906117ba565b5060405163226bf2d160e21b81526001600160a01b03878116600483015260009182918416906389afcb449060240160408051808303816000875af115801561081f573d6000803e3d6000fd5b505050506040513d601f19601f8201168201806040525081019061084391906117f5565b6001600160701b031691506001600160701b0316915060006108658e8e611134565b509050806001600160a01b03168e6001600160a01b03161461088857818361088b565b82825b90975095508a8710156108de5760405162461bcd60e51b815260206004820152601660248201527508125394d551919250d251539517d057d05353d5539560521b60448201526064015b60405180910390fd5b898610156109275760405162461bcd60e51b815260206004820152601660248201527508125394d551919250d251539517d097d05353d5539560521b60448201526064016108d5565b505050505097509795505050505050565b808042111561095a57604051630407b05b60e31b815260040160405180910390fd5b60008585600181811061096f5761096f61182f565b905060200201602081019061098491906116f5565b6001600160a01b0316868660008181106109a0576109a061182f565b90506020020160208101906109b591906116f5565b6001600160a01b031611905060007f00000000000000000000000000000000000000000000000000000000000000006001600160a01b031663531aa03e88886000818110610a0557610a0561182f565b9050602002016020810190610a1a91906116f5565b89896001818110610a2d57610a2d61182f565b9050602002016020810190610a4291906116f5565b6040516001600160e01b031960e085901b1681526001600160a01b03928316600482015291166024820152604401602060405180830381865afa158015610a8d573d6000803e3d6000fd5b505050506040513d601f19601f82011682018060405250810190610ab1919061179d565b9050610aea33828b6001600160701b03168a8a6000818110610ad557610ad561182f565b90506020020160208101906105a891906116f5565b8760008084610afb57826000610aff565b6000835b60405163681e0f6360e11b81526001600160701b038084166004830152821660248201526001600160a01b038b811660448301529294509092509085169063d03c1ec69060640160408051808303816000875af1158015610b64573d6000803e3d6000fd5b505050506040513d601f19601f82011682018060405250810190610b8891906117f5565b5050505050505050505050505050565b6001546060908067ffffffffffffffff811115610bb757610bb7611845565b604051908082528060200260200182016040528015610c1057816020015b6040805160a081018252600080825260208083018290529282018190526060820181905260808201528252600019909201910181610bd55790505b50915060005b81811015610da057600060018281548110610c3357610c3361182f565b60009182526020822001546040805163154d950160e31b815281516001600160a01b0390931694508392859263aa6ca80892600480820193918290030181865afa158015610c85573d6000803e3d6000fd5b505050506040513d601f19601f82011682018060405250810190610ca9919061185b565b91509150600080846001600160a01b0316630902f1ac6040518163ffffffff1660e01b8152600401606060405180830381865afa158015610cee573d6000803e3d6000fd5b505050506040513d601f19601f82011682018060405250810190610d12919061188a565b50915091506040518060a00160405280866001600160a01b03168152602001856001600160a01b03168152602001846001600160a01b03168152602001836001600160701b03168152602001826001600160701b0316815250888781518110610d7d57610d7d61182f565b602002602001018190525050505050508080610d98906118eb565b915050610c16565b5050919050565b604080516001600160a01b0385811660248301528416604482015260648082018490528251808303909101815260849091019091526020810180516001600160e01b03166323b872dd60e01b179052610e01908590611202565b50505050565b6000808080806001600160a01b037f00000000000000000000000000000000000000000000000000000000000000001663531aa03e610e4960208901896116f5565b610e5960408a0160208b016116f5565b6040516001600160e01b031960e085901b1681526001600160a01b03928316600482015291166024820152604401602060405180830381865afa158015610ea4573d6000803e3d6000fd5b505050506040513d601f19601f82011682018060405250810190610ec8919061179d565b92506001600160a01b038316610fe2576001600160a01b037f00000000000000000000000000000000000000000000000000000000000000001663c9c65396610f1460208901896116f5565b610f2460408a0160208b016116f5565b6040516001600160e01b031960e085901b1681526001600160a01b039283166004820152911660248201526044016020604051808303816000875af1158015610f71573d6000803e3d6000fd5b505050506040513d601f19601f82011682018060405250810190610f95919061179d565b6001805480820182556000919091527fb10e2d527612073b26eecdfd717e6a320cf44b4afac2b0732d9fcbe2b7fa0cf60180546001600160a01b0319166001600160a01b03831617905592505b61100883610ff360208901896116f5565b61100360408a0160208b016116f5565b61126a565b909250905081158015611019575080155b1561103157604086013594506060860135935061112b565b60006110428760400135848461132a565b9050866060013581116110ab578660a0013581101561109c5760405162461bcd60e51b815260206004820152601660248201527508125394d551919250d251539517d097d05353d5539560521b60448201526064016108d5565b60408701359550935083611129565b60006110bc8860600135848661132a565b905087604001358111156110d2576110d2611904565b876080013581101561111f5760405162461bcd60e51b815260206004820152601660248201527508125394d551919250d251539517d057d05353d5539560521b60448201526064016108d5565b9550606087013594505b505b50509193909250565b600080826001600160a01b0316846001600160a01b03160361118e5760405162461bcd60e51b81526020600482015260136024820152724944454e544943414c5f41444452455353455360681b60448201526064016108d5565b826001600160a01b0316846001600160a01b0316106111ae5782846111b1565b83835b90925090506001600160a01b0382166111fb5760405162461bcd60e51b815260206004820152600c60248201526b5a45524f5f4144445245535360a01b60448201526064016108d5565b9250929050565b60006112176001600160a01b038416836113e3565b9050805160001415801561123c57508080602001905181019061123a91906117ba565b155b1561126557604051635274afe760e01b81526001600160a01b03841660048201526024016108d5565b505050565b60008060006112798585611134565b509050600080876001600160a01b0316630902f1ac6040518163ffffffff1660e01b8152600401606060405180830381865afa1580156112bd573d6000803e3d6000fd5b505050506040513d601f19601f820116820180604052508101906112e1919061188a565b506001600160701b031691506001600160701b03169150826001600160a01b0316876001600160a01b03161461131857808261131b565b81815b90999098509650505050505050565b60008084116113715760405162461bcd60e51b8152602060048201526013602482015272125394d551919250d251539517d05353d55395606a1b60448201526064016108d5565b6000831180156113815750600082115b6113c65760405162461bcd60e51b8152602060048201526016602482015275494e53554646494349454e545f4c495155494449545960501b60448201526064016108d5565b826113d1838661191a565b6113db9190611931565b949350505050565b60606113f1838360006113fa565b90505b92915050565b60608147101561141f5760405163cd78605960e01b81523060048201526024016108d5565b600080856001600160a01b0316848660405161143b9190611953565b60006040518083038185875af1925050503d8060008114611478576040519150601f19603f3d011682016040523d82523d6000602084013e61147d565b606091505b509150915061148d868383611499565b925050505b9392505050565b6060826114ae576114a9826114f5565b611492565b81511580156114c557506001600160a01b0384163b155b156114ee57604051639996b31560e01b81526001600160a01b03851660048201526024016108d5565b5080611492565b8051156115055780518082602001fd5b604051630a12f52160e11b815260040160405180910390fd5b50565b6001600160a01b038116811461151e57600080fd5b803561154181611521565b919050565b60008060006060848603121561155b57600080fd5b833561156681611521565b925060208401359150604084013561157d81611521565b809150509250925092565b6000610100828403121561159b57600080fd5b50919050565b6000602082840312156115b357600080fd5b5035919050565b600080600080600080600060e0888a0312156115d557600080fd5b87356115e081611521565b965060208801356115f081611521565b955060408801359450606088013593506080880135925060a088013561161581611521565b8092505060c0880135905092959891949750929550565b6001600160701b038116811461151e57600080fd5b60008060008060008060a0878903121561165a57600080fd5b86356116658161162c565b955060208701356116758161162c565b9450604087013567ffffffffffffffff8082111561169257600080fd5b818901915089601f8301126116a657600080fd5b8135818111156116b557600080fd5b8a60208260051b85010111156116ca57600080fd5b6020830196508095505050506116e260608801611536565b9150608087013590509295509295509295565b60006020828403121561170757600080fd5b813561149281611521565b602080825282518282018190526000919060409081850190868401855b8281101561179057815180516001600160a01b039081168652878201518116888701528682015116868601526060808201516001600160701b0390811691870191909152608091820151169085015260a0909301929085019060010161172f565b5091979650505050505050565b6000602082840312156117af57600080fd5b815161149281611521565b6000602082840312156117cc57600080fd5b8151801515811461149257600080fd5b6000602082840312156117ee57600080fd5b5051919050565b6000806040838503121561180857600080fd5b82516118138161162c565b60208401519092506118248161162c565b809150509250929050565b634e487b7160e01b600052603260045260246000fd5b634e487b7160e01b600052604160045260246000fd5b6000806040838503121561186e57600080fd5b825161187981611521565b602084015190925061182481611521565b60008060006060848603121561189f57600080fd5b83516118aa8161162c565b60208501519093506118bb8161162c565b604085015190925063ffffffff8116811461157d57600080fd5b634e487b7160e01b600052601160045260246000fd5b6000600182016118fd576118fd6118d5565b5060010190565b634e487b7160e01b600052600160045260246000fd5b80820281158282048414176113f4576113f46118d5565b60008261194e57634e487b7160e01b600052601260045260246000fd5b500490565b6000825160005b81811015611974576020818601810151858301520161195a565b50600092019182525091905056fea26469706673582212202ba4ff80561446709d80935d989c099d490cb55dfd7414c1429144d4f36c278664736f6c63430008140033",
  "linkReferences": {},
  "deployedLinkReferences": {}
}