{
  "_format": "hh-sol-artifact-1",
  "contractName": "LRouter",
  "sourceName": "contracts/periphery/LRouter.sol",
  "abi": [
    {
      "inputs": [
        {
          "internalType": "address",
          "name": "factory",
          "type": "address"
        },
        {
          "internalType": "address",
          "name": "weth",
          "type": "address"
        }
      ],
      "stateMutability": "nonpayable",
      "type": "constructor"
    },
    {
      "inputs": [
        {
          "internalType": "address",
          "name": "target",
          "type": "address"
        }
      ],
      "name": "AddressEmptyCode",
      "type": "error"
    },
    {
      "inputs": [
        {
          "internalType": "address",
          "name": "account",
          "type": "address"
        }
      ],
      "name": "AddressInsufficientBalance",
      "type": "error"
    },
    {
      "inputs": [],
      "name": "Expired",
      "type": "error"
    },
    {
      "inputs": [],
      "name": "FailedInnerCall",
      "type": "error"
    },
    {
      "inputs": [],
      "name": "ReentrancyGuardReentrantCall",
      "type": "error"
    },
    {
      "inputs": [
        {
          "internalType": "address",
          "name": "token",
          "type": "address"
        }
      ],
      "name": "SafeERC20FailedOperation",
      "type": "error"
    },
    {
      "inputs": [],
      "name": "FACTORY",
      "outputs": [
        {
          "internalType": "address",
          "name": "",
          "type": "address"
        }
      ],
      "stateMutability": "view",
      "type": "function"
    },
    {
      "inputs": [
        {
          "components": [
            {
              "internalType": "address",
              "name": "tokenA",
              "type": "address"
            },
            {
              "internalType": "address",
              "name": "tokenB",
              "type": "address"
            },
            {
              "internalType": "uint256",
              "name": "amountADesired",
              "type": "uint256"
            },
            {
              "internalType": "uint256",
              "name": "amountBDesired",
              "type": "uint256"
            },
            {
              "internalType": "uint256",
              "name": "amountAMin",
              "type": "uint256"
            },
            {
              "internalType": "uint256",
              "name": "amountBMin",
              "type": "uint256"
            },
            {
              "internalType": "address",
              "name": "to",
              "type": "address"
            },
            {
              "internalType": "uint256",
              "name": "deadline",
              "type": "uint256"
            }
          ],
          "internalType": "struct LRouter.AddLiquidity",
          "name": "params",
          "type": "tuple"
        }
      ],
      "name": "addLiquidity",
      "outputs": [
        {
          "internalType": "uint256",
          "name": "amountA",
          "type": "uint256"
        },
        {
          "internalType": "uint256",
          "name": "amountB",
          "type": "uint256"
        },
        {
          "internalType": "uint256",
          "name": "liquidity",
          "type": "uint256"
        },
        {
          "internalType": "address",
          "name": "pair",
          "type": "address"
        }
      ],
      "stateMutability": "nonpayable",
      "type": "function"
    },
    {
      "inputs": [
        {
          "internalType": "uint256",
          "name": "",
          "type": "uint256"
        }
      ],
      "name": "collateralPools",
      "outputs": [
        {
          "internalType": "address",
          "name": "",
          "type": "address"
        }
      ],
      "stateMutability": "view",
      "type": "function"
    },
    {
      "inputs": [
        {
          "internalType": "contract IERC20",
          "name": "token",
          "type": "address"
        },
        {
          "internalType": "uint256",
          "name": "assets",
          "type": "uint256"
        },
        {
          "internalType": "address",
          "name": "receiver",
          "type": "address"
        }
      ],
      "name": "depositCollateral",
      "outputs": [
        {
          "internalType": "uint256",
          "name": "amountA",
          "type": "uint256"
        },
        {
          "internalType": "uint256",
          "name": "amountB",
          "type": "uint256"
        },
        {
          "internalType": "address",
          "name": "pair",
          "type": "address"
        }
      ],
      "stateMutability": "nonpayable",
      "type": "function"
    },
    {
      "inputs": [
        {
          "internalType": "address",
          "name": "owner",
          "type": "address"
        }
      ],
      "name": "getAmmPools",
      "outputs": [
        {
          "components": [
            {
              "internalType": "address",
              "name": "pool",
              "type": "address"
            },
            {
              "internalType": "address",
              "name": "token0",
              "type": "address"
            },
            {
              "internalType": "address",
              "name": "token1",
              "type": "address"
            },
            {
              "internalType": "uint112",
              "name": "reserve0",
              "type": "uint112"
            },
            {
              "internalType": "uint112",
              "name": "reserve1",
              "type": "uint112"
            }
          ],
          "internalType": "struct LRouter.Pool[]",
          "name": "allPools",
          "type": "tuple[]"
        }
      ],
      "stateMutability": "nonpayable",
      "type": "function"
    },
    {
      "inputs": [
        {
          "internalType": "uint256",
          "name": "",
          "type": "uint256"
        }
      ],
      "name": "pools",
      "outputs": [
        {
          "internalType": "address",
          "name": "",
          "type": "address"
        }
      ],
      "stateMutability": "view",
      "type": "function"
    },
    {
      "inputs": [
        {
          "internalType": "address",
          "name": "tokenA",
          "type": "address"
        },
        {
          "internalType": "address",
          "name": "tokenB",
          "type": "address"
        },
        {
          "internalType": "uint256",
          "name": "liquidity",
          "type": "uint256"
        },
        {
          "internalType": "uint256",
          "name": "amountAMin",
          "type": "uint256"
        },
        {
          "internalType": "uint256",
          "name": "amountBMin",
          "type": "uint256"
        },
        {
          "internalType": "address",
          "name": "to",
          "type": "address"
        },
        {
          "internalType": "uint256",
          "name": "deadline",
          "type": "uint256"
        }
      ],
      "name": "removeLiquidity",
      "outputs": [
        {
          "internalType": "uint256",
          "name": "amountA",
          "type": "uint256"
        },
        {
          "internalType": "uint256",
          "name": "amountB",
          "type": "uint256"
        }
      ],
      "stateMutability": "nonpayable",
      "type": "function"
    },
    {
      "inputs": [
        {
          "internalType": "uint112",
          "name": "amountIn",
          "type": "uint112"
        },
        {
          "internalType": "uint112",
          "name": "amountOutMin",
          "type": "uint112"
        },
        {
          "internalType": "address[]",
          "name": "path",
          "type": "address[]"
        },
        {
          "internalType": "address",
          "name": "to",
          "type": "address"
        },
        {
          "internalType": "uint32",
          "name": "deadline",
          "type": "uint32"
        }
      ],
      "name": "swapExactTokenForToken",
      "outputs": [],
      "stateMutability": "nonpayable",
      "type": "function"
    },
    {
      "stateMutability": "payable",
      "type": "receive"
    }
  ],
  "bytecode": "0x60a06040523480156200001157600080fd5b5060405162001ac738038062001ac7833981016040819052620000349162000069565b5060016000556001600160a01b0316608052620000a1565b80516001600160a01b03811681146200006457600080fd5b919050565b600080604083850312156200007d57600080fd5b62000088836200004c565b915062000098602084016200004c565b90509250929050565b6080516119d9620000ee6000396000818161012f01528181610255015281816102fc015281816103a7015281816106f50152818161095101528181610e1d0152610ee801526119d96000f3fe60806040526004361061007f5760003560e01c80636dbe4ef21161004e5780636dbe4ef21461018b578063ac4afa38146101ab578063baa2abde146101cb578063f96bd4641461020057600080fd5b8063224254801461008b57806323790216146100d45780632dd310001461011d578063321692ef1461016957600080fd5b3661008657005b600080fd5b34801561009757600080fd5b506100ab6100a636600461154c565b61022d565b6040805193845260208401929092526001600160a01b0316908201526060015b60405180910390f35b3480156100e057600080fd5b506100f46100ef36600461158e565b610559565b604080519485526020850193909352918301526001600160a01b031660608201526080016100cb565b34801561012957600080fd5b506101517f000000000000000000000000000000000000000000000000000000000000000081565b6040516001600160a01b0390911681526020016100cb565b34801561017557600080fd5b506101896101843660046115d9565b610662565b005b34801561019757600080fd5b506101516101a6366004611694565b6108c8565b3480156101b757600080fd5b506101516101c6366004611694565b6108f2565b3480156101d757600080fd5b506101eb6101e63660046116ad565b610902565b604080519283526020830191909152016100cb565b34801561020c57600080fd5b5061022061021b36600461171f565b610b9e565b6040516100cb919061173c565b60405163292979d160e11b81526001600160a01b0384811660048301526000918291829182917f00000000000000000000000000000000000000000000000000000000000000001690635252f3a290602401602060405180830381865afa15801561029c573d6000803e3d6000fd5b505050506040513d601f19601f820116820180604052508101906102c091906117c7565b90506102d76001600160a01b038816333089610dad565b6001600160a01b0381166104665760405163095ea7b360e01b81526001600160a01b037f0000000000000000000000000000000000000000000000000000000000000000811660048301526024820188905288169063095ea7b3906044016020604051808303816000875af1158015610354573d6000803e3d6000fd5b505050506040513d601f19601f8201168201806040525081019061037891906117e4565b506040516318815cb760e01b81526001600160a01b0388811660048301526024820188905286811660448301527f000000000000000000000000000000000000000000000000000000000000000016906318815cb7906064016020604051808303816000875af11580156103f0573d6000803e3d6000fd5b505050506040513d601f19601f8201168201806040525081019061041491906117c7565b600280546001810182556000919091527f405787fa12a823e0f2b7631cc41b3ba8828b3321ca811111fa75cd3aa3bb5ace0180546001600160a01b0319166001600160a01b038316179055905061054f565b60405163095ea7b360e01b81526001600160a01b0382811660048301526024820188905288169063095ea7b3906044016020604051808303816000875af11580156104b5573d6000803e3d6000fd5b505050506040513d601f19601f820116820180604052508101906104d991906117e4565b50604051636e553f6560e01b8152600481018790526001600160a01b038681166024830152821690636e553f65906044016020604051808303816000875af1158015610529573d6000803e3d6000fd5b505050506040513d601f19601f8201168201806040525081019061054d9190611806565b505b5093509350939050565b6000806000808460e001358042111561058557604051630407b05b60e31b815260040160405180910390fd5b61058e86610e0d565b919650945091506105b93383876105a860208b018b61171f565b6001600160a01b0316929190610dad565b6105cf3383866105a860408b0160208c0161171f565b6001600160a01b038216636a6278426105ee60e0890160c08a0161171f565b6040516001600160e01b031960e084901b1681526001600160a01b0390911660048201526024016020604051808303816000875af1158015610634573d6000803e3d6000fd5b505050506040513d601f19601f820116820180604052508101906106589190611806565b9250509193509193565b8063ffffffff168042111561068a57604051630407b05b60e31b815260040160405180910390fd5b60008585600181811061069f5761069f61181f565b90506020020160208101906106b4919061171f565b6001600160a01b0316868660008181106106d0576106d061181f565b90506020020160208101906106e5919061171f565b6001600160a01b031611905060007f00000000000000000000000000000000000000000000000000000000000000006001600160a01b031663531aa03e888860008181106107355761073561181f565b905060200201602081019061074a919061171f565b8989600181811061075d5761075d61181f565b9050602002016020810190610772919061171f565b6040516001600160e01b031960e085901b1681526001600160a01b03928316600482015291166024820152604401602060405180830381865afa1580156107bd573d6000803e3d6000fd5b505050506040513d601f19601f820116820180604052508101906107e191906117c7565b905061081a33828b6001600160701b03168a8a60008181106108055761080561181f565b90506020020160208101906105a8919061171f565b876000808461082b5782600061082f565b6000835b60405163681e0f6360e11b81526001600160701b038084166004830152821660248201526001600160a01b038b811660448301529294509092509085169063d03c1ec69060640160408051808303816000875af1158015610894573d6000803e3d6000fd5b505050506040513d601f19601f820116820180604052508101906108b89190611835565b5050505050505050505050505050565b600281815481106108d857600080fd5b6000918252602090912001546001600160a01b0316905081565b600181815481106108d857600080fd5b600080828042111561092757604051630407b05b60e31b815260040160405180910390fd5b60405163298d501f60e11b81526001600160a01b038b811660048301528a811660248301526000917f00000000000000000000000000000000000000000000000000000000000000009091169063531aa03e90604401602060405180830381865afa15801561099a573d6000803e3d6000fd5b505050506040513d601f19601f820116820180604052508101906109be91906117c7565b6040516323b872dd60e01b81523360048201526001600160a01b03821660248201819052604482018c90529192506323b872dd906064016020604051808303816000875af1158015610a14573d6000803e3d6000fd5b505050506040513d601f19601f82011682018060405250810190610a3891906117e4565b5060405163226bf2d160e21b81526001600160a01b03878116600483015260009182918416906389afcb449060240160408051808303816000875af1158015610a85573d6000803e3d6000fd5b505050506040513d601f19601f82011682018060405250810190610aa99190611835565b6001600160701b031691506001600160701b031691506000610acb8e8e61113a565b509050806001600160a01b03168e6001600160a01b031614610aee578183610af1565b82825b90975095508a871015610b445760405162461bcd60e51b815260206004820152601660248201527508125394d551919250d251539517d057d05353d5539560521b60448201526064015b60405180910390fd5b89861015610b8d5760405162461bcd60e51b815260206004820152601660248201527508125394d551919250d251539517d097d05353d5539560521b6044820152606401610b3b565b505050505097509795505050505050565b6001546060908067ffffffffffffffff811115610bbd57610bbd61186f565b604051908082528060200260200182016040528015610c1657816020015b6040805160a081018252600080825260208083018290529282018190526060820181905260808201528252600019909201910181610bdb5790505b50915060005b81811015610da657600060018281548110610c3957610c3961181f565b60009182526020822001546040805163154d950160e31b815281516001600160a01b0390931694508392859263aa6ca80892600480820193918290030181865afa158015610c8b573d6000803e3d6000fd5b505050506040513d601f19601f82011682018060405250810190610caf9190611885565b91509150600080846001600160a01b0316630902f1ac6040518163ffffffff1660e01b8152600401606060405180830381865afa158015610cf4573d6000803e3d6000fd5b505050506040513d601f19601f82011682018060405250810190610d1891906118b4565b50915091506040518060a00160405280866001600160a01b03168152602001856001600160a01b03168152602001846001600160a01b03168152602001836001600160701b03168152602001826001600160701b0316815250888781518110610d8357610d8361181f565b602002602001018190525050505050508080610d9e9061190c565b915050610c1c565b5050919050565b604080516001600160a01b0385811660248301528416604482015260648082018490528251808303909101815260849091019091526020810180516001600160e01b03166323b872dd60e01b179052610e07908590611208565b50505050565b6000808080806001600160a01b037f00000000000000000000000000000000000000000000000000000000000000001663531aa03e610e4f602089018961171f565b610e5f60408a0160208b0161171f565b6040516001600160e01b031960e085901b1681526001600160a01b03928316600482015291166024820152604401602060405180830381865afa158015610eaa573d6000803e3d6000fd5b505050506040513d601f19601f82011682018060405250810190610ece91906117c7565b92506001600160a01b038316610fe8576001600160a01b037f00000000000000000000000000000000000000000000000000000000000000001663c9c65396610f1a602089018961171f565b610f2a60408a0160208b0161171f565b6040516001600160e01b031960e085901b1681526001600160a01b039283166004820152911660248201526044016020604051808303816000875af1158015610f77573d6000803e3d6000fd5b505050506040513d601f19601f82011682018060405250810190610f9b91906117c7565b6001805480820182556000919091527fb10e2d527612073b26eecdfd717e6a320cf44b4afac2b0732d9fcbe2b7fa0cf60180546001600160a01b0319166001600160a01b03831617905592505b61100e83610ff9602089018961171f565b61100960408a0160208b0161171f565b611270565b90925090508115801561101f575080155b15611037576040860135945060608601359350611131565b600061104887604001358484611330565b9050866060013581116110b1578660a001358110156110a25760405162461bcd60e51b815260206004820152601660248201527508125394d551919250d251539517d097d05353d5539560521b6044820152606401610b3b565b6040870135955093508361112f565b60006110c288606001358486611330565b905087604001358111156110d8576110d8611925565b87608001358110156111255760405162461bcd60e51b815260206004820152601660248201527508125394d551919250d251539517d057d05353d5539560521b6044820152606401610b3b565b9550606087013594505b505b50509193909250565b600080826001600160a01b0316846001600160a01b0316036111945760405162461bcd60e51b81526020600482015260136024820152724944454e544943414c5f41444452455353455360681b6044820152606401610b3b565b826001600160a01b0316846001600160a01b0316106111b45782846111b7565b83835b90925090506001600160a01b0382166112015760405162461bcd60e51b815260206004820152600c60248201526b5a45524f5f4144445245535360a01b6044820152606401610b3b565b9250929050565b600061121d6001600160a01b038416836113e9565b9050805160001415801561124257508080602001905181019061124091906117e4565b155b1561126b57604051635274afe760e01b81526001600160a01b0384166004820152602401610b3b565b505050565b600080600061127f858561113a565b509050600080876001600160a01b0316630902f1ac6040518163ffffffff1660e01b8152600401606060405180830381865afa1580156112c3573d6000803e3d6000fd5b505050506040513d601f19601f820116820180604052508101906112e791906118b4565b506001600160701b031691506001600160701b03169150826001600160a01b0316876001600160a01b03161461131e578082611321565b81815b90999098509650505050505050565b60008084116113775760405162461bcd60e51b8152602060048201526013602482015272125394d551919250d251539517d05353d55395606a1b6044820152606401610b3b565b6000831180156113875750600082115b6113cc5760405162461bcd60e51b8152602060048201526016602482015275494e53554646494349454e545f4c495155494449545960501b6044820152606401610b3b565b826113d7838661193b565b6113e19190611952565b949350505050565b60606113f783836000611400565b90505b92915050565b6060814710156114255760405163cd78605960e01b8152306004820152602401610b3b565b600080856001600160a01b031684866040516114419190611974565b60006040518083038185875af1925050503d806000811461147e576040519150601f19603f3d011682016040523d82523d6000602084013e611483565b606091505b509150915061149386838361149f565b925050505b9392505050565b6060826114b4576114af826114fb565b611498565b81511580156114cb57506001600160a01b0384163b155b156114f457604051639996b31560e01b81526001600160a01b0385166004820152602401610b3b565b5080611498565b80511561150b5780518082602001fd5b604051630a12f52160e11b815260040160405180910390fd5b50565b6001600160a01b038116811461152457600080fd5b803561154781611527565b919050565b60008060006060848603121561156157600080fd5b833561156c81611527565b925060208401359150604084013561158381611527565b809150509250925092565b600061010082840312156115a157600080fd5b50919050565b6001600160701b038116811461152457600080fd5b63ffffffff8116811461152457600080fd5b8035611547816115bc565b60008060008060008060a087890312156115f257600080fd5b86356115fd816115a7565b9550602087013561160d816115a7565b9450604087013567ffffffffffffffff8082111561162a57600080fd5b818901915089601f83011261163e57600080fd5b81358181111561164d57600080fd5b8a60208260051b850101111561166257600080fd5b60208301965080955050505061167a6060880161153c565b9150611688608088016115ce565b90509295509295509295565b6000602082840312156116a657600080fd5b5035919050565b600080600080600080600060e0888a0312156116c857600080fd5b87356116d381611527565b965060208801356116e381611527565b955060408801359450606088013593506080880135925060a088013561170881611527565b8092505060c0880135905092959891949750929550565b60006020828403121561173157600080fd5b813561149881611527565b602080825282518282018190526000919060409081850190868401855b828110156117ba57815180516001600160a01b039081168652878201518116888701528682015116868601526060808201516001600160701b0390811691870191909152608091820151169085015260a09093019290850190600101611759565b5091979650505050505050565b6000602082840312156117d957600080fd5b815161149881611527565b6000602082840312156117f657600080fd5b8151801515811461149857600080fd5b60006020828403121561181857600080fd5b5051919050565b634e487b7160e01b600052603260045260246000fd5b6000806040838503121561184857600080fd5b8251611853816115a7565b6020840151909250611864816115a7565b809150509250929050565b634e487b7160e01b600052604160045260246000fd5b6000806040838503121561189857600080fd5b82516118a381611527565b602084015190925061186481611527565b6000806000606084860312156118c957600080fd5b83516118d4816115a7565b60208501519093506118e5816115a7565b6040850151909250611583816115bc565b634e487b7160e01b600052601160045260246000fd5b60006001820161191e5761191e6118f6565b5060010190565b634e487b7160e01b600052600160045260246000fd5b80820281158282048414176113fa576113fa6118f6565b60008261196f57634e487b7160e01b600052601260045260246000fd5b500490565b6000825160005b81811015611995576020818601810151858301520161197b565b50600092019182525091905056fea26469706673582212202eac216ffbfef710fc43e46fc296f844a42cc4ad51db412861c6026777bb782364736f6c63430008140033",
  "linkReferences": {},
  "deployedLinkReferences": {}
}