{
  "_format": "hh-sol-artifact-1",
  "contractName": "LRouter",
  "sourceName": "contracts/periphery/LRouter.sol",
  "abi": [
    {
      "inputs": [
        {
          "internalType": "address",
          "name": "factory",
          "type": "address"
        },
        {
          "internalType": "address",
          "name": "weth",
          "type": "address"
        }
      ],
      "stateMutability": "nonpayable",
      "type": "constructor"
    },
    {
      "inputs": [
        {
          "internalType": "address",
          "name": "target",
          "type": "address"
        }
      ],
      "name": "AddressEmptyCode",
      "type": "error"
    },
    {
      "inputs": [
        {
          "internalType": "address",
          "name": "account",
          "type": "address"
        }
      ],
      "name": "AddressInsufficientBalance",
      "type": "error"
    },
    {
      "inputs": [],
      "name": "Expired",
      "type": "error"
    },
    {
      "inputs": [],
      "name": "FailedInnerCall",
      "type": "error"
    },
    {
      "inputs": [],
      "name": "ReentrancyGuardReentrantCall",
      "type": "error"
    },
    {
      "inputs": [
        {
          "internalType": "address",
          "name": "token",
          "type": "address"
        }
      ],
      "name": "SafeERC20FailedOperation",
      "type": "error"
    },
    {
      "inputs": [],
      "name": "FACTORY",
      "outputs": [
        {
          "internalType": "address",
          "name": "",
          "type": "address"
        }
      ],
      "stateMutability": "view",
      "type": "function"
    },
    {
      "inputs": [
        {
          "components": [
            {
              "internalType": "address",
              "name": "tokenA",
              "type": "address"
            },
            {
              "internalType": "address",
              "name": "tokenB",
              "type": "address"
            },
            {
              "internalType": "uint256",
              "name": "amountADesired",
              "type": "uint256"
            },
            {
              "internalType": "uint256",
              "name": "amountBDesired",
              "type": "uint256"
            },
            {
              "internalType": "uint256",
              "name": "amountAMin",
              "type": "uint256"
            },
            {
              "internalType": "uint256",
              "name": "amountBMin",
              "type": "uint256"
            },
            {
              "internalType": "address",
              "name": "to",
              "type": "address"
            },
            {
              "internalType": "uint256",
              "name": "deadline",
              "type": "uint256"
            }
          ],
          "internalType": "struct LRouter.AddLiquidity",
          "name": "params",
          "type": "tuple"
        }
      ],
      "name": "addLiquidity",
      "outputs": [
        {
          "internalType": "uint256",
          "name": "amountA",
          "type": "uint256"
        },
        {
          "internalType": "uint256",
          "name": "amountB",
          "type": "uint256"
        },
        {
          "internalType": "uint256",
          "name": "liquidity",
          "type": "uint256"
        },
        {
          "internalType": "address",
          "name": "pair",
          "type": "address"
        }
      ],
      "stateMutability": "nonpayable",
      "type": "function"
    },
    {
      "inputs": [
        {
          "internalType": "uint256",
          "name": "",
          "type": "uint256"
        }
      ],
      "name": "collateralPools",
      "outputs": [
        {
          "internalType": "address",
          "name": "",
          "type": "address"
        }
      ],
      "stateMutability": "view",
      "type": "function"
    },
    {
      "inputs": [
        {
          "internalType": "contract IERC20",
          "name": "token",
          "type": "address"
        },
        {
          "internalType": "uint256",
          "name": "assets",
          "type": "uint256"
        },
        {
          "internalType": "address",
          "name": "receiver",
          "type": "address"
        }
      ],
      "name": "depositCollateral",
      "outputs": [
        {
          "internalType": "uint256",
          "name": "amountA",
          "type": "uint256"
        },
        {
          "internalType": "uint256",
          "name": "amountB",
          "type": "uint256"
        },
        {
          "internalType": "address",
          "name": "pair",
          "type": "address"
        }
      ],
      "stateMutability": "nonpayable",
      "type": "function"
    },
    {
      "inputs": [
        {
          "internalType": "address",
          "name": "owner",
          "type": "address"
        }
      ],
      "name": "getAmmPools",
      "outputs": [
        {
          "components": [
            {
              "internalType": "address",
              "name": "pool",
              "type": "address"
            },
            {
              "internalType": "address",
              "name": "token0",
              "type": "address"
            },
            {
              "internalType": "address",
              "name": "token1",
              "type": "address"
            },
            {
              "internalType": "uint112",
              "name": "reserve0",
              "type": "uint112"
            },
            {
              "internalType": "uint112",
              "name": "reserve1",
              "type": "uint112"
            },
            {
              "internalType": "uint256",
              "name": "fee0",
              "type": "uint256"
            },
            {
              "internalType": "uint256",
              "name": "fee1",
              "type": "uint256"
            }
          ],
          "internalType": "struct LRouter.Pool[]",
          "name": "allPools",
          "type": "tuple[]"
        }
      ],
      "stateMutability": "nonpayable",
      "type": "function"
    },
    {
      "inputs": [
        {
          "internalType": "uint256",
          "name": "",
          "type": "uint256"
        }
      ],
      "name": "pools",
      "outputs": [
        {
          "internalType": "address",
          "name": "",
          "type": "address"
        }
      ],
      "stateMutability": "view",
      "type": "function"
    },
    {
      "inputs": [
        {
          "internalType": "address",
          "name": "tokenA",
          "type": "address"
        },
        {
          "internalType": "address",
          "name": "tokenB",
          "type": "address"
        },
        {
          "internalType": "uint256",
          "name": "liquidity",
          "type": "uint256"
        },
        {
          "internalType": "uint256",
          "name": "amountAMin",
          "type": "uint256"
        },
        {
          "internalType": "uint256",
          "name": "amountBMin",
          "type": "uint256"
        },
        {
          "internalType": "address",
          "name": "to",
          "type": "address"
        },
        {
          "internalType": "uint256",
          "name": "deadline",
          "type": "uint256"
        }
      ],
      "name": "removeLiquidity",
      "outputs": [
        {
          "internalType": "uint256",
          "name": "amountA",
          "type": "uint256"
        },
        {
          "internalType": "uint256",
          "name": "amountB",
          "type": "uint256"
        }
      ],
      "stateMutability": "nonpayable",
      "type": "function"
    },
    {
      "inputs": [
        {
          "internalType": "uint112",
          "name": "amountIn",
          "type": "uint112"
        },
        {
          "internalType": "uint112",
          "name": "amountOutMin",
          "type": "uint112"
        },
        {
          "internalType": "address[]",
          "name": "path",
          "type": "address[]"
        },
        {
          "internalType": "address",
          "name": "to",
          "type": "address"
        },
        {
          "internalType": "uint256",
          "name": "deadline",
          "type": "uint256"
        }
      ],
      "name": "swapExactTokenForToken",
      "outputs": [],
      "stateMutability": "nonpayable",
      "type": "function"
    },
    {
      "stateMutability": "payable",
      "type": "receive"
    }
  ],
  "bytecode": "0x60a06040523480156200001157600080fd5b5060405162001b6f38038062001b6f833981016040819052620000349162000069565b5060016000556001600160a01b0316608052620000a1565b80516001600160a01b03811681146200006457600080fd5b919050565b600080604083850312156200007d57600080fd5b62000088836200004c565b915062000098602084016200004c565b90509250929050565b608051611a81620000ee6000396000818161012f01528181610255015281816102fc015281816103a7015281816106eb015281816109c501528181610ea60152610f710152611a816000f3fe60806040526004361061007f5760003560e01c8063ac4afa381161004e578063ac4afa3814610189578063baa2abde146101a9578063e00f6f67146101de578063f96bd4641461020057600080fd5b8063224254801461008b57806323790216146100d45780632dd310001461011d5780636dbe4ef21461016957600080fd5b3661008657005b600080fd5b34801561009757600080fd5b506100ab6100a63660046115d5565b61022d565b6040805193845260208401929092526001600160a01b0316908201526060015b60405180910390f35b3480156100e057600080fd5b506100f46100ef366004611617565b610559565b604080519485526020850193909352918301526001600160a01b031660608201526080016100cb565b34801561012957600080fd5b506101517f000000000000000000000000000000000000000000000000000000000000000081565b6040516001600160a01b0390911681526020016100cb565b34801561017557600080fd5b50610151610184366004611630565b610662565b34801561019557600080fd5b506101516101a4366004611630565b61068c565b3480156101b557600080fd5b506101c96101c4366004611649565b61069c565b604080519283526020830191909152016100cb565b3480156101ea57600080fd5b506101fe6101f93660046116d0565b610938565b005b34801561020c57600080fd5b5061022061021b366004611784565b610b98565b6040516100cb91906117a1565b60405163292979d160e11b81526001600160a01b0384811660048301526000918291829182917f00000000000000000000000000000000000000000000000000000000000000001690635252f3a290602401602060405180830381865afa15801561029c573d6000803e3d6000fd5b505050506040513d601f19601f820116820180604052508101906102c09190611842565b90506102d76001600160a01b038816333089610e36565b6001600160a01b0381166104665760405163095ea7b360e01b81526001600160a01b037f0000000000000000000000000000000000000000000000000000000000000000811660048301526024820188905288169063095ea7b3906044016020604051808303816000875af1158015610354573d6000803e3d6000fd5b505050506040513d601f19601f82011682018060405250810190610378919061185f565b506040516318815cb760e01b81526001600160a01b0388811660048301526024820188905286811660448301527f000000000000000000000000000000000000000000000000000000000000000016906318815cb7906064016020604051808303816000875af11580156103f0573d6000803e3d6000fd5b505050506040513d601f19601f820116820180604052508101906104149190611842565b600280546001810182556000919091527f405787fa12a823e0f2b7631cc41b3ba8828b3321ca811111fa75cd3aa3bb5ace0180546001600160a01b0319166001600160a01b038316179055905061054f565b60405163095ea7b360e01b81526001600160a01b0382811660048301526024820188905288169063095ea7b3906044016020604051808303816000875af11580156104b5573d6000803e3d6000fd5b505050506040513d601f19601f820116820180604052508101906104d9919061185f565b50604051636e553f6560e01b8152600481018790526001600160a01b038681166024830152821690636e553f65906044016020604051808303816000875af1158015610529573d6000803e3d6000fd5b505050506040513d601f19601f8201168201806040525081019061054d9190611881565b505b5093509350939050565b6000806000808460e001358042111561058557604051630407b05b60e31b815260040160405180910390fd5b61058e86610e96565b919650945091506105b93383876105a860208b018b611784565b6001600160a01b0316929190610e36565b6105cf3383866105a860408b0160208c01611784565b6001600160a01b038216636a6278426105ee60e0890160c08a01611784565b6040516001600160e01b031960e084901b1681526001600160a01b0390911660048201526024016020604051808303816000875af1158015610634573d6000803e3d6000fd5b505050506040513d601f19601f820116820180604052508101906106589190611881565b9250509193509193565b6002818154811061067257600080fd5b6000918252602090912001546001600160a01b0316905081565b6001818154811061067257600080fd5b60008082804211156106c157604051630407b05b60e31b815260040160405180910390fd5b60405163298d501f60e11b81526001600160a01b038b811660048301528a811660248301526000917f00000000000000000000000000000000000000000000000000000000000000009091169063531aa03e90604401602060405180830381865afa158015610734573d6000803e3d6000fd5b505050506040513d601f19601f820116820180604052508101906107589190611842565b6040516323b872dd60e01b81523360048201526001600160a01b03821660248201819052604482018c90529192506323b872dd906064016020604051808303816000875af11580156107ae573d6000803e3d6000fd5b505050506040513d601f19601f820116820180604052508101906107d2919061185f565b5060405163226bf2d160e21b81526001600160a01b03878116600483015260009182918416906389afcb449060240160408051808303816000875af115801561081f573d6000803e3d6000fd5b505050506040513d601f19601f82011682018060405250810190610843919061189a565b6001600160701b031691506001600160701b0316915060006108658e8e6111c3565b509050806001600160a01b03168e6001600160a01b03161461088857818361088b565b82825b90975095508a8710156108de5760405162461bcd60e51b815260206004820152601660248201527508125394d551919250d251539517d057d05353d5539560521b60448201526064015b60405180910390fd5b898610156109275760405162461bcd60e51b815260206004820152601660248201527508125394d551919250d251539517d097d05353d5539560521b60448201526064016108d5565b505050505097509795505050505050565b808042111561095a57604051630407b05b60e31b815260040160405180910390fd5b60008585600181811061096f5761096f6118d4565b90506020020160208101906109849190611784565b6001600160a01b0316868660008181106109a0576109a06118d4565b90506020020160208101906109b59190611784565b6001600160a01b031611905060007f00000000000000000000000000000000000000000000000000000000000000006001600160a01b031663531aa03e88886000818110610a0557610a056118d4565b9050602002016020810190610a1a9190611784565b89896001818110610a2d57610a2d6118d4565b9050602002016020810190610a429190611784565b6040516001600160e01b031960e085901b1681526001600160a01b03928316600482015291166024820152604401602060405180830381865afa158015610a8d573d6000803e3d6000fd5b505050506040513d601f19601f82011682018060405250810190610ab19190611842565b9050610aea33828b6001600160701b03168a8a6000818110610ad557610ad56118d4565b90506020020160208101906105a89190611784565b8760008084610afb57826000610aff565b6000835b60405163681e0f6360e11b81526001600160701b038084166004830152821660248201526001600160a01b038b811660448301529294509092509085169063d03c1ec69060640160408051808303816000875af1158015610b64573d6000803e3d6000fd5b505050506040513d601f19601f82011682018060405250810190610b88919061189a565b5050505050505050505050505050565b6001546060908067ffffffffffffffff811115610bb757610bb76118ea565b604051908082528060200260200182016040528015610c1e57816020015b6040805160e08101825260008082526020808301829052928201819052606082018190526080820181905260a0820181905260c08201528252600019909201910181610bd55790505b50915060005b81811015610e2f57600060018281548110610c4157610c416118d4565b60009182526020822001546040805163154d950160e31b815281516001600160a01b0390931694508392859263aa6ca80892600480820193918290030181865afa158015610c93573d6000803e3d6000fd5b505050506040513d601f19601f82011682018060405250810190610cb79190611900565b91509150600080846001600160a01b0316630902f1ac6040518163ffffffff1660e01b8152600401606060405180830381865afa158015610cfc573d6000803e3d6000fd5b505050506040513d601f19601f82011682018060405250810190610d20919061192f565b506040516246613160e11b81526001600160a01b038c81166004830152929450909250600091829190881690628cc262906024016040805180830381865afa158015610d70573d6000803e3d6000fd5b505050506040513d601f19601f82011682018060405250810190610d94919061197a565b915091506040518060e00160405280886001600160a01b03168152602001876001600160a01b03168152602001866001600160a01b03168152602001856001600160701b03168152602001846001600160701b03168152602001838152602001828152508a8981518110610e0a57610e0a6118d4565b6020026020010181905250505050505050508080610e27906119b4565b915050610c24565b5050919050565b604080516001600160a01b0385811660248301528416604482015260648082018490528251808303909101815260849091019091526020810180516001600160e01b03166323b872dd60e01b179052610e90908590611291565b50505050565b6000808080806001600160a01b037f00000000000000000000000000000000000000000000000000000000000000001663531aa03e610ed86020890189611784565b610ee860408a0160208b01611784565b6040516001600160e01b031960e085901b1681526001600160a01b03928316600482015291166024820152604401602060405180830381865afa158015610f33573d6000803e3d6000fd5b505050506040513d601f19601f82011682018060405250810190610f579190611842565b92506001600160a01b038316611071576001600160a01b037f00000000000000000000000000000000000000000000000000000000000000001663c9c65396610fa36020890189611784565b610fb360408a0160208b01611784565b6040516001600160e01b031960e085901b1681526001600160a01b039283166004820152911660248201526044016020604051808303816000875af1158015611000573d6000803e3d6000fd5b505050506040513d601f19601f820116820180604052508101906110249190611842565b6001805480820182556000919091527fb10e2d527612073b26eecdfd717e6a320cf44b4afac2b0732d9fcbe2b7fa0cf60180546001600160a01b0319166001600160a01b03831617905592505b611097836110826020890189611784565b61109260408a0160208b01611784565b6112f9565b9092509050811580156110a8575080155b156110c05760408601359450606086013593506111ba565b60006110d1876040013584846113b9565b90508660600135811161113a578660a0013581101561112b5760405162461bcd60e51b815260206004820152601660248201527508125394d551919250d251539517d097d05353d5539560521b60448201526064016108d5565b604087013595509350836111b8565b600061114b886060013584866113b9565b90508760400135811115611161576111616119cd565b87608001358110156111ae5760405162461bcd60e51b815260206004820152601660248201527508125394d551919250d251539517d057d05353d5539560521b60448201526064016108d5565b9550606087013594505b505b50509193909250565b600080826001600160a01b0316846001600160a01b03160361121d5760405162461bcd60e51b81526020600482015260136024820152724944454e544943414c5f41444452455353455360681b60448201526064016108d5565b826001600160a01b0316846001600160a01b03161061123d578284611240565b83835b90925090506001600160a01b03821661128a5760405162461bcd60e51b815260206004820152600c60248201526b5a45524f5f4144445245535360a01b60448201526064016108d5565b9250929050565b60006112a66001600160a01b03841683611472565b905080516000141580156112cb5750808060200190518101906112c9919061185f565b155b156112f457604051635274afe760e01b81526001600160a01b03841660048201526024016108d5565b505050565b600080600061130885856111c3565b509050600080876001600160a01b0316630902f1ac6040518163ffffffff1660e01b8152600401606060405180830381865afa15801561134c573d6000803e3d6000fd5b505050506040513d601f19601f82011682018060405250810190611370919061192f565b506001600160701b031691506001600160701b03169150826001600160a01b0316876001600160a01b0316146113a75780826113aa565b81815b90999098509650505050505050565b60008084116114005760405162461bcd60e51b8152602060048201526013602482015272125394d551919250d251539517d05353d55395606a1b60448201526064016108d5565b6000831180156114105750600082115b6114555760405162461bcd60e51b8152602060048201526016602482015275494e53554646494349454e545f4c495155494449545960501b60448201526064016108d5565b8261146083866119e3565b61146a91906119fa565b949350505050565b606061148083836000611489565b90505b92915050565b6060814710156114ae5760405163cd78605960e01b81523060048201526024016108d5565b600080856001600160a01b031684866040516114ca9190611a1c565b60006040518083038185875af1925050503d8060008114611507576040519150601f19603f3d011682016040523d82523d6000602084013e61150c565b606091505b509150915061151c868383611528565b925050505b9392505050565b60608261153d5761153882611584565b611521565b815115801561155457506001600160a01b0384163b155b1561157d57604051639996b31560e01b81526001600160a01b03851660048201526024016108d5565b5080611521565b8051156115945780518082602001fd5b604051630a12f52160e11b815260040160405180910390fd5b50565b6001600160a01b03811681146115ad57600080fd5b80356115d0816115b0565b919050565b6000806000606084860312156115ea57600080fd5b83356115f5816115b0565b925060208401359150604084013561160c816115b0565b809150509250925092565b6000610100828403121561162a57600080fd5b50919050565b60006020828403121561164257600080fd5b5035919050565b600080600080600080600060e0888a03121561166457600080fd5b873561166f816115b0565b9650602088013561167f816115b0565b955060408801359450606088013593506080880135925060a08801356116a4816115b0565b8092505060c0880135905092959891949750929550565b6001600160701b03811681146115ad57600080fd5b60008060008060008060a087890312156116e957600080fd5b86356116f4816116bb565b95506020870135611704816116bb565b9450604087013567ffffffffffffffff8082111561172157600080fd5b818901915089601f83011261173557600080fd5b81358181111561174457600080fd5b8a60208260051b850101111561175957600080fd5b602083019650809550505050611771606088016115c5565b9150608087013590509295509295509295565b60006020828403121561179657600080fd5b8135611521816115b0565b602080825282518282018190526000919060409081850190868401855b8281101561183557815180516001600160a01b039081168652878201518116888701528682015116868601526060808201516001600160701b03908116918701919091526080808301519091169086015260a0808201519086015260c0908101519085015260e090930192908501906001016117be565b5091979650505050505050565b60006020828403121561185457600080fd5b8151611521816115b0565b60006020828403121561187157600080fd5b8151801515811461152157600080fd5b60006020828403121561189357600080fd5b5051919050565b600080604083850312156118ad57600080fd5b82516118b8816116bb565b60208401519092506118c9816116bb565b809150509250929050565b634e487b7160e01b600052603260045260246000fd5b634e487b7160e01b600052604160045260246000fd5b6000806040838503121561191357600080fd5b825161191e816115b0565b60208401519092506118c9816115b0565b60008060006060848603121561194457600080fd5b835161194f816116bb565b6020850151909350611960816116bb565b604085015190925063ffffffff8116811461160c57600080fd5b6000806040838503121561198d57600080fd5b505080516020909101519092909150565b634e487b7160e01b600052601160045260246000fd5b6000600182016119c6576119c661199e565b5060010190565b634e487b7160e01b600052600160045260246000fd5b80820281158282048414176114835761148361199e565b600082611a1757634e487b7160e01b600052601260045260246000fd5b500490565b6000825160005b81811015611a3d5760208186018101518583015201611a23565b50600092019182525091905056fea2646970667358221220e07e9a0a12d5da696677def4bd09c121a826092b648cec67380c9375dd4c137c64736f6c63430008140033",
  "linkReferences": {},
  "deployedLinkReferences": {}
}