{
  "_format": "hh-sol-artifact-1",
  "contractName": "LRouter",
  "sourceName": "contracts/periphery/LRouter.sol",
  "abi": [
    {
      "inputs": [
        {
          "internalType": "address",
          "name": "factory",
          "type": "address"
        },
        {
          "internalType": "address",
          "name": "weth",
          "type": "address"
        }
      ],
      "stateMutability": "nonpayable",
      "type": "constructor"
    },
    {
      "inputs": [
        {
          "internalType": "address",
          "name": "target",
          "type": "address"
        }
      ],
      "name": "AddressEmptyCode",
      "type": "error"
    },
    {
      "inputs": [
        {
          "internalType": "address",
          "name": "account",
          "type": "address"
        }
      ],
      "name": "AddressInsufficientBalance",
      "type": "error"
    },
    {
      "inputs": [],
      "name": "Expired",
      "type": "error"
    },
    {
      "inputs": [],
      "name": "FailedInnerCall",
      "type": "error"
    },
    {
      "inputs": [],
      "name": "ReentrancyGuardReentrantCall",
      "type": "error"
    },
    {
      "inputs": [
        {
          "internalType": "address",
          "name": "token",
          "type": "address"
        }
      ],
      "name": "SafeERC20FailedOperation",
      "type": "error"
    },
    {
      "inputs": [],
      "name": "FACTORY",
      "outputs": [
        {
          "internalType": "address",
          "name": "",
          "type": "address"
        }
      ],
      "stateMutability": "view",
      "type": "function"
    },
    {
      "inputs": [
        {
          "components": [
            {
              "internalType": "address",
              "name": "tokenA",
              "type": "address"
            },
            {
              "internalType": "address",
              "name": "tokenB",
              "type": "address"
            },
            {
              "internalType": "uint256",
              "name": "amountADesired",
              "type": "uint256"
            },
            {
              "internalType": "uint256",
              "name": "amountBDesired",
              "type": "uint256"
            },
            {
              "internalType": "uint256",
              "name": "amountAMin",
              "type": "uint256"
            },
            {
              "internalType": "uint256",
              "name": "amountBMin",
              "type": "uint256"
            },
            {
              "internalType": "address",
              "name": "to",
              "type": "address"
            },
            {
              "internalType": "uint256",
              "name": "deadline",
              "type": "uint256"
            }
          ],
          "internalType": "struct LRouter.AddLiquidity",
          "name": "params",
          "type": "tuple"
        }
      ],
      "name": "addLiquidity",
      "outputs": [
        {
          "internalType": "uint256",
          "name": "amountA",
          "type": "uint256"
        },
        {
          "internalType": "uint256",
          "name": "amountB",
          "type": "uint256"
        },
        {
          "internalType": "uint256",
          "name": "liquidity",
          "type": "uint256"
        },
        {
          "internalType": "address",
          "name": "pair",
          "type": "address"
        }
      ],
      "stateMutability": "nonpayable",
      "type": "function"
    },
    {
      "inputs": [
        {
          "internalType": "uint256",
          "name": "",
          "type": "uint256"
        }
      ],
      "name": "collateralPools",
      "outputs": [
        {
          "internalType": "address",
          "name": "",
          "type": "address"
        }
      ],
      "stateMutability": "view",
      "type": "function"
    },
    {
      "inputs": [
        {
          "internalType": "contract IERC20",
          "name": "token",
          "type": "address"
        },
        {
          "internalType": "uint256",
          "name": "assets",
          "type": "uint256"
        },
        {
          "internalType": "address",
          "name": "receiver",
          "type": "address"
        }
      ],
      "name": "depositCollateral",
      "outputs": [
        {
          "internalType": "uint256",
          "name": "amountA",
          "type": "uint256"
        },
        {
          "internalType": "uint256",
          "name": "amountB",
          "type": "uint256"
        },
        {
          "internalType": "address",
          "name": "pair",
          "type": "address"
        }
      ],
      "stateMutability": "nonpayable",
      "type": "function"
    },
    {
      "inputs": [
        {
          "internalType": "address",
          "name": "owner",
          "type": "address"
        }
      ],
      "name": "getAmmPools",
      "outputs": [
        {
          "components": [
            {
              "internalType": "address",
              "name": "pool",
              "type": "address"
            },
            {
              "internalType": "address",
              "name": "token0",
              "type": "address"
            },
            {
              "internalType": "address",
              "name": "token1",
              "type": "address"
            },
            {
              "internalType": "uint112",
              "name": "reserve0",
              "type": "uint112"
            },
            {
              "internalType": "uint112",
              "name": "reserve1",
              "type": "uint112"
            },
            {
              "internalType": "uint256",
              "name": "fee0",
              "type": "uint256"
            },
            {
              "internalType": "uint256",
              "name": "fee1",
              "type": "uint256"
            }
          ],
          "internalType": "struct LRouter.Pool[]",
          "name": "allPools",
          "type": "tuple[]"
        }
      ],
      "stateMutability": "nonpayable",
      "type": "function"
    },
    {
      "inputs": [
        {
          "internalType": "uint256",
          "name": "",
          "type": "uint256"
        }
      ],
      "name": "pools",
      "outputs": [
        {
          "internalType": "address",
          "name": "",
          "type": "address"
        }
      ],
      "stateMutability": "view",
      "type": "function"
    },
    {
      "inputs": [
        {
          "internalType": "address",
          "name": "tokenA",
          "type": "address"
        },
        {
          "internalType": "address",
          "name": "tokenB",
          "type": "address"
        },
        {
          "internalType": "uint256",
          "name": "liquidity",
          "type": "uint256"
        },
        {
          "internalType": "uint256",
          "name": "amountAMin",
          "type": "uint256"
        },
        {
          "internalType": "uint256",
          "name": "amountBMin",
          "type": "uint256"
        },
        {
          "internalType": "address",
          "name": "to",
          "type": "address"
        },
        {
          "internalType": "uint32",
          "name": "deadline",
          "type": "uint32"
        }
      ],
      "name": "removeLiquidity",
      "outputs": [
        {
          "internalType": "uint256",
          "name": "amountA",
          "type": "uint256"
        },
        {
          "internalType": "uint256",
          "name": "amountB",
          "type": "uint256"
        }
      ],
      "stateMutability": "nonpayable",
      "type": "function"
    },
    {
      "inputs": [
        {
          "internalType": "address",
          "name": "pair",
          "type": "address"
        },
        {
          "internalType": "uint256",
          "name": "liquidity",
          "type": "uint256"
        },
        {
          "internalType": "uint256",
          "name": "amountAMin",
          "type": "uint256"
        },
        {
          "internalType": "uint256",
          "name": "amountBMin",
          "type": "uint256"
        },
        {
          "internalType": "address",
          "name": "to",
          "type": "address"
        },
        {
          "internalType": "uint32",
          "name": "deadline",
          "type": "uint32"
        }
      ],
      "name": "removeLiquidityPair",
      "outputs": [
        {
          "internalType": "uint256",
          "name": "amountA",
          "type": "uint256"
        },
        {
          "internalType": "uint256",
          "name": "amountB",
          "type": "uint256"
        }
      ],
      "stateMutability": "nonpayable",
      "type": "function"
    },
    {
      "inputs": [
        {
          "internalType": "uint112",
          "name": "amountIn",
          "type": "uint112"
        },
        {
          "internalType": "uint112",
          "name": "amountOutMin",
          "type": "uint112"
        },
        {
          "internalType": "address[]",
          "name": "path",
          "type": "address[]"
        },
        {
          "internalType": "address",
          "name": "to",
          "type": "address"
        },
        {
          "internalType": "uint256",
          "name": "deadline",
          "type": "uint256"
        }
      ],
      "name": "swapExactTokenForToken",
      "outputs": [],
      "stateMutability": "nonpayable",
      "type": "function"
    },
    {
      "stateMutability": "payable",
      "type": "receive"
    }
  ],
  "bytecode": "0x60a06040523480156200001157600080fd5b5060405162001d5138038062001d51833981016040819052620000349162000069565b5060016000556001600160a01b0316608052620000a1565b80516001600160a01b03811681146200006457600080fd5b919050565b600080604083850312156200007d57600080fd5b62000088836200004c565b915062000098602084016200004c565b90509250929050565b608051611c63620000ee6000396000818161016f01528181610401015281816104a8015281816105530152818161088d01528181610b200152818161100101526110cc0152611c636000f3fe60806040526004361061008a5760003560e01c80636dbe4ef2116100595780636dbe4ef2146101a957806381744501146101c9578063ac4afa38146101e9578063e00f6f6714610209578063f96bd4641461022b57600080fd5b8063178bade21461009657806322425480146100d057806323790216146101145780632dd310001461015d57600080fd5b3661009157005b600080fd5b3480156100a257600080fd5b506100b66100b13660046116f0565b610258565b604080519283526020830191909152015b60405180910390f35b3480156100dc57600080fd5b506100f06100eb366004611757565b6103d9565b6040805193845260208401929092526001600160a01b0316908201526060016100c7565b34801561012057600080fd5b5061013461012f366004611799565b610705565b604080519485526020850193909352918301526001600160a01b031660608201526080016100c7565b34801561016957600080fd5b506101917f000000000000000000000000000000000000000000000000000000000000000081565b6040516001600160a01b0390911681526020016100c7565b3480156101b557600080fd5b506101916101c43660046117b2565b61080e565b3480156101d557600080fd5b506100b66101e43660046117cb565b610838565b3480156101f557600080fd5b506101916102043660046117b2565b610a83565b34801561021557600080fd5b5061022961022436600461185b565b610a93565b005b34801561023757600080fd5b5061024b61024636600461190f565b610cf3565b6040516100c7919061192c565b6000808263ffffffff168042111561028357604051630407b05b60e31b815260040160405180910390fd5b6040516323b872dd60e01b81523360048201526001600160a01b038a1660248201819052604482018a9052906323b872dd906064016020604051808303816000875af11580156102d7573d6000803e3d6000fd5b505050506040513d601f19601f820116820180604052508101906102fb91906119cd565b5060405163226bf2d160e21b81526001600160a01b03868116600483015260009182918c16906389afcb449060240160408051808303816000875af1158015610348573d6000803e3d6000fd5b505050506040513d601f19601f8201168201806040525081019061036c91906119ef565b6001600160701b031691506001600160701b03169150888210156103ab5760405162461bcd60e51b81526004016103a290611a29565b60405180910390fd5b878110156103cb5760405162461bcd60e51b81526004016103a290611a59565b505050965096945050505050565b60405163292979d160e11b81526001600160a01b0384811660048301526000918291829182917f00000000000000000000000000000000000000000000000000000000000000001690635252f3a290602401602060405180830381865afa158015610448573d6000803e3d6000fd5b505050506040513d601f19601f8201168201806040525081019061046c9190611a89565b90506104836001600160a01b038816333089610f91565b6001600160a01b0381166106125760405163095ea7b360e01b81526001600160a01b037f0000000000000000000000000000000000000000000000000000000000000000811660048301526024820188905288169063095ea7b3906044016020604051808303816000875af1158015610500573d6000803e3d6000fd5b505050506040513d601f19601f8201168201806040525081019061052491906119cd565b506040516318815cb760e01b81526001600160a01b0388811660048301526024820188905286811660448301527f000000000000000000000000000000000000000000000000000000000000000016906318815cb7906064016020604051808303816000875af115801561059c573d6000803e3d6000fd5b505050506040513d601f19601f820116820180604052508101906105c09190611a89565b600280546001810182556000919091527f405787fa12a823e0f2b7631cc41b3ba8828b3321ca811111fa75cd3aa3bb5ace0180546001600160a01b0319166001600160a01b03831617905590506106fb565b60405163095ea7b360e01b81526001600160a01b0382811660048301526024820188905288169063095ea7b3906044016020604051808303816000875af1158015610661573d6000803e3d6000fd5b505050506040513d601f19601f8201168201806040525081019061068591906119cd565b50604051636e553f6560e01b8152600481018790526001600160a01b038681166024830152821690636e553f65906044016020604051808303816000875af11580156106d5573d6000803e3d6000fd5b505050506040513d601f19601f820116820180604052508101906106f99190611aa6565b505b5093509350939050565b6000806000808460e001358042111561073157604051630407b05b60e31b815260040160405180910390fd5b61073a86610ff1565b9196509450915061076533838761075460208b018b61190f565b6001600160a01b0316929190610f91565b61077b33838661075460408b0160208c0161190f565b6001600160a01b038216636a62784261079a60e0890160c08a0161190f565b6040516001600160e01b031960e084901b1681526001600160a01b0390911660048201526024016020604051808303816000875af11580156107e0573d6000803e3d6000fd5b505050506040513d601f19601f820116820180604052508101906108049190611aa6565b9250509193509193565b6002818154811061081e57600080fd5b6000918252602090912001546001600160a01b0316905081565b6000808263ffffffff168042111561086357604051630407b05b60e31b815260040160405180910390fd5b60405163298d501f60e11b81526001600160a01b038b811660048301528a811660248301526000917f00000000000000000000000000000000000000000000000000000000000000009091169063531aa03e90604401602060405180830381865afa1580156108d6573d6000803e3d6000fd5b505050506040513d601f19601f820116820180604052508101906108fa9190611a89565b6040516323b872dd60e01b81523360048201526001600160a01b03821660248201819052604482018c90529192506323b872dd906064016020604051808303816000875af1158015610950573d6000803e3d6000fd5b505050506040513d601f19601f8201168201806040525081019061097491906119cd565b5060405163226bf2d160e21b81526001600160a01b03878116600483015260009182918416906389afcb449060240160408051808303816000875af11580156109c1573d6000803e3d6000fd5b505050506040513d601f19601f820116820180604052508101906109e591906119ef565b6001600160701b031691506001600160701b031691506000610a078e8e6112cc565b509050806001600160a01b03168e6001600160a01b031614610a2a578183610a2d565b82825b90975095508a871015610a525760405162461bcd60e51b81526004016103a290611a29565b89861015610a725760405162461bcd60e51b81526004016103a290611a59565b505050505097509795505050505050565b6001818154811061081e57600080fd5b8080421115610ab557604051630407b05b60e31b815260040160405180910390fd5b600085856001818110610aca57610aca611abf565b9050602002016020810190610adf919061190f565b6001600160a01b031686866000818110610afb57610afb611abf565b9050602002016020810190610b10919061190f565b6001600160a01b031611905060007f00000000000000000000000000000000000000000000000000000000000000006001600160a01b031663531aa03e88886000818110610b6057610b60611abf565b9050602002016020810190610b75919061190f565b89896001818110610b8857610b88611abf565b9050602002016020810190610b9d919061190f565b6040516001600160e01b031960e085901b1681526001600160a01b03928316600482015291166024820152604401602060405180830381865afa158015610be8573d6000803e3d6000fd5b505050506040513d601f19601f82011682018060405250810190610c0c9190611a89565b9050610c4533828b6001600160701b03168a8a6000818110610c3057610c30611abf565b9050602002016020810190610754919061190f565b8760008084610c5657826000610c5a565b6000835b60405163681e0f6360e11b81526001600160701b038084166004830152821660248201526001600160a01b038b811660448301529294509092509085169063d03c1ec69060640160408051808303816000875af1158015610cbf573d6000803e3d6000fd5b505050506040513d601f19601f82011682018060405250810190610ce391906119ef565b5050505050505050505050505050565b6001546060908067ffffffffffffffff811115610d1257610d12611ad5565b604051908082528060200260200182016040528015610d7957816020015b6040805160e08101825260008082526020808301829052928201819052606082018190526080820181905260a0820181905260c08201528252600019909201910181610d305790505b50915060005b81811015610f8a57600060018281548110610d9c57610d9c611abf565b60009182526020822001546040805163154d950160e31b815281516001600160a01b0390931694508392859263aa6ca80892600480820193918290030181865afa158015610dee573d6000803e3d6000fd5b505050506040513d601f19601f82011682018060405250810190610e129190611aeb565b91509150600080846001600160a01b0316630902f1ac6040518163ffffffff1660e01b8152600401606060405180830381865afa158015610e57573d6000803e3d6000fd5b505050506040513d601f19601f82011682018060405250810190610e7b9190611b1a565b506040516246613160e11b81526001600160a01b038c81166004830152929450909250600091829190881690628cc262906024016040805180830381865afa158015610ecb573d6000803e3d6000fd5b505050506040513d601f19601f82011682018060405250810190610eef9190611b5c565b915091506040518060e00160405280886001600160a01b03168152602001876001600160a01b03168152602001866001600160a01b03168152602001856001600160701b03168152602001846001600160701b03168152602001838152602001828152508a8981518110610f6557610f65611abf565b6020026020010181905250505050505050508080610f8290611b96565b915050610d7f565b5050919050565b604080516001600160a01b0385811660248301528416604482015260648082018490528251808303909101815260849091019091526020810180516001600160e01b03166323b872dd60e01b179052610feb90859061139a565b50505050565b6000808080806001600160a01b037f00000000000000000000000000000000000000000000000000000000000000001663531aa03e611033602089018961190f565b61104360408a0160208b0161190f565b6040516001600160e01b031960e085901b1681526001600160a01b03928316600482015291166024820152604401602060405180830381865afa15801561108e573d6000803e3d6000fd5b505050506040513d601f19601f820116820180604052508101906110b29190611a89565b92506001600160a01b0383166111cc576001600160a01b037f00000000000000000000000000000000000000000000000000000000000000001663c9c653966110fe602089018961190f565b61110e60408a0160208b0161190f565b6040516001600160e01b031960e085901b1681526001600160a01b039283166004820152911660248201526044016020604051808303816000875af115801561115b573d6000803e3d6000fd5b505050506040513d601f19601f8201168201806040525081019061117f9190611a89565b6001805480820182556000919091527fb10e2d527612073b26eecdfd717e6a320cf44b4afac2b0732d9fcbe2b7fa0cf60180546001600160a01b0319166001600160a01b03831617905592505b6111f2836111dd602089018961190f565b6111ed60408a0160208b0161190f565b611402565b909250905081158015611203575080155b1561121b5760408601359450606086013593506112c3565b600061122c876040013584846114c2565b90508660600135811161126c578660a0013581101561125d5760405162461bcd60e51b81526004016103a290611a59565b604087013595509350836112c1565b600061127d886060013584866114c2565b9050876040013581111561129357611293611baf565b87608001358110156112b75760405162461bcd60e51b81526004016103a290611a29565b9550606087013594505b505b50509193909250565b600080826001600160a01b0316846001600160a01b0316036113265760405162461bcd60e51b81526020600482015260136024820152724944454e544943414c5f41444452455353455360681b60448201526064016103a2565b826001600160a01b0316846001600160a01b031610611346578284611349565b83835b90925090506001600160a01b0382166113935760405162461bcd60e51b815260206004820152600c60248201526b5a45524f5f4144445245535360a01b60448201526064016103a2565b9250929050565b60006113af6001600160a01b0384168361157b565b905080516000141580156113d45750808060200190518101906113d291906119cd565b155b156113fd57604051635274afe760e01b81526001600160a01b03841660048201526024016103a2565b505050565b600080600061141185856112cc565b509050600080876001600160a01b0316630902f1ac6040518163ffffffff1660e01b8152600401606060405180830381865afa158015611455573d6000803e3d6000fd5b505050506040513d601f19601f820116820180604052508101906114799190611b1a565b506001600160701b031691506001600160701b03169150826001600160a01b0316876001600160a01b0316146114b05780826114b3565b81815b90999098509650505050505050565b60008084116115095760405162461bcd60e51b8152602060048201526013602482015272125394d551919250d251539517d05353d55395606a1b60448201526064016103a2565b6000831180156115195750600082115b61155e5760405162461bcd60e51b8152602060048201526016602482015275494e53554646494349454e545f4c495155494449545960501b60448201526064016103a2565b826115698386611bc5565b6115739190611bdc565b949350505050565b606061158983836000611592565b90505b92915050565b6060814710156115b75760405163cd78605960e01b81523060048201526024016103a2565b600080856001600160a01b031684866040516115d39190611bfe565b60006040518083038185875af1925050503d8060008114611610576040519150601f19603f3d011682016040523d82523d6000602084013e611615565b606091505b5091509150611625868383611631565b925050505b9392505050565b606082611646576116418261168d565b61162a565b815115801561165d57506001600160a01b0384163b155b1561168657604051639996b31560e01b81526001600160a01b03851660048201526024016103a2565b508061162a565b80511561169d5780518082602001fd5b604051630a12f52160e11b815260040160405180910390fd5b50565b6001600160a01b03811681146116b657600080fd5b80356116d9816116b9565b919050565b63ffffffff811681146116b657600080fd5b60008060008060008060c0878903121561170957600080fd5b8635611714816116b9565b95506020870135945060408701359350606087013592506080870135611739816116b9565b915060a0870135611749816116de565b809150509295509295509295565b60008060006060848603121561176c57600080fd5b8335611777816116b9565b925060208401359150604084013561178e816116b9565b809150509250925092565b600061010082840312156117ac57600080fd5b50919050565b6000602082840312156117c457600080fd5b5035919050565b600080600080600080600060e0888a0312156117e657600080fd5b87356117f1816116b9565b96506020880135611801816116b9565b955060408801359450606088013593506080880135925060a0880135611826816116b9565b915060c0880135611836816116de565b8091505092959891949750929550565b6001600160701b03811681146116b657600080fd5b60008060008060008060a0878903121561187457600080fd5b863561187f81611846565b9550602087013561188f81611846565b9450604087013567ffffffffffffffff808211156118ac57600080fd5b818901915089601f8301126118c057600080fd5b8135818111156118cf57600080fd5b8a60208260051b85010111156118e457600080fd5b6020830196508095505050506118fc606088016116ce565b9150608087013590509295509295509295565b60006020828403121561192157600080fd5b813561162a816116b9565b602080825282518282018190526000919060409081850190868401855b828110156119c057815180516001600160a01b039081168652878201518116888701528682015116868601526060808201516001600160701b03908116918701919091526080808301519091169086015260a0808201519086015260c0908101519085015260e09093019290850190600101611949565b5091979650505050505050565b6000602082840312156119df57600080fd5b8151801515811461162a57600080fd5b60008060408385031215611a0257600080fd5b8251611a0d81611846565b6020840151909250611a1e81611846565b809150509250929050565b60208082526016908201527508125394d551919250d251539517d057d05353d5539560521b604082015260600190565b60208082526016908201527508125394d551919250d251539517d097d05353d5539560521b604082015260600190565b600060208284031215611a9b57600080fd5b815161162a816116b9565b600060208284031215611ab857600080fd5b5051919050565b634e487b7160e01b600052603260045260246000fd5b634e487b7160e01b600052604160045260246000fd5b60008060408385031215611afe57600080fd5b8251611b09816116b9565b6020840151909250611a1e816116b9565b600080600060608486031215611b2f57600080fd5b8351611b3a81611846565b6020850151909350611b4b81611846565b604085015190925061178e816116de565b60008060408385031215611b6f57600080fd5b505080516020909101519092909150565b634e487b7160e01b600052601160045260246000fd5b600060018201611ba857611ba8611b80565b5060010190565b634e487b7160e01b600052600160045260246000fd5b808202811582820484141761158c5761158c611b80565b600082611bf957634e487b7160e01b600052601260045260246000fd5b500490565b6000825160005b81811015611c1f5760208186018101518583015201611c05565b50600092019182525091905056fea2646970667358221220d616badb3f02d4c21bad8bebf76ab84c8bd5f76b70e87248c5540b4880dc846264736f6c63430008140033",
  "linkReferences": {},
  "deployedLinkReferences": {}
}