{
  "_format": "hh-sol-artifact-1",
  "contractName": "LRouter",
  "sourceName": "contracts/periphery/LRouter.sol",
  "abi": [
    {
      "inputs": [
        {
          "internalType": "address",
          "name": "factory",
          "type": "address"
        },
        {
          "internalType": "address",
          "name": "weth",
          "type": "address"
        }
      ],
      "stateMutability": "nonpayable",
      "type": "constructor"
    },
    {
      "inputs": [
        {
          "internalType": "address",
          "name": "target",
          "type": "address"
        }
      ],
      "name": "AddressEmptyCode",
      "type": "error"
    },
    {
      "inputs": [
        {
          "internalType": "address",
          "name": "account",
          "type": "address"
        }
      ],
      "name": "AddressInsufficientBalance",
      "type": "error"
    },
    {
      "inputs": [],
      "name": "Expired",
      "type": "error"
    },
    {
      "inputs": [],
      "name": "FailedInnerCall",
      "type": "error"
    },
    {
      "inputs": [],
      "name": "ReentrancyGuardReentrantCall",
      "type": "error"
    },
    {
      "inputs": [
        {
          "internalType": "address",
          "name": "token",
          "type": "address"
        }
      ],
      "name": "SafeERC20FailedOperation",
      "type": "error"
    },
    {
      "inputs": [],
      "name": "FACTORY",
      "outputs": [
        {
          "internalType": "address",
          "name": "",
          "type": "address"
        }
      ],
      "stateMutability": "view",
      "type": "function"
    },
    {
      "inputs": [
        {
          "components": [
            {
              "internalType": "address",
              "name": "tokenA",
              "type": "address"
            },
            {
              "internalType": "address",
              "name": "tokenB",
              "type": "address"
            },
            {
              "internalType": "uint256",
              "name": "amountADesired",
              "type": "uint256"
            },
            {
              "internalType": "uint256",
              "name": "amountBDesired",
              "type": "uint256"
            },
            {
              "internalType": "uint256",
              "name": "amountAMin",
              "type": "uint256"
            },
            {
              "internalType": "uint256",
              "name": "amountBMin",
              "type": "uint256"
            },
            {
              "internalType": "address",
              "name": "to",
              "type": "address"
            },
            {
              "internalType": "uint256",
              "name": "deadline",
              "type": "uint256"
            }
          ],
          "internalType": "struct LRouter.AddLiquidity",
          "name": "params",
          "type": "tuple"
        }
      ],
      "name": "addLiquidity",
      "outputs": [
        {
          "internalType": "uint256",
          "name": "amountA",
          "type": "uint256"
        },
        {
          "internalType": "uint256",
          "name": "amountB",
          "type": "uint256"
        },
        {
          "internalType": "uint256",
          "name": "liquidity",
          "type": "uint256"
        },
        {
          "internalType": "address",
          "name": "pair",
          "type": "address"
        }
      ],
      "stateMutability": "nonpayable",
      "type": "function"
    },
    {
      "inputs": [
        {
          "internalType": "address",
          "name": "tokenA",
          "type": "address"
        },
        {
          "internalType": "address",
          "name": "tokenB",
          "type": "address"
        },
        {
          "internalType": "uint256",
          "name": "liquidity",
          "type": "uint256"
        },
        {
          "internalType": "uint256",
          "name": "amountAMin",
          "type": "uint256"
        },
        {
          "internalType": "uint256",
          "name": "amountBMin",
          "type": "uint256"
        },
        {
          "internalType": "address",
          "name": "to",
          "type": "address"
        },
        {
          "internalType": "uint256",
          "name": "deadline",
          "type": "uint256"
        }
      ],
      "name": "removeLiquidity",
      "outputs": [
        {
          "internalType": "uint256",
          "name": "amountA",
          "type": "uint256"
        },
        {
          "internalType": "uint256",
          "name": "amountB",
          "type": "uint256"
        }
      ],
      "stateMutability": "nonpayable",
      "type": "function"
    },
    {
      "inputs": [
        {
          "internalType": "uint256",
          "name": "amountIn",
          "type": "uint256"
        },
        {
          "internalType": "uint256",
          "name": "amountOutMin",
          "type": "uint256"
        },
        {
          "internalType": "address[]",
          "name": "path",
          "type": "address[]"
        },
        {
          "internalType": "address",
          "name": "to",
          "type": "address"
        },
        {
          "internalType": "uint256",
          "name": "deadline",
          "type": "uint256"
        }
      ],
      "name": "swapExactTokenForToken",
      "outputs": [
        {
          "internalType": "uint256[]",
          "name": "amounts",
          "type": "uint256[]"
        }
      ],
      "stateMutability": "nonpayable",
      "type": "function"
    },
    {
      "stateMutability": "payable",
      "type": "receive"
    }
  ],
  "bytecode": "0x60a06040523480156200001157600080fd5b5060405162001ce638038062001ce68339818101604052810190620000379190620000e5565b60016000819055508173ffffffffffffffffffffffffffffffffffffffff1660808173ffffffffffffffffffffffffffffffffffffffff168152505050506200012c565b600080fd5b600073ffffffffffffffffffffffffffffffffffffffff82169050919050565b6000620000ad8262000080565b9050919050565b620000bf81620000a0565b8114620000cb57600080fd5b50565b600081519050620000df81620000b4565b92915050565b60008060408385031215620000ff57620000fe6200007b565b5b60006200010f85828601620000ce565b92505060206200012285828601620000ce565b9150509250929050565b608051611b8262000164600039600081816102a70152818161038d015281816105be0152818161085201526109480152611b826000f3fe6080604052600436106100435760003560e01c8063237902161461004f5780632dd310001461008f5780636ca412e1146100ba578063baa2abde146100f75761004a565b3661004a57005b600080fd5b34801561005b57600080fd5b5061007660048036038101906100719190611125565b610135565b60405161008694939291906111ad565b60405180910390f35b34801561009b57600080fd5b506100a46102a5565b6040516100b191906111f2565b60405180910390f35b3480156100c657600080fd5b506100e160048036038101906100dc91906112ca565b6102c9565b6040516100ee9190611422565b60405180910390f35b34801561010357600080fd5b5061011e60048036038101906101199190611444565b61057c565b60405161012c9291906114e6565b60405180910390f35b6000806000808460e001358042111561017a576040517f203d82d800000000000000000000000000000000000000000000000000000000815260040160405180910390fd5b61018386610848565b8094508196508297505050506101ce3383878960000160208101906101a8919061150f565b73ffffffffffffffffffffffffffffffffffffffff16610b70909392919063ffffffff16565b61020d3383868960200160208101906101e7919061150f565b73ffffffffffffffffffffffffffffffffffffffff16610b70909392919063ffffffff16565b8173ffffffffffffffffffffffffffffffffffffffff16636a6278428760c001602081019061023c919061150f565b6040518263ffffffff1660e01b815260040161025891906111f2565b6020604051808303816000875af1158015610277573d6000803e3d6000fd5b505050506040513d601f19601f8201168201806040525081019061029b9190611551565b9250509193509193565b7f000000000000000000000000000000000000000000000000000000000000000081565b60608180421115610306576040517f203d82d800000000000000000000000000000000000000000000000000000000815260040160405180910390fd5b60008686600181811061031c5761031b61157e565b5b9050602002016020810190610331919061150f565b73ffffffffffffffffffffffffffffffffffffffff168787600081811061035b5761035a61157e565b5b9050602002016020810190610370919061150f565b73ffffffffffffffffffffffffffffffffffffffff1611905060007f000000000000000000000000000000000000000000000000000000000000000073ffffffffffffffffffffffffffffffffffffffff1663531aa03e898960008181106103db576103da61157e565b5b90506020020160208101906103f0919061150f565b8a8a60018181106104045761040361157e565b5b9050602002016020810190610419919061150f565b6040518363ffffffff1660e01b81526004016104369291906115ad565b602060405180830381865afa158015610453573d6000803e3d6000fd5b505050506040513d601f19601f8201168201806040525081019061047791906115eb565b90506104ce33828c8b8b60008181106104935761049261157e565b5b90506020020160208101906104a8919061150f565b73ffffffffffffffffffffffffffffffffffffffff16610b70909392919063ffffffff16565b6000899050600080846104e3578260006104e7565b6000835b915091508373ffffffffffffffffffffffffffffffffffffffff16636d9a640a83838c6040518463ffffffff1660e01b815260040161052893929190611618565b60408051808303816000875af1158015610546573d6000803e3d6000fd5b505050506040513d601f19601f8201168201806040525081019061056a919061164f565b50505050505050509695505050505050565b60008082804211156105ba576040517f203d82d800000000000000000000000000000000000000000000000000000000815260040160405180910390fd5b60007f000000000000000000000000000000000000000000000000000000000000000073ffffffffffffffffffffffffffffffffffffffff1663531aa03e8c8c6040518363ffffffff1660e01b81526004016106179291906115ad565b602060405180830381865afa158015610634573d6000803e3d6000fd5b505050506040513d601f19601f8201168201806040525081019061065891906115eb565b90508073ffffffffffffffffffffffffffffffffffffffff166323b872dd33838c6040518463ffffffff1660e01b81526004016106979392919061168f565b6020604051808303816000875af11580156106b6573d6000803e3d6000fd5b505050506040513d601f19601f820116820180604052508101906106da91906116fe565b506000808273ffffffffffffffffffffffffffffffffffffffff166389afcb44896040518263ffffffff1660e01b815260040161071791906111f2565b60408051808303816000875af1158015610735573d6000803e3d6000fd5b505050506040513d601f19601f82011682018060405250810190610759919061164f565b9150915060006107698e8e610bf2565b5090508073ffffffffffffffffffffffffffffffffffffffff168e73ffffffffffffffffffffffffffffffffffffffff16146107a65781836107a9565b82825b80975081985050508a8710156107f4576040517f08c379a00000000000000000000000000000000000000000000000000000000081526004016107eb90611788565b60405180910390fd5b89861015610837576040517f08c379a000000000000000000000000000000000000000000000000000000000815260040161082e906117f4565b60405180910390fd5b505050505097509795505050505050565b60008060008060007f000000000000000000000000000000000000000000000000000000000000000073ffffffffffffffffffffffffffffffffffffffff1663531aa03e87600001602081019061089f919061150f565b8860200160208101906108b2919061150f565b6040518363ffffffff1660e01b81526004016108cf9291906115ad565b602060405180830381865afa1580156108ec573d6000803e3d6000fd5b505050506040513d601f19601f8201168201806040525081019061091091906115eb565b9250600073ffffffffffffffffffffffffffffffffffffffff168373ffffffffffffffffffffffffffffffffffffffff1603610a0b577f000000000000000000000000000000000000000000000000000000000000000073ffffffffffffffffffffffffffffffffffffffff1663c9c65396876000016020810190610995919061150f565b8860200160208101906109a8919061150f565b6040518363ffffffff1660e01b81526004016109c59291906115ad565b6020604051808303816000875af11580156109e4573d6000803e3d6000fd5b505050506040513d601f19601f82011682018060405250810190610a0891906115eb565b92505b610a3a83876000016020810190610a22919061150f565b886020016020810190610a35919061150f565b610d1e565b8092508193505050600082148015610a525750600081145b15610a6e57856040013586606001358095508196505050610b67565b6000610a7f87604001358484610df5565b905086606001358111610ae6578660a00135811015610ad3576040517f08c379a0000000000000000000000000000000000000000000000000000000008152600401610aca906117f4565b60405180910390fd5b8660400135818096508197505050610b65565b6000610af788606001358486610df5565b90508760400135811115610b0e57610b0d611814565b5b8760800135811015610b55576040517f08c379a0000000000000000000000000000000000000000000000000000000008152600401610b4c90611788565b60405180910390fd5b8088606001358097508198505050505b505b50509193909250565b610bec848573ffffffffffffffffffffffffffffffffffffffff166323b872dd868686604051602401610ba59392919061168f565b604051602081830303815290604052915060e01b6020820180517bffffffffffffffffffffffffffffffffffffffffffffffffffffffff8381831617835250505050610ea8565b50505050565b6000808273ffffffffffffffffffffffffffffffffffffffff168473ffffffffffffffffffffffffffffffffffffffff1603610c63576040517f08c379a0000000000000000000000000000000000000000000000000000000008152600401610c5a9061188f565b60405180910390fd5b8273ffffffffffffffffffffffffffffffffffffffff168473ffffffffffffffffffffffffffffffffffffffff1610610c9d578284610ca0565b83835b8092508193505050600073ffffffffffffffffffffffffffffffffffffffff168273ffffffffffffffffffffffffffffffffffffffff1603610d17576040517f08c379a0000000000000000000000000000000000000000000000000000000008152600401610d0e906118fb565b60405180910390fd5b9250929050565b6000806000610d2d8585610bf2565b5090506000808773ffffffffffffffffffffffffffffffffffffffff16630902f1ac6040518163ffffffff1660e01b81526004016040805180830381865afa158015610d7d573d6000803e3d6000fd5b505050506040513d601f19601f82011682018060405250810190610da1919061164f565b915091508273ffffffffffffffffffffffffffffffffffffffff168773ffffffffffffffffffffffffffffffffffffffff1614610ddf578082610de2565b81815b8095508196505050505050935093915050565b6000808411610e39576040517f08c379a0000000000000000000000000000000000000000000000000000000008152600401610e3090611967565b60405180910390fd5b600083118015610e495750600082115b610e88576040517f08c379a0000000000000000000000000000000000000000000000000000000008152600401610e7f906119d3565b60405180910390fd5b828285610e959190611a22565b610e9f9190611a93565b90509392505050565b6000610ed3828473ffffffffffffffffffffffffffffffffffffffff16610f3f90919063ffffffff16565b90506000815114158015610ef8575080806020019051810190610ef691906116fe565b155b15610f3a57826040517f5274afe7000000000000000000000000000000000000000000000000000000008152600401610f3191906111f2565b60405180910390fd5b505050565b6060610f4d83836000610f55565b905092915050565b606081471015610f9c57306040517fcd786059000000000000000000000000000000000000000000000000000000008152600401610f9391906111f2565b60405180910390fd5b6000808573ffffffffffffffffffffffffffffffffffffffff168486604051610fc59190611b35565b60006040518083038185875af1925050503d8060008114611002576040519150601f19603f3d011682016040523d82523d6000602084013e611007565b606091505b5091509150611017868383611022565b925050509392505050565b60608261103757611032826110b1565b6110a9565b6000825114801561105f575060008473ffffffffffffffffffffffffffffffffffffffff163b145b156110a157836040517f9996b31500000000000000000000000000000000000000000000000000000000815260040161109891906111f2565b60405180910390fd5b8190506110aa565b5b9392505050565b6000815111156110c45780518082602001fd5b6040517f1425ea4200000000000000000000000000000000000000000000000000000000815260040160405180910390fd5b600080fd5b600080fd5b600080fd5b6000610100828403121561111c5761111b611100565b5b81905092915050565b6000610100828403121561113c5761113b6110f6565b5b600061114a84828501611105565b91505092915050565b6000819050919050565b61116681611153565b82525050565b600073ffffffffffffffffffffffffffffffffffffffff82169050919050565b60006111978261116c565b9050919050565b6111a78161118c565b82525050565b60006080820190506111c2600083018761115d565b6111cf602083018661115d565b6111dc604083018561115d565b6111e9606083018461119e565b95945050505050565b6000602082019050611207600083018461119e565b92915050565b61121681611153565b811461122157600080fd5b50565b6000813590506112338161120d565b92915050565b600080fd5b600080fd5b600080fd5b60008083601f84011261125e5761125d611239565b5b8235905067ffffffffffffffff81111561127b5761127a61123e565b5b60208301915083602082028301111561129757611296611243565b5b9250929050565b6112a78161118c565b81146112b257600080fd5b50565b6000813590506112c48161129e565b92915050565b60008060008060008060a087890312156112e7576112e66110f6565b5b60006112f589828a01611224565b965050602061130689828a01611224565b955050604087013567ffffffffffffffff811115611327576113266110fb565b5b61133389828a01611248565b9450945050606061134689828a016112b5565b925050608061135789828a01611224565b9150509295509295509295565b600081519050919050565b600082825260208201905092915050565b6000819050602082019050919050565b61139981611153565b82525050565b60006113ab8383611390565b60208301905092915050565b6000602082019050919050565b60006113cf82611364565b6113d9818561136f565b93506113e483611380565b8060005b838110156114155781516113fc888261139f565b9750611407836113b7565b9250506001810190506113e8565b5085935050505092915050565b6000602082019050818103600083015261143c81846113c4565b905092915050565b600080600080600080600060e0888a031215611463576114626110f6565b5b60006114718a828b016112b5565b97505060206114828a828b016112b5565b96505060406114938a828b01611224565b95505060606114a48a828b01611224565b94505060806114b58a828b01611224565b93505060a06114c68a828b016112b5565b92505060c06114d78a828b01611224565b91505092959891949750929550565b60006040820190506114fb600083018561115d565b611508602083018461115d565b9392505050565b600060208284031215611525576115246110f6565b5b6000611533848285016112b5565b91505092915050565b60008151905061154b8161120d565b92915050565b600060208284031215611567576115666110f6565b5b60006115758482850161153c565b91505092915050565b7f4e487b7100000000000000000000000000000000000000000000000000000000600052603260045260246000fd5b60006040820190506115c2600083018561119e565b6115cf602083018461119e565b9392505050565b6000815190506115e58161129e565b92915050565b600060208284031215611601576116006110f6565b5b600061160f848285016115d6565b91505092915050565b600060608201905061162d600083018661115d565b61163a602083018561115d565b611647604083018461119e565b949350505050565b60008060408385031215611666576116656110f6565b5b60006116748582860161153c565b92505060206116858582860161153c565b9150509250929050565b60006060820190506116a4600083018661119e565b6116b1602083018561119e565b6116be604083018461115d565b949350505050565b60008115159050919050565b6116db816116c6565b81146116e657600080fd5b50565b6000815190506116f8816116d2565b92915050565b600060208284031215611714576117136110f6565b5b6000611722848285016116e9565b91505092915050565b600082825260208201905092915050565b7f20494e53554646494349454e545f415f414d4f554e5400000000000000000000600082015250565b600061177260168361172b565b915061177d8261173c565b602082019050919050565b600060208201905081810360008301526117a181611765565b9050919050565b7f20494e53554646494349454e545f425f414d4f554e5400000000000000000000600082015250565b60006117de60168361172b565b91506117e9826117a8565b602082019050919050565b6000602082019050818103600083015261180d816117d1565b9050919050565b7f4e487b7100000000000000000000000000000000000000000000000000000000600052600160045260246000fd5b7f4944454e544943414c5f41444452455353455300000000000000000000000000600082015250565b600061187960138361172b565b915061188482611843565b602082019050919050565b600060208201905081810360008301526118a88161186c565b9050919050565b7f5a45524f5f414444524553530000000000000000000000000000000000000000600082015250565b60006118e5600c8361172b565b91506118f0826118af565b602082019050919050565b60006020820190508181036000830152611914816118d8565b9050919050565b7f494e53554646494349454e545f414d4f554e5400000000000000000000000000600082015250565b600061195160138361172b565b915061195c8261191b565b602082019050919050565b6000602082019050818103600083015261198081611944565b9050919050565b7f494e53554646494349454e545f4c495155494449545900000000000000000000600082015250565b60006119bd60168361172b565b91506119c882611987565b602082019050919050565b600060208201905081810360008301526119ec816119b0565b9050919050565b7f4e487b7100000000000000000000000000000000000000000000000000000000600052601160045260246000fd5b6000611a2d82611153565b9150611a3883611153565b9250828202611a4681611153565b91508282048414831517611a5d57611a5c6119f3565b5b5092915050565b7f4e487b7100000000000000000000000000000000000000000000000000000000600052601260045260246000fd5b6000611a9e82611153565b9150611aa983611153565b925082611ab957611ab8611a64565b5b828204905092915050565b600081519050919050565b600081905092915050565b60005b83811015611af8578082015181840152602081019050611add565b60008484015250505050565b6000611b0f82611ac4565b611b198185611acf565b9350611b29818560208601611ada565b80840191505092915050565b6000611b418284611b04565b91508190509291505056fea26469706673582212204dd346b90c7fc10b8746f8600bcd96181847048232ea39fe85cd6701cdf14c0a64736f6c63430008140033",
  "linkReferences": {},
  "deployedLinkReferences": {}
}