{
  "_format": "hh-sol-artifact-1",
  "contractName": "LRouter",
  "sourceName": "contracts/periphery/LRouter.sol",
  "abi": [
    {
      "inputs": [
        {
          "internalType": "address",
          "name": "factory",
          "type": "address"
        },
        {
          "internalType": "address",
          "name": "weth",
          "type": "address"
        }
      ],
      "stateMutability": "nonpayable",
      "type": "constructor"
    },
    {
      "inputs": [
        {
          "internalType": "address",
          "name": "target",
          "type": "address"
        }
      ],
      "name": "AddressEmptyCode",
      "type": "error"
    },
    {
      "inputs": [
        {
          "internalType": "address",
          "name": "account",
          "type": "address"
        }
      ],
      "name": "AddressInsufficientBalance",
      "type": "error"
    },
    {
      "inputs": [],
      "name": "Expired",
      "type": "error"
    },
    {
      "inputs": [],
      "name": "FailedInnerCall",
      "type": "error"
    },
    {
      "inputs": [],
      "name": "ReentrancyGuardReentrantCall",
      "type": "error"
    },
    {
      "inputs": [
        {
          "internalType": "address",
          "name": "token",
          "type": "address"
        }
      ],
      "name": "SafeERC20FailedOperation",
      "type": "error"
    },
    {
      "inputs": [],
      "name": "FACTORY",
      "outputs": [
        {
          "internalType": "address",
          "name": "",
          "type": "address"
        }
      ],
      "stateMutability": "view",
      "type": "function"
    },
    {
      "inputs": [
        {
          "components": [
            {
              "internalType": "address",
              "name": "tokenA",
              "type": "address"
            },
            {
              "internalType": "address",
              "name": "tokenB",
              "type": "address"
            },
            {
              "internalType": "uint256",
              "name": "amountADesired",
              "type": "uint256"
            },
            {
              "internalType": "uint256",
              "name": "amountBDesired",
              "type": "uint256"
            },
            {
              "internalType": "uint256",
              "name": "amountAMin",
              "type": "uint256"
            },
            {
              "internalType": "uint256",
              "name": "amountBMin",
              "type": "uint256"
            },
            {
              "internalType": "address",
              "name": "to",
              "type": "address"
            },
            {
              "internalType": "uint256",
              "name": "deadline",
              "type": "uint256"
            }
          ],
          "internalType": "struct LRouter.AddLiquidity",
          "name": "params",
          "type": "tuple"
        }
      ],
      "name": "addLiquidity",
      "outputs": [
        {
          "internalType": "uint256",
          "name": "amountA",
          "type": "uint256"
        },
        {
          "internalType": "uint256",
          "name": "amountB",
          "type": "uint256"
        },
        {
          "internalType": "uint256",
          "name": "liquidity",
          "type": "uint256"
        },
        {
          "internalType": "address",
          "name": "pair",
          "type": "address"
        }
      ],
      "stateMutability": "nonpayable",
      "type": "function"
    },
    {
      "inputs": [
        {
          "internalType": "uint256",
          "name": "",
          "type": "uint256"
        }
      ],
      "name": "collateralPools",
      "outputs": [
        {
          "internalType": "address",
          "name": "",
          "type": "address"
        }
      ],
      "stateMutability": "view",
      "type": "function"
    },
    {
      "inputs": [
        {
          "internalType": "contract IERC20",
          "name": "token",
          "type": "address"
        },
        {
          "internalType": "uint256",
          "name": "assets",
          "type": "uint256"
        },
        {
          "internalType": "address",
          "name": "receiver",
          "type": "address"
        }
      ],
      "name": "depositCollateral",
      "outputs": [
        {
          "internalType": "uint256",
          "name": "amountA",
          "type": "uint256"
        },
        {
          "internalType": "uint256",
          "name": "amountB",
          "type": "uint256"
        },
        {
          "internalType": "address",
          "name": "pair",
          "type": "address"
        }
      ],
      "stateMutability": "nonpayable",
      "type": "function"
    },
    {
      "inputs": [
        {
          "internalType": "address",
          "name": "owner",
          "type": "address"
        }
      ],
      "name": "getAmmPools",
      "outputs": [
        {
          "components": [
            {
              "internalType": "address",
              "name": "pool",
              "type": "address"
            },
            {
              "internalType": "address",
              "name": "token0",
              "type": "address"
            },
            {
              "internalType": "address",
              "name": "token1",
              "type": "address"
            },
            {
              "internalType": "uint256",
              "name": "reserve0",
              "type": "uint256"
            },
            {
              "internalType": "uint256",
              "name": "reserve1",
              "type": "uint256"
            }
          ],
          "internalType": "struct LRouter.Pool[]",
          "name": "allPools",
          "type": "tuple[]"
        }
      ],
      "stateMutability": "nonpayable",
      "type": "function"
    },
    {
      "inputs": [
        {
          "internalType": "uint256",
          "name": "",
          "type": "uint256"
        }
      ],
      "name": "pools",
      "outputs": [
        {
          "internalType": "address",
          "name": "",
          "type": "address"
        }
      ],
      "stateMutability": "view",
      "type": "function"
    },
    {
      "inputs": [
        {
          "internalType": "address",
          "name": "tokenA",
          "type": "address"
        },
        {
          "internalType": "address",
          "name": "tokenB",
          "type": "address"
        },
        {
          "internalType": "uint256",
          "name": "liquidity",
          "type": "uint256"
        },
        {
          "internalType": "uint256",
          "name": "amountAMin",
          "type": "uint256"
        },
        {
          "internalType": "uint256",
          "name": "amountBMin",
          "type": "uint256"
        },
        {
          "internalType": "address",
          "name": "to",
          "type": "address"
        },
        {
          "internalType": "uint256",
          "name": "deadline",
          "type": "uint256"
        }
      ],
      "name": "removeLiquidity",
      "outputs": [
        {
          "internalType": "uint256",
          "name": "amountA",
          "type": "uint256"
        },
        {
          "internalType": "uint256",
          "name": "amountB",
          "type": "uint256"
        }
      ],
      "stateMutability": "nonpayable",
      "type": "function"
    },
    {
      "inputs": [
        {
          "internalType": "uint256",
          "name": "amountIn",
          "type": "uint256"
        },
        {
          "internalType": "uint256",
          "name": "amountOutMin",
          "type": "uint256"
        },
        {
          "internalType": "address[]",
          "name": "path",
          "type": "address[]"
        },
        {
          "internalType": "address",
          "name": "to",
          "type": "address"
        },
        {
          "internalType": "uint256",
          "name": "deadline",
          "type": "uint256"
        }
      ],
      "name": "swapExactTokenForToken",
      "outputs": [
        {
          "internalType": "uint256[]",
          "name": "amounts",
          "type": "uint256[]"
        }
      ],
      "stateMutability": "nonpayable",
      "type": "function"
    },
    {
      "stateMutability": "payable",
      "type": "receive"
    }
  ],
  "bytecode": "0x60a06040523480156200001157600080fd5b506040516200191238038062001912833981016040819052620000349162000069565b5060016000556001600160a01b0316608052620000a1565b80516001600160a01b03811681146200006457600080fd5b919050565b600080604083850312156200007d57600080fd5b62000088836200004c565b915062000098602084016200004c565b90509250929050565b60805161182b620000e76000396000818161012f0152818161026001528181610309015281816105f40152818161084001528181610ce60152610db1015261182b6000f3fe60806040526004361061007f5760003560e01c80636dbe4ef21161004e5780636dbe4ef214610196578063ac4afa38146101b6578063baa2abde146101d6578063f96bd4641461020b57600080fd5b8063224254801461008b57806323790216146100d45780632dd310001461011d5780636ca412e11461016957600080fd5b3661008657005b600080fd5b34801561009757600080fd5b506100ab6100a6366004611401565b610238565b6040805193845260208401929092526001600160a01b0316908201526060015b60405180910390f35b3480156100e057600080fd5b506100f46100ef366004611443565b61045c565b604080519485526020850193909352918301526001600160a01b031660608201526080016100cb565b34801561012957600080fd5b506101517f000000000000000000000000000000000000000000000000000000000000000081565b6040516001600160a01b0390911681526020016100cb565b34801561017557600080fd5b5061018961018436600461145c565b610565565b6040516100cb91906114fe565b3480156101a257600080fd5b506101516101b1366004611542565b6107b7565b3480156101c257600080fd5b506101516101d1366004611542565b6107e1565b3480156101e257600080fd5b506101f66101f136600461155b565b6107f1565b604080519283526020830191909152016100cb565b34801561021757600080fd5b5061022b6102263660046115cd565b610a7b565b6040516100cb91906115ea565b60405163292979d160e11b81526001600160a01b0384811660048301526000918291829182917f00000000000000000000000000000000000000000000000000000000000000001690635252f3a290602401602060405180830381865afa1580156102a7573d6000803e3d6000fd5b505050506040513d601f19601f820116820180604052508101906102cb9190611666565b90506001600160a01b0381166103dd576040516318815cb760e01b81526001600160a01b0388811660048301526024820188905286811660448301527f000000000000000000000000000000000000000000000000000000000000000016906318815cb7906064016020604051808303816000875af1158015610352573d6000803e3d6000fd5b505050506040513d601f19601f820116820180604052508101906103769190611666565b905061038d6001600160a01b038816338389610c76565b600280546001810182556000919091527f405787fa12a823e0f2b7631cc41b3ba8828b3321ca811111fa75cd3aa3bb5ace0180546001600160a01b0319166001600160a01b038316179055610452565b604051636e553f6560e01b8152600481018790526001600160a01b038681166024830152821690636e553f65906044016020604051808303816000875af115801561042c573d6000803e3d6000fd5b505050506040513d601f19601f820116820180604052508101906104509190611683565b505b5093509350939050565b6000806000808460e001358042111561048857604051630407b05b60e31b815260040160405180910390fd5b61049186610cd6565b919650945091506104bc3383876104ab60208b018b6115cd565b6001600160a01b0316929190610c76565b6104d23383866104ab60408b0160208c016115cd565b6001600160a01b038216636a6278426104f160e0890160c08a016115cd565b6040516001600160e01b031960e084901b1681526001600160a01b0390911660048201526024016020604051808303816000875af1158015610537573d6000803e3d6000fd5b505050506040513d601f19601f8201168201806040525081019061055b9190611683565b9250509193509193565b6060818042111561058957604051630407b05b60e31b815260040160405180910390fd5b60008686600181811061059e5761059e61169c565b90506020020160208101906105b391906115cd565b6001600160a01b0316878760008181106105cf576105cf61169c565b90506020020160208101906105e491906115cd565b6001600160a01b031611905060007f00000000000000000000000000000000000000000000000000000000000000006001600160a01b031663531aa03e898960008181106106345761063461169c565b905060200201602081019061064991906115cd565b8a8a600181811061065c5761065c61169c565b905060200201602081019061067191906115cd565b6040516001600160e01b031960e085901b1681526001600160a01b03928316600482015291166024820152604401602060405180830381865afa1580156106bc573d6000803e3d6000fd5b505050506040513d601f19601f820116820180604052508101906106e09190611666565b905061071033828c8b8b60008181106106fb576106fb61169c565b90506020020160208101906104ab91906115cd565b886000808461072157826000610725565b6000835b6040516336cd320560e11b815260048101839052602481018290526001600160a01b038c8116604483015292945090925090851690636d9a640a9060640160408051808303816000875af1158015610781573d6000803e3d6000fd5b505050506040513d601f19601f820116820180604052508101906107a591906116b2565b50505050505050509695505050505050565b600281815481106107c757600080fd5b6000918252602090912001546001600160a01b0316905081565b600181815481106107c757600080fd5b600080828042111561081657604051630407b05b60e31b815260040160405180910390fd5b60405163298d501f60e11b81526001600160a01b038b811660048301528a811660248301526000917f00000000000000000000000000000000000000000000000000000000000000009091169063531aa03e90604401602060405180830381865afa158015610889573d6000803e3d6000fd5b505050506040513d601f19601f820116820180604052508101906108ad9190611666565b6040516323b872dd60e01b81523360048201526001600160a01b03821660248201819052604482018c90529192506323b872dd906064016020604051808303816000875af1158015610903573d6000803e3d6000fd5b505050506040513d601f19601f8201168201806040525081019061092791906116d6565b5060405163226bf2d160e21b81526001600160a01b03878116600483015260009182918416906389afcb449060240160408051808303816000875af1158015610974573d6000803e3d6000fd5b505050506040513d601f19601f8201168201806040525081019061099891906116b2565b9150915060006109a88e8e611003565b509050806001600160a01b03168e6001600160a01b0316146109cb5781836109ce565b82825b90975095508a871015610a215760405162461bcd60e51b815260206004820152601660248201527508125394d551919250d251539517d057d05353d5539560521b60448201526064015b60405180910390fd5b89861015610a6a5760405162461bcd60e51b815260206004820152601660248201527508125394d551919250d251539517d097d05353d5539560521b6044820152606401610a18565b505050505097509795505050505050565b6001546060908067ffffffffffffffff811115610a9a57610a9a6116f8565b604051908082528060200260200182016040528015610af357816020015b6040805160a081018252600080825260208083018290529282018190526060820181905260808201528252600019909201910181610ab85790505b50915060005b81811015610c6f57600060018281548110610b1657610b1661169c565b60009182526020822001546040805163154d950160e31b815281516001600160a01b0390931694508392859263aa6ca80892600480820193918290030181865afa158015610b68573d6000803e3d6000fd5b505050506040513d601f19601f82011682018060405250810190610b8c919061170e565b91509150600080846001600160a01b0316630902f1ac6040518163ffffffff1660e01b81526004016040805180830381865afa158015610bd0573d6000803e3d6000fd5b505050506040513d601f19601f82011682018060405250810190610bf491906116b2565b915091506040518060a00160405280866001600160a01b03168152602001856001600160a01b03168152602001846001600160a01b0316815260200183815260200182815250888781518110610c4c57610c4c61169c565b602002602001018190525050505050508080610c679061175e565b915050610af9565b5050919050565b604080516001600160a01b0385811660248301528416604482015260648082018490528251808303909101815260849091019091526020810180516001600160e01b03166323b872dd60e01b179052610cd09085906110d1565b50505050565b6000808080806001600160a01b037f00000000000000000000000000000000000000000000000000000000000000001663531aa03e610d1860208901896115cd565b610d2860408a0160208b016115cd565b6040516001600160e01b031960e085901b1681526001600160a01b03928316600482015291166024820152604401602060405180830381865afa158015610d73573d6000803e3d6000fd5b505050506040513d601f19601f82011682018060405250810190610d979190611666565b92506001600160a01b038316610eb1576001600160a01b037f00000000000000000000000000000000000000000000000000000000000000001663c9c65396610de360208901896115cd565b610df360408a0160208b016115cd565b6040516001600160e01b031960e085901b1681526001600160a01b039283166004820152911660248201526044016020604051808303816000875af1158015610e40573d6000803e3d6000fd5b505050506040513d601f19601f82011682018060405250810190610e649190611666565b6001805480820182556000919091527fb10e2d527612073b26eecdfd717e6a320cf44b4afac2b0732d9fcbe2b7fa0cf60180546001600160a01b0319166001600160a01b03831617905592505b610ed783610ec260208901896115cd565b610ed260408a0160208b016115cd565b611139565b909250905081158015610ee8575080155b15610f00576040860135945060608601359350610ffa565b6000610f11876040013584846111e5565b905086606001358111610f7a578660a00135811015610f6b5760405162461bcd60e51b815260206004820152601660248201527508125394d551919250d251539517d097d05353d5539560521b6044820152606401610a18565b60408701359550935083610ff8565b6000610f8b886060013584866111e5565b90508760400135811115610fa157610fa1611777565b8760800135811015610fee5760405162461bcd60e51b815260206004820152601660248201527508125394d551919250d251539517d057d05353d5539560521b6044820152606401610a18565b9550606087013594505b505b50509193909250565b600080826001600160a01b0316846001600160a01b03160361105d5760405162461bcd60e51b81526020600482015260136024820152724944454e544943414c5f41444452455353455360681b6044820152606401610a18565b826001600160a01b0316846001600160a01b03161061107d578284611080565b83835b90925090506001600160a01b0382166110ca5760405162461bcd60e51b815260206004820152600c60248201526b5a45524f5f4144445245535360a01b6044820152606401610a18565b9250929050565b60006110e66001600160a01b0384168361129e565b9050805160001415801561110b57508080602001905181019061110991906116d6565b155b1561113457604051635274afe760e01b81526001600160a01b0384166004820152602401610a18565b505050565b60008060006111488585611003565b509050600080876001600160a01b0316630902f1ac6040518163ffffffff1660e01b81526004016040805180830381865afa15801561118b573d6000803e3d6000fd5b505050506040513d601f19601f820116820180604052508101906111af91906116b2565b91509150826001600160a01b0316876001600160a01b0316146111d35780826111d6565b81815b90999098509650505050505050565b600080841161122c5760405162461bcd60e51b8152602060048201526013602482015272125394d551919250d251539517d05353d55395606a1b6044820152606401610a18565b60008311801561123c5750600082115b6112815760405162461bcd60e51b8152602060048201526016602482015275494e53554646494349454e545f4c495155494449545960501b6044820152606401610a18565b8261128c838661178d565b61129691906117a4565b949350505050565b60606112ac838360006112b5565b90505b92915050565b6060814710156112da5760405163cd78605960e01b8152306004820152602401610a18565b600080856001600160a01b031684866040516112f691906117c6565b60006040518083038185875af1925050503d8060008114611333576040519150601f19603f3d011682016040523d82523d6000602084013e611338565b606091505b5091509150611348868383611354565b925050505b9392505050565b60608261136957611364826113b0565b61134d565b815115801561138057506001600160a01b0384163b155b156113a957604051639996b31560e01b81526001600160a01b0385166004820152602401610a18565b508061134d565b8051156113c05780518082602001fd5b604051630a12f52160e11b815260040160405180910390fd5b50565b6001600160a01b03811681146113d957600080fd5b80356113fc816113dc565b919050565b60008060006060848603121561141657600080fd5b8335611421816113dc565b9250602084013591506040840135611438816113dc565b809150509250925092565b6000610100828403121561145657600080fd5b50919050565b60008060008060008060a0878903121561147557600080fd5b8635955060208701359450604087013567ffffffffffffffff8082111561149b57600080fd5b818901915089601f8301126114af57600080fd5b8135818111156114be57600080fd5b8a60208260051b85010111156114d357600080fd5b6020830196508095505050506114eb606088016113f1565b9150608087013590509295509295509295565b6020808252825182820181905260009190848201906040850190845b818110156115365783518352928401929184019160010161151a565b50909695505050505050565b60006020828403121561155457600080fd5b5035919050565b600080600080600080600060e0888a03121561157657600080fd5b8735611581816113dc565b96506020880135611591816113dc565b955060408801359450606088013593506080880135925060a08801356115b6816113dc565b8092505060c0880135905092959891949750929550565b6000602082840312156115df57600080fd5b813561134d816113dc565b602080825282518282018190526000919060409081850190868401855b8281101561165957815180516001600160a01b03908116865287820151811688870152868201511686860152606080820151908601526080908101519085015260a09093019290850190600101611607565b5091979650505050505050565b60006020828403121561167857600080fd5b815161134d816113dc565b60006020828403121561169557600080fd5b5051919050565b634e487b7160e01b600052603260045260246000fd5b600080604083850312156116c557600080fd5b505080516020909101519092909150565b6000602082840312156116e857600080fd5b8151801515811461134d57600080fd5b634e487b7160e01b600052604160045260246000fd5b6000806040838503121561172157600080fd5b825161172c816113dc565b602084015190925061173d816113dc565b809150509250929050565b634e487b7160e01b600052601160045260246000fd5b60006001820161177057611770611748565b5060010190565b634e487b7160e01b600052600160045260246000fd5b80820281158282048414176112af576112af611748565b6000826117c157634e487b7160e01b600052601260045260246000fd5b500490565b6000825160005b818110156117e757602081860181015185830152016117cd565b50600092019182525091905056fea26469706673582212201db29fd1305a10d680e4b5bbf53c65d134f15a3d85fd4992ddc6b44e55954d9664736f6c63430008140033",
  "linkReferences": {},
  "deployedLinkReferences": {}
}