{
  "_format": "hh-sol-artifact-1",
  "contractName": "LFactory",
  "sourceName": "contracts/LFactory.sol",
  "abi": [
    {
      "inputs": [
        {
          "internalType": "address",
          "name": "swapPool",
          "type": "address"
        }
      ],
      "stateMutability": "nonpayable",
      "type": "constructor"
    },
    {
      "inputs": [
        {
          "internalType": "address",
          "name": "target",
          "type": "address"
        }
      ],
      "name": "AddressEmptyCode",
      "type": "error"
    },
    {
      "inputs": [
        {
          "internalType": "address",
          "name": "account",
          "type": "address"
        }
      ],
      "name": "AddressInsufficientBalance",
      "type": "error"
    },
    {
      "inputs": [],
      "name": "ERC1167FailedCreateClone",
      "type": "error"
    },
    {
      "inputs": [],
      "name": "FailedInnerCall",
      "type": "error"
    },
    {
      "inputs": [
        {
          "internalType": "address",
          "name": "pair",
          "type": "address"
        }
      ],
      "name": "PairAlreadyExist",
      "type": "error"
    },
    {
      "inputs": [
        {
          "internalType": "address",
          "name": "pool",
          "type": "address"
        }
      ],
      "name": "PoolAlreadyExist",
      "type": "error"
    },
    {
      "inputs": [
        {
          "internalType": "uint8",
          "name": "bits",
          "type": "uint8"
        },
        {
          "internalType": "uint256",
          "name": "value",
          "type": "uint256"
        }
      ],
      "name": "SafeCastOverflowedUintDowncast",
      "type": "error"
    },
    {
      "inputs": [
        {
          "internalType": "address",
          "name": "token",
          "type": "address"
        }
      ],
      "name": "SafeERC20FailedOperation",
      "type": "error"
    },
    {
      "inputs": [],
      "name": "DECIMAL",
      "outputs": [
        {
          "internalType": "uint256",
          "name": "",
          "type": "uint256"
        }
      ],
      "stateMutability": "view",
      "type": "function"
    },
    {
      "inputs": [],
      "name": "MAX_LTV",
      "outputs": [
        {
          "internalType": "uint256",
          "name": "",
          "type": "uint256"
        }
      ],
      "stateMutability": "view",
      "type": "function"
    },
    {
      "inputs": [],
      "name": "PAIR_REFERENCE",
      "outputs": [
        {
          "internalType": "address",
          "name": "",
          "type": "address"
        }
      ],
      "stateMutability": "view",
      "type": "function"
    },
    {
      "inputs": [],
      "name": "YEAR",
      "outputs": [
        {
          "internalType": "uint256",
          "name": "",
          "type": "uint256"
        }
      ],
      "stateMutability": "view",
      "type": "function"
    },
    {
      "inputs": [
        {
          "internalType": "address",
          "name": "collateral",
          "type": "address"
        },
        {
          "internalType": "address",
          "name": "tokenToBorrow",
          "type": "address"
        },
        {
          "internalType": "uint112",
          "name": "amount",
          "type": "uint112"
        }
      ],
      "name": "borrow",
      "outputs": [],
      "stateMutability": "nonpayable",
      "type": "function"
    },
    {
      "inputs": [
        {
          "internalType": "contract IERC20",
          "name": "_token",
          "type": "address"
        },
        {
          "internalType": "uint256",
          "name": "assets",
          "type": "uint256"
        },
        {
          "internalType": "address",
          "name": "receiver",
          "type": "address"
        }
      ],
      "name": "createCollateralPool",
      "outputs": [
        {
          "internalType": "address",
          "name": "pool",
          "type": "address"
        }
      ],
      "stateMutability": "nonpayable",
      "type": "function"
    },
    {
      "inputs": [
        {
          "internalType": "address",
          "name": "_token0",
          "type": "address"
        },
        {
          "internalType": "address",
          "name": "_token1",
          "type": "address"
        }
      ],
      "name": "createPair",
      "outputs": [
        {
          "internalType": "address",
          "name": "pair",
          "type": "address"
        }
      ],
      "stateMutability": "nonpayable",
      "type": "function"
    },
    {
      "inputs": [
        {
          "internalType": "address",
          "name": "token",
          "type": "address"
        }
      ],
      "name": "getCollateralPool",
      "outputs": [
        {
          "internalType": "address",
          "name": "",
          "type": "address"
        }
      ],
      "stateMutability": "view",
      "type": "function"
    },
    {
      "inputs": [
        {
          "internalType": "address",
          "name": "borrower",
          "type": "address"
        },
        {
          "internalType": "address",
          "name": "collateral",
          "type": "address"
        }
      ],
      "name": "getLoanStats",
      "outputs": [
        {
          "internalType": "uint256",
          "name": "totalLTV",
          "type": "uint256"
        },
        {
          "internalType": "uint256",
          "name": "totalDebt",
          "type": "uint256"
        },
        {
          "internalType": "uint256",
          "name": "totalInterest",
          "type": "uint256"
        },
        {
          "internalType": "uint8",
          "name": "loanCount",
          "type": "uint8"
        }
      ],
      "stateMutability": "nonpayable",
      "type": "function"
    },
    {
      "inputs": [
        {
          "internalType": "address",
          "name": "token0",
          "type": "address"
        },
        {
          "internalType": "address",
          "name": "token1",
          "type": "address"
        }
      ],
      "name": "getPairTokensOrder",
      "outputs": [
        {
          "internalType": "address",
          "name": "",
          "type": "address"
        },
        {
          "internalType": "address",
          "name": "",
          "type": "address"
        }
      ],
      "stateMutability": "pure",
      "type": "function"
    },
    {
      "inputs": [
        {
          "internalType": "address",
          "name": "_token0",
          "type": "address"
        },
        {
          "internalType": "address",
          "name": "_token1",
          "type": "address"
        }
      ],
      "name": "getPool",
      "outputs": [
        {
          "internalType": "address",
          "name": "",
          "type": "address"
        }
      ],
      "stateMutability": "view",
      "type": "function"
    },
    {
      "inputs": [
        {
          "internalType": "address",
          "name": "borrower",
          "type": "address"
        },
        {
          "internalType": "address",
          "name": "collateral",
          "type": "address"
        }
      ],
      "name": "getUserLoans",
      "outputs": [
        {
          "components": [
            {
              "internalType": "address",
              "name": "ammPool",
              "type": "address"
            },
            {
              "internalType": "address",
              "name": "collateralPool",
              "type": "address"
            },
            {
              "internalType": "address",
              "name": "tokenBorrowed",
              "type": "address"
            },
            {
              "internalType": "uint112",
              "name": "amount",
              "type": "uint112"
            },
            {
              "internalType": "uint112",
              "name": "accruedInterest",
              "type": "uint112"
            },
            {
              "internalType": "uint8",
              "name": "interestRate",
              "type": "uint8"
            },
            {
              "internalType": "uint64",
              "name": "borrowedAt",
              "type": "uint64"
            }
          ],
          "internalType": "struct ILFactory.LoanMarket[]",
          "name": "",
          "type": "tuple[]"
        }
      ],
      "stateMutability": "nonpayable",
      "type": "function"
    },
    {
      "inputs": [
        {
          "internalType": "address",
          "name": "borrower",
          "type": "address"
        },
        {
          "internalType": "address",
          "name": "collateral",
          "type": "address"
        }
      ],
      "name": "isLiquidatable",
      "outputs": [
        {
          "internalType": "bool",
          "name": "",
          "type": "bool"
        }
      ],
      "stateMutability": "nonpayable",
      "type": "function"
    },
    {
      "inputs": [],
      "name": "oracle",
      "outputs": [
        {
          "internalType": "contract LSlidingWindowOracle",
          "name": "",
          "type": "address"
        }
      ],
      "stateMutability": "view",
      "type": "function"
    },
    {
      "inputs": [
        {
          "internalType": "address",
          "name": "collateral",
          "type": "address"
        },
        {
          "internalType": "address",
          "name": "tokenToBorrow",
          "type": "address"
        },
        {
          "internalType": "uint256",
          "name": "index",
          "type": "uint256"
        },
        {
          "internalType": "uint112",
          "name": "amount",
          "type": "uint112"
        }
      ],
      "name": "repay",
      "outputs": [],
      "stateMutability": "nonpayable",
      "type": "function"
    },
    {
      "inputs": [
        {
          "internalType": "address",
          "name": "collateral",
          "type": "address"
        },
        {
          "internalType": "address",
          "name": "tokenToBorrow",
          "type": "address"
        },
        {
          "internalType": "uint256",
          "name": "index",
          "type": "uint256"
        }
      ],
      "name": "repayFull",
      "outputs": [],
      "stateMutability": "nonpayable",
      "type": "function"
    },
    {
      "inputs": [
        {
          "internalType": "contract LSlidingWindowOracle",
          "name": "_oracle",
          "type": "address"
        }
      ],
      "name": "setOracle",
      "outputs": [],
      "stateMutability": "nonpayable",
      "type": "function"
    },
    {
      "inputs": [
        {
          "internalType": "address",
          "name": "pair",
          "type": "address"
        }
      ],
      "name": "update",
      "outputs": [],
      "stateMutability": "nonpayable",
      "type": "function"
    },
    {
      "inputs": [
        {
          "internalType": "address",
          "name": "tokenA",
          "type": "address"
        },
        {
          "internalType": "address",
          "name": "tokenB",
          "type": "address"
        }
      ],
      "name": "update",
      "outputs": [],
      "stateMutability": "nonpayable",
      "type": "function"
    },
    {
      "inputs": [
        {
          "internalType": "address",
          "name": "",
          "type": "address"
        },
        {
          "internalType": "address",
          "name": "",
          "type": "address"
        },
        {
          "internalType": "uint256",
          "name": "",
          "type": "uint256"
        }
      ],
      "name": "userLoans",
      "outputs": [
        {
          "internalType": "address",
          "name": "ammPool",
          "type": "address"
        },
        {
          "internalType": "address",
          "name": "collateralPool",
          "type": "address"
        },
        {
          "internalType": "address",
          "name": "tokenBorrowed",
          "type": "address"
        },
        {
          "internalType": "uint112",
          "name": "amount",
          "type": "uint112"
        },
        {
          "internalType": "uint112",
          "name": "accruedInterest",
          "type": "uint112"
        },
        {
          "internalType": "uint8",
          "name": "interestRate",
          "type": "uint8"
        },
        {
          "internalType": "uint64",
          "name": "borrowedAt",
          "type": "uint64"
        }
      ],
      "stateMutability": "view",
      "type": "function"
    }
  ],
  "bytecode": "0x60a060405234801561001057600080fd5b5060405162003c8538038062003c8583398101604081905261003191610042565b6001600160a01b0316608052610072565b60006020828403121561005457600080fd5b81516001600160a01b038116811461006b57600080fd5b9392505050565b608051613bf062000095600039600081816103b701526116310152613bf06000f3fe60806040523480156200001157600080fd5b5060043610620001455760003560e01c80637adbf97311620000bb578063ab0cd03f116200007a578063ab0cd03f1462000379578063b3fd868a14620003b1578063c640752d14620003d9578063c9c6539614620003f0578063ccee16c1146200040757600080fd5b80637adbf97314620002ff5780637dc0d1d0146200033257806381bf8d3d146200034657806383914540146200035657806399464a18146200036257600080fd5b80633966a28b11620001085780633966a28b14620002375780635252f3a2146200025f578063531aa03e146200028e5780636ab55fd914620002a55780636aba330114620002c457600080fd5b806301a8392a146200014a578063046b43b714620001c057806318815cb714620001d95780631c1b877214620002095780631d3d39eb1462000220575b600080fd5b620001616200015b36600462001db8565b6200042d565b604080516001600160a01b039889168152968816602088015294909616938501939093526001600160701b03918216606085015216608083015260ff1660a08201526001600160401b0390911660c082015260e0015b60405180910390f35b620001d7620001d136600462001db8565b620004c4565b005b620001f0620001ea36600462001dfe565b620004d9565b6040516001600160a01b039091168152602001620001b7565b620001d76200021a36600462001e45565b6200078d565b620001d76200023136600462001e82565b620007ea565b6200024e6200024836600462001ed0565b62000b3a565b6040519015158152602001620001b7565b620001f06200027036600462001e45565b6001600160a01b039081166000908152600260205260409020541690565b620001f06200029f36600462001ed0565b62000b61565b620002b5670de0b6b3a764000081565b604051908152602001620001b7565b620002db620002d536600462001ed0565b62000ba2565b6040805194855260208501939093529183015260ff166060820152608001620001b7565b620001d76200031036600462001e45565b600080546001600160a01b0319166001600160a01b0392909216919091179055565b600054620001f0906001600160a01b031681565b620002b5670b1a2bc2ec50000081565b620002b56301e1338081565b620001d76200037336600462001f0e565b62000f65565b620003906200038a36600462001ed0565b620014af565b604080516001600160a01b03938416815292909116602083015201620001b7565b620001f07f000000000000000000000000000000000000000000000000000000000000000081565b620001d7620003ea36600462001ed0565b620014e5565b620001f06200040136600462001ed0565b620015c3565b6200041e6200041836600462001ed0565b62001775565b604051620001b7919062001f66565b600360205282600052604060002060205281600052604060002081815481106200045657600080fd5b6000918252602090912060059091020180546001820154600283015460038401546004909401546001600160a01b03938416975091831695509190911692506001600160701b0380831692600160701b810490911691600160e01b90910460ff16906001600160401b031687565b3383620004d2828262001865565b5050505050565b600080846001600160a01b03166306fdde036040518163ffffffff1660e01b8152600401600060405180830381865afa1580156200051b573d6000803e3d6000fd5b505050506040513d6000823e601f3d908101601f1916820160405262000545919081019062002051565b90506000856001600160a01b03166395d89b416040518163ffffffff1660e01b8152600401600060405180830381865afa15801562000588573d6000803e3d6000fd5b505050506040513d6000823e601f3d908101601f19168201604052620005b2919081019062002051565b9050858282604051620005c59062001d94565b620005d39392919062002137565b604051809103906000f080158015620005f0573d6000803e3d6000fd5b5092506200060a6001600160a01b038716333088620019f1565b60405163095ea7b360e01b81526001600160a01b0384811660048301526024820187905287169063095ea7b3906044016020604051808303816000875af11580156200065a573d6000803e3d6000fd5b505050506040513d601f19601f8201168201806040525081019062000680919062002171565b50604051636e553f6560e01b8152600481018690526001600160a01b038581166024830152841690636e553f65906044016020604051808303816000875af1158015620006d1573d6000803e3d6000fd5b505050506040513d601f19601f82011682018060405250810190620006f7919062002195565b506001600160a01b03868116600090815260026020526040902054161562000755576001600160a01b0386811660009081526002602052604090819020549051635d6c86f960e11b8152911660048201526024015b60405180910390fd5b50506001600160a01b03938416600090815260026020526040902080546001600160a01b031916948216949094179093555090919050565b600054604051630e0dc3b960e11b81526001600160a01b03838116600483015290911690631c1b877290602401600060405180830381600087803b158015620007d557600080fd5b505af1158015620004d2573d6000803e3d6000fd5b3383816000620007fb838762000b61565b905062000808816200078d565b6001600160a01b038088166000908152600260205260408120549091166040516370a0823160e01b81526001600160a01b0385811660048301529192508291600091908316906370a0823190602401602060405180830381865afa15801562000875573d6000803e3d6000fd5b505050506040513d601f19601f820116820180604052508101906200089b919062002195565b604051631d3d39eb60e01b81526001600160a01b038b8116600483015287811660248301526001600160701b038b16604483015291925090851690631d3d39eb90606401600060405180830381600087803b158015620008fa57600080fd5b505af11580156200090f573d6000803e3d6000fd5b5050505060036000866001600160a01b03166001600160a01b0316815260200190815260200160002060008b6001600160a01b03166001600160a01b031681526020019081526020016000206040518060e00160405280866001600160a01b03168152602001856001600160a01b031681526020018b6001600160a01b031681526020018a6001600160701b0316815260200160006001600160701b03168152602001600160ff1681526020014263ffffffff166001600160401b0316815250908060018154018082558091505060019003906000526020600020906005020160009091909190915060008201518160000160006101000a8154816001600160a01b0302191690836001600160a01b0316021790555060208201518160010160006101000a8154816001600160a01b0302191690836001600160a01b0316021790555060408201518160020160006101000a8154816001600160a01b0302191690836001600160a01b0316021790555060608201518160030160006101000a8154816001600160701b0302191690836001600160701b03160217905550608082015181600301600e6101000a8154816001600160701b0302191690836001600160701b0316021790555060a082015181600301601c6101000a81548160ff021916908360ff16021790555060c08201518160040160006101000a8154816001600160401b0302191690836001600160401b0316021790555050505050505050620004d2828262001865565b60008062000b49848462000ba2565b505050670b1a2bc2ec50000011159150505b92915050565b600080600062000b728585620014af565b6001600160a01b039182166000908152600160209081526040808320938516835292905220541695945050505050565b6001600160a01b0380831660009081526003602090815260408083209385168352928152828220805484518184028101840190955280855292938493849384938493929091849084015b8282101562000c8c5760008481526020908190206040805160e0810182526005860290920180546001600160a01b03908116845260018083015482168587015260028301549091169284019290925260038101546001600160701b038082166060860152600160701b8204166080850152600160e01b900460ff1660a0840152600401546001600160401b031660c0830152908352909201910162000bec565b5050505090508051915060005b8260ff1681101562000ea157600062000cce83838151811062000cc05762000cc0620021af565b602002602001015162001a53565b60005484519192506001600160a01b031690638c86f1e4908a90849087908790811062000cff5762000cff620021af565b6020026020010151604001516040518463ffffffff1660e01b815260040162000d48939291906001600160a01b0393841681526020810192909252909116604082015260600190565b602060405180830381865afa15801562000d66573d6000803e3d6000fd5b505050506040513d601f19601f8201168201806040525081019062000d8c919062002195565b62000d989086620021db565b60005484519196506001600160a01b031690638c86f1e4908a9086908690811062000dc75762000dc7620021af565b60200260200101516060015186868151811062000de85762000de8620021af565b6020026020010151604001516040518463ffffffff1660e01b815260040162000e3a939291906001600160a01b0393841681526001600160701b03929092166020830152909116604082015260600190565b602060405180830381865afa15801562000e58573d6000803e3d6000fd5b505050506040513d601f19601f8201168201806040525081019062000e7e919062002195565b62000e8a9087620021db565b9550508062000e9990620021f1565b905062000c99565b506001600160a01b03808716600090815260026020526040902054166040516370a0823160e01b81526001600160a01b03898116600483015291909116906370a0823190602401602060405180830381865afa15801562000f06573d6000803e3d6000fd5b505050506040513d601f19601f8201168201806040525081019062000f2c919062002195565b670de0b6b3a764000062000f418587620021db565b62000f4d91906200220d565b62000f59919062002227565b94505092959194509250565b338481600062000f76838862000b61565b6001600160a01b038084166000908152600360209081526040808320938d168352929052908120805492935090918890811062000fb75762000fb7620021af565b60009182526020822060059190910201600381015460048201549193506301e13380916001600160701b03821691600160e01b900460ff16906200100b906001600160401b03164263ffffffff166200224a565b62001017919062002274565b6001600160401b03166200102c9190620022a2565b6001600160701b031662001041919062002227565b6003830154620010629190600160701b90046001600160701b0316620021db565b6003830154909150600090819062001085906001600160701b0316848b62001ac9565b604051633e4748e960e11b81526001600160a01b038e8116600483015289811660248301526001600160701b0380851660448401528316606483015292945090925090861690637c8e91d290608401600060405180830381600087803b158015620010ef57600080fd5b505af115801562001104573d6000803e3d6000fd5b50505060038501546001600160701b03808c1692506200112791869116620022c8565b6001600160701b03161015620013d7576000620011458d8d62001775565b5190506001811115620013165760036000886001600160a01b03166001600160a01b0316815260200190815260200160002060008e6001600160a01b03166001600160a01b03168152602001908152602001600020600182620011a99190620022eb565b81548110620011bc57620011bc620021af565b906000526020600020906005020160036000896001600160a01b03166001600160a01b0316815260200190815260200160002060008f6001600160a01b03166001600160a01b031681526020019081526020016000208c81548110620012265762001226620021af565b60009182526020909120825460059092020180546001600160a01b039283166001600160a01b031991821617825560018085015490830180549185169183169190911790556002808501549083018054919094169116179091556003808301805491830180546001600160701b039384166dffffffffffffffffffffffffffff1982168117835583546001600160e01b031990921617600160701b918290049094160292909217808355905460ff60e01b19909116600160e01b9182900460ff16909102179055600491820154910180546001600160401b0390921667ffffffffffffffff199092169190911790555b60036000886001600160a01b03166001600160a01b0316815260200190815260200160002060008e6001600160a01b03166001600160a01b0316815260200190815260200160002080548062001370576200137062002301565b60008281526020902060056000199092019182020180546001600160a01b031990811682556001820180548216905560028201805490911690556003810180546001600160e81b0319169055600401805467ffffffffffffffff1916905590555062001495565b60048401805467ffffffffffffffff191663ffffffff4216179055620013fe818462002317565b600385018054600e9062001424908490600160701b90046001600160701b0316620022c8565b92506101000a8154816001600160701b0302191690836001600160701b03160217905550818460030160008282829054906101000a90046001600160701b031662001470919062002317565b92506101000a8154816001600160701b0302191690836001600160701b031602179055505b505050505050620014a7828262001865565b505050505050565b600080826001600160a01b0316846001600160a01b03161115620014d8575082905081620014de565b50819050825b9250929050565b60405163298d501f60e11b81526001600160a01b03808416600483015282166024820152600090309063531aa03e90604401602060405180830381865afa15801562001535573d6000803e3d6000fd5b505050506040513d601f19601f820116820180604052508101906200155b91906200233a565b600054604051630e0dc3b960e11b81526001600160a01b038084166004830152929350911690631c1b877290602401600060405180830381600087803b158015620015a557600080fd5b505af1158015620015ba573d6000803e3d6000fd5b50505050505050565b600080600080620015d58686620014af565b6040516bffffffffffffffffffffffff19606084811b8216602084015283901b166034820152426048820152919350915060680160408051601f1981840301815291905280516020909101209250620016586001600160a01b037f0000000000000000000000000000000000000000000000000000000000000000168462001b34565b60405163485cc95560e01b81526001600160a01b03848116600483015283811660248301529195509085169063485cc95590604401600060405180830381600087803b158015620016a857600080fd5b505af1158015620016bd573d6000803e3d6000fd5b505050506001600160a01b0382811660009081526001602090815260408083208585168452909152902054161562001734576001600160a01b0382811660009081526001602090815260408083208585168452909152908190205490516363cc934360e11b8152911660048201526024016200074c565b6001600160a01b03918216600090815260016020908152604080832093851683529290522080546001600160a01b0319169184169190911790555092915050565b6001600160a01b0380831660009081526003602090815260408083209385168352928152828220805484518184028101840190955280855260609493919290919084015b82821015620018595760008481526020908190206040805160e0810182526005860290920180546001600160a01b03908116845260018083015482168587015260028301549091169284019290925260038101546001600160701b038082166060860152600160701b8204166080850152600160e01b900460ff1660a0840152600401546001600160401b031660c08301529083529092019101620017b9565b50505050905092915050565b6001600160a01b038083166000908152600360209081526040808320938516835292815282822080548451818402810184019095528085529293929091849084015b82821015620019475760008481526020908190206040805160e0810182526005860290920180546001600160a01b03908116845260018083015482168587015260028301549091169284019290925260038101546001600160701b038082166060860152600160701b8204166080850152600160e01b900460ff1660a0840152600401546001600160401b031660c08301529083529092019101620018a7565b50505050905061010081511115620019a25760405162461bcd60e51b815260206004820152601e60248201527f546f6f206d616e79206c6f616e73206f6e206120636f6c6c61746572616c000060448201526064016200074c565b620019ae838362000b3a565b15620019ec5760405162461bcd60e51b815260206004820152600c60248201526b13151588195e18d95959195960a21b60448201526064016200074c565b505050565b604080516001600160a01b0385811660248301528416604482015260648082018490528251808303909101815260849091019091526020810180516001600160e01b03166323b872dd60e01b17905262001a4d90859062001ba3565b50505050565b60006301e1338082606001516001600160701b03168360a0015160ff168460c001516001600160401b03164262001a8b9190620022eb565b62001a9791906200220d565b62001aa391906200220d565b62001aaf919062002227565b82608001516001600160701b031662000b5b9190620021db565b6000808062001ad98587620022c8565b905062001b1b816001600160701b0316856001600160701b0316886001600160701b031662001b0991906200220d565b62001b15919062002227565b62001c0d565b925062001b29838562002317565b915050935093915050565b6000763d602d80600a3d3981f3363d3d373d3d3d363d730000008360601b60e81c176000526e5af43d82803e903d91602b57fd5bf38360781b1760205281603760096000f590506001600160a01b03811662000b5b576040516330be1a3d60e21b815260040160405180910390fd5b600062001bba6001600160a01b0384168362001c47565b9050805160001415801562001be257508080602001905181019062001be0919062002171565b155b15620019ec57604051635274afe760e01b81526001600160a01b03841660048201526024016200074c565b60006001600160701b0382111562001c43576040516306dfcc6560e41b815260706004820152602481018390526044016200074c565b5090565b606062001c578383600062001c5e565b9392505050565b60608147101562001c855760405163cd78605960e01b81523060048201526024016200074c565b600080856001600160a01b0316848660405162001ca391906200235a565b60006040518083038185875af1925050503d806000811462001ce2576040519150601f19603f3d011682016040523d82523d6000602084013e62001ce7565b606091505b509150915062001cf986838362001d03565b9695505050505050565b60608262001d1c5762001d168262001d67565b62001c57565b815115801562001d3457506001600160a01b0384163b155b1562001d5f57604051639996b31560e01b81526001600160a01b03851660048201526024016200074c565b508062001c57565b80511562001d785780518082602001fd5b604051630a12f52160e11b815260040160405180910390fd5b50565b611842806200237983390190565b6001600160a01b038116811462001d9157600080fd5b60008060006060848603121562001dce57600080fd5b833562001ddb8162001da2565b9250602084013562001ded8162001da2565b929592945050506040919091013590565b60008060006060848603121562001e1457600080fd5b833562001e218162001da2565b925060208401359150604084013562001e3a8162001da2565b809150509250925092565b60006020828403121562001e5857600080fd5b813562001c578162001da2565b80356001600160701b038116811462001e7d57600080fd5b919050565b60008060006060848603121562001e9857600080fd5b833562001ea58162001da2565b9250602084013562001eb78162001da2565b915062001ec76040850162001e65565b90509250925092565b6000806040838503121562001ee457600080fd5b823562001ef18162001da2565b9150602083013562001f038162001da2565b809150509250929050565b6000806000806080858703121562001f2557600080fd5b843562001f328162001da2565b9350602085013562001f448162001da2565b92506040850135915062001f5b6060860162001e65565b905092959194509250565b602080825282518282018190526000919060409081850190868401855b828110156200200857815180516001600160a01b039081168652878201518116888701528682015116868601526060808201516001600160701b03908116918701919091526080808301519091169086015260a08082015160ff169086015260c0908101516001600160401b03169085015260e0909301929085019060010162001f83565b5091979650505050505050565b634e487b7160e01b600052604160045260246000fd5b60005b83811015620020485781810151838201526020016200202e565b50506000910152565b6000602082840312156200206457600080fd5b81516001600160401b03808211156200207c57600080fd5b818401915084601f8301126200209157600080fd5b815181811115620020a657620020a662002015565b604051601f8201601f19908116603f01168101908382118183101715620020d157620020d162002015565b81604052828152876020848701011115620020eb57600080fd5b620020fe8360208301602088016200202b565b979650505050505050565b60008151808452620021238160208601602086016200202b565b601f01601f19169290920160200192915050565b6001600160a01b03841681526060602082018190526000906200215d9083018562002109565b828103604084015262001cf9818562002109565b6000602082840312156200218457600080fd5b8151801515811462001c5757600080fd5b600060208284031215620021a857600080fd5b5051919050565b634e487b7160e01b600052603260045260246000fd5b634e487b7160e01b600052601160045260246000fd5b8082018082111562000b5b5762000b5b620021c5565b600060018201620022065762002206620021c5565b5060010190565b808202811582820484141762000b5b5762000b5b620021c5565b6000826200224557634e487b7160e01b600052601260045260246000fd5b500490565b6001600160401b038281168282160390808211156200226d576200226d620021c5565b5092915050565b6001600160401b038181168382160280821691908281146200229a576200229a620021c5565b505092915050565b6001600160701b038181168382160280821691908281146200229a576200229a620021c5565b6001600160701b038181168382160190808211156200226d576200226d620021c5565b8181038181111562000b5b5762000b5b620021c5565b634e487b7160e01b600052603160045260246000fd5b6001600160701b038281168282160390808211156200226d576200226d620021c5565b6000602082840312156200234d57600080fd5b815162001c578162001da2565b600082516200236e8184602087016200202b565b919091019291505056fe60e06040523480156200001157600080fd5b506040516200184238038062001842833981016040819052620000349162000295565b82826040516020016200004891906200031f565b604051602081830303815290604052826040516020016200006a91906200031f565b60408051601f198184030181529190526003620000888382620003da565b506004620000978282620003da565b505050600080620000ae83620000e360201b60201c565b9150915081620000c0576012620000c2565b805b60ff1660a05250506001600160a01b031660805250503360c05250620004de565b60408051600481526024810182526020810180516001600160e01b031663313ce56760e01b17905290516000918291829182916001600160a01b038716916200012c91620004a6565b600060405180830381855afa9150503d806000811462000169576040519150601f19603f3d011682016040523d82523d6000602084013e6200016e565b606091505b50915091508180156200018357506020815110155b15620001bb57600081806020019051810190620001a19190620004c4565b905060ff8111620001b9576001969095509350505050565b505b5060009485945092505050565b634e487b7160e01b600052604160045260246000fd5b60005b83811015620001fb578181015183820152602001620001e1565b50506000910152565b600082601f8301126200021657600080fd5b81516001600160401b0380821115620002335762000233620001c8565b604051601f8301601f19908116603f011681019082821181831017156200025e576200025e620001c8565b816040528381528660208588010111156200027857600080fd5b6200028b846020830160208901620001de565b9695505050505050565b600080600060608486031215620002ab57600080fd5b83516001600160a01b0381168114620002c357600080fd5b60208501519093506001600160401b0380821115620002e157600080fd5b620002ef8783880162000204565b935060408601519150808211156200030657600080fd5b50620003158682870162000204565b9150509250925092565b614c2d60f01b8152600082516200033e816002850160208701620001de565b9190910160020192915050565b600181811c908216806200036057607f821691505b6020821081036200038157634e487b7160e01b600052602260045260246000fd5b50919050565b601f821115620003d557600081815260208120601f850160051c81016020861015620003b05750805b601f850160051c820191505b81811015620003d157828155600101620003bc565b5050505b505050565b81516001600160401b03811115620003f657620003f6620001c8565b6200040e816200040784546200034b565b8462000387565b602080601f8311600181146200044657600084156200042d5750858301515b600019600386901b1c1916600185901b178555620003d1565b600085815260208120601f198616915b82811015620004775788860151825594840194600190910190840162000456565b5085821015620004965787850151600019600388901b60f8161c191681555b5050505050600190811b01905550565b60008251620004ba818460208701620001de565b9190910192915050565b600060208284031215620004d757600080fd5b5051919050565b60805160a05160c05161131f62000523600039600061022c01526000610558015260008181610282015281816103e80152818161083901526108f9015261131f6000f3fe608060405234801561001057600080fd5b506004361061018e5760003560e01c806370a08231116100de578063ba08765211610097578063ce96cb7711610071578063ce96cb7714610371578063d905777e14610384578063dd62ed3e14610397578063ef8b30f71461035e57600080fd5b8063ba0876521461034b578063c63d75b6146102a6578063c6e6f5921461035e57600080fd5b806370a08231146102ce57806394bf804d146102f757806395d89b411461030a578063a9059cbb14610312578063b3d7f6b914610325578063b460af941461033857600080fd5b806323b872dd1161014b57806338d52e0f1161012557806338d52e0f14610280578063402d267d146102a65780634cdad506146101c35780636e553f65146102bb57600080fd5b806323b872dd146102145780632dd3100014610227578063313ce5671461026657600080fd5b806301e1d1141461019357806306fdde03146101ae57806307a2d13a146101c3578063095ea7b3146101d65780630a28a477146101f957806318160ddd1461020c575b600080fd5b61019b6103d0565b6040519081526020015b60405180910390f35b6101b6610460565b6040516101a59190610f2b565b61019b6101d1366004610f5e565b6104f2565b6101e96101e4366004610f93565b610505565b60405190151581526020016101a5565b61019b610207366004610f5e565b61051d565b60025461019b565b6101e9610222366004610fbd565b61052a565b61024e7f000000000000000000000000000000000000000000000000000000000000000081565b6040516001600160a01b0390911681526020016101a5565b61026e610550565b60405160ff90911681526020016101a5565b7f000000000000000000000000000000000000000000000000000000000000000061024e565b61019b6102b4366004610ff9565b5060001990565b61019b6102c9366004611014565b61057c565b61019b6102dc366004610ff9565b6001600160a01b031660009081526020819052604090205490565b61019b610305366004611014565b6105b0565b6101b66105ce565b6101e9610320366004610f93565b6105dd565b61019b610333366004610f5e565b6105eb565b61019b610346366004611040565b6105f8565b61019b610359366004611040565b610650565b61019b61036c366004610f5e565b61069f565b61019b61037f366004610ff9565b6106ac565b61019b610392366004610ff9565b6106d0565b61019b6103a536600461107c565b6001600160a01b03918216600090815260016020908152604080832093909416825291909152205490565b6040516370a0823160e01b81523060048201526000907f00000000000000000000000000000000000000000000000000000000000000006001600160a01b0316906370a0823190602401602060405180830381865afa158015610437573d6000803e3d6000fd5b505050506040513d601f19601f8201168201806040525081019061045b91906110a6565b905090565b60606003805461046f906110bf565b80601f016020809104026020016040519081016040528092919081815260200182805461049b906110bf565b80156104e85780601f106104bd576101008083540402835291602001916104e8565b820191906000526020600020905b8154815290600101906020018083116104cb57829003601f168201915b5050505050905090565b60006104ff8260006106ee565b92915050565b600033610513818585610728565b5060019392505050565b60006104ff82600161073a565b60003361053885828561076a565b6105438585856107d5565b60019150505b9392505050565b600061045b817f000000000000000000000000000000000000000000000000000000000000000061110f565b600060001961058f565b60405180910390fd5b600061059a8561069f565b90506105a833858784610834565b949350505050565b600060001960006105c0856105eb565b90506105a833858388610834565b60606004805461046f906110bf565b6000336105138185856107d5565b60006104ff8260016106ee565b600080610604836106ac565b90508085111561062d57828582604051633fa733bb60e21b815260040161058693929190611128565b60006106388661051d565b905061064733868689856108c6565b95945050505050565b60008061065c836106d0565b90508085111561068557828582604051632e52afbb60e21b815260040161058693929190611128565b6000610690866104f2565b9050610647338686848a6108c6565b60006104ff82600061073a565b6001600160a01b0381166000908152602081905260408120546104ff9060006106ee565b6001600160a01b0381166000908152602081905260408120546104ff565b60006105496106fb6103d0565b610706906001611149565b6107126000600a611240565b60025461071f9190611149565b85919085610986565b61073583838360016109d5565b505050565b600061054961074a82600a611240565b6002546107579190611149565b61075f6103d0565b61071f906001611149565b6001600160a01b0383811660009081526001602090815260408083209386168352929052205460001981146107cf57818110156107c057828183604051637dc7a0d960e11b815260040161058693929190611128565b6107cf848484840360006109d5565b50505050565b6001600160a01b0383166107ff57604051634b637e8f60e11b815260006004820152602401610586565b6001600160a01b0382166108295760405163ec442f0560e01b815260006004820152602401610586565b610735838383610a9c565b6108607f0000000000000000000000000000000000000000000000000000000000000000853085610bb3565b61086a8382610c1a565b826001600160a01b0316846001600160a01b03167fdcbc1c05240f31ff3ad067ef1ee35ce4997762752e3a095284754544f4c709d784846040516108b8929190918252602082015260400190565b60405180910390a350505050565b826001600160a01b0316856001600160a01b0316146108ea576108ea83868361076a565b6108f48382610c54565b61091f7f00000000000000000000000000000000000000000000000000000000000000008584610c8a565b826001600160a01b0316846001600160a01b0316866001600160a01b03167ffbde797d201c681b91056529119e0b02407c7bb96a4a2c75c01fc9667232c8db8585604051610977929190918252602082015260400190565b60405180910390a45050505050565b600080610994868686610cbb565b905061099f83610d7f565b80156109bb5750600084806109b6576109b661124f565b868809115b15610647576109cb600182611149565b9695505050505050565b6001600160a01b0384166109ff5760405163e602df0560e01b815260006004820152602401610586565b6001600160a01b038316610a2957604051634a1406b160e11b815260006004820152602401610586565b6001600160a01b03808516600090815260016020908152604080832093871683529290522082905580156107cf57826001600160a01b0316846001600160a01b03167f8c5be1e5ebec7d5bd14f71427d1e84f3dd0314c0f7b2291e5b200ac8c7c3b925846040516108b891815260200190565b6001600160a01b038316610ac7578060026000828254610abc9190611149565b90915550610b269050565b6001600160a01b03831660009081526020819052604090205481811015610b075783818360405163391434e360e21b815260040161058693929190611128565b6001600160a01b03841660009081526020819052604090209082900390555b6001600160a01b038216610b4257600280548290039055610b61565b6001600160a01b03821660009081526020819052604090208054820190555b816001600160a01b0316836001600160a01b03167fddf252ad1be2c89b69c2b068fc378daa952ba7f163c4a11628f55a4df523b3ef83604051610ba691815260200190565b60405180910390a3505050565b6040516001600160a01b0384811660248301528381166044830152606482018390526107cf9186918216906323b872dd906084015b604051602081830303815290604052915060e01b6020820180516001600160e01b038381831617835250505050610dac565b6001600160a01b038216610c445760405163ec442f0560e01b815260006004820152602401610586565b610c5060008383610a9c565b5050565b6001600160a01b038216610c7e57604051634b637e8f60e11b815260006004820152602401610586565b610c5082600083610a9c565b6040516001600160a01b0383811660248301526044820183905261073591859182169063a9059cbb90606401610be8565b6000838302816000198587098281108382030391505080600003610cf257838281610ce857610ce861124f565b0492505050610549565b808411610d125760405163227bc15360e01b815260040160405180910390fd5b6000848688096000868103871696879004966002600389028118808a02820302808a02820302808a02820302808a02820302808a02820302808a02909103029181900381900460010186841190950394909402919094039290920491909117919091029150509392505050565b60006002826003811115610d9557610d95611265565b610d9f919061127b565b60ff166001149050919050565b6000610dc16001600160a01b03841683610e0f565b90508051600014158015610de6575080806020019051810190610de491906112ab565b155b1561073557604051635274afe760e01b81526001600160a01b0384166004820152602401610586565b60606105498383600084600080856001600160a01b03168486604051610e3591906112cd565b60006040518083038185875af1925050503d8060008114610e72576040519150601f19603f3d011682016040523d82523d6000602084013e610e77565b606091505b50915091506109cb868383606082610e9757610e9282610ede565b610549565b8151158015610eae57506001600160a01b0384163b155b15610ed757604051639996b31560e01b81526001600160a01b0385166004820152602401610586565b5080610549565b805115610eee5780518082602001fd5b604051630a12f52160e11b815260040160405180910390fd5b60005b83811015610f22578181015183820152602001610f0a565b50506000910152565b6020815260008251806020840152610f4a816040850160208701610f07565b601f01601f19169190910160400192915050565b600060208284031215610f7057600080fd5b5035919050565b80356001600160a01b0381168114610f8e57600080fd5b919050565b60008060408385031215610fa657600080fd5b610faf83610f77565b946020939093013593505050565b600080600060608486031215610fd257600080fd5b610fdb84610f77565b9250610fe960208501610f77565b9150604084013590509250925092565b60006020828403121561100b57600080fd5b61054982610f77565b6000806040838503121561102757600080fd5b8235915061103760208401610f77565b90509250929050565b60008060006060848603121561105557600080fd5b8335925061106560208501610f77565b915061107360408501610f77565b90509250925092565b6000806040838503121561108f57600080fd5b61109883610f77565b915061103760208401610f77565b6000602082840312156110b857600080fd5b5051919050565b600181811c908216806110d357607f821691505b6020821081036110f357634e487b7160e01b600052602260045260246000fd5b50919050565b634e487b7160e01b600052601160045260246000fd5b60ff81811683821601908111156104ff576104ff6110f9565b6001600160a01b039390931683526020830191909152604082015260600190565b808201808211156104ff576104ff6110f9565b600181815b8085111561119757816000190482111561117d5761117d6110f9565b8085161561118a57918102915b93841c9390800290611161565b509250929050565b6000826111ae575060016104ff565b816111bb575060006104ff565b81600181146111d157600281146111db576111f7565b60019150506104ff565b60ff8411156111ec576111ec6110f9565b50506001821b6104ff565b5060208310610133831016604e8410600b841016171561121a575081810a6104ff565b611224838361115c565b8060001904821115611238576112386110f9565b029392505050565b600061054960ff84168361119f565b634e487b7160e01b600052601260045260246000fd5b634e487b7160e01b600052602160045260246000fd5b600060ff83168061129c57634e487b7160e01b600052601260045260246000fd5b8060ff84160691505092915050565b6000602082840312156112bd57600080fd5b8151801515811461054957600080fd5b600082516112df818460208701610f07565b919091019291505056fea2646970667358221220d13c21e17ad38b74009e643b953aadc4614f8dd796bb74bdd25487cc959b32ff64736f6c63430008140033a26469706673582212206d85e57f6a2239b514b2cc3c3f65e6d5875291df7359aee89ce1e2ef2756ce1164736f6c63430008140033",
  "linkReferences": {},
  "deployedLinkReferences": {}
}