{
  "_format": "hh-sol-artifact-1",
  "contractName": "LFactory",
  "sourceName": "contracts/LFactory.sol",
  "abi": [
    {
      "inputs": [
        {
          "internalType": "address",
          "name": "swapPool",
          "type": "address"
        }
      ],
      "stateMutability": "nonpayable",
      "type": "constructor"
    },
    {
      "inputs": [
        {
          "internalType": "address",
          "name": "target",
          "type": "address"
        }
      ],
      "name": "AddressEmptyCode",
      "type": "error"
    },
    {
      "inputs": [
        {
          "internalType": "address",
          "name": "account",
          "type": "address"
        }
      ],
      "name": "AddressInsufficientBalance",
      "type": "error"
    },
    {
      "inputs": [],
      "name": "ERC1167FailedCreateClone",
      "type": "error"
    },
    {
      "inputs": [],
      "name": "FailedInnerCall",
      "type": "error"
    },
    {
      "inputs": [
        {
          "internalType": "address",
          "name": "pair",
          "type": "address"
        }
      ],
      "name": "PairAlreadyExist",
      "type": "error"
    },
    {
      "inputs": [
        {
          "internalType": "address",
          "name": "pool",
          "type": "address"
        }
      ],
      "name": "PoolAlreadyExist",
      "type": "error"
    },
    {
      "inputs": [
        {
          "internalType": "address",
          "name": "token",
          "type": "address"
        }
      ],
      "name": "SafeERC20FailedOperation",
      "type": "error"
    },
    {
      "inputs": [],
      "name": "PAIR_REFERENCE",
      "outputs": [
        {
          "internalType": "address",
          "name": "",
          "type": "address"
        }
      ],
      "stateMutability": "view",
      "type": "function"
    },
    {
      "inputs": [],
      "name": "YEAR",
      "outputs": [
        {
          "internalType": "uint256",
          "name": "",
          "type": "uint256"
        }
      ],
      "stateMutability": "view",
      "type": "function"
    },
    {
      "inputs": [
        {
          "internalType": "address",
          "name": "collateral",
          "type": "address"
        },
        {
          "internalType": "address",
          "name": "tokenToBorrow",
          "type": "address"
        },
        {
          "internalType": "uint256",
          "name": "amount",
          "type": "uint256"
        }
      ],
      "name": "borrow",
      "outputs": [],
      "stateMutability": "nonpayable",
      "type": "function"
    },
    {
      "inputs": [
        {
          "internalType": "contract IERC20",
          "name": "_token",
          "type": "address"
        },
        {
          "internalType": "uint256",
          "name": "assets",
          "type": "uint256"
        },
        {
          "internalType": "address",
          "name": "receiver",
          "type": "address"
        }
      ],
      "name": "createCollateralPool",
      "outputs": [
        {
          "internalType": "address",
          "name": "pool",
          "type": "address"
        }
      ],
      "stateMutability": "nonpayable",
      "type": "function"
    },
    {
      "inputs": [
        {
          "internalType": "address",
          "name": "_token0",
          "type": "address"
        },
        {
          "internalType": "address",
          "name": "_token1",
          "type": "address"
        }
      ],
      "name": "createPair",
      "outputs": [
        {
          "internalType": "address",
          "name": "pair",
          "type": "address"
        }
      ],
      "stateMutability": "nonpayable",
      "type": "function"
    },
    {
      "inputs": [
        {
          "internalType": "address",
          "name": "token",
          "type": "address"
        }
      ],
      "name": "getCollateralPool",
      "outputs": [
        {
          "internalType": "address",
          "name": "",
          "type": "address"
        }
      ],
      "stateMutability": "view",
      "type": "function"
    },
    {
      "inputs": [
        {
          "internalType": "address",
          "name": "token0",
          "type": "address"
        },
        {
          "internalType": "address",
          "name": "token1",
          "type": "address"
        }
      ],
      "name": "getPairTokensOrder",
      "outputs": [
        {
          "internalType": "address",
          "name": "",
          "type": "address"
        },
        {
          "internalType": "address",
          "name": "",
          "type": "address"
        }
      ],
      "stateMutability": "pure",
      "type": "function"
    },
    {
      "inputs": [
        {
          "internalType": "address",
          "name": "_token0",
          "type": "address"
        },
        {
          "internalType": "address",
          "name": "_token1",
          "type": "address"
        }
      ],
      "name": "getPool",
      "outputs": [
        {
          "internalType": "address",
          "name": "",
          "type": "address"
        }
      ],
      "stateMutability": "view",
      "type": "function"
    },
    {
      "inputs": [
        {
          "internalType": "address",
          "name": "borrower",
          "type": "address"
        },
        {
          "internalType": "address",
          "name": "collateral",
          "type": "address"
        }
      ],
      "name": "getUserLoans",
      "outputs": [
        {
          "components": [
            {
              "internalType": "address",
              "name": "ammPool",
              "type": "address"
            },
            {
              "internalType": "address",
              "name": "collateralPool",
              "type": "address"
            },
            {
              "internalType": "address",
              "name": "tokenBorrowed",
              "type": "address"
            },
            {
              "internalType": "uint256",
              "name": "amount",
              "type": "uint256"
            },
            {
              "internalType": "uint256",
              "name": "accruedInterest",
              "type": "uint256"
            },
            {
              "internalType": "uint8",
              "name": "interestRate",
              "type": "uint8"
            },
            {
              "internalType": "uint64",
              "name": "borrowedAt",
              "type": "uint64"
            }
          ],
          "internalType": "struct ILFactory.LoanMarket[]",
          "name": "",
          "type": "tuple[]"
        }
      ],
      "stateMutability": "nonpayable",
      "type": "function"
    },
    {
      "inputs": [
        {
          "internalType": "address",
          "name": "collateral",
          "type": "address"
        },
        {
          "internalType": "address",
          "name": "tokenToBorrow",
          "type": "address"
        },
        {
          "internalType": "uint256",
          "name": "index",
          "type": "uint256"
        },
        {
          "internalType": "uint256",
          "name": "amount",
          "type": "uint256"
        }
      ],
      "name": "repay",
      "outputs": [],
      "stateMutability": "nonpayable",
      "type": "function"
    },
    {
      "inputs": [
        {
          "internalType": "address",
          "name": "collateral",
          "type": "address"
        },
        {
          "internalType": "address",
          "name": "tokenToBorrow",
          "type": "address"
        },
        {
          "internalType": "uint256",
          "name": "index",
          "type": "uint256"
        }
      ],
      "name": "repayFull",
      "outputs": [],
      "stateMutability": "nonpayable",
      "type": "function"
    },
    {
      "inputs": [
        {
          "internalType": "address",
          "name": "",
          "type": "address"
        },
        {
          "internalType": "address",
          "name": "",
          "type": "address"
        },
        {
          "internalType": "uint256",
          "name": "",
          "type": "uint256"
        }
      ],
      "name": "userLoans",
      "outputs": [
        {
          "internalType": "address",
          "name": "ammPool",
          "type": "address"
        },
        {
          "internalType": "address",
          "name": "collateralPool",
          "type": "address"
        },
        {
          "internalType": "address",
          "name": "tokenBorrowed",
          "type": "address"
        },
        {
          "internalType": "uint256",
          "name": "amount",
          "type": "uint256"
        },
        {
          "internalType": "uint256",
          "name": "accruedInterest",
          "type": "uint256"
        },
        {
          "internalType": "uint8",
          "name": "interestRate",
          "type": "uint8"
        },
        {
          "internalType": "uint64",
          "name": "borrowedAt",
          "type": "uint64"
        }
      ],
      "stateMutability": "view",
      "type": "function"
    }
  ],
  "bytecode": "0x60a060405234801561001057600080fd5b5060405161324e38038061324e83398101604081905261002f91610040565b6001600160a01b0316608052610070565b60006020828403121561005257600080fd5b81516001600160a01b038116811461006957600080fd5b9392505050565b6080516131bc6100926000396000818161024b0152610e1001526131bc6000f3fe60806040523480156200001157600080fd5b5060043610620000c35760003560e01c8063531aa03e116200007a578063531aa03e14620001db5780638391454014620001f2578063ab0cd03f146200020d578063b3fd868a1462000245578063c9c65396146200026d578063ccee16c1146200028457600080fd5b806301a8392a14620000c8578063046b43b7146200013557806318815cb7146200014e57806349002749146200017e5780635224372c14620001955780635252f3a214620001ac575b600080fd5b620000df620000d9366004620014f1565b620002aa565b604080516001600160a01b039889168152968816602088015294909616938501939093526060840191909152608083015260ff1660a08201526001600160401b0390911660c082015260e0015b60405180910390f35b6200014c62000146366004620014f1565b6200032e565b005b620001656200015f36600462001537565b62000343565b6040516001600160a01b0390911681526020016200012c565b6200014c6200018f3660046200157e565b620005f7565b6200014c620001a6366004620014f1565b62000a4c565b62000165620001bd366004620015c9565b6001600160a01b039081166000908152600160205260409020541690565b62000165620001ec366004620015e9565b62000d2b565b620001fe6301e1338081565b6040519081526020016200012c565b620002246200021e366004620015e9565b62000d6c565b604080516001600160a01b039384168152929091166020830152016200012c565b620001657f000000000000000000000000000000000000000000000000000000000000000081565b620001656200027e366004620015e9565b62000da2565b6200029b62000295366004620015e9565b62000f4e565b6040516200012c919062001627565b60026020528260005260406000206020528160005260406000208181548110620002d357600080fd5b60009182526020909120600690910201805460018201546002830154600384015460048501546005909501546001600160a01b03948516985092841696509216935090919060ff81169061010090046001600160401b031687565b33836200033c82826200102f565b5050505050565b600080846001600160a01b03166306fdde036040518163ffffffff1660e01b8152600401600060405180830381865afa15801562000385573d6000803e3d6000fd5b505050506040513d6000823e601f3d908101601f19168201604052620003af919081019062001701565b90506000856001600160a01b03166395d89b416040518163ffffffff1660e01b8152600401600060405180830381865afa158015620003f2573d6000803e3d6000fd5b505050506040513d6000823e601f3d908101601f191682016040526200041c919081019062001701565b90508582826040516200042f90620014cd565b6200043d93929190620017e7565b604051809103906000f0801580156200045a573d6000803e3d6000fd5b509250620004746001600160a01b038716333088620011fc565b60405163095ea7b360e01b81526001600160a01b0384811660048301526024820187905287169063095ea7b3906044016020604051808303816000875af1158015620004c4573d6000803e3d6000fd5b505050506040513d601f19601f82011682018060405250810190620004ea919062001821565b50604051636e553f6560e01b8152600481018690526001600160a01b038581166024830152841690636e553f65906044016020604051808303816000875af11580156200053b573d6000803e3d6000fd5b505050506040513d601f19601f8201168201806040525081019062000561919062001845565b506001600160a01b038681166000908152600160205260409020541615620005bf576001600160a01b0386811660009081526001602052604090819020549051635d6c86f960e11b8152911660048201526024015b60405180910390fd5b50506001600160a01b03938416600090815260016020526040902080546001600160a01b031916948216949094179093555090919050565b338481600062000608838862000d2b565b6001600160a01b038084166000908152600260209081526040808320938d16835292905290812080549293509091889081106200064957620006496200185f565b60009182526020822060069190910201600381015460058201549193506301e133809160ff8116906200068b9061010090046001600160401b0316426200188b565b620006979190620018a1565b620006a39190620018a1565b620006af9190620018bb565b8260040154620006c09190620018de565b9050600080620006d68460030154848b6200125e565b604051634900274960e01b81526001600160a01b038e811660048301528981166024830152604482018490526064820183905292945090925090861690634900274990608401600060405180830381600087803b1580156200073757600080fd5b505af11580156200074c573d6000803e3d6000fd5b5050505088838560030154620007639190620018de565b1015620009cb576000620007788d8d62000f4e565b51905060018111156200090c5760026000886001600160a01b03166001600160a01b0316815260200190815260200160002060008e6001600160a01b03166001600160a01b03168152602001908152602001600020600182620007dc91906200188b565b81548110620007ef57620007ef6200185f565b906000526020600020906006020160026000896001600160a01b03166001600160a01b0316815260200190815260200160002060008f6001600160a01b03166001600160a01b031681526020019081526020016000208c815481106200085957620008596200185f565b60009182526020909120825460069092020180546001600160a01b03199081166001600160a01b0393841617825560018085015490830180548316918516919091179055600280850154908301805490921693169290921790915560038083015490820155600480830154908201556005918201805492909101805460ff19811660ff909416938417825591546001600160401b0361010091829004160268ffffffffffffffffff199092169092171790555b60026000886001600160a01b03166001600160a01b0316815260200190815260200160002060008e6001600160a01b03166001600160a01b03168152602001908152602001600020805480620009665762000966620018f4565b60008281526020812060066000199093019283020180546001600160a01b03199081168255600182018054821690556002820180549091169055600381018290556004810191909155600501805468ffffffffffffffffff1916905590555062000a32565b60058401805468ffffffffffffffff001916610100426001600160401b031602179055620009fa81846200188b565b84600401600082825462000a0f9190620018de565b925050819055508184600301600082825462000a2c91906200188b565b90915550505b50505050505062000a4482826200102f565b505050505050565b338381600062000a5d838762000d2b565b6001600160a01b0380891660009081526001602052604081205492935091166040516370a0823160e01b81526001600160a01b0385811660048301529192508291600091908316906370a0823190602401602060405180830381865afa15801562000acc573d6000803e3d6000fd5b505050506040513d601f19601f8201168201806040525081019062000af2919062001845565b6040516314890dcb60e21b81526001600160a01b038b811660048301528781166024830152604482018b905291925090851690635224372c90606401600060405180830381600087803b15801562000b4957600080fd5b505af115801562000b5e573d6000803e3d6000fd5b5050505060026000866001600160a01b03166001600160a01b0316815260200190815260200160002060008b6001600160a01b03166001600160a01b031681526020019081526020016000206040518060e00160405280866001600160a01b03168152602001856001600160a01b031681526020018b6001600160a01b031681526020018a815260200160008152602001600160ff168152602001426001600160401b0316815250908060018154018082558091505060019003906000526020600020906006020160009091909190915060008201518160000160006101000a8154816001600160a01b0302191690836001600160a01b0316021790555060208201518160010160006101000a8154816001600160a01b0302191690836001600160a01b0316021790555060408201518160020160006101000a8154816001600160a01b0302191690836001600160a01b03160217905550606082015181600301556080820151816004015560a08201518160050160006101000a81548160ff021916908360ff16021790555060c08201518160050160016101000a8154816001600160401b0302191690836001600160401b03160217905550505050505050506200033c82826200102f565b600080600062000d3c858562000d6c565b6001600160a01b039182166000908152602081815260408083209385168352929052205416925050505b92915050565b600080826001600160a01b0316846001600160a01b0316111562000d9557508290508162000d9b565b50819050825b9250929050565b60008060008062000db4868662000d6c565b6040516bffffffffffffffffffffffff19606084811b8216602084015283901b166034820152426048820152919350915060680160408051601f198184030181529190528051602090910120925062000e376001600160a01b037f00000000000000000000000000000000000000000000000000000000000000001684620012a2565b60405163485cc95560e01b81526001600160a01b03848116600483015283811660248301529195509085169063485cc95590604401600060405180830381600087803b15801562000e8757600080fd5b505af115801562000e9c573d6000803e3d6000fd5b505050506001600160a01b038281166000908152602081815260408083208585168452909152902054161562000f0f576001600160a01b038281166000908152602081815260408083208585168452909152908190205490516363cc934360e11b815291166004820152602401620005b6565b6001600160a01b0391821660009081526020818152604080832093851683529290522080546001600160a01b0319169184169190911790555092915050565b6001600160a01b0380831660009081526002602090815260408083209385168352928152828220805484518184028101840190955280855260609493919290919084015b82821015620010235760008481526020908190206040805160e0810182526006860290920180546001600160a01b03908116845260018083015482168587015260028301549091169284019290925260038101546060840152600481015460808401526005015460ff811660a084015261010090046001600160401b031660c0830152908352909201910162000f92565b50505050905092915050565b6001600160a01b038083166000908152600260209081526040808320938516835292815282822080548451818402810184019095528085529293929091849084015b82821015620011025760008481526020908190206040805160e0810182526006860290920180546001600160a01b03908116845260018083015482168587015260028301549091169284019290925260038101546060840152600481015460808401526005015460ff811660a084015261010090046001600160401b031660c0830152908352909201910162001071565b505050509050610100815111156200115d5760405162461bcd60e51b815260206004820152601e60248201527f546f6f206d616e79206c6f616e73206f6e206120636f6c6c61746572616c00006044820152606401620005b6565b6000805b82518110156200033c5760008382815181106200118257620011826200185f565b602002602001015160c001516001600160401b031642620011a491906200188b565b848381518110620011b957620011b96200185f565b602002602001015160a0015160ff16620011d49190620018a1565b9050620011e3600184620018de565b9250508080620011f3906200190a565b91505062001161565b604080516001600160a01b0385811660248301528416604482015260648082018490528251808303909101815260849091019091526020810180516001600160e01b03166323b872dd60e01b1790526200125890859062001311565b50505050565b600080806200126e8587620018de565b9050806200127d8588620018a1565b620012899190620018bb565b92506200129783856200188b565b915050935093915050565b6000763d602d80600a3d3981f3363d3d373d3d3d363d730000008360601b60e81c176000526e5af43d82803e903d91602b57fd5bf38360781b1760205281603760096000f590506001600160a01b03811662000d66576040516330be1a3d60e21b815260040160405180910390fd5b6000620013286001600160a01b0384168362001380565b90508051600014158015620013505750808060200190518101906200134e919062001821565b155b156200137b57604051635274afe760e01b81526001600160a01b0384166004820152602401620005b6565b505050565b6060620013908383600062001397565b9392505050565b606081471015620013be5760405163cd78605960e01b8152306004820152602401620005b6565b600080856001600160a01b03168486604051620013dc919062001926565b60006040518083038185875af1925050503d80600081146200141b576040519150601f19603f3d011682016040523d82523d6000602084013e62001420565b606091505b5091509150620014328683836200143c565b9695505050505050565b60608262001455576200144f82620014a0565b62001390565b81511580156200146d57506001600160a01b0384163b155b156200149857604051639996b31560e01b81526001600160a01b0385166004820152602401620005b6565b508062001390565b805115620014b15780518082602001fd5b604051630a12f52160e11b815260040160405180910390fd5b50565b611842806200194583390190565b6001600160a01b0381168114620014ca57600080fd5b6000806000606084860312156200150757600080fd5b83356200151481620014db565b925060208401356200152681620014db565b929592945050506040919091013590565b6000806000606084860312156200154d57600080fd5b83356200155a81620014db565b92506020840135915060408401356200157381620014db565b809150509250925092565b600080600080608085870312156200159557600080fd5b8435620015a281620014db565b93506020850135620015b481620014db565b93969395505050506040820135916060013590565b600060208284031215620015dc57600080fd5b81356200139081620014db565b60008060408385031215620015fd57600080fd5b82356200160a81620014db565b915060208301356200161c81620014db565b809150509250929050565b602080825282518282018190526000919060409081850190868401855b82811015620016b857815180516001600160a01b03908116865287820151811688870152868201511686860152606080820151908601526080808201519086015260a08082015160ff169086015260c0908101516001600160401b03169085015260e0909301929085019060010162001644565b5091979650505050505050565b634e487b7160e01b600052604160045260246000fd5b60005b83811015620016f8578181015183820152602001620016de565b50506000910152565b6000602082840312156200171457600080fd5b81516001600160401b03808211156200172c57600080fd5b818401915084601f8301126200174157600080fd5b815181811115620017565762001756620016c5565b604051601f8201601f19908116603f01168101908382118183101715620017815762001781620016c5565b816040528281528760208487010111156200179b57600080fd5b620017ae836020830160208801620016db565b979650505050505050565b60008151808452620017d3816020860160208601620016db565b601f01601f19169290920160200192915050565b6001600160a01b03841681526060602082018190526000906200180d90830185620017b9565b8281036040840152620014328185620017b9565b6000602082840312156200183457600080fd5b815180151581146200139057600080fd5b6000602082840312156200185857600080fd5b5051919050565b634e487b7160e01b600052603260045260246000fd5b634e487b7160e01b600052601160045260246000fd5b8181038181111562000d665762000d6662001875565b808202811582820484141762000d665762000d6662001875565b600082620018d957634e487b7160e01b600052601260045260246000fd5b500490565b8082018082111562000d665762000d6662001875565b634e487b7160e01b600052603160045260246000fd5b6000600182016200191f576200191f62001875565b5060010190565b600082516200193a818460208701620016db565b919091019291505056fe60e06040523480156200001157600080fd5b506040516200184238038062001842833981016040819052620000349162000295565b82826040516020016200004891906200031f565b604051602081830303815290604052826040516020016200006a91906200031f565b60408051601f198184030181529190526003620000888382620003da565b506004620000978282620003da565b505050600080620000ae83620000e360201b60201c565b9150915081620000c0576012620000c2565b805b60ff1660a05250506001600160a01b031660805250503360c05250620004de565b60408051600481526024810182526020810180516001600160e01b031663313ce56760e01b17905290516000918291829182916001600160a01b038716916200012c91620004a6565b600060405180830381855afa9150503d806000811462000169576040519150601f19603f3d011682016040523d82523d6000602084013e6200016e565b606091505b50915091508180156200018357506020815110155b15620001bb57600081806020019051810190620001a19190620004c4565b905060ff8111620001b9576001969095509350505050565b505b5060009485945092505050565b634e487b7160e01b600052604160045260246000fd5b60005b83811015620001fb578181015183820152602001620001e1565b50506000910152565b600082601f8301126200021657600080fd5b81516001600160401b0380821115620002335762000233620001c8565b604051601f8301601f19908116603f011681019082821181831017156200025e576200025e620001c8565b816040528381528660208588010111156200027857600080fd5b6200028b846020830160208901620001de565b9695505050505050565b600080600060608486031215620002ab57600080fd5b83516001600160a01b0381168114620002c357600080fd5b60208501519093506001600160401b0380821115620002e157600080fd5b620002ef8783880162000204565b935060408601519150808211156200030657600080fd5b50620003158682870162000204565b9150509250925092565b614c2d60f01b8152600082516200033e816002850160208701620001de565b9190910160020192915050565b600181811c908216806200036057607f821691505b6020821081036200038157634e487b7160e01b600052602260045260246000fd5b50919050565b601f821115620003d557600081815260208120601f850160051c81016020861015620003b05750805b601f850160051c820191505b81811015620003d157828155600101620003bc565b5050505b505050565b81516001600160401b03811115620003f657620003f6620001c8565b6200040e816200040784546200034b565b8462000387565b602080601f8311600181146200044657600084156200042d5750858301515b600019600386901b1c1916600185901b178555620003d1565b600085815260208120601f198616915b82811015620004775788860151825594840194600190910190840162000456565b5085821015620004965787850151600019600388901b60f8161c191681555b5050505050600190811b01905550565b60008251620004ba818460208701620001de565b9190910192915050565b600060208284031215620004d757600080fd5b5051919050565b60805160a05160c05161131f62000523600039600061022c01526000610558015260008181610282015281816103e80152818161083901526108f9015261131f6000f3fe608060405234801561001057600080fd5b506004361061018e5760003560e01c806370a08231116100de578063ba08765211610097578063ce96cb7711610071578063ce96cb7714610371578063d905777e14610384578063dd62ed3e14610397578063ef8b30f71461035e57600080fd5b8063ba0876521461034b578063c63d75b6146102a6578063c6e6f5921461035e57600080fd5b806370a08231146102ce57806394bf804d146102f757806395d89b411461030a578063a9059cbb14610312578063b3d7f6b914610325578063b460af941461033857600080fd5b806323b872dd1161014b57806338d52e0f1161012557806338d52e0f14610280578063402d267d146102a65780634cdad506146101c35780636e553f65146102bb57600080fd5b806323b872dd146102145780632dd3100014610227578063313ce5671461026657600080fd5b806301e1d1141461019357806306fdde03146101ae57806307a2d13a146101c3578063095ea7b3146101d65780630a28a477146101f957806318160ddd1461020c575b600080fd5b61019b6103d0565b6040519081526020015b60405180910390f35b6101b6610460565b6040516101a59190610f2b565b61019b6101d1366004610f5e565b6104f2565b6101e96101e4366004610f93565b610505565b60405190151581526020016101a5565b61019b610207366004610f5e565b61051d565b60025461019b565b6101e9610222366004610fbd565b61052a565b61024e7f000000000000000000000000000000000000000000000000000000000000000081565b6040516001600160a01b0390911681526020016101a5565b61026e610550565b60405160ff90911681526020016101a5565b7f000000000000000000000000000000000000000000000000000000000000000061024e565b61019b6102b4366004610ff9565b5060001990565b61019b6102c9366004611014565b61057c565b61019b6102dc366004610ff9565b6001600160a01b031660009081526020819052604090205490565b61019b610305366004611014565b6105b0565b6101b66105ce565b6101e9610320366004610f93565b6105dd565b61019b610333366004610f5e565b6105eb565b61019b610346366004611040565b6105f8565b61019b610359366004611040565b610650565b61019b61036c366004610f5e565b61069f565b61019b61037f366004610ff9565b6106ac565b61019b610392366004610ff9565b6106d0565b61019b6103a536600461107c565b6001600160a01b03918216600090815260016020908152604080832093909416825291909152205490565b6040516370a0823160e01b81523060048201526000907f00000000000000000000000000000000000000000000000000000000000000006001600160a01b0316906370a0823190602401602060405180830381865afa158015610437573d6000803e3d6000fd5b505050506040513d601f19601f8201168201806040525081019061045b91906110a6565b905090565b60606003805461046f906110bf565b80601f016020809104026020016040519081016040528092919081815260200182805461049b906110bf565b80156104e85780601f106104bd576101008083540402835291602001916104e8565b820191906000526020600020905b8154815290600101906020018083116104cb57829003601f168201915b5050505050905090565b60006104ff8260006106ee565b92915050565b600033610513818585610728565b5060019392505050565b60006104ff82600161073a565b60003361053885828561076a565b6105438585856107d5565b60019150505b9392505050565b600061045b817f000000000000000000000000000000000000000000000000000000000000000061110f565b600060001961058f565b60405180910390fd5b600061059a8561069f565b90506105a833858784610834565b949350505050565b600060001960006105c0856105eb565b90506105a833858388610834565b60606004805461046f906110bf565b6000336105138185856107d5565b60006104ff8260016106ee565b600080610604836106ac565b90508085111561062d57828582604051633fa733bb60e21b815260040161058693929190611128565b60006106388661051d565b905061064733868689856108c6565b95945050505050565b60008061065c836106d0565b90508085111561068557828582604051632e52afbb60e21b815260040161058693929190611128565b6000610690866104f2565b9050610647338686848a6108c6565b60006104ff82600061073a565b6001600160a01b0381166000908152602081905260408120546104ff9060006106ee565b6001600160a01b0381166000908152602081905260408120546104ff565b60006105496106fb6103d0565b610706906001611149565b6107126000600a611240565b60025461071f9190611149565b85919085610986565b61073583838360016109d5565b505050565b600061054961074a82600a611240565b6002546107579190611149565b61075f6103d0565b61071f906001611149565b6001600160a01b0383811660009081526001602090815260408083209386168352929052205460001981146107cf57818110156107c057828183604051637dc7a0d960e11b815260040161058693929190611128565b6107cf848484840360006109d5565b50505050565b6001600160a01b0383166107ff57604051634b637e8f60e11b815260006004820152602401610586565b6001600160a01b0382166108295760405163ec442f0560e01b815260006004820152602401610586565b610735838383610a9c565b6108607f0000000000000000000000000000000000000000000000000000000000000000853085610bb3565b61086a8382610c1a565b826001600160a01b0316846001600160a01b03167fdcbc1c05240f31ff3ad067ef1ee35ce4997762752e3a095284754544f4c709d784846040516108b8929190918252602082015260400190565b60405180910390a350505050565b826001600160a01b0316856001600160a01b0316146108ea576108ea83868361076a565b6108f48382610c54565b61091f7f00000000000000000000000000000000000000000000000000000000000000008584610c8a565b826001600160a01b0316846001600160a01b0316866001600160a01b03167ffbde797d201c681b91056529119e0b02407c7bb96a4a2c75c01fc9667232c8db8585604051610977929190918252602082015260400190565b60405180910390a45050505050565b600080610994868686610cbb565b905061099f83610d7f565b80156109bb5750600084806109b6576109b661124f565b868809115b15610647576109cb600182611149565b9695505050505050565b6001600160a01b0384166109ff5760405163e602df0560e01b815260006004820152602401610586565b6001600160a01b038316610a2957604051634a1406b160e11b815260006004820152602401610586565b6001600160a01b03808516600090815260016020908152604080832093871683529290522082905580156107cf57826001600160a01b0316846001600160a01b03167f8c5be1e5ebec7d5bd14f71427d1e84f3dd0314c0f7b2291e5b200ac8c7c3b925846040516108b891815260200190565b6001600160a01b038316610ac7578060026000828254610abc9190611149565b90915550610b269050565b6001600160a01b03831660009081526020819052604090205481811015610b075783818360405163391434e360e21b815260040161058693929190611128565b6001600160a01b03841660009081526020819052604090209082900390555b6001600160a01b038216610b4257600280548290039055610b61565b6001600160a01b03821660009081526020819052604090208054820190555b816001600160a01b0316836001600160a01b03167fddf252ad1be2c89b69c2b068fc378daa952ba7f163c4a11628f55a4df523b3ef83604051610ba691815260200190565b60405180910390a3505050565b6040516001600160a01b0384811660248301528381166044830152606482018390526107cf9186918216906323b872dd906084015b604051602081830303815290604052915060e01b6020820180516001600160e01b038381831617835250505050610dac565b6001600160a01b038216610c445760405163ec442f0560e01b815260006004820152602401610586565b610c5060008383610a9c565b5050565b6001600160a01b038216610c7e57604051634b637e8f60e11b815260006004820152602401610586565b610c5082600083610a9c565b6040516001600160a01b0383811660248301526044820183905261073591859182169063a9059cbb90606401610be8565b6000838302816000198587098281108382030391505080600003610cf257838281610ce857610ce861124f565b0492505050610549565b808411610d125760405163227bc15360e01b815260040160405180910390fd5b6000848688096000868103871696879004966002600389028118808a02820302808a02820302808a02820302808a02820302808a02820302808a02909103029181900381900460010186841190950394909402919094039290920491909117919091029150509392505050565b60006002826003811115610d9557610d95611265565b610d9f919061127b565b60ff166001149050919050565b6000610dc16001600160a01b03841683610e0f565b90508051600014158015610de6575080806020019051810190610de491906112ab565b155b1561073557604051635274afe760e01b81526001600160a01b0384166004820152602401610586565b60606105498383600084600080856001600160a01b03168486604051610e3591906112cd565b60006040518083038185875af1925050503d8060008114610e72576040519150601f19603f3d011682016040523d82523d6000602084013e610e77565b606091505b50915091506109cb868383606082610e9757610e9282610ede565b610549565b8151158015610eae57506001600160a01b0384163b155b15610ed757604051639996b31560e01b81526001600160a01b0385166004820152602401610586565b5080610549565b805115610eee5780518082602001fd5b604051630a12f52160e11b815260040160405180910390fd5b60005b83811015610f22578181015183820152602001610f0a565b50506000910152565b6020815260008251806020840152610f4a816040850160208701610f07565b601f01601f19169190910160400192915050565b600060208284031215610f7057600080fd5b5035919050565b80356001600160a01b0381168114610f8e57600080fd5b919050565b60008060408385031215610fa657600080fd5b610faf83610f77565b946020939093013593505050565b600080600060608486031215610fd257600080fd5b610fdb84610f77565b9250610fe960208501610f77565b9150604084013590509250925092565b60006020828403121561100b57600080fd5b61054982610f77565b6000806040838503121561102757600080fd5b8235915061103760208401610f77565b90509250929050565b60008060006060848603121561105557600080fd5b8335925061106560208501610f77565b915061107360408501610f77565b90509250925092565b6000806040838503121561108f57600080fd5b61109883610f77565b915061103760208401610f77565b6000602082840312156110b857600080fd5b5051919050565b600181811c908216806110d357607f821691505b6020821081036110f357634e487b7160e01b600052602260045260246000fd5b50919050565b634e487b7160e01b600052601160045260246000fd5b60ff81811683821601908111156104ff576104ff6110f9565b6001600160a01b039390931683526020830191909152604082015260600190565b808201808211156104ff576104ff6110f9565b600181815b8085111561119757816000190482111561117d5761117d6110f9565b8085161561118a57918102915b93841c9390800290611161565b509250929050565b6000826111ae575060016104ff565b816111bb575060006104ff565b81600181146111d157600281146111db576111f7565b60019150506104ff565b60ff8411156111ec576111ec6110f9565b50506001821b6104ff565b5060208310610133831016604e8410600b841016171561121a575081810a6104ff565b611224838361115c565b8060001904821115611238576112386110f9565b029392505050565b600061054960ff84168361119f565b634e487b7160e01b600052601260045260246000fd5b634e487b7160e01b600052602160045260246000fd5b600060ff83168061129c57634e487b7160e01b600052601260045260246000fd5b8060ff84160691505092915050565b6000602082840312156112bd57600080fd5b8151801515811461054957600080fd5b600082516112df818460208701610f07565b919091019291505056fea2646970667358221220d13c21e17ad38b74009e643b953aadc4614f8dd796bb74bdd25487cc959b32ff64736f6c63430008140033a26469706673582212200e1926d33658e9e980700414e8b5beee60efc832fc459f492383469029fb20d564736f6c63430008140033",
  "linkReferences": {},
  "deployedLinkReferences": {}
}