{
  "_format": "hh-sol-artifact-1",
  "contractName": "LRouter",
  "sourceName": "contracts/periphery/LRouter.sol",
  "abi": [
    {
      "inputs": [
        {
          "internalType": "address",
          "name": "factory",
          "type": "address"
        },
        {
          "internalType": "address",
          "name": "weth",
          "type": "address"
        }
      ],
      "stateMutability": "nonpayable",
      "type": "constructor"
    },
    {
      "inputs": [
        {
          "internalType": "address",
          "name": "target",
          "type": "address"
        }
      ],
      "name": "AddressEmptyCode",
      "type": "error"
    },
    {
      "inputs": [
        {
          "internalType": "address",
          "name": "account",
          "type": "address"
        }
      ],
      "name": "AddressInsufficientBalance",
      "type": "error"
    },
    {
      "inputs": [],
      "name": "Expired",
      "type": "error"
    },
    {
      "inputs": [],
      "name": "FailedInnerCall",
      "type": "error"
    },
    {
      "inputs": [],
      "name": "ReentrancyGuardReentrantCall",
      "type": "error"
    },
    {
      "inputs": [
        {
          "internalType": "address",
          "name": "token",
          "type": "address"
        }
      ],
      "name": "SafeERC20FailedOperation",
      "type": "error"
    },
    {
      "inputs": [],
      "name": "FACTORY",
      "outputs": [
        {
          "internalType": "address",
          "name": "",
          "type": "address"
        }
      ],
      "stateMutability": "view",
      "type": "function"
    },
    {
      "inputs": [
        {
          "components": [
            {
              "internalType": "address",
              "name": "tokenA",
              "type": "address"
            },
            {
              "internalType": "address",
              "name": "tokenB",
              "type": "address"
            },
            {
              "internalType": "uint256",
              "name": "amountADesired",
              "type": "uint256"
            },
            {
              "internalType": "uint256",
              "name": "amountBDesired",
              "type": "uint256"
            },
            {
              "internalType": "uint256",
              "name": "amountAMin",
              "type": "uint256"
            },
            {
              "internalType": "uint256",
              "name": "amountBMin",
              "type": "uint256"
            },
            {
              "internalType": "address",
              "name": "to",
              "type": "address"
            },
            {
              "internalType": "uint256",
              "name": "deadline",
              "type": "uint256"
            }
          ],
          "internalType": "struct LRouter.AddLiquidity",
          "name": "params",
          "type": "tuple"
        }
      ],
      "name": "addLiquidity",
      "outputs": [
        {
          "internalType": "uint256",
          "name": "amountA",
          "type": "uint256"
        },
        {
          "internalType": "uint256",
          "name": "amountB",
          "type": "uint256"
        },
        {
          "internalType": "uint256",
          "name": "liquidity",
          "type": "uint256"
        },
        {
          "internalType": "address",
          "name": "pair",
          "type": "address"
        }
      ],
      "stateMutability": "nonpayable",
      "type": "function"
    },
    {
      "inputs": [
        {
          "internalType": "address",
          "name": "tokenA",
          "type": "address"
        },
        {
          "internalType": "address",
          "name": "tokenB",
          "type": "address"
        },
        {
          "internalType": "uint256",
          "name": "liquidity",
          "type": "uint256"
        },
        {
          "internalType": "uint256",
          "name": "amountAMin",
          "type": "uint256"
        },
        {
          "internalType": "uint256",
          "name": "amountBMin",
          "type": "uint256"
        },
        {
          "internalType": "address",
          "name": "to",
          "type": "address"
        },
        {
          "internalType": "uint256",
          "name": "deadline",
          "type": "uint256"
        }
      ],
      "name": "removeLiquidity",
      "outputs": [
        {
          "internalType": "uint256",
          "name": "amountA",
          "type": "uint256"
        },
        {
          "internalType": "uint256",
          "name": "amountB",
          "type": "uint256"
        }
      ],
      "stateMutability": "nonpayable",
      "type": "function"
    },
    {
      "stateMutability": "payable",
      "type": "receive"
    }
  ],
  "bytecode": "0x60a06040523480156200001157600080fd5b506040516200179a3803806200179a8339818101604052810190620000379190620000e5565b60016000819055508173ffffffffffffffffffffffffffffffffffffffff1660808173ffffffffffffffffffffffffffffffffffffffff168152505050506200012c565b600080fd5b600073ffffffffffffffffffffffffffffffffffffffff82169050919050565b6000620000ad8262000080565b9050919050565b620000bf81620000a0565b8114620000cb57600080fd5b50565b600081519050620000df81620000b4565b92915050565b60008060408385031215620000ff57620000fe6200007b565b5b60006200010f85828601620000ce565b92505060206200012285828601620000ce565b9150509250929050565b60805161163d6200015d6000396000818161025f015281816102c301528181610557015261064d015261163d6000f3fe6080604052600436106100385760003560e01c806323790216146100445780632dd3100014610084578063baa2abde146100af5761003f565b3661003f57005b600080fd5b34801561005057600080fd5b5061006b60048036038101906100669190610e25565b6100ed565b60405161007b9493929190610ead565b60405180910390f35b34801561009057600080fd5b5061009961025d565b6040516100a69190610ef2565b60405180910390f35b3480156100bb57600080fd5b506100d660048036038101906100d19190610f65565b610281565b6040516100e4929190611007565b60405180910390f35b6000806000808460e0013580421115610132576040517f203d82d800000000000000000000000000000000000000000000000000000000815260040160405180910390fd5b61013b8661054d565b8094508196508297505050506101863383878960000160208101906101609190611030565b73ffffffffffffffffffffffffffffffffffffffff16610875909392919063ffffffff16565b6101c533838689602001602081019061019f9190611030565b73ffffffffffffffffffffffffffffffffffffffff16610875909392919063ffffffff16565b8173ffffffffffffffffffffffffffffffffffffffff16636a6278428760c00160208101906101f49190611030565b6040518263ffffffff1660e01b81526004016102109190610ef2565b6020604051808303816000875af115801561022f573d6000803e3d6000fd5b505050506040513d601f19601f820116820180604052508101906102539190611072565b9250509193509193565b7f000000000000000000000000000000000000000000000000000000000000000081565b60008082804211156102bf576040517f203d82d800000000000000000000000000000000000000000000000000000000815260040160405180910390fd5b60007f000000000000000000000000000000000000000000000000000000000000000073ffffffffffffffffffffffffffffffffffffffff1663531aa03e8c8c6040518363ffffffff1660e01b815260040161031c92919061109f565b602060405180830381865afa158015610339573d6000803e3d6000fd5b505050506040513d601f19601f8201168201806040525081019061035d91906110dd565b90508073ffffffffffffffffffffffffffffffffffffffff166323b872dd33838c6040518463ffffffff1660e01b815260040161039c9392919061110a565b6020604051808303816000875af11580156103bb573d6000803e3d6000fd5b505050506040513d601f19601f820116820180604052508101906103df9190611179565b506000808273ffffffffffffffffffffffffffffffffffffffff166389afcb44896040518263ffffffff1660e01b815260040161041c9190610ef2565b60408051808303816000875af115801561043a573d6000803e3d6000fd5b505050506040513d601f19601f8201168201806040525081019061045e91906111a6565b91509150600061046e8e8e6108f7565b5090508073ffffffffffffffffffffffffffffffffffffffff168e73ffffffffffffffffffffffffffffffffffffffff16146104ab5781836104ae565b82825b80975081985050508a8710156104f9576040517f08c379a00000000000000000000000000000000000000000000000000000000081526004016104f090611243565b60405180910390fd5b8986101561053c576040517f08c379a0000000000000000000000000000000000000000000000000000000008152600401610533906112af565b60405180910390fd5b505050505097509795505050505050565b60008060008060007f000000000000000000000000000000000000000000000000000000000000000073ffffffffffffffffffffffffffffffffffffffff1663531aa03e8760000160208101906105a49190611030565b8860200160208101906105b79190611030565b6040518363ffffffff1660e01b81526004016105d492919061109f565b602060405180830381865afa1580156105f1573d6000803e3d6000fd5b505050506040513d601f19601f8201168201806040525081019061061591906110dd565b9250600073ffffffffffffffffffffffffffffffffffffffff168373ffffffffffffffffffffffffffffffffffffffff1603610710577f000000000000000000000000000000000000000000000000000000000000000073ffffffffffffffffffffffffffffffffffffffff1663c9c6539687600001602081019061069a9190611030565b8860200160208101906106ad9190611030565b6040518363ffffffff1660e01b81526004016106ca92919061109f565b6020604051808303816000875af11580156106e9573d6000803e3d6000fd5b505050506040513d601f19601f8201168201806040525081019061070d91906110dd565b92505b61073f838760000160208101906107279190611030565b88602001602081019061073a9190611030565b610a23565b80925081935050506000821480156107575750600081145b156107735785604001358660600135809550819650505061086c565b600061078487604001358484610afa565b9050866060013581116107eb578660a001358110156107d8576040517f08c379a00000000000000000000000000000000000000000000000000000000081526004016107cf906112af565b60405180910390fd5b866040013581809650819750505061086a565b60006107fc88606001358486610afa565b90508760400135811115610813576108126112cf565b5b876080013581101561085a576040517f08c379a000000000000000000000000000000000000000000000000000000000815260040161085190611243565b60405180910390fd5b8088606001358097508198505050505b505b50509193909250565b6108f1848573ffffffffffffffffffffffffffffffffffffffff166323b872dd8686866040516024016108aa9392919061110a565b604051602081830303815290604052915060e01b6020820180517bffffffffffffffffffffffffffffffffffffffffffffffffffffffff8381831617835250505050610bad565b50505050565b6000808273ffffffffffffffffffffffffffffffffffffffff168473ffffffffffffffffffffffffffffffffffffffff1603610968576040517f08c379a000000000000000000000000000000000000000000000000000000000815260040161095f9061134a565b60405180910390fd5b8273ffffffffffffffffffffffffffffffffffffffff168473ffffffffffffffffffffffffffffffffffffffff16106109a25782846109a5565b83835b8092508193505050600073ffffffffffffffffffffffffffffffffffffffff168273ffffffffffffffffffffffffffffffffffffffff1603610a1c576040517f08c379a0000000000000000000000000000000000000000000000000000000008152600401610a13906113b6565b60405180910390fd5b9250929050565b6000806000610a3285856108f7565b5090506000808773ffffffffffffffffffffffffffffffffffffffff16630902f1ac6040518163ffffffff1660e01b81526004016040805180830381865afa158015610a82573d6000803e3d6000fd5b505050506040513d601f19601f82011682018060405250810190610aa691906111a6565b915091508273ffffffffffffffffffffffffffffffffffffffff168773ffffffffffffffffffffffffffffffffffffffff1614610ae4578082610ae7565b81815b8095508196505050505050935093915050565b6000808411610b3e576040517f08c379a0000000000000000000000000000000000000000000000000000000008152600401610b3590611422565b60405180910390fd5b600083118015610b4e5750600082115b610b8d576040517f08c379a0000000000000000000000000000000000000000000000000000000008152600401610b849061148e565b60405180910390fd5b828285610b9a91906114dd565b610ba4919061154e565b90509392505050565b6000610bd8828473ffffffffffffffffffffffffffffffffffffffff16610c4490919063ffffffff16565b90506000815114158015610bfd575080806020019051810190610bfb9190611179565b155b15610c3f57826040517f5274afe7000000000000000000000000000000000000000000000000000000008152600401610c369190610ef2565b60405180910390fd5b505050565b6060610c5283836000610c5a565b905092915050565b606081471015610ca157306040517fcd786059000000000000000000000000000000000000000000000000000000008152600401610c989190610ef2565b60405180910390fd5b6000808573ffffffffffffffffffffffffffffffffffffffff168486604051610cca91906115f0565b60006040518083038185875af1925050503d8060008114610d07576040519150601f19603f3d011682016040523d82523d6000602084013e610d0c565b606091505b5091509150610d1c868383610d27565b925050509392505050565b606082610d3c57610d3782610db6565b610dae565b60008251148015610d64575060008473ffffffffffffffffffffffffffffffffffffffff163b145b15610da657836040517f9996b315000000000000000000000000000000000000000000000000000000008152600401610d9d9190610ef2565b60405180910390fd5b819050610daf565b5b9392505050565b600081511115610dc95780518082602001fd5b6040517f1425ea4200000000000000000000000000000000000000000000000000000000815260040160405180910390fd5b600080fd5b600080fd5b60006101008284031215610e1c57610e1b610e00565b5b81905092915050565b60006101008284031215610e3c57610e3b610dfb565b5b6000610e4a84828501610e05565b91505092915050565b6000819050919050565b610e6681610e53565b82525050565b600073ffffffffffffffffffffffffffffffffffffffff82169050919050565b6000610e9782610e6c565b9050919050565b610ea781610e8c565b82525050565b6000608082019050610ec26000830187610e5d565b610ecf6020830186610e5d565b610edc6040830185610e5d565b610ee96060830184610e9e565b95945050505050565b6000602082019050610f076000830184610e9e565b92915050565b610f1681610e8c565b8114610f2157600080fd5b50565b600081359050610f3381610f0d565b92915050565b610f4281610e53565b8114610f4d57600080fd5b50565b600081359050610f5f81610f39565b92915050565b600080600080600080600060e0888a031215610f8457610f83610dfb565b5b6000610f928a828b01610f24565b9750506020610fa38a828b01610f24565b9650506040610fb48a828b01610f50565b9550506060610fc58a828b01610f50565b9450506080610fd68a828b01610f50565b93505060a0610fe78a828b01610f24565b92505060c0610ff88a828b01610f50565b91505092959891949750929550565b600060408201905061101c6000830185610e5d565b6110296020830184610e5d565b9392505050565b60006020828403121561104657611045610dfb565b5b600061105484828501610f24565b91505092915050565b60008151905061106c81610f39565b92915050565b60006020828403121561108857611087610dfb565b5b60006110968482850161105d565b91505092915050565b60006040820190506110b46000830185610e9e565b6110c16020830184610e9e565b9392505050565b6000815190506110d781610f0d565b92915050565b6000602082840312156110f3576110f2610dfb565b5b6000611101848285016110c8565b91505092915050565b600060608201905061111f6000830186610e9e565b61112c6020830185610e9e565b6111396040830184610e5d565b949350505050565b60008115159050919050565b61115681611141565b811461116157600080fd5b50565b6000815190506111738161114d565b92915050565b60006020828403121561118f5761118e610dfb565b5b600061119d84828501611164565b91505092915050565b600080604083850312156111bd576111bc610dfb565b5b60006111cb8582860161105d565b92505060206111dc8582860161105d565b9150509250929050565b600082825260208201905092915050565b7f20494e53554646494349454e545f415f414d4f554e5400000000000000000000600082015250565b600061122d6016836111e6565b9150611238826111f7565b602082019050919050565b6000602082019050818103600083015261125c81611220565b9050919050565b7f20494e53554646494349454e545f425f414d4f554e5400000000000000000000600082015250565b60006112996016836111e6565b91506112a482611263565b602082019050919050565b600060208201905081810360008301526112c88161128c565b9050919050565b7f4e487b7100000000000000000000000000000000000000000000000000000000600052600160045260246000fd5b7f4944454e544943414c5f41444452455353455300000000000000000000000000600082015250565b60006113346013836111e6565b915061133f826112fe565b602082019050919050565b6000602082019050818103600083015261136381611327565b9050919050565b7f5a45524f5f414444524553530000000000000000000000000000000000000000600082015250565b60006113a0600c836111e6565b91506113ab8261136a565b602082019050919050565b600060208201905081810360008301526113cf81611393565b9050919050565b7f494e53554646494349454e545f414d4f554e5400000000000000000000000000600082015250565b600061140c6013836111e6565b9150611417826113d6565b602082019050919050565b6000602082019050818103600083015261143b816113ff565b9050919050565b7f494e53554646494349454e545f4c495155494449545900000000000000000000600082015250565b60006114786016836111e6565b915061148382611442565b602082019050919050565b600060208201905081810360008301526114a78161146b565b9050919050565b7f4e487b7100000000000000000000000000000000000000000000000000000000600052601160045260246000fd5b60006114e882610e53565b91506114f383610e53565b925082820261150181610e53565b91508282048414831517611518576115176114ae565b5b5092915050565b7f4e487b7100000000000000000000000000000000000000000000000000000000600052601260045260246000fd5b600061155982610e53565b915061156483610e53565b9250826115745761157361151f565b5b828204905092915050565b600081519050919050565b600081905092915050565b60005b838110156115b3578082015181840152602081019050611598565b60008484015250505050565b60006115ca8261157f565b6115d4818561158a565b93506115e4818560208601611595565b80840191505092915050565b60006115fc82846115bf565b91508190509291505056fea2646970667358221220cb3a402ce0ceb46c98f21b0b057dcd1530758a27958bab2ed46e2c844f207be064736f6c63430008140033",
  "linkReferences": {},
  "deployedLinkReferences": {}
}