{
  "_format": "hh-sol-artifact-1",
  "contractName": "LSlidingWindowOracle",
  "sourceName": "contracts/utils/LSlidingWindowOracle.sol",
  "abi": [
    {
      "inputs": [
        {
          "internalType": "address",
          "name": "factory_",
          "type": "address"
        },
        {
          "internalType": "uint256",
          "name": "windowSize_",
          "type": "uint256"
        },
        {
          "internalType": "uint8",
          "name": "granularity_",
          "type": "uint8"
        }
      ],
      "stateMutability": "nonpayable",
      "type": "constructor"
    },
    {
      "inputs": [],
      "name": "FACTORY",
      "outputs": [
        {
          "internalType": "address",
          "name": "",
          "type": "address"
        }
      ],
      "stateMutability": "view",
      "type": "function"
    },
    {
      "inputs": [
        {
          "internalType": "address",
          "name": "tokenIn",
          "type": "address"
        },
        {
          "internalType": "uint256",
          "name": "amountIn",
          "type": "uint256"
        },
        {
          "internalType": "address",
          "name": "tokenOut",
          "type": "address"
        }
      ],
      "name": "consult",
      "outputs": [
        {
          "internalType": "uint256",
          "name": "amountOut",
          "type": "uint256"
        }
      ],
      "stateMutability": "view",
      "type": "function"
    },
    {
      "inputs": [],
      "name": "granularity",
      "outputs": [
        {
          "internalType": "uint8",
          "name": "",
          "type": "uint8"
        }
      ],
      "stateMutability": "view",
      "type": "function"
    },
    {
      "inputs": [
        {
          "internalType": "uint256",
          "name": "timestamp",
          "type": "uint256"
        }
      ],
      "name": "observationIndexOf",
      "outputs": [
        {
          "internalType": "uint8",
          "name": "index",
          "type": "uint8"
        }
      ],
      "stateMutability": "view",
      "type": "function"
    },
    {
      "inputs": [
        {
          "internalType": "address",
          "name": "",
          "type": "address"
        },
        {
          "internalType": "uint256",
          "name": "",
          "type": "uint256"
        }
      ],
      "name": "pairObservations",
      "outputs": [
        {
          "internalType": "uint256",
          "name": "timestamp",
          "type": "uint256"
        },
        {
          "internalType": "uint256",
          "name": "price0Cumulative",
          "type": "uint256"
        },
        {
          "internalType": "uint256",
          "name": "price1Cumulative",
          "type": "uint256"
        }
      ],
      "stateMutability": "view",
      "type": "function"
    },
    {
      "inputs": [],
      "name": "periodSize",
      "outputs": [
        {
          "internalType": "uint256",
          "name": "",
          "type": "uint256"
        }
      ],
      "stateMutability": "view",
      "type": "function"
    },
    {
      "inputs": [
        {
          "internalType": "address",
          "name": "pair",
          "type": "address"
        }
      ],
      "name": "update",
      "outputs": [],
      "stateMutability": "nonpayable",
      "type": "function"
    },
    {
      "inputs": [],
      "name": "windowSize",
      "outputs": [
        {
          "internalType": "uint256",
          "name": "",
          "type": "uint256"
        }
      ],
      "stateMutability": "view",
      "type": "function"
    }
  ],
  "bytecode": "0x61010060405234801561001157600080fd5b50604051610ed5380380610ed583398101604081905261003091610128565b60018160ff16116100885760405162461bcd60e51b815260206004820181905260248201527f536c6964696e6757696e646f774f7261636c653a204752414e554c415249545960448201526064015b60405180910390fd5b8160ff8216610097818361017d565b60e08190526100a6919061019f565b1461010c5760405162461bcd60e51b815260206004820152603060248201527f536c6964696e6757696e646f774f7261636c653a2057494e444f575f4e4f545f60448201526f4556454e4c595f444956495349424c4560801b606482015260840161007f565b6001600160a01b0390921660805260a05260ff1660c0526101ca565b60008060006060848603121561013d57600080fd5b83516001600160a01b038116811461015457600080fd5b60208501516040860151919450925060ff8116811461017257600080fd5b809150509250925092565b60008261019a57634e487b7160e01b600052601260045260246000fd5b500490565b80820281158282048414176101c457634e487b7160e01b600052601160045260246000fd5b92915050565b60805160a05160c05160e051610c95610240600039600081816101ad015281816102a70152818161044101526105ac01526000818160eb015281816101eb015281816105da01526107e3015260008181610124015281816103ad015261046d01526000818160a7015261031f0152610c956000f3fe608060405234801561001057600080fd5b50600436106100885760003560e01c80638c86f1e41161005b5780638c86f1e414610154578063bfcc8e4214610167578063dbaad32f14610195578063e4463eb2146101a857600080fd5b80631c1b87721461008d5780632dd31000146100a2578063556f0dc7146100e65780638a14117a1461011f575b600080fd5b6100a061009b3660046109ae565b6101cf565b005b6100c97f000000000000000000000000000000000000000000000000000000000000000081565b6040516001600160a01b0390911681526020015b60405180910390f35b61010d7f000000000000000000000000000000000000000000000000000000000000000081565b60405160ff90911681526020016100dd565b6101467f000000000000000000000000000000000000000000000000000000000000000081565b6040519081526020016100dd565b6101466101623660046109cb565b6102f3565b61017a610175366004610a0d565b610562565b604080519384526020840192909252908201526060016100dd565b61010d6101a3366004610a39565b6105a4565b6101467f000000000000000000000000000000000000000000000000000000000000000081565b6001600160a01b0381166000908152602081905260409020545b7f000000000000000000000000000000000000000000000000000000000000000060ff16811015610247576001600160a01b03821660009081526020819052604081208054600101815590528061023f81610a68565b9150506101e9565b506000610253426105a4565b6001600160a01b03831660009081526020819052604081208054929350909160ff841690811061028557610285610a81565b60009182526020822060039091020180549092506102a39042610a97565b90507f00000000000000000000000000000000000000000000000000000000000000008111156102ed576000806102d986610600565b504286556001860191909155600285015550505b50505050565b60405163298d501f60e11b81526001600160a01b038481166004830152828116602483015260009182917f0000000000000000000000000000000000000000000000000000000000000000169063531aa03e90604401602060405180830381865afa158015610366573d6000803e3d6000fd5b505050506040513d601f19601f8201168201806040525081019061038a9190610ab0565b90506000610397826107d1565b80549091506000906103a99042610a97565b90507f000000000000000000000000000000000000000000000000000000000000000081111561043c5760405162461bcd60e51b815260206004820152603360248201527f536c6964696e6757696e646f774f7261636c653a204d495353494e475f4849536044820152722a27a924a1a0a62fa7a129a2a92b20aa24a7a760691b60648201526084015b60405180910390fd5b6104677f00000000000000000000000000000000000000000000000000000000000000006002610acd565b610491907f0000000000000000000000000000000000000000000000000000000000000000610a97565b8110156104f55760405162461bcd60e51b815260206004820152602c60248201527f536c6964696e6757696e646f774f7261636c653a20554e45585045435445445f60448201526b1512535157d153105414d15160a21b6064820152608401610433565b60008061050185610600565b509150915060006105128a8961085f565b509050896001600160a01b0316816001600160a01b03160361054b5761053e856001015484868c61092d565b965050505050505061055b565b61053e856002015483868c61092d565b9392505050565b6000602052816000526040600020818154811061057e57600080fd5b600091825260209091206003909102018054600182015460029092015490935090915083565b6000806105d17f000000000000000000000000000000000000000000000000000000000000000084610afa565b905061055b60ff7f00000000000000000000000000000000000000000000000000000000000000001682610b0e565b600080600061060d610980565b9050836001600160a01b0316635909c0d56040518163ffffffff1660e01b8152600401602060405180830381865afa15801561064d573d6000803e3d6000fd5b505050506040513d601f19601f820116820180604052508101906106719190610b22565b9250836001600160a01b0316635a3d54936040518163ffffffff1660e01b8152600401602060405180830381865afa1580156106b1573d6000803e3d6000fd5b505050506040513d601f19601f820116820180604052508101906106d59190610b22565b91506000806000866001600160a01b0316630902f1ac6040518163ffffffff1660e01b8152600401606060405180830381865afa15801561071a573d6000803e3d6000fd5b505050506040513d601f19601f8201168201806040525081019061073e9190610b57565b9250925092508363ffffffff168163ffffffff16146107c75760006107638286610b9c565b90508361077663ffffffff831685610bc0565b6107809190610beb565b610793906001600160701b031688610c11565b9650826107a663ffffffff831686610bc0565b6107b09190610beb565b6107c3906001600160701b031687610c11565b9550505b5050509193909250565b6000806107dd426105a4565b905060007f000000000000000000000000000000000000000000000000000000000000000061080d836001610c24565b6108179190610c3d565b6001600160a01b038516600090815260208190526040902080549192509060ff831690811061084857610848610a81565b906000526020600020906003020192505050919050565b600080826001600160a01b0316846001600160a01b0316036108b95760405162461bcd60e51b81526020600482015260136024820152724944454e544943414c5f41444452455353455360681b6044820152606401610433565b826001600160a01b0316846001600160a01b0316106108d95782846108dc565b83835b90925090506001600160a01b0382166109265760405162461bcd60e51b815260206004820152600c60248201526b5a45524f5f4144445245535360a01b6044820152606401610433565b9250929050565b6000808361093b8787610a97565b61094d90670de0b6b3a7640000610acd565b6109579190610afa565b9050670de0b6b3a764000061096c8483610acd565b6109769190610afa565b9695505050505050565b600061099164010000000042610b0e565b905090565b6001600160a01b03811681146109ab57600080fd5b50565b6000602082840312156109c057600080fd5b813561055b81610996565b6000806000606084860312156109e057600080fd5b83356109eb81610996565b9250602084013591506040840135610a0281610996565b809150509250925092565b60008060408385031215610a2057600080fd5b8235610a2b81610996565b946020939093013593505050565b600060208284031215610a4b57600080fd5b5035919050565b634e487b7160e01b600052601160045260246000fd5b600060018201610a7a57610a7a610a52565b5060010190565b634e487b7160e01b600052603260045260246000fd5b81810381811115610aaa57610aaa610a52565b92915050565b600060208284031215610ac257600080fd5b815161055b81610996565b8082028115828204841417610aaa57610aaa610a52565b634e487b7160e01b600052601260045260246000fd5b600082610b0957610b09610ae4565b500490565b600082610b1d57610b1d610ae4565b500690565b600060208284031215610b3457600080fd5b5051919050565b80516001600160701b0381168114610b5257600080fd5b919050565b600080600060608486031215610b6c57600080fd5b610b7584610b3b565b9250610b8360208501610b3b565b9150604084015163ffffffff81168114610a0257600080fd5b63ffffffff828116828216039080821115610bb957610bb9610a52565b5092915050565b6001600160701b03818116838216028082169190828114610be357610be3610a52565b505092915050565b60006001600160701b0380841680610c0557610c05610ae4565b92169190910492915050565b80820180821115610aaa57610aaa610a52565b60ff8181168382160190811115610aaa57610aaa610a52565b600060ff831680610c5057610c50610ae4565b8060ff8416069150509291505056fea2646970667358221220c0df4680abb630a41d7c5cc1c1bda1c953a5b7f9c64f0e744ac17e1ca1b35a1564736f6c63430008140033",
  "linkReferences": {},
  "deployedLinkReferences": {}
}