{
  "_format": "hh-sol-artifact-1",
  "contractName": "LSlidingWindowOracle",
  "sourceName": "contracts/utils/LSlidingWindowOracle.sol",
  "abi": [
    {
      "inputs": [
        {
          "internalType": "address",
          "name": "factory_",
          "type": "address"
        },
        {
          "internalType": "uint256",
          "name": "windowSize_",
          "type": "uint256"
        },
        {
          "internalType": "uint8",
          "name": "granularity_",
          "type": "uint8"
        }
      ],
      "stateMutability": "nonpayable",
      "type": "constructor"
    },
    {
      "inputs": [],
      "name": "FACTORY",
      "outputs": [
        {
          "internalType": "address",
          "name": "",
          "type": "address"
        }
      ],
      "stateMutability": "view",
      "type": "function"
    },
    {
      "inputs": [
        {
          "internalType": "address",
          "name": "tokenIn",
          "type": "address"
        },
        {
          "internalType": "uint256",
          "name": "amountIn",
          "type": "uint256"
        },
        {
          "internalType": "address",
          "name": "tokenOut",
          "type": "address"
        }
      ],
      "name": "consult",
      "outputs": [
        {
          "internalType": "uint256",
          "name": "amountOut",
          "type": "uint256"
        }
      ],
      "stateMutability": "view",
      "type": "function"
    },
    {
      "inputs": [],
      "name": "granularity",
      "outputs": [
        {
          "internalType": "uint8",
          "name": "",
          "type": "uint8"
        }
      ],
      "stateMutability": "view",
      "type": "function"
    },
    {
      "inputs": [
        {
          "internalType": "uint256",
          "name": "timestamp",
          "type": "uint256"
        }
      ],
      "name": "observationIndexOf",
      "outputs": [
        {
          "internalType": "uint8",
          "name": "index",
          "type": "uint8"
        }
      ],
      "stateMutability": "view",
      "type": "function"
    },
    {
      "inputs": [
        {
          "internalType": "address",
          "name": "",
          "type": "address"
        },
        {
          "internalType": "uint256",
          "name": "",
          "type": "uint256"
        }
      ],
      "name": "pairObservations",
      "outputs": [
        {
          "internalType": "uint256",
          "name": "timestamp",
          "type": "uint256"
        },
        {
          "internalType": "uint256",
          "name": "price0Cumulative",
          "type": "uint256"
        },
        {
          "internalType": "uint256",
          "name": "price1Cumulative",
          "type": "uint256"
        }
      ],
      "stateMutability": "view",
      "type": "function"
    },
    {
      "inputs": [],
      "name": "periodSize",
      "outputs": [
        {
          "internalType": "uint256",
          "name": "",
          "type": "uint256"
        }
      ],
      "stateMutability": "view",
      "type": "function"
    },
    {
      "inputs": [
        {
          "internalType": "address",
          "name": "pair",
          "type": "address"
        }
      ],
      "name": "update",
      "outputs": [],
      "stateMutability": "nonpayable",
      "type": "function"
    },
    {
      "inputs": [],
      "name": "windowSize",
      "outputs": [
        {
          "internalType": "uint256",
          "name": "",
          "type": "uint256"
        }
      ],
      "stateMutability": "view",
      "type": "function"
    }
  ],
  "bytecode": "0x61010060405234801561001157600080fd5b506040516200117f3803806200117f8339810160408190526100329161012a565b60018160ff161161008a5760405162461bcd60e51b815260206004820181905260248201527f536c6964696e6757696e646f774f7261636c653a204752414e554c415249545960448201526064015b60405180910390fd5b8160ff8216610099818361017f565b60e08190526100a891906101a1565b1461010e5760405162461bcd60e51b815260206004820152603060248201527f536c6964696e6757696e646f774f7261636c653a2057494e444f575f4e4f545f60448201526f4556454e4c595f444956495349424c4560801b6064820152608401610081565b6001600160a01b0390921660805260a05260ff1660c0526101cc565b60008060006060848603121561013f57600080fd5b83516001600160a01b038116811461015657600080fd5b60208501516040860151919450925060ff8116811461017457600080fd5b809150509250925092565b60008261019c57634e487b7160e01b600052601260045260246000fd5b500490565b80820281158282048414176101c657634e487b7160e01b600052601160045260246000fd5b92915050565b60805160a05160c05160e051610f3c62000243600039600081816101ad015281816102ce0152818161046801526105fe01526000818160eb015281816102120152818161062c015261087b015260008181610124015281816103d4015261049401526000818160a701526103460152610f3c6000f3fe608060405234801561001057600080fd5b50600436106100885760003560e01c80638c86f1e41161005b5780638c86f1e414610154578063bfcc8e4214610167578063dbaad32f14610195578063e4463eb2146101a857600080fd5b80631c1b87721461008d5780632dd31000146100a2578063556f0dc7146100e65780638a14117a1461011f575b600080fd5b6100a061009b366004610b86565b6101cf565b005b6100c97f000000000000000000000000000000000000000000000000000000000000000081565b6040516001600160a01b0390911681526020015b60405180910390f35b61010d7f000000000000000000000000000000000000000000000000000000000000000081565b60405160ff90911681526020016100dd565b6101467f000000000000000000000000000000000000000000000000000000000000000081565b6040519081526020016100dd565b610146610162366004610ba3565b61031a565b61017a610175366004610be5565b6105b4565b604080519384526020840192909252908201526060016100dd565b61010d6101a3366004610c11565b6105f6565b6101467f000000000000000000000000000000000000000000000000000000000000000081565b6101f66040518060400160405280600681526020016555504441544560d01b815250610652565b6001600160a01b0381166000908152602081905260409020545b7f000000000000000000000000000000000000000000000000000000000000000060ff1681101561026e576001600160a01b03821660009081526020819052604081208054600101815590528061026681610c40565b915050610210565b50600061027a426105f6565b6001600160a01b03831660009081526020819052604081208054929350909160ff84169081106102ac576102ac610c59565b60009182526020822060039091020180549092506102ca9042610c6f565b90507f00000000000000000000000000000000000000000000000000000000000000008111156103145760008061030086610698565b504286556001860191909155600285015550505b50505050565b60405163298d501f60e11b81526001600160a01b038481166004830152828116602483015260009182917f0000000000000000000000000000000000000000000000000000000000000000169063531aa03e90604401602060405180830381865afa15801561038d573d6000803e3d6000fd5b505050506040513d601f19601f820116820180604052508101906103b19190610c88565b905060006103be82610869565b80549091506000906103d09042610c6f565b90507f00000000000000000000000000000000000000000000000000000000000000008111156104635760405162461bcd60e51b815260206004820152603360248201527f536c6964696e6757696e646f774f7261636c653a204d495353494e475f4849536044820152722a27a924a1a0a62fa7a129a2a92b20aa24a7a760691b60648201526084015b60405180910390fd5b61048e7f00000000000000000000000000000000000000000000000000000000000000006002610ca5565b6104b8907f0000000000000000000000000000000000000000000000000000000000000000610c6f565b81101561051c5760405162461bcd60e51b815260206004820152602c60248201527f536c6964696e6757696e646f774f7261636c653a20554e45585045435445445f60448201526b1512535157d153105414d15160a21b606482015260840161045a565b60008061052885610698565b509150915060006105398a896108f7565b509050610567604051806040016040528060048152602001630d0d0d0d60e31b8152508660010154856109c5565b896001600160a01b0316816001600160a01b03160361059d57610590856001015484868c610a11565b96505050505050506105ad565b610590856002015483868c610a11565b9392505050565b600060205281600052604060002081815481106105d057600080fd5b600091825260209091206003909102018054600182015460029092015490935090915083565b6000806106237f000000000000000000000000000000000000000000000000000000000000000084610cd2565b90506105ad60ff7f00000000000000000000000000000000000000000000000000000000000000001682610ce6565b610695816040516024016106669190610d40565b60408051601f198184030181529190526020810180516001600160e01b031663104c13eb60e21b179052610a9f565b50565b60008060006106a5610aa8565b9050836001600160a01b0316635909c0d56040518163ffffffff1660e01b8152600401602060405180830381865afa1580156106e5573d6000803e3d6000fd5b505050506040513d601f19601f820116820180604052508101906107099190610d53565b9250836001600160a01b0316635a3d54936040518163ffffffff1660e01b8152600401602060405180830381865afa158015610749573d6000803e3d6000fd5b505050506040513d601f19601f8201168201806040525081019061076d9190610d53565b91506000806000866001600160a01b0316630902f1ac6040518163ffffffff1660e01b8152600401606060405180830381865afa1580156107b2573d6000803e3d6000fd5b505050506040513d601f19601f820116820180604052508101906107d69190610d88565b9250925092508363ffffffff168163ffffffff161461085f5760006107fb8286610dcd565b90508361080e63ffffffff831685610df1565b6108189190610e1c565b61082b906001600160701b031688610e42565b96508261083e63ffffffff831686610df1565b6108489190610e1c565b61085b906001600160701b031687610e42565b9550505b5050509193909250565b600080610875426105f6565b905060007f00000000000000000000000000000000000000000000000000000000000000006108a5836001610e55565b6108af9190610e6e565b6001600160a01b038516600090815260208190526040902080549192509060ff83169081106108e0576108e0610c59565b906000526020600020906003020192505050919050565b600080826001600160a01b0316846001600160a01b0316036109515760405162461bcd60e51b81526020600482015260136024820152724944454e544943414c5f41444452455353455360681b604482015260640161045a565b826001600160a01b0316846001600160a01b031610610971578284610974565b83835b90925090506001600160a01b0382166109be5760405162461bcd60e51b815260206004820152600c60248201526b5a45524f5f4144445245535360a01b604482015260640161045a565b9250929050565b610a0c8383836040516024016109dd93929190610e90565b60408051601f198184030181529190526020810180516001600160e01b031663ca47c4eb60e01b179052610a9f565b505050565b60008083610a1f8787610c6f565b610a299190610cd2565b6001600160e01b03169050610a586040518060400160405280600281526020016124b760f11b81525084610abe565b610a628382610ca5565b9150610a966040518060400160405280600381526020016213dd5d60ea1b815250838888610a909190610c6f565b87610b07565b50949350505050565b61069581610b50565b6000610ab964010000000042610ce6565b905090565b610b038282604051602401610ad4929190610eb5565b60408051601f198184030181529190526020810180516001600160e01b0316632d839cb360e21b179052610a9f565b5050565b61031484848484604051602401610b219493929190610ed7565b60408051601f198184030181529190526020810180516001600160e01b031663a7a8785360e01b179052610a9f565b60006a636f6e736f6c652e6c6f679050600080835160208501845afa505050565b6001600160a01b038116811461069557600080fd5b600060208284031215610b9857600080fd5b81356105ad81610b71565b600080600060608486031215610bb857600080fd5b8335610bc381610b71565b9250602084013591506040840135610bda81610b71565b809150509250925092565b60008060408385031215610bf857600080fd5b8235610c0381610b71565b946020939093013593505050565b600060208284031215610c2357600080fd5b5035919050565b634e487b7160e01b600052601160045260246000fd5b600060018201610c5257610c52610c2a565b5060010190565b634e487b7160e01b600052603260045260246000fd5b81810381811115610c8257610c82610c2a565b92915050565b600060208284031215610c9a57600080fd5b81516105ad81610b71565b8082028115828204841417610c8257610c82610c2a565b634e487b7160e01b600052601260045260246000fd5b600082610ce157610ce1610cbc565b500490565b600082610cf557610cf5610cbc565b500690565b6000815180845260005b81811015610d2057602081850181015186830182015201610d04565b506000602082860101526020601f19601f83011685010191505092915050565b6020815260006105ad6020830184610cfa565b600060208284031215610d6557600080fd5b5051919050565b80516001600160701b0381168114610d8357600080fd5b919050565b600080600060608486031215610d9d57600080fd5b610da684610d6c565b9250610db460208501610d6c565b9150604084015163ffffffff81168114610bda57600080fd5b63ffffffff828116828216039080821115610dea57610dea610c2a565b5092915050565b6001600160701b03818116838216028082169190828114610e1457610e14610c2a565b505092915050565b60006001600160701b0380841680610e3657610e36610cbc565b92169190910492915050565b80820180821115610c8257610c82610c2a565b60ff8181168382160190811115610c8257610c82610c2a565b600060ff831680610e8157610e81610cbc565b8060ff84160691505092915050565b606081526000610ea36060830186610cfa565b60208301949094525060400152919050565b604081526000610ec86040830185610cfa565b90508260208301529392505050565b608081526000610eea6080830187610cfa565b602083019590955250604081019290925260609091015291905056fea264697066735822122002f33eea565069e4dcfa3262fa6cb71c458a4b49d979b160fe7ca5172b92713a64736f6c63430008140033",
  "linkReferences": {},
  "deployedLinkReferences": {}
}