{
  "_format": "hh-sol-artifact-1",
  "contractName": "LFactory",
  "sourceName": "contracts/LFactory.sol",
  "abi": [
    {
      "inputs": [
        {
          "internalType": "address",
          "name": "swapPool",
          "type": "address"
        }
      ],
      "stateMutability": "nonpayable",
      "type": "constructor"
    },
    {
      "inputs": [
        {
          "internalType": "address",
          "name": "target",
          "type": "address"
        }
      ],
      "name": "AddressEmptyCode",
      "type": "error"
    },
    {
      "inputs": [
        {
          "internalType": "address",
          "name": "account",
          "type": "address"
        }
      ],
      "name": "AddressInsufficientBalance",
      "type": "error"
    },
    {
      "inputs": [],
      "name": "AlreadyInitialized",
      "type": "error"
    },
    {
      "inputs": [],
      "name": "ERC1167FailedCreateClone",
      "type": "error"
    },
    {
      "inputs": [],
      "name": "FailedInnerCall",
      "type": "error"
    },
    {
      "inputs": [
        {
          "internalType": "address",
          "name": "pair",
          "type": "address"
        }
      ],
      "name": "PairAlreadyExist",
      "type": "error"
    },
    {
      "inputs": [
        {
          "internalType": "address",
          "name": "pool",
          "type": "address"
        }
      ],
      "name": "PoolAlreadyExist",
      "type": "error"
    },
    {
      "inputs": [
        {
          "internalType": "uint8",
          "name": "bits",
          "type": "uint8"
        },
        {
          "internalType": "uint256",
          "name": "value",
          "type": "uint256"
        }
      ],
      "name": "SafeCastOverflowedUintDowncast",
      "type": "error"
    },
    {
      "inputs": [
        {
          "internalType": "address",
          "name": "token",
          "type": "address"
        }
      ],
      "name": "SafeERC20FailedOperation",
      "type": "error"
    },
    {
      "inputs": [],
      "name": "DECIMAL",
      "outputs": [
        {
          "internalType": "uint256",
          "name": "",
          "type": "uint256"
        }
      ],
      "stateMutability": "view",
      "type": "function"
    },
    {
      "inputs": [],
      "name": "MAX_LTV",
      "outputs": [
        {
          "internalType": "uint256",
          "name": "",
          "type": "uint256"
        }
      ],
      "stateMutability": "view",
      "type": "function"
    },
    {
      "inputs": [],
      "name": "ONE_PERCENT",
      "outputs": [
        {
          "internalType": "uint256",
          "name": "",
          "type": "uint256"
        }
      ],
      "stateMutability": "view",
      "type": "function"
    },
    {
      "inputs": [],
      "name": "PAIR_REFERENCE",
      "outputs": [
        {
          "internalType": "address",
          "name": "",
          "type": "address"
        }
      ],
      "stateMutability": "view",
      "type": "function"
    },
    {
      "inputs": [],
      "name": "YEAR",
      "outputs": [
        {
          "internalType": "uint256",
          "name": "",
          "type": "uint256"
        }
      ],
      "stateMutability": "view",
      "type": "function"
    },
    {
      "inputs": [
        {
          "internalType": "address",
          "name": "collateral",
          "type": "address"
        },
        {
          "internalType": "address",
          "name": "tokenToBorrow",
          "type": "address"
        },
        {
          "internalType": "uint112",
          "name": "amount",
          "type": "uint112"
        }
      ],
      "name": "borrow",
      "outputs": [],
      "stateMutability": "nonpayable",
      "type": "function"
    },
    {
      "inputs": [
        {
          "internalType": "contract IERC20",
          "name": "_token",
          "type": "address"
        },
        {
          "internalType": "uint256",
          "name": "assets",
          "type": "uint256"
        },
        {
          "internalType": "address",
          "name": "receiver",
          "type": "address"
        }
      ],
      "name": "createCollateralPool",
      "outputs": [
        {
          "internalType": "address",
          "name": "pool",
          "type": "address"
        }
      ],
      "stateMutability": "nonpayable",
      "type": "function"
    },
    {
      "inputs": [
        {
          "internalType": "address",
          "name": "_token0",
          "type": "address"
        },
        {
          "internalType": "address",
          "name": "_token1",
          "type": "address"
        }
      ],
      "name": "createPair",
      "outputs": [
        {
          "internalType": "address",
          "name": "pair",
          "type": "address"
        }
      ],
      "stateMutability": "nonpayable",
      "type": "function"
    },
    {
      "inputs": [
        {
          "internalType": "address",
          "name": "token",
          "type": "address"
        }
      ],
      "name": "getCollateralPool",
      "outputs": [
        {
          "internalType": "address",
          "name": "",
          "type": "address"
        }
      ],
      "stateMutability": "view",
      "type": "function"
    },
    {
      "inputs": [
        {
          "internalType": "address",
          "name": "borrower",
          "type": "address"
        },
        {
          "internalType": "address",
          "name": "collateral",
          "type": "address"
        }
      ],
      "name": "getLoanStats",
      "outputs": [
        {
          "internalType": "uint256",
          "name": "totalLTV",
          "type": "uint256"
        },
        {
          "internalType": "uint256",
          "name": "totalDebt",
          "type": "uint256"
        },
        {
          "internalType": "uint256",
          "name": "totalInterest",
          "type": "uint256"
        },
        {
          "internalType": "uint8",
          "name": "loanCount",
          "type": "uint8"
        }
      ],
      "stateMutability": "nonpayable",
      "type": "function"
    },
    {
      "inputs": [
        {
          "internalType": "address",
          "name": "token0",
          "type": "address"
        },
        {
          "internalType": "address",
          "name": "token1",
          "type": "address"
        }
      ],
      "name": "getPairTokensOrder",
      "outputs": [
        {
          "internalType": "address",
          "name": "",
          "type": "address"
        },
        {
          "internalType": "address",
          "name": "",
          "type": "address"
        }
      ],
      "stateMutability": "pure",
      "type": "function"
    },
    {
      "inputs": [
        {
          "internalType": "address",
          "name": "_token0",
          "type": "address"
        },
        {
          "internalType": "address",
          "name": "_token1",
          "type": "address"
        }
      ],
      "name": "getPool",
      "outputs": [
        {
          "internalType": "address",
          "name": "",
          "type": "address"
        }
      ],
      "stateMutability": "view",
      "type": "function"
    },
    {
      "inputs": [
        {
          "internalType": "address",
          "name": "borrower",
          "type": "address"
        },
        {
          "internalType": "address",
          "name": "collateral",
          "type": "address"
        }
      ],
      "name": "getUserLoans",
      "outputs": [
        {
          "components": [
            {
              "internalType": "address",
              "name": "ammPool",
              "type": "address"
            },
            {
              "internalType": "address",
              "name": "collateralPool",
              "type": "address"
            },
            {
              "internalType": "address",
              "name": "tokenBorrowed",
              "type": "address"
            },
            {
              "internalType": "uint112",
              "name": "amount",
              "type": "uint112"
            },
            {
              "internalType": "uint112",
              "name": "accruedInterest",
              "type": "uint112"
            },
            {
              "internalType": "uint8",
              "name": "interestRate",
              "type": "uint8"
            },
            {
              "internalType": "uint32",
              "name": "borrowedAt",
              "type": "uint32"
            }
          ],
          "internalType": "struct ILFactory.LoanMarket[]",
          "name": "",
          "type": "tuple[]"
        }
      ],
      "stateMutability": "nonpayable",
      "type": "function"
    },
    {
      "inputs": [
        {
          "internalType": "address",
          "name": "",
          "type": "address"
        }
      ],
      "name": "isAmmPool",
      "outputs": [
        {
          "internalType": "bool",
          "name": "",
          "type": "bool"
        }
      ],
      "stateMutability": "view",
      "type": "function"
    },
    {
      "inputs": [
        {
          "internalType": "address",
          "name": "borrower",
          "type": "address"
        },
        {
          "internalType": "address",
          "name": "collateral",
          "type": "address"
        }
      ],
      "name": "isLiquidatable",
      "outputs": [
        {
          "internalType": "bool",
          "name": "",
          "type": "bool"
        }
      ],
      "stateMutability": "nonpayable",
      "type": "function"
    },
    {
      "inputs": [
        {
          "internalType": "address",
          "name": "borrower",
          "type": "address"
        },
        {
          "internalType": "address",
          "name": "collateral",
          "type": "address"
        },
        {
          "internalType": "address",
          "name": "tokenBorrowed",
          "type": "address"
        },
        {
          "internalType": "uint256",
          "name": "index",
          "type": "uint256"
        }
      ],
      "name": "liquidate",
      "outputs": [],
      "stateMutability": "nonpayable",
      "type": "function"
    },
    {
      "inputs": [],
      "name": "oracle",
      "outputs": [
        {
          "internalType": "contract LSlidingWindowOracle",
          "name": "",
          "type": "address"
        }
      ],
      "stateMutability": "view",
      "type": "function"
    },
    {
      "inputs": [
        {
          "internalType": "address",
          "name": "borrower",
          "type": "address"
        },
        {
          "internalType": "address",
          "name": "collateral",
          "type": "address"
        },
        {
          "internalType": "address",
          "name": "tokenToBorrow",
          "type": "address"
        },
        {
          "internalType": "uint256",
          "name": "index",
          "type": "uint256"
        },
        {
          "internalType": "uint112",
          "name": "amount",
          "type": "uint112"
        }
      ],
      "name": "repay",
      "outputs": [],
      "stateMutability": "nonpayable",
      "type": "function"
    },
    {
      "inputs": [
        {
          "internalType": "address",
          "name": "borrower",
          "type": "address"
        },
        {
          "internalType": "address",
          "name": "collateral",
          "type": "address"
        },
        {
          "internalType": "address",
          "name": "tokenToBorrow",
          "type": "address"
        },
        {
          "internalType": "uint256",
          "name": "index",
          "type": "uint256"
        }
      ],
      "name": "repayFull",
      "outputs": [
        {
          "internalType": "uint112",
          "name": "amount",
          "type": "uint112"
        }
      ],
      "stateMutability": "nonpayable",
      "type": "function"
    },
    {
      "inputs": [
        {
          "internalType": "contract LSlidingWindowOracle",
          "name": "_oracle",
          "type": "address"
        }
      ],
      "name": "setOracle",
      "outputs": [],
      "stateMutability": "nonpayable",
      "type": "function"
    },
    {
      "inputs": [
        {
          "internalType": "address",
          "name": "pair",
          "type": "address"
        }
      ],
      "name": "update",
      "outputs": [],
      "stateMutability": "nonpayable",
      "type": "function"
    },
    {
      "inputs": [
        {
          "internalType": "address",
          "name": "tokenA",
          "type": "address"
        },
        {
          "internalType": "address",
          "name": "tokenB",
          "type": "address"
        }
      ],
      "name": "update",
      "outputs": [],
      "stateMutability": "nonpayable",
      "type": "function"
    },
    {
      "inputs": [
        {
          "internalType": "address",
          "name": "",
          "type": "address"
        },
        {
          "internalType": "address",
          "name": "",
          "type": "address"
        },
        {
          "internalType": "uint256",
          "name": "",
          "type": "uint256"
        }
      ],
      "name": "userLoans",
      "outputs": [
        {
          "internalType": "address",
          "name": "ammPool",
          "type": "address"
        },
        {
          "internalType": "address",
          "name": "collateralPool",
          "type": "address"
        },
        {
          "internalType": "address",
          "name": "tokenBorrowed",
          "type": "address"
        },
        {
          "internalType": "uint112",
          "name": "amount",
          "type": "uint112"
        },
        {
          "internalType": "uint112",
          "name": "accruedInterest",
          "type": "uint112"
        },
        {
          "internalType": "uint8",
          "name": "interestRate",
          "type": "uint8"
        },
        {
          "internalType": "uint32",
          "name": "borrowedAt",
          "type": "uint32"
        }
      ],
      "stateMutability": "view",
      "type": "function"
    }
  ],
  "bytecode": "0x60a06040523480156200001157600080fd5b506040516200461c3803806200461c833981016040819052620000349162000046565b6001600160a01b031660805262000078565b6000602082840312156200005957600080fd5b81516001600160a01b03811681146200007157600080fd5b9392505050565b6080516145816200009b600039600081816104170152611e3d01526145816000f3fe60806040523480156200001157600080fd5b5060043610620001695760003560e01c80637adbf97311620000d3578063ab0cd03f1162000086578063ab0cd03f14620003d9578063b3fd868a1462000411578063bb2eb4d21462000439578063c640752d1462000442578063c9c653961462000459578063ccee16c1146200047057600080fd5b80637adbf97314620003505780637dc0d1d0146200036757806381bf8d3d146200038057806382dca04614620003905780638391454014620003b6578063aab3f86814620003c257600080fd5b80633966a28b116200012c5780633966a28b14620002585780635252f3a21462000280578063531aa03e14620002af5780636ab55fd914620002c65780636aba330114620002e55780636bf03408146200032057600080fd5b806301a8392a146200016e57806318815cb714620001e15780631c1b877214620002115780631d3d39eb146200022a578063369f7f851462000241575b600080fd5b620001856200017f366004620025d1565b62000496565b604080516001600160a01b039889168152968816602088015294909616938501939093526001600160701b03918216606085015216608083015260ff1660a082015263ffffffff90911660c082015260e0015b60405180910390f35b620001f8620001f236600462002617565b6200052a565b6040516001600160a01b039091168152602001620001d8565b62000228620002223660046200265e565b620007de565b005b620002286200023b3660046200269b565b62000848565b6200022862000252366004620026e9565b62000bf8565b6200026f6200026936600462002756565b6200114d565b6040519015158152602001620001d8565b620001f8620002913660046200265e565b6001600160a01b039081166000908152600360205260409020541690565b620001f8620002c036600462002756565b62001174565b620002d6670de0b6b3a764000081565b604051908152602001620001d8565b620002fc620002f636600462002756565b620011b5565b6040805194855260208501939093529183015260ff166060820152608001620001d8565b620003376200033136600462002794565b6200188e565b6040516001600160701b039091168152602001620001d8565b62000228620003613660046200265e565b620019b7565b600054620001f89061010090046001600160a01b031681565b620002d6670b1a2bc2ec50000081565b6200026f620003a13660046200265e565b60016020526000908152604090205460ff1681565b620002d66301e1338081565b62000228620003d336600462002794565b62001a05565b620003f0620003ea36600462002756565b62001cbd565b604080516001600160a01b03938416815292909116602083015201620001d8565b620001f87f000000000000000000000000000000000000000000000000000000000000000081565b620002d6600181565b620002286200045336600462002756565b62001cf3565b620001f86200046a36600462002756565b62001dcf565b620004876200048136600462002756565b62001f97565b604051620001d89190620027ec565b60046020528260005260406000206020528160005260406000208181548110620004bf57600080fd5b6000918252602090912060059091020180546001820154600283015460038401546004909401546001600160a01b03938416975091831695509190911692506001600160701b0380831692600160701b810490911691600160e01b90910460ff169063ffffffff1687565b600080846001600160a01b03166306fdde036040518163ffffffff1660e01b8152600401600060405180830381865afa1580156200056c573d6000803e3d6000fd5b505050506040513d6000823e601f3d908101601f19168201604052620005969190810190620028d4565b90506000856001600160a01b03166395d89b416040518163ffffffff1660e01b8152600401600060405180830381865afa158015620005d9573d6000803e3d6000fd5b505050506040513d6000823e601f3d908101601f19168201604052620006039190810190620028d4565b90508582826040516200061690620025ad565b6200062493929190620029bb565b604051809103906000f08015801562000641573d6000803e3d6000fd5b5092506200065b6001600160a01b03871633308862002084565b60405163095ea7b360e01b81526001600160a01b0384811660048301526024820187905287169063095ea7b3906044016020604051808303816000875af1158015620006ab573d6000803e3d6000fd5b505050506040513d601f19601f82011682018060405250810190620006d19190620029f5565b50604051636e553f6560e01b8152600481018690526001600160a01b038581166024830152841690636e553f65906044016020604051808303816000875af115801562000722573d6000803e3d6000fd5b505050506040513d601f19601f8201168201806040525081019062000748919062002a19565b506001600160a01b038681166000908152600360205260409020541615620007a6576001600160a01b0386811660009081526003602052604090819020549051635d6c86f960e11b8152911660048201526024015b60405180910390fd5b50506001600160a01b03938416600090815260036020526040902080546001600160a01b031916948216949094179093555090919050565b600054604051630e0dc3b960e11b81526001600160a01b03838116600483015261010090920490911690631c1b877290602401600060405180830381600087803b1580156200082c57600080fd5b505af115801562000841573d6000803e3d6000fd5b5050505050565b6001600160a01b03831660009081526001602052604081205433918591839060ff161562000a1357604051631d3d39eb60e01b81526001600160a01b03878116600483015282811660248301526001600160701b0387166044830152889350831690631d3d39eb90606401600060405180830381600087803b158015620008ce57600080fd5b505af1158015620008e3573d6000803e3d6000fd5b5050506001600160a01b038083166000908152600460208181526040808420888616808652908352818520825160e0810184528281528085019283528e88169381019384526001600160701b03808f166060830190815260808301898152600a60a0850190815263ffffffff42811660c08701908152875460018181018a55988e529a909c2095516005909a029095018054998d166001600160a01b03199a8b1617815596519587018054968d16968a1696909617909555955160028601805491909b1697169690961790985593516003830180549451925160ff16600160e01b0260ff60e01b19938a16600160701b026001600160e01b0319909616929099169190911793909317169590951790559151920180549290911663ffffffff199092169190911790555062000bdf565b62000a1f878762001174565b6001600160a01b038089166000908152600360205260408120549294509116604051631d3d39eb60e01b81526001600160a01b03898116600483015284811660248301526001600160701b038916604483015291925090841690631d3d39eb90606401600060405180830381600087803b15801562000a9d57600080fd5b505af115801562000ab2573d6000803e3d6000fd5b5050506001600160a01b0380841660009081526004602081815260408084208e861685528252808420815160e0810183528a871681529786168884019081528e87169289019283526001600160701b03808f1660608b0190815260808b01888152600a60a08d0190815263ffffffff42811660c08f01908152875460018181018a55988d5299909b209d516005909902909d018054988c166001600160a01b0319998a1617815594519585018054968c1696891696909617909555945160028401805491909a1696169590951790975592516003840180549351925160ff16600160e01b0260ff60e01b19938916600160701b026001600160e01b031990951692909816919091179290921716949094179093559051910180549190931663ffffffff1990911617909155505b62000bea82620007de565b5050620008418282620020e6565b6001600160a01b0384166000908152600160205260408120548691869160ff161562000c2657508562000c35565b62000c32878762001174565b90505b6001600160a01b038089166000908152600460209081526040808320938b16835292905290812080548790811062000c715762000c7162002a33565b60009182526020822060059190910201600381015460048201549193506301e13380916001600160701b03821691600160e01b900460ff169062000cbc9063ffffffff164262002a5f565b62000cc8919062002a86565b63ffffffff1662000cda919062002ab1565b6001600160701b031662000cef919062002ad7565b600383015462000d109190600160701b90046001600160701b031662002afa565b6003830154909150600090819062000d33906001600160701b0316848a6200226f565b604051633e4748e960e11b81526001600160a01b038d811660048301528f811660248301526001600160701b0380851660448401528316606483015292945090925090861690637c8e91d290608401600060405180830381600087803b15801562000d9d57600080fd5b505af115801562000db2573d6000803e3d6000fd5b50505060038501546001600160701b03808b16925062000dd59186911662002b10565b6001600160701b0316116200107957600062000df28c8c62001f97565b519050600181111562000fbc57600460008e6001600160a01b03166001600160a01b0316815260200190815260200160002060008d6001600160a01b03166001600160a01b0316815260200190815260200160002060018262000e56919062002b33565b8154811062000e695762000e6962002a33565b9060005260206000209060050201600460008f6001600160a01b03166001600160a01b0316815260200190815260200160002060008e6001600160a01b03166001600160a01b031681526020019081526020016000208b8154811062000ed35762000ed362002a33565b60009182526020909120825460059092020180546001600160a01b039283166001600160a01b031991821617825560018085015490830180549185169183169190911790556002808501549083018054919094169116179091556003808301805491830180546001600160701b039384166dffffffffffffffffffffffffffff1982168117835583546001600160e01b031990921617600160701b918290049094160292909217808355905460ff60e01b19909116600160e01b9182900460ff169091021790556004918201549101805463ffffffff90921663ffffffff199092169190911790555b600460008e6001600160a01b03166001600160a01b0316815260200190815260200160002060008d6001600160a01b03166001600160a01b0316815260200190815260200160002080548062001016576200101662002b49565b60008281526020902060056000199092019182020180546001600160a01b031990811682556001820180548216905560028201805490911690556003810180546001600160e81b0319169055600401805463ffffffff1916905590555062001133565b60048401805463ffffffff19164263ffffffff161790556200109c818462002b5f565b600385018054600e90620010c2908490600160701b90046001600160701b031662002b10565b92506101000a8154816001600160701b0302191690836001600160701b03160217905550818460030160008282829054906101000a90046001600160701b03166200110e919062002b5f565b92506101000a8154816001600160701b0302191690836001600160701b031602179055505b5050505050620011448282620020e6565b50505050505050565b6000806200115c8484620011b5565b505050670b1a2bc2ec50000011159150505b92915050565b600080600062001185858562001cbd565b6001600160a01b039182166000908152600260209081526040808320938516835292905220541695945050505050565b6001600160a01b0380831660009081526004602090815260408083209385168352928152828220805484518184028101840190955280855292938493849384938493929091849084015b828210156200129c5760008481526020908190206040805160e0810182526005860290920180546001600160a01b03908116845260018083015482168587015260028301549091169284019290925260038101546001600160701b038082166060860152600160701b8204166080850152600160e01b900460ff1660a08401526004015463ffffffff1660c08301529083529092019101620011ff565b505082516001600160a01b038a16600090815260016020526040902054909550929350505060ff1615620015d05760005b8260ff168110156200152d576000828281518110620012f057620012f062002a33565b6020026020010151606001516001600160701b0316905060008383815181106200131e576200131e62002a33565b60200260200101516040015190506000896001600160a01b031663aa6ca8086040518163ffffffff1660e01b81526004016040805180830381865afa1580156200136c573d6000803e3d6000fd5b505050506040513d601f19601f8201168201806040525081019062001392919062002b82565b5090506000620013be868681518110620013b057620013b062002a33565b6020026020010151620022da565b9050826001600160a01b0316826001600160a01b031603620013fc57620013e6818962002afa565b9750620013f4848a62002afa565b985062001515565b600054604051632321bc7960e21b81526101009091046001600160a01b031690638c86f1e490620014369085908590889060040162002bb6565b602060405180830381865afa15801562001454573d6000803e3d6000fd5b505050506040513d601f19601f820116820180604052508101906200147a919062002a19565b62001486908962002afa565b600054604051632321bc7960e21b815291995061010090046001600160a01b031690638c86f1e490620014c29085908890889060040162002bb6565b602060405180830381865afa158015620014e0573d6000803e3d6000fd5b505050506040513d601f19601f8201168201806040525081019062001506919062002a19565b62001512908a62002afa565b98505b5050505080620015259062002bd9565b9050620012cd565b506040516370a0823160e01b81526001600160a01b0388811660048301528716906370a0823190602401602060405180830381865afa15801562001575573d6000803e3d6000fd5b505050506040513d601f19601f820116820180604052508101906200159b919062002a19565b670de0b6b3a7640000620015b0858762002afa565b620015bc919062002bf5565b620015c8919062002ad7565b945062001884565b60005b8260ff16811015620017c9576000620015fa838381518110620013b057620013b062002a33565b9050600060019054906101000a90046001600160a01b03166001600160a01b0316638c86f1e4898386868151811062001637576200163762002a33565b6020026020010151604001516040518463ffffffff1660e01b8152600401620016639392919062002bb6565b602060405180830381865afa15801562001681573d6000803e3d6000fd5b505050506040513d601f19601f82011682018060405250810190620016a7919062002a19565b620016b3908662002afa565b9450600060019054906101000a90046001600160a01b03166001600160a01b0316638c86f1e489858581518110620016ef57620016ef62002a33565b60200260200101516060015186868151811062001710576200171062002a33565b6020026020010151604001516040518463ffffffff1660e01b815260040162001762939291906001600160a01b0393841681526001600160701b03929092166020830152909116604082015260600190565b602060405180830381865afa15801562001780573d6000803e3d6000fd5b505050506040513d601f19601f82011682018060405250810190620017a6919062002a19565b620017b2908762002afa565b95505080620017c19062002bd9565b9050620015d3565b506001600160a01b03808716600090815260036020526040902054166040516370a0823160e01b81526001600160a01b03898116600483015291909116906370a0823190602401602060405180830381865afa1580156200182e573d6000803e3d6000fd5b505050506040513d601f19601f8201168201806040525081019062001854919062002a19565b670de0b6b3a764000062001869858762002afa565b62001875919062002bf5565b62001881919062002ad7565b94505b5092959194509250565b6001600160a01b038085166000908152600460209081526040808320938716835292905290812080548691869184919086908110620018d157620018d162002a33565b60009182526020822060059190910201600381015460048201549193506301e13380916001600160701b03821691600160e01b900460ff16906200191c9063ffffffff164262002a5f565b62001928919062002a86565b63ffffffff166200193a919062002ab1565b6001600160701b03166200194f919062002ad7565b6003830154620019709190600160701b90046001600160701b031662002afa565b60038301549091506200198e9082906001600160701b031662002b10565b94506200199f898989898962000bf8565b5050620019ad8282620020e6565b5050949350505050565b60005460ff1615620019db5760405162dc149f60e41b815260040160405180910390fd5b600080546001600160a01b03909216610100026001600160a81b0319909216919091176001179055565b62001a1184846200114d565b62001a495760405162461bcd60e51b81526020600482015260076024820152664865616c74687960c81b60448201526064016200079d565b33600062001a5a868686866200188e565b6001600160701b031690506000670de0b6b3a764000062001a7d60018462002bf5565b62001a89919062002ad7565b62001a95908362002afa565b6001600160a01b03871660009081526001602052604090205490915060ff161562001bc6576000866001600160a01b031663aa6ca8086040518163ffffffff1660e01b81526004016040805180830381865afa15801562001afa573d6000803e3d6000fd5b505050506040513d601f19601f8201168201806040525081019062001b20919062002b82565b509050856001600160a01b0316816001600160a01b0316031562001bbf57600054604051632321bc7960e21b81526101009091046001600160a01b031690638c86f1e49062001b7890849086908b9060040162002bb6565b602060405180830381865afa15801562001b96573d6000803e3d6000fd5b505050506040513d601f19601f8201168201806040525081019062001bbc919062002a19565b91505b5062001144565b600054604051632321bc7960e21b81526101009091046001600160a01b031690638c86f1e49062001c0090899085908a9060040162002bb6565b602060405180830381865afa15801562001c1e573d6000803e3d6000fd5b505050506040513d601f19601f8201168201806040525081019062001c44919062002a19565b604051631916526b60e11b81526001600160a01b0389811660048301528581166024830152604482018390529192509087169063322ca4d690606401600060405180830381600087803b15801562001c9b57600080fd5b505af115801562001cb0573d6000803e3d6000fd5b5050505050505050505050565b600080826001600160a01b0316846001600160a01b0316111562001ce657508290508162001cec565b50819050825b9250929050565b60405163298d501f60e11b81526001600160a01b03808416600483015282166024820152600090309063531aa03e90604401602060405180830381865afa15801562001d43573d6000803e3d6000fd5b505050506040513d601f19601f8201168201806040525081019062001d69919062002c0f565b600054604051630e0dc3b960e11b81526001600160a01b03808416600483015292935061010090910490911690631c1b877290602401600060405180830381600087803b15801562001dba57600080fd5b505af115801562001144573d6000803e3d6000fd5b60008060008062001de1868662001cbd565b6040516bffffffffffffffffffffffff19606084811b8216602084015283901b166034820152426048820152919350915060680160408051601f198184030181529190528051602090910120925062001e646001600160a01b037f000000000000000000000000000000000000000000000000000000000000000016846200234d565b60405163485cc95560e01b81526001600160a01b03848116600483015283811660248301529195509085169063485cc95590604401600060405180830381600087803b15801562001eb457600080fd5b505af115801562001ec9573d6000803e3d6000fd5b505050506001600160a01b0382811660009081526002602090815260408083208585168452909152902054161562001f40576001600160a01b0382811660009081526002602090815260408083208585168452909152908190205490516363cc934360e11b8152911660048201526024016200079d565b6001600160a01b039182166000908152600260209081526040808320938516835292815282822080546001600160a01b031916948716948517905592815260019283905220805460ff191690911790555092915050565b6001600160a01b0380831660009081526004602090815260408083209385168352928152828220805484518184028101840190955280855260609493919290919084015b82821015620020785760008481526020908190206040805160e0810182526005860290920180546001600160a01b03908116845260018083015482168587015260028301549091169284019290925260038101546001600160701b038082166060860152600160701b8204166080850152600160e01b900460ff1660a08401526004015463ffffffff1660c0830152908352909201910162001fdb565b50505050905092915050565b604080516001600160a01b0385811660248301528416604482015260648082018490528251808303909101815260849091019091526020810180516001600160e01b03166323b872dd60e01b179052620020e0908590620023bc565b50505050565b6001600160a01b038083166000908152600460209081526040808320938516835292815282822080548451818402810184019095528085529293929091849084015b82821015620021c55760008481526020908190206040805160e0810182526005860290920180546001600160a01b03908116845260018083015482168587015260028301549091169284019290925260038101546001600160701b038082166060860152600160701b8204166080850152600160e01b900460ff1660a08401526004015463ffffffff1660c0830152908352909201910162002128565b50505050905061010081511115620022205760405162461bcd60e51b815260206004820152601e60248201527f546f6f206d616e79206c6f616e73206f6e206120636f6c6c61746572616c000060448201526064016200079d565b6200222c83836200114d565b156200226a5760405162461bcd60e51b815260206004820152600c60248201526b13151588195e18d95959195960a21b60448201526064016200079d565b505050565b600080806200227f858762002b10565b9050620022c1816001600160701b0316856001600160701b0316886001600160701b0316620022af919062002bf5565b620022bb919062002ad7565b62002426565b9250620022cf838562002b5f565b915050935093915050565b60006301e1338082606001516001600160701b03168360a0015160ff168460c0015163ffffffff16426200230f919062002b33565b6200231b919062002bf5565b62002327919062002bf5565b62002333919062002ad7565b82608001516001600160701b03166200116e919062002afa565b6000763d602d80600a3d3981f3363d3d373d3d3d363d730000008360601b60e81c176000526e5af43d82803e903d91602b57fd5bf38360781b1760205281603760096000f590506001600160a01b0381166200116e576040516330be1a3d60e21b815260040160405180910390fd5b6000620023d36001600160a01b0384168362002460565b90508051600014158015620023fb575080806020019051810190620023f99190620029f5565b155b156200226a57604051635274afe760e01b81526001600160a01b03841660048201526024016200079d565b60006001600160701b038211156200245c576040516306dfcc6560e41b815260706004820152602481018390526044016200079d565b5090565b6060620024708383600062002477565b9392505050565b6060814710156200249e5760405163cd78605960e01b81523060048201526024016200079d565b600080856001600160a01b03168486604051620024bc919062002c2f565b60006040518083038185875af1925050503d8060008114620024fb576040519150601f19603f3d011682016040523d82523d6000602084013e62002500565b606091505b5091509150620025128683836200251c565b9695505050505050565b60608262002535576200252f8262002580565b62002470565b81511580156200254d57506001600160a01b0384163b155b156200257857604051639996b31560e01b81526001600160a01b03851660048201526024016200079d565b508062002470565b805115620025915780518082602001fd5b604051630a12f52160e11b815260040160405180910390fd5b50565b6118fe8062002c4e83390190565b6001600160a01b0381168114620025aa57600080fd5b600080600060608486031215620025e757600080fd5b8335620025f481620025bb565b925060208401356200260681620025bb565b929592945050506040919091013590565b6000806000606084860312156200262d57600080fd5b83356200263a81620025bb565b92506020840135915060408401356200265381620025bb565b809150509250925092565b6000602082840312156200267157600080fd5b81356200247081620025bb565b80356001600160701b03811681146200269657600080fd5b919050565b600080600060608486031215620026b157600080fd5b8335620026be81620025bb565b92506020840135620026d081620025bb565b9150620026e0604085016200267e565b90509250925092565b600080600080600060a086880312156200270257600080fd5b85356200270f81620025bb565b945060208601356200272181620025bb565b935060408601356200273381620025bb565b9250606086013591506200274a608087016200267e565b90509295509295909350565b600080604083850312156200276a57600080fd5b82356200277781620025bb565b915060208301356200278981620025bb565b809150509250929050565b60008060008060808587031215620027ab57600080fd5b8435620027b881620025bb565b93506020850135620027ca81620025bb565b92506040850135620027dc81620025bb565b9396929550929360600135925050565b602080825282518282018190526000919060409081850190868401855b828110156200288b57815180516001600160a01b039081168652878201518116888701528682015116868601526060808201516001600160701b03908116918701919091526080808301519091169086015260a08082015160ff169086015260c09081015163ffffffff169085015260e0909301929085019060010162002809565b5091979650505050505050565b634e487b7160e01b600052604160045260246000fd5b60005b83811015620028cb578181015183820152602001620028b1565b50506000910152565b600060208284031215620028e757600080fd5b815167ffffffffffffffff808211156200290057600080fd5b818401915084601f8301126200291557600080fd5b8151818111156200292a576200292a62002898565b604051601f8201601f19908116603f0116810190838211818310171562002955576200295562002898565b816040528281528760208487010111156200296f57600080fd5b62002982836020830160208801620028ae565b979650505050505050565b60008151808452620029a7816020860160208601620028ae565b601f01601f19169290920160200192915050565b6001600160a01b0384168152606060208201819052600090620029e1908301856200298d565b82810360408401526200251281856200298d565b60006020828403121562002a0857600080fd5b815180151581146200247057600080fd5b60006020828403121562002a2c57600080fd5b5051919050565b634e487b7160e01b600052603260045260246000fd5b634e487b7160e01b600052601160045260246000fd5b63ffffffff82811682821603908082111562002a7f5762002a7f62002a49565b5092915050565b63ffffffff81811683821602808216919082811462002aa95762002aa962002a49565b505092915050565b6001600160701b0381811683821602808216919082811462002aa95762002aa962002a49565b60008262002af557634e487b7160e01b600052601260045260246000fd5b500490565b808201808211156200116e576200116e62002a49565b6001600160701b0381811683821601908082111562002a7f5762002a7f62002a49565b818103818111156200116e576200116e62002a49565b634e487b7160e01b600052603160045260246000fd5b6001600160701b0382811682821603908082111562002a7f5762002a7f62002a49565b6000806040838503121562002b9657600080fd5b825162002ba381620025bb565b60208401519092506200278981620025bb565b6001600160a01b0393841681526020810192909252909116604082015260600190565b60006001820162002bee5762002bee62002a49565b5060010190565b80820281158282048414176200116e576200116e62002a49565b60006020828403121562002c2257600080fd5b81516200247081620025bb565b6000825162002c43818460208701620028ae565b919091019291505056fe60e06040523480156200001157600080fd5b50604051620018fe380380620018fe833981016040819052620000349162000295565b82826040516020016200004891906200031f565b604051602081830303815290604052826040516020016200006a91906200031f565b60408051601f198184030181529190526003620000888382620003da565b506004620000978282620003da565b505050600080620000ae83620000e360201b60201c565b9150915081620000c0576012620000c2565b805b60ff1660a05250506001600160a01b031660805250503360c05250620004de565b60408051600481526024810182526020810180516001600160e01b031663313ce56760e01b17905290516000918291829182916001600160a01b038716916200012c91620004a6565b600060405180830381855afa9150503d806000811462000169576040519150601f19603f3d011682016040523d82523d6000602084013e6200016e565b606091505b50915091508180156200018357506020815110155b15620001bb57600081806020019051810190620001a19190620004c4565b905060ff8111620001b9576001969095509350505050565b505b5060009485945092505050565b634e487b7160e01b600052604160045260246000fd5b60005b83811015620001fb578181015183820152602001620001e1565b50506000910152565b600082601f8301126200021657600080fd5b81516001600160401b0380821115620002335762000233620001c8565b604051601f8301601f19908116603f011681019082821181831017156200025e576200025e620001c8565b816040528381528660208588010111156200027857600080fd5b6200028b846020830160208901620001de565b9695505050505050565b600080600060608486031215620002ab57600080fd5b83516001600160a01b0381168114620002c357600080fd5b60208501519093506001600160401b0380821115620002e157600080fd5b620002ef8783880162000204565b935060408601519150808211156200030657600080fd5b50620003158682870162000204565b9150509250925092565b614c2d60f01b8152600082516200033e816002850160208701620001de565b9190910160020192915050565b600181811c908216806200036057607f821691505b6020821081036200038157634e487b7160e01b600052602260045260246000fd5b50919050565b601f821115620003d557600081815260208120601f850160051c81016020861015620003b05750805b601f850160051c820191505b81811015620003d157828155600101620003bc565b5050505b505050565b81516001600160401b03811115620003f657620003f6620001c8565b6200040e816200040784546200034b565b8462000387565b602080601f8311600181146200044657600084156200042d5750858301515b600019600386901b1c1916600185901b178555620003d1565b600085815260208120601f198616915b82811015620004775788860151825594840194600190910190840162000456565b5085821015620004965787850151600019600388901b60f8161c191681555b5050505050600190811b01905550565b60008251620004ba818460208701620001de565b9190910192915050565b600060208284031215620004d757600080fd5b5051919050565b60805160a05160c0516113cd620005316000396000818161024701526105b7015260006105880152600081816102b201528181610418015281816106020152818161094e0152610a0e01526113cd6000f3fe608060405234801561001057600080fd5b50600436106101a95760003560e01c80636e553f65116100f9578063ba08765211610097578063ce96cb7711610071578063ce96cb77146103a1578063d905777e146103b4578063dd62ed3e146103c7578063ef8b30f71461038e57600080fd5b8063ba0876521461037b578063c63d75b6146102d6578063c6e6f5921461038e57600080fd5b806395d89b41116100d357806395d89b411461033a578063a9059cbb14610342578063b3d7f6b914610355578063b460af941461036857600080fd5b80636e553f65146102eb57806370a08231146102fe57806394bf804d1461032757600080fd5b806323b872dd11610166578063322ca4d611610140578063322ca4d61461029b57806338d52e0f146102b0578063402d267d146102d65780634cdad506146101de57600080fd5b806323b872dd1461022f5780632dd3100014610242578063313ce5671461028157600080fd5b806301e1d114146101ae57806306fdde03146101c957806307a2d13a146101de578063095ea7b3146101f15780630a28a4771461021457806318160ddd14610227575b600080fd5b6101b6610400565b6040519081526020015b60405180910390f35b6101d1610490565b6040516101c09190610fd9565b6101b66101ec36600461100c565b610522565b6102046101ff366004611041565b610535565b60405190151581526020016101c0565b6101b661022236600461100c565b61054d565b6002546101b6565b61020461023d36600461106b565b61055a565b6102697f000000000000000000000000000000000000000000000000000000000000000081565b6040516001600160a01b0390911681526020016101c0565b610289610580565b60405160ff90911681526020016101c0565b6102ae6102a936600461106b565b6105ac565b005b7f0000000000000000000000000000000000000000000000000000000000000000610269565b6101b66102e43660046110a7565b5060001990565b6101b66102f93660046110c2565b61062f565b6101b661030c3660046110a7565b6001600160a01b031660009081526020819052604090205490565b6101b66103353660046110c2565b610663565b6101d1610681565b610204610350366004611041565b610690565b6101b661036336600461100c565b61069e565b6101b66103763660046110ee565b6106ab565b6101b66103893660046110ee565b610703565b6101b661039c36600461100c565b610752565b6101b66103af3660046110a7565b61075f565b6101b66103c23660046110a7565b610783565b6101b66103d536600461112a565b6001600160a01b03918216600090815260016020908152604080832093909416825291909152205490565b6040516370a0823160e01b81523060048201526000907f00000000000000000000000000000000000000000000000000000000000000006001600160a01b0316906370a0823190602401602060405180830381865afa158015610467573d6000803e3d6000fd5b505050506040513d601f19601f8201168201806040525081019061048b9190611154565b905090565b60606003805461049f9061116d565b80601f01602080910402602001604051908101604052809291908181526020018280546104cb9061116d565b80156105185780601f106104ed57610100808354040283529160200191610518565b820191906000526020600020905b8154815290600101906020018083116104fb57829003601f168201915b5050505050905090565b600061052f8260006107a1565b92915050565b6000336105438185856107db565b5060019392505050565b600061052f8260016107e8565b600033610568858285610818565b610573858585610883565b60019150505b9392505050565b600061048b817f00000000000000000000000000000000000000000000000000000000000000006111bd565b336001600160a01b037f000000000000000000000000000000000000000000000000000000000000000016146105f557604051630636a15760e11b815260040160405180910390fd5b61062a6001600160a01b037f0000000000000000000000000000000000000000000000000000000000000000168484846108e2565b505050565b6000600019610642565b60405180910390fd5b600061064d85610752565b905061065b33858784610949565b949350505050565b600060001960006106738561069e565b905061065b33858388610949565b60606004805461049f9061116d565b600033610543818585610883565b600061052f8260016107a1565b6000806106b78361075f565b9050808511156106e057828582604051633fa733bb60e21b8152600401610639939291906111d6565b60006106eb8661054d565b90506106fa33868689856109db565b95945050505050565b60008061070f83610783565b90508085111561073857828582604051632e52afbb60e21b8152600401610639939291906111d6565b600061074386610522565b90506106fa338686848a6109db565b600061052f8260006107e8565b6001600160a01b03811660009081526020819052604081205461052f9060006107a1565b6001600160a01b03811660009081526020819052604081205461052f565b60006105796107ae610400565b6107b99060016111f7565b6107c56000600a6112ee565b6002546107d291906111f7565b85919085610a9b565b61062a8383836001610aea565b60006105796107f882600a6112ee565b60025461080591906111f7565b61080d610400565b6107d29060016111f7565b6001600160a01b03838116600090815260016020908152604080832093861683529290522054600019811461087d578181101561086e57828183604051637dc7a0d960e11b8152600401610639939291906111d6565b61087d84848484036000610aea565b50505050565b6001600160a01b0383166108ad57604051634b637e8f60e11b815260006004820152602401610639565b6001600160a01b0382166108d75760405163ec442f0560e01b815260006004820152602401610639565b61062a838383610bb1565b6040516001600160a01b03848116602483015283811660448301526064820183905261087d9186918216906323b872dd906084015b604051602081830303815290604052915060e01b6020820180516001600160e01b038381831617835250505050610cc8565b6109757f00000000000000000000000000000000000000000000000000000000000000008530856108e2565b61097f8382610d2b565b826001600160a01b0316846001600160a01b03167fdcbc1c05240f31ff3ad067ef1ee35ce4997762752e3a095284754544f4c709d784846040516109cd929190918252602082015260400190565b60405180910390a350505050565b826001600160a01b0316856001600160a01b0316146109ff576109ff838683610818565b610a098382610d65565b610a347f00000000000000000000000000000000000000000000000000000000000000008584610d9b565b826001600160a01b0316846001600160a01b0316866001600160a01b03167ffbde797d201c681b91056529119e0b02407c7bb96a4a2c75c01fc9667232c8db8585604051610a8c929190918252602082015260400190565b60405180910390a45050505050565b600080610aa9868686610dcc565b9050610ab483610e90565b8015610ad0575060008480610acb57610acb6112fd565b868809115b156106fa57610ae06001826111f7565b9695505050505050565b6001600160a01b038416610b145760405163e602df0560e01b815260006004820152602401610639565b6001600160a01b038316610b3e57604051634a1406b160e11b815260006004820152602401610639565b6001600160a01b038085166000908152600160209081526040808320938716835292905220829055801561087d57826001600160a01b0316846001600160a01b03167f8c5be1e5ebec7d5bd14f71427d1e84f3dd0314c0f7b2291e5b200ac8c7c3b925846040516109cd91815260200190565b6001600160a01b038316610bdc578060026000828254610bd191906111f7565b90915550610c3b9050565b6001600160a01b03831660009081526020819052604090205481811015610c1c5783818360405163391434e360e21b8152600401610639939291906111d6565b6001600160a01b03841660009081526020819052604090209082900390555b6001600160a01b038216610c5757600280548290039055610c76565b6001600160a01b03821660009081526020819052604090208054820190555b816001600160a01b0316836001600160a01b03167fddf252ad1be2c89b69c2b068fc378daa952ba7f163c4a11628f55a4df523b3ef83604051610cbb91815260200190565b60405180910390a3505050565b6000610cdd6001600160a01b03841683610ebd565b90508051600014158015610d02575080806020019051810190610d009190611313565b155b1561062a57604051635274afe760e01b81526001600160a01b0384166004820152602401610639565b6001600160a01b038216610d555760405163ec442f0560e01b815260006004820152602401610639565b610d6160008383610bb1565b5050565b6001600160a01b038216610d8f57604051634b637e8f60e11b815260006004820152602401610639565b610d6182600083610bb1565b6040516001600160a01b0383811660248301526044820183905261062a91859182169063a9059cbb90606401610917565b6000838302816000198587098281108382030391505080600003610e0357838281610df957610df96112fd565b0492505050610579565b808411610e235760405163227bc15360e01b815260040160405180910390fd5b6000848688096000868103871696879004966002600389028118808a02820302808a02820302808a02820302808a02820302808a02820302808a02909103029181900381900460010186841190950394909402919094039290920491909117919091029150509392505050565b60006002826003811115610ea657610ea6611335565b610eb0919061134b565b60ff166001149050919050565b60606105798383600084600080856001600160a01b03168486604051610ee3919061137b565b60006040518083038185875af1925050503d8060008114610f20576040519150601f19603f3d011682016040523d82523d6000602084013e610f25565b606091505b5091509150610ae0868383606082610f4557610f4082610f8c565b610579565b8151158015610f5c57506001600160a01b0384163b155b15610f8557604051639996b31560e01b81526001600160a01b0385166004820152602401610639565b5080610579565b805115610f9c5780518082602001fd5b604051630a12f52160e11b815260040160405180910390fd5b60005b83811015610fd0578181015183820152602001610fb8565b50506000910152565b6020815260008251806020840152610ff8816040850160208701610fb5565b601f01601f19169190910160400192915050565b60006020828403121561101e57600080fd5b5035919050565b80356001600160a01b038116811461103c57600080fd5b919050565b6000806040838503121561105457600080fd5b61105d83611025565b946020939093013593505050565b60008060006060848603121561108057600080fd5b61108984611025565b925061109760208501611025565b9150604084013590509250925092565b6000602082840312156110b957600080fd5b61057982611025565b600080604083850312156110d557600080fd5b823591506110e560208401611025565b90509250929050565b60008060006060848603121561110357600080fd5b8335925061111360208501611025565b915061112160408501611025565b90509250925092565b6000806040838503121561113d57600080fd5b61114683611025565b91506110e560208401611025565b60006020828403121561116657600080fd5b5051919050565b600181811c9082168061118157607f821691505b6020821081036111a157634e487b7160e01b600052602260045260246000fd5b50919050565b634e487b7160e01b600052601160045260246000fd5b60ff818116838216019081111561052f5761052f6111a7565b6001600160a01b039390931683526020830191909152604082015260600190565b8082018082111561052f5761052f6111a7565b600181815b8085111561124557816000190482111561122b5761122b6111a7565b8085161561123857918102915b93841c939080029061120f565b509250929050565b60008261125c5750600161052f565b816112695750600061052f565b816001811461127f5760028114611289576112a5565b600191505061052f565b60ff84111561129a5761129a6111a7565b50506001821b61052f565b5060208310610133831016604e8410600b84101617156112c8575081810a61052f565b6112d2838361120a565b80600019048211156112e6576112e66111a7565b029392505050565b600061057960ff84168361124d565b634e487b7160e01b600052601260045260246000fd5b60006020828403121561132557600080fd5b8151801515811461057957600080fd5b634e487b7160e01b600052602160045260246000fd5b600060ff83168061136c57634e487b7160e01b600052601260045260246000fd5b8060ff84160691505092915050565b6000825161138d818460208701610fb5565b919091019291505056fea264697066735822122096e68b8108def2b6ba77561dc5ff06bf1e815f8f08c91acebeb74b27097cb95964736f6c63430008140033a2646970667358221220318b045bb93fa846a527e0052b73483297542c0e9988ff8ea76e0c00c0116dd764736f6c63430008140033",
  "linkReferences": {},
  "deployedLinkReferences": {}
}