{
  "_format": "hh-sol-artifact-1",
  "contractName": "LRouter",
  "sourceName": "contracts/periphery/LRouter.sol",
  "abi": [
    {
      "inputs": [
        {
          "internalType": "address",
          "name": "factory",
          "type": "address"
        },
        {
          "internalType": "address",
          "name": "weth",
          "type": "address"
        }
      ],
      "stateMutability": "nonpayable",
      "type": "constructor"
    },
    {
      "inputs": [
        {
          "internalType": "address",
          "name": "target",
          "type": "address"
        }
      ],
      "name": "AddressEmptyCode",
      "type": "error"
    },
    {
      "inputs": [
        {
          "internalType": "address",
          "name": "account",
          "type": "address"
        }
      ],
      "name": "AddressInsufficientBalance",
      "type": "error"
    },
    {
      "inputs": [],
      "name": "Expired",
      "type": "error"
    },
    {
      "inputs": [],
      "name": "FailedInnerCall",
      "type": "error"
    },
    {
      "inputs": [],
      "name": "ReentrancyGuardReentrantCall",
      "type": "error"
    },
    {
      "inputs": [
        {
          "internalType": "address",
          "name": "token",
          "type": "address"
        }
      ],
      "name": "SafeERC20FailedOperation",
      "type": "error"
    },
    {
      "inputs": [],
      "name": "FACTORY",
      "outputs": [
        {
          "internalType": "address",
          "name": "",
          "type": "address"
        }
      ],
      "stateMutability": "view",
      "type": "function"
    },
    {
      "inputs": [
        {
          "components": [
            {
              "internalType": "address",
              "name": "tokenA",
              "type": "address"
            },
            {
              "internalType": "address",
              "name": "tokenB",
              "type": "address"
            },
            {
              "internalType": "uint256",
              "name": "amountADesired",
              "type": "uint256"
            },
            {
              "internalType": "uint256",
              "name": "amountBDesired",
              "type": "uint256"
            },
            {
              "internalType": "uint256",
              "name": "amountAMin",
              "type": "uint256"
            },
            {
              "internalType": "uint256",
              "name": "amountBMin",
              "type": "uint256"
            },
            {
              "internalType": "address",
              "name": "to",
              "type": "address"
            },
            {
              "internalType": "uint256",
              "name": "deadline",
              "type": "uint256"
            }
          ],
          "internalType": "struct LRouter.AddLiquidity",
          "name": "params",
          "type": "tuple"
        }
      ],
      "name": "addLiquidity",
      "outputs": [
        {
          "internalType": "uint256",
          "name": "amountA",
          "type": "uint256"
        },
        {
          "internalType": "uint256",
          "name": "amountB",
          "type": "uint256"
        },
        {
          "internalType": "uint256",
          "name": "liquidity",
          "type": "uint256"
        },
        {
          "internalType": "address",
          "name": "pair",
          "type": "address"
        }
      ],
      "stateMutability": "nonpayable",
      "type": "function"
    },
    {
      "inputs": [
        {
          "internalType": "address",
          "name": "tokenA",
          "type": "address"
        },
        {
          "internalType": "address",
          "name": "tokenB",
          "type": "address"
        },
        {
          "internalType": "uint256",
          "name": "liquidity",
          "type": "uint256"
        },
        {
          "internalType": "uint256",
          "name": "amountAMin",
          "type": "uint256"
        },
        {
          "internalType": "uint256",
          "name": "amountBMin",
          "type": "uint256"
        },
        {
          "internalType": "address",
          "name": "to",
          "type": "address"
        },
        {
          "internalType": "uint256",
          "name": "deadline",
          "type": "uint256"
        }
      ],
      "name": "removeLiquidity",
      "outputs": [
        {
          "internalType": "uint256",
          "name": "amountA",
          "type": "uint256"
        },
        {
          "internalType": "uint256",
          "name": "amountB",
          "type": "uint256"
        }
      ],
      "stateMutability": "nonpayable",
      "type": "function"
    },
    {
      "inputs": [
        {
          "internalType": "uint256",
          "name": "amountIn",
          "type": "uint256"
        },
        {
          "internalType": "uint256",
          "name": "amountOutMin",
          "type": "uint256"
        },
        {
          "internalType": "address[]",
          "name": "path",
          "type": "address[]"
        },
        {
          "internalType": "address",
          "name": "to",
          "type": "address"
        },
        {
          "internalType": "uint256",
          "name": "deadline",
          "type": "uint256"
        }
      ],
      "name": "swapExactTokensForTokens",
      "outputs": [
        {
          "internalType": "uint256[]",
          "name": "amounts",
          "type": "uint256[]"
        }
      ],
      "stateMutability": "nonpayable",
      "type": "function"
    },
    {
      "stateMutability": "payable",
      "type": "receive"
    }
  ],
  "bytecode": "0x60a06040523480156200001157600080fd5b506040516200256c3803806200256c8339818101604052810190620000379190620000e5565b60016000819055508173ffffffffffffffffffffffffffffffffffffffff1660808173ffffffffffffffffffffffffffffffffffffffff168152505050506200012c565b600080fd5b600073ffffffffffffffffffffffffffffffffffffffff82169050919050565b6000620000ad8262000080565b9050919050565b620000bf81620000a0565b8114620000cb57600080fd5b50565b600081519050620000df81620000b4565b92915050565b60008060408385031215620000ff57620000fe6200007b565b5b60006200010f85828601620000ce565b92505060206200012285828601620000ce565b9150509250929050565b6080516123f362000179600039600081816102a70152818161030b015281816103e4015281816105d2015281816108660152818161095c01528181610eb70152610ff101526123f36000f3fe6080604052600436106100435760003560e01c8063237902161461004f5780632dd310001461008f57806338ed1739146100ba578063baa2abde146100f75761004a565b3661004a57005b600080fd5b34801561005b57600080fd5b5061007660048036038101906100719190611773565b610135565b60405161008694939291906117fb565b60405180910390f35b34801561009b57600080fd5b506100a46102a5565b6040516100b19190611840565b60405180910390f35b3480156100c657600080fd5b506100e160048036038101906100dc9190611918565b6102c9565b6040516100ee9190611a70565b60405180910390f35b34801561010357600080fd5b5061011e60048036038101906101199190611a92565b610590565b60405161012c929190611b34565b60405180910390f35b6000806000808460e001358042111561017a576040517f203d82d800000000000000000000000000000000000000000000000000000000815260040160405180910390fd5b6101838661085c565b8094508196508297505050506101ce3383878960000160208101906101a89190611b5d565b73ffffffffffffffffffffffffffffffffffffffff16610b84909392919063ffffffff16565b61020d3383868960200160208101906101e79190611b5d565b73ffffffffffffffffffffffffffffffffffffffff16610b84909392919063ffffffff16565b8173ffffffffffffffffffffffffffffffffffffffff16636a6278428760c001602081019061023c9190611b5d565b6040518263ffffffff1660e01b81526004016102589190611840565b6020604051808303816000875af1158015610277573d6000803e3d6000fd5b505050506040513d601f19601f8201168201806040525081019061029b9190611b9f565b9250509193509193565b7f000000000000000000000000000000000000000000000000000000000000000081565b60608180421115610306576040517f203d82d800000000000000000000000000000000000000000000000000000000815260040160405180910390fd5b6103727f000000000000000000000000000000000000000000000000000000000000000089888880806020026020016040519081016040528093929190818152602001838360200280828437600081840152601f19601f82011690508083019250505050505050610c06565b91508682600184516103849190611bfb565b8151811061039557610394611c2f565b5b602002602001015110156103de576040517f08c379a00000000000000000000000000000000000000000000000000000000081526004016103d590611cbb565b60405180910390fd5b610539337f000000000000000000000000000000000000000000000000000000000000000073ffffffffffffffffffffffffffffffffffffffff1663531aa03e8989600081811061043257610431611c2f565b5b90506020020160208101906104479190611b5d565b8a8a600181811061045b5761045a611c2f565b5b90506020020160208101906104709190611b5d565b6040518363ffffffff1660e01b815260040161048d929190611cdb565b602060405180830381865afa1580156104aa573d6000803e3d6000fd5b505050506040513d601f19601f820116820180604052508101906104ce9190611d19565b846000815181106104e2576104e1611c2f565b5b6020026020010151898960008181106104fe576104fd611c2f565b5b90506020020160208101906105139190611b5d565b73ffffffffffffffffffffffffffffffffffffffff16610b84909392919063ffffffff16565b61058582878780806020026020016040519081016040528093929190818152602001838360200280828437600081840152601f19601f8201169050808301925050505050505086610e52565b509695505050505050565b60008082804211156105ce576040517f203d82d800000000000000000000000000000000000000000000000000000000815260040160405180910390fd5b60007f000000000000000000000000000000000000000000000000000000000000000073ffffffffffffffffffffffffffffffffffffffff1663531aa03e8c8c6040518363ffffffff1660e01b815260040161062b929190611cdb565b602060405180830381865afa158015610648573d6000803e3d6000fd5b505050506040513d601f19601f8201168201806040525081019061066c9190611d19565b90508073ffffffffffffffffffffffffffffffffffffffff166323b872dd33838c6040518463ffffffff1660e01b81526004016106ab93929190611d46565b6020604051808303816000875af11580156106ca573d6000803e3d6000fd5b505050506040513d601f19601f820116820180604052508101906106ee9190611db5565b506000808273ffffffffffffffffffffffffffffffffffffffff166389afcb44896040518263ffffffff1660e01b815260040161072b9190611840565b60408051808303816000875af1158015610749573d6000803e3d6000fd5b505050506040513d601f19601f8201168201806040525081019061076d9190611de2565b91509150600061077d8e8e611156565b5090508073ffffffffffffffffffffffffffffffffffffffff168e73ffffffffffffffffffffffffffffffffffffffff16146107ba5781836107bd565b82825b80975081985050508a871015610808576040517f08c379a00000000000000000000000000000000000000000000000000000000081526004016107ff90611e6e565b60405180910390fd5b8986101561084b576040517f08c379a000000000000000000000000000000000000000000000000000000000815260040161084290611eda565b60405180910390fd5b505050505097509795505050505050565b60008060008060007f000000000000000000000000000000000000000000000000000000000000000073ffffffffffffffffffffffffffffffffffffffff1663531aa03e8760000160208101906108b39190611b5d565b8860200160208101906108c69190611b5d565b6040518363ffffffff1660e01b81526004016108e3929190611cdb565b602060405180830381865afa158015610900573d6000803e3d6000fd5b505050506040513d601f19601f820116820180604052508101906109249190611d19565b9250600073ffffffffffffffffffffffffffffffffffffffff168373ffffffffffffffffffffffffffffffffffffffff1603610a1f577f000000000000000000000000000000000000000000000000000000000000000073ffffffffffffffffffffffffffffffffffffffff1663c9c653968760000160208101906109a99190611b5d565b8860200160208101906109bc9190611b5d565b6040518363ffffffff1660e01b81526004016109d9929190611cdb565b6020604051808303816000875af11580156109f8573d6000803e3d6000fd5b505050506040513d601f19601f82011682018060405250810190610a1c9190611d19565b92505b610a4e83876000016020810190610a369190611b5d565b886020016020810190610a499190611b5d565b611282565b8092508193505050600082148015610a665750600081145b15610a8257856040013586606001358095508196505050610b7b565b6000610a9387604001358484611359565b905086606001358111610afa578660a00135811015610ae7576040517f08c379a0000000000000000000000000000000000000000000000000000000008152600401610ade90611eda565b60405180910390fd5b8660400135818096508197505050610b79565b6000610b0b88606001358486611359565b90508760400135811115610b2257610b21611efa565b5b8760800135811015610b69576040517f08c379a0000000000000000000000000000000000000000000000000000000008152600401610b6090611e6e565b60405180910390fd5b8088606001358097508198505050505b505b50509193909250565b610c00848573ffffffffffffffffffffffffffffffffffffffff166323b872dd868686604051602401610bb993929190611d46565b604051602081830303815290604052915060e01b6020820180517bffffffffffffffffffffffffffffffffffffffffffffffffffffffff838183161783525050505061140c565b50505050565b6060600282511015610c4d576040517f08c379a0000000000000000000000000000000000000000000000000000000008152600401610c4490611f75565b60405180910390fd5b815167ffffffffffffffff811115610c6857610c67611f95565b5b604051908082528060200260200182016040528015610c965781602001602082028036833780820191505090505b5090508281600081518110610cae57610cad611c2f565b5b60200260200101818152505060005b60018351610ccb9190611bfb565b811015610e4a5760008573ffffffffffffffffffffffffffffffffffffffff1663531aa03e858481518110610d0357610d02611c2f565b5b602002602001015186600186610d199190611fc4565b81518110610d2a57610d29611c2f565b5b60200260200101516040518363ffffffff1660e01b8152600401610d4f929190611cdb565b602060405180830381865afa158015610d6c573d6000803e3d6000fd5b505050506040513d601f19601f82011682018060405250810190610d909190611d19565b9050600080610de083878681518110610dac57610dab611c2f565b5b602002602001015188600188610dc29190611fc4565b81518110610dd357610dd2611c2f565b5b6020026020010151611282565b91509150610e09858581518110610dfa57610df9611c2f565b5b602002602001015183836114a3565b85600186610e179190611fc4565b81518110610e2857610e27611c2f565b5b6020026020010181815250505050508080610e4290611ff8565b915050610cbd565b509392505050565b60005b60018351610e639190611bfb565b81101561115057600080848381518110610e8057610e7f611c2f565b5b602002602001015185600185610e969190611fc4565b81518110610ea757610ea6611c2f565b5b60200260200101519150915060007f000000000000000000000000000000000000000000000000000000000000000073ffffffffffffffffffffffffffffffffffffffff1663531aa03e84846040518363ffffffff1660e01b8152600401610f10929190611cdb565b602060405180830381865afa158015610f2d573d6000803e3d6000fd5b505050506040513d601f19601f82011682018060405250810190610f519190611d19565b90506000610f5f8484611156565b509050600088600187610f729190611fc4565b81518110610f8357610f82611c2f565b5b602002602001015190506000808373ffffffffffffffffffffffffffffffffffffffff168773ffffffffffffffffffffffffffffffffffffffff1614610fcb57826000610fcf565b6000835b91509150600060028b51610fe39190611bfb565b8910610fef57896110b2565b7f000000000000000000000000000000000000000000000000000000000000000073ffffffffffffffffffffffffffffffffffffffff1663531aa03e888d60028d61103a9190611fc4565b8151811061104b5761104a611c2f565b5b60200260200101516040518363ffffffff1660e01b8152600401611070929190611cdb565b602060405180830381865afa15801561108d573d6000803e3d6000fd5b505050506040513d601f19601f820116820180604052508101906110b19190611d19565b5b90508573ffffffffffffffffffffffffffffffffffffffff16636d9a640a8484846040518463ffffffff1660e01b81526004016110f193929190612040565b60408051808303816000875af115801561110f573d6000803e3d6000fd5b505050506040513d601f19601f820116820180604052508101906111339190611de2565b50505050505050505050808061114890611ff8565b915050610e55565b50505050565b6000808273ffffffffffffffffffffffffffffffffffffffff168473ffffffffffffffffffffffffffffffffffffffff16036111c7576040517f08c379a00000000000000000000000000000000000000000000000000000000081526004016111be906120c3565b60405180910390fd5b8273ffffffffffffffffffffffffffffffffffffffff168473ffffffffffffffffffffffffffffffffffffffff1610611201578284611204565b83835b8092508193505050600073ffffffffffffffffffffffffffffffffffffffff168273ffffffffffffffffffffffffffffffffffffffff160361127b576040517f08c379a00000000000000000000000000000000000000000000000000000000081526004016112729061212f565b60405180910390fd5b9250929050565b60008060006112918585611156565b5090506000808773ffffffffffffffffffffffffffffffffffffffff16630902f1ac6040518163ffffffff1660e01b81526004016040805180830381865afa1580156112e1573d6000803e3d6000fd5b505050506040513d601f19601f820116820180604052508101906113059190611de2565b915091508273ffffffffffffffffffffffffffffffffffffffff168773ffffffffffffffffffffffffffffffffffffffff1614611343578082611346565b81815b8095508196505050505050935093915050565b600080841161139d576040517f08c379a00000000000000000000000000000000000000000000000000000000081526004016113949061219b565b60405180910390fd5b6000831180156113ad5750600082115b6113ec576040517f08c379a00000000000000000000000000000000000000000000000000000000081526004016113e390612207565b60405180910390fd5b8282856113f99190612227565b6114039190612298565b90509392505050565b6000611437828473ffffffffffffffffffffffffffffffffffffffff1661158d90919063ffffffff16565b9050600081511415801561145c57508080602001905181019061145a9190611db5565b155b1561149e57826040517f5274afe70000000000000000000000000000000000000000000000000000000081526004016114959190611840565b60405180910390fd5b505050565b60008084116114e7576040517f08c379a00000000000000000000000000000000000000000000000000000000081526004016114de90612315565b60405180910390fd5b6000831180156114f75750600082115b611536576040517f08c379a000000000000000000000000000000000000000000000000000000000815260040161152d90612207565b60405180910390fd5b60006103e5856115469190612227565b9050600083826115569190612227565b90506000826103e8876115699190612227565b6115739190611fc4565b905080826115819190612298565b93505050509392505050565b606061159b838360006115a3565b905092915050565b6060814710156115ea57306040517fcd7860590000000000000000000000000000000000000000000000000000000081526004016115e19190611840565b60405180910390fd5b6000808573ffffffffffffffffffffffffffffffffffffffff16848660405161161391906123a6565b60006040518083038185875af1925050503d8060008114611650576040519150601f19603f3d011682016040523d82523d6000602084013e611655565b606091505b5091509150611665868383611670565b925050509392505050565b60608261168557611680826116ff565b6116f7565b600082511480156116ad575060008473ffffffffffffffffffffffffffffffffffffffff163b145b156116ef57836040517f9996b3150000000000000000000000000000000000000000000000000000000081526004016116e69190611840565b60405180910390fd5b8190506116f8565b5b9392505050565b6000815111156117125780518082602001fd5b6040517f1425ea4200000000000000000000000000000000000000000000000000000000815260040160405180910390fd5b600080fd5b600080fd5b600080fd5b6000610100828403121561176a5761176961174e565b5b81905092915050565b6000610100828403121561178a57611789611744565b5b600061179884828501611753565b91505092915050565b6000819050919050565b6117b4816117a1565b82525050565b600073ffffffffffffffffffffffffffffffffffffffff82169050919050565b60006117e5826117ba565b9050919050565b6117f5816117da565b82525050565b600060808201905061181060008301876117ab565b61181d60208301866117ab565b61182a60408301856117ab565b61183760608301846117ec565b95945050505050565b600060208201905061185560008301846117ec565b92915050565b611864816117a1565b811461186f57600080fd5b50565b6000813590506118818161185b565b92915050565b600080fd5b600080fd5b600080fd5b60008083601f8401126118ac576118ab611887565b5b8235905067ffffffffffffffff8111156118c9576118c861188c565b5b6020830191508360208202830111156118e5576118e4611891565b5b9250929050565b6118f5816117da565b811461190057600080fd5b50565b600081359050611912816118ec565b92915050565b60008060008060008060a0878903121561193557611934611744565b5b600061194389828a01611872565b965050602061195489828a01611872565b955050604087013567ffffffffffffffff81111561197557611974611749565b5b61198189828a01611896565b9450945050606061199489828a01611903565b92505060806119a589828a01611872565b9150509295509295509295565b600081519050919050565b600082825260208201905092915050565b6000819050602082019050919050565b6119e7816117a1565b82525050565b60006119f983836119de565b60208301905092915050565b6000602082019050919050565b6000611a1d826119b2565b611a2781856119bd565b9350611a32836119ce565b8060005b83811015611a63578151611a4a88826119ed565b9750611a5583611a05565b925050600181019050611a36565b5085935050505092915050565b60006020820190508181036000830152611a8a8184611a12565b905092915050565b600080600080600080600060e0888a031215611ab157611ab0611744565b5b6000611abf8a828b01611903565b9750506020611ad08a828b01611903565b9650506040611ae18a828b01611872565b9550506060611af28a828b01611872565b9450506080611b038a828b01611872565b93505060a0611b148a828b01611903565b92505060c0611b258a828b01611872565b91505092959891949750929550565b6000604082019050611b4960008301856117ab565b611b5660208301846117ab565b9392505050565b600060208284031215611b7357611b72611744565b5b6000611b8184828501611903565b91505092915050565b600081519050611b998161185b565b92915050565b600060208284031215611bb557611bb4611744565b5b6000611bc384828501611b8a565b91505092915050565b7f4e487b7100000000000000000000000000000000000000000000000000000000600052601160045260246000fd5b6000611c06826117a1565b9150611c11836117a1565b9250828203905081811115611c2957611c28611bcc565b5b92915050565b7f4e487b7100000000000000000000000000000000000000000000000000000000600052603260045260246000fd5b600082825260208201905092915050565b7f20494e53554646494349454e545f4f55545055545f414d4f554e540000000000600082015250565b6000611ca5601b83611c5e565b9150611cb082611c6f565b602082019050919050565b60006020820190508181036000830152611cd481611c98565b9050919050565b6000604082019050611cf060008301856117ec565b611cfd60208301846117ec565b9392505050565b600081519050611d13816118ec565b92915050565b600060208284031215611d2f57611d2e611744565b5b6000611d3d84828501611d04565b91505092915050565b6000606082019050611d5b60008301866117ec565b611d6860208301856117ec565b611d7560408301846117ab565b949350505050565b60008115159050919050565b611d9281611d7d565b8114611d9d57600080fd5b50565b600081519050611daf81611d89565b92915050565b600060208284031215611dcb57611dca611744565b5b6000611dd984828501611da0565b91505092915050565b60008060408385031215611df957611df8611744565b5b6000611e0785828601611b8a565b9250506020611e1885828601611b8a565b9150509250929050565b7f20494e53554646494349454e545f415f414d4f554e5400000000000000000000600082015250565b6000611e58601683611c5e565b9150611e6382611e22565b602082019050919050565b60006020820190508181036000830152611e8781611e4b565b9050919050565b7f20494e53554646494349454e545f425f414d4f554e5400000000000000000000600082015250565b6000611ec4601683611c5e565b9150611ecf82611e8e565b602082019050919050565b60006020820190508181036000830152611ef381611eb7565b9050919050565b7f4e487b7100000000000000000000000000000000000000000000000000000000600052600160045260246000fd5b7f494e56414c49445f504154480000000000000000000000000000000000000000600082015250565b6000611f5f600c83611c5e565b9150611f6a82611f29565b602082019050919050565b60006020820190508181036000830152611f8e81611f52565b9050919050565b7f4e487b7100000000000000000000000000000000000000000000000000000000600052604160045260246000fd5b6000611fcf826117a1565b9150611fda836117a1565b9250828201905080821115611ff257611ff1611bcc565b5b92915050565b6000612003826117a1565b91507fffffffffffffffffffffffffffffffffffffffffffffffffffffffffffffffff820361203557612034611bcc565b5b600182019050919050565b600060608201905061205560008301866117ab565b61206260208301856117ab565b61206f60408301846117ec565b949350505050565b7f4944454e544943414c5f41444452455353455300000000000000000000000000600082015250565b60006120ad601383611c5e565b91506120b882612077565b602082019050919050565b600060208201905081810360008301526120dc816120a0565b9050919050565b7f5a45524f5f414444524553530000000000000000000000000000000000000000600082015250565b6000612119600c83611c5e565b9150612124826120e3565b602082019050919050565b600060208201905081810360008301526121488161210c565b9050919050565b7f494e53554646494349454e545f414d4f554e5400000000000000000000000000600082015250565b6000612185601383611c5e565b91506121908261214f565b602082019050919050565b600060208201905081810360008301526121b481612178565b9050919050565b7f494e53554646494349454e545f4c495155494449545900000000000000000000600082015250565b60006121f1601683611c5e565b91506121fc826121bb565b602082019050919050565b60006020820190508181036000830152612220816121e4565b9050919050565b6000612232826117a1565b915061223d836117a1565b925082820261224b816117a1565b9150828204841483151761226257612261611bcc565b5b5092915050565b7f4e487b7100000000000000000000000000000000000000000000000000000000600052601260045260246000fd5b60006122a3826117a1565b91506122ae836117a1565b9250826122be576122bd612269565b5b828204905092915050565b7f494e53554646494349454e545f494e5055545f414d4f554e5400000000000000600082015250565b60006122ff601983611c5e565b915061230a826122c9565b602082019050919050565b6000602082019050818103600083015261232e816122f2565b9050919050565b600081519050919050565b600081905092915050565b60005b8381101561236957808201518184015260208101905061234e565b60008484015250505050565b600061238082612335565b61238a8185612340565b935061239a81856020860161234b565b80840191505092915050565b60006123b28284612375565b91508190509291505056fea2646970667358221220c980bd548bc83982989dfcba0ce1ecb8bd5cf9f0cd15f47cea52b61eb484d58664736f6c63430008140033",
  "linkReferences": {},
  "deployedLinkReferences": {}
}