{
  "_format": "hh-sol-artifact-1",
  "contractName": "LRouter",
  "sourceName": "contracts/periphery/LRouter.sol",
  "abi": [
    {
      "inputs": [
        {
          "internalType": "address",
          "name": "factory",
          "type": "address"
        },
        {
          "internalType": "address",
          "name": "weth",
          "type": "address"
        }
      ],
      "stateMutability": "nonpayable",
      "type": "constructor"
    },
    {
      "inputs": [
        {
          "internalType": "address",
          "name": "target",
          "type": "address"
        }
      ],
      "name": "AddressEmptyCode",
      "type": "error"
    },
    {
      "inputs": [
        {
          "internalType": "address",
          "name": "account",
          "type": "address"
        }
      ],
      "name": "AddressInsufficientBalance",
      "type": "error"
    },
    {
      "inputs": [],
      "name": "Expired",
      "type": "error"
    },
    {
      "inputs": [],
      "name": "FailedInnerCall",
      "type": "error"
    },
    {
      "inputs": [],
      "name": "ReentrancyGuardReentrantCall",
      "type": "error"
    },
    {
      "inputs": [
        {
          "internalType": "address",
          "name": "token",
          "type": "address"
        }
      ],
      "name": "SafeERC20FailedOperation",
      "type": "error"
    },
    {
      "inputs": [],
      "name": "FACTORY",
      "outputs": [
        {
          "internalType": "address",
          "name": "",
          "type": "address"
        }
      ],
      "stateMutability": "view",
      "type": "function"
    },
    {
      "inputs": [
        {
          "components": [
            {
              "internalType": "address",
              "name": "tokenA",
              "type": "address"
            },
            {
              "internalType": "address",
              "name": "tokenB",
              "type": "address"
            },
            {
              "internalType": "uint256",
              "name": "amountADesired",
              "type": "uint256"
            },
            {
              "internalType": "uint256",
              "name": "amountBDesired",
              "type": "uint256"
            },
            {
              "internalType": "uint256",
              "name": "amountAMin",
              "type": "uint256"
            },
            {
              "internalType": "uint256",
              "name": "amountBMin",
              "type": "uint256"
            },
            {
              "internalType": "address",
              "name": "to",
              "type": "address"
            },
            {
              "internalType": "uint256",
              "name": "deadline",
              "type": "uint256"
            }
          ],
          "internalType": "struct LRouter.AddLiquidity",
          "name": "params",
          "type": "tuple"
        }
      ],
      "name": "addLiquidity",
      "outputs": [
        {
          "internalType": "uint256",
          "name": "amountA",
          "type": "uint256"
        },
        {
          "internalType": "uint256",
          "name": "amountB",
          "type": "uint256"
        },
        {
          "internalType": "uint256",
          "name": "liquidity",
          "type": "uint256"
        },
        {
          "internalType": "address",
          "name": "pair",
          "type": "address"
        }
      ],
      "stateMutability": "nonpayable",
      "type": "function"
    },
    {
      "inputs": [
        {
          "internalType": "uint256",
          "name": "",
          "type": "uint256"
        }
      ],
      "name": "collateralPools",
      "outputs": [
        {
          "internalType": "address",
          "name": "",
          "type": "address"
        }
      ],
      "stateMutability": "view",
      "type": "function"
    },
    {
      "inputs": [
        {
          "internalType": "contract IERC20",
          "name": "token",
          "type": "address"
        },
        {
          "internalType": "uint256",
          "name": "assets",
          "type": "uint256"
        },
        {
          "internalType": "address",
          "name": "receiver",
          "type": "address"
        }
      ],
      "name": "depositCollateral",
      "outputs": [
        {
          "internalType": "uint256",
          "name": "amountA",
          "type": "uint256"
        },
        {
          "internalType": "uint256",
          "name": "amountB",
          "type": "uint256"
        },
        {
          "internalType": "address",
          "name": "pair",
          "type": "address"
        }
      ],
      "stateMutability": "nonpayable",
      "type": "function"
    },
    {
      "inputs": [
        {
          "internalType": "address",
          "name": "owner",
          "type": "address"
        }
      ],
      "name": "getAmmPools",
      "outputs": [
        {
          "components": [
            {
              "internalType": "address",
              "name": "pool",
              "type": "address"
            },
            {
              "internalType": "address",
              "name": "token0",
              "type": "address"
            },
            {
              "internalType": "address",
              "name": "token1",
              "type": "address"
            },
            {
              "internalType": "uint256",
              "name": "reserve0",
              "type": "uint256"
            },
            {
              "internalType": "uint256",
              "name": "reserve1",
              "type": "uint256"
            }
          ],
          "internalType": "struct LRouter.Pool[]",
          "name": "allPools",
          "type": "tuple[]"
        }
      ],
      "stateMutability": "nonpayable",
      "type": "function"
    },
    {
      "inputs": [
        {
          "internalType": "uint256",
          "name": "",
          "type": "uint256"
        }
      ],
      "name": "pools",
      "outputs": [
        {
          "internalType": "address",
          "name": "",
          "type": "address"
        }
      ],
      "stateMutability": "view",
      "type": "function"
    },
    {
      "inputs": [
        {
          "internalType": "address",
          "name": "tokenA",
          "type": "address"
        },
        {
          "internalType": "address",
          "name": "tokenB",
          "type": "address"
        },
        {
          "internalType": "uint256",
          "name": "liquidity",
          "type": "uint256"
        },
        {
          "internalType": "uint256",
          "name": "amountAMin",
          "type": "uint256"
        },
        {
          "internalType": "uint256",
          "name": "amountBMin",
          "type": "uint256"
        },
        {
          "internalType": "address",
          "name": "to",
          "type": "address"
        },
        {
          "internalType": "uint256",
          "name": "deadline",
          "type": "uint256"
        }
      ],
      "name": "removeLiquidity",
      "outputs": [
        {
          "internalType": "uint256",
          "name": "amountA",
          "type": "uint256"
        },
        {
          "internalType": "uint256",
          "name": "amountB",
          "type": "uint256"
        }
      ],
      "stateMutability": "nonpayable",
      "type": "function"
    },
    {
      "inputs": [
        {
          "internalType": "uint256",
          "name": "amountIn",
          "type": "uint256"
        },
        {
          "internalType": "uint256",
          "name": "amountOutMin",
          "type": "uint256"
        },
        {
          "internalType": "address[]",
          "name": "path",
          "type": "address[]"
        },
        {
          "internalType": "address",
          "name": "to",
          "type": "address"
        },
        {
          "internalType": "uint256",
          "name": "deadline",
          "type": "uint256"
        }
      ],
      "name": "swapExactTokenForToken",
      "outputs": [
        {
          "internalType": "uint256[]",
          "name": "amounts",
          "type": "uint256[]"
        }
      ],
      "stateMutability": "nonpayable",
      "type": "function"
    },
    {
      "stateMutability": "payable",
      "type": "receive"
    }
  ],
  "bytecode": "0x60a06040523480156200001157600080fd5b5060405162001a2138038062001a21833981016040819052620000349162000069565b5060016000556001600160a01b0316608052620000a1565b80516001600160a01b03811681146200006457600080fd5b919050565b600080604083850312156200007d57600080fd5b62000088836200004c565b915062000098602084016200004c565b90509250929050565b608051611933620000ee6000396000818161012f0152818161026001528181610307015281816103b2015281816106fc0152818161094801528181610dee0152610eb901526119336000f3fe60806040526004361061007f5760003560e01c80636dbe4ef21161004e5780636dbe4ef214610196578063ac4afa38146101b6578063baa2abde146101d6578063f96bd4641461020b57600080fd5b8063224254801461008b57806323790216146100d45780632dd310001461011d5780636ca412e11461016957600080fd5b3661008657005b600080fd5b34801561009757600080fd5b506100ab6100a6366004611509565b610238565b6040805193845260208401929092526001600160a01b0316908201526060015b60405180910390f35b3480156100e057600080fd5b506100f46100ef36600461154b565b610564565b604080519485526020850193909352918301526001600160a01b031660608201526080016100cb565b34801561012957600080fd5b506101517f000000000000000000000000000000000000000000000000000000000000000081565b6040516001600160a01b0390911681526020016100cb565b34801561017557600080fd5b50610189610184366004611564565b61066d565b6040516100cb9190611606565b3480156101a257600080fd5b506101516101b136600461164a565b6108bf565b3480156101c257600080fd5b506101516101d136600461164a565b6108e9565b3480156101e257600080fd5b506101f66101f1366004611663565b6108f9565b604080519283526020830191909152016100cb565b34801561021757600080fd5b5061022b6102263660046116d5565b610b83565b6040516100cb91906116f2565b60405163292979d160e11b81526001600160a01b0384811660048301526000918291829182917f00000000000000000000000000000000000000000000000000000000000000001690635252f3a290602401602060405180830381865afa1580156102a7573d6000803e3d6000fd5b505050506040513d601f19601f820116820180604052508101906102cb919061176e565b90506102e26001600160a01b038816333089610d7e565b6001600160a01b0381166104715760405163095ea7b360e01b81526001600160a01b037f0000000000000000000000000000000000000000000000000000000000000000811660048301526024820188905288169063095ea7b3906044016020604051808303816000875af115801561035f573d6000803e3d6000fd5b505050506040513d601f19601f82011682018060405250810190610383919061178b565b506040516318815cb760e01b81526001600160a01b0388811660048301526024820188905286811660448301527f000000000000000000000000000000000000000000000000000000000000000016906318815cb7906064016020604051808303816000875af11580156103fb573d6000803e3d6000fd5b505050506040513d601f19601f8201168201806040525081019061041f919061176e565b600280546001810182556000919091527f405787fa12a823e0f2b7631cc41b3ba8828b3321ca811111fa75cd3aa3bb5ace0180546001600160a01b0319166001600160a01b038316179055905061055a565b60405163095ea7b360e01b81526001600160a01b0382811660048301526024820188905288169063095ea7b3906044016020604051808303816000875af11580156104c0573d6000803e3d6000fd5b505050506040513d601f19601f820116820180604052508101906104e4919061178b565b50604051636e553f6560e01b8152600481018790526001600160a01b038681166024830152821690636e553f65906044016020604051808303816000875af1158015610534573d6000803e3d6000fd5b505050506040513d601f19601f8201168201806040525081019061055891906117ad565b505b5093509350939050565b6000806000808460e001358042111561059057604051630407b05b60e31b815260040160405180910390fd5b61059986610dde565b919650945091506105c43383876105b360208b018b6116d5565b6001600160a01b0316929190610d7e565b6105da3383866105b360408b0160208c016116d5565b6001600160a01b038216636a6278426105f960e0890160c08a016116d5565b6040516001600160e01b031960e084901b1681526001600160a01b0390911660048201526024016020604051808303816000875af115801561063f573d6000803e3d6000fd5b505050506040513d601f19601f8201168201806040525081019061066391906117ad565b9250509193509193565b6060818042111561069157604051630407b05b60e31b815260040160405180910390fd5b6000868660018181106106a6576106a66117c6565b90506020020160208101906106bb91906116d5565b6001600160a01b0316878760008181106106d7576106d76117c6565b90506020020160208101906106ec91906116d5565b6001600160a01b031611905060007f00000000000000000000000000000000000000000000000000000000000000006001600160a01b031663531aa03e8989600081811061073c5761073c6117c6565b905060200201602081019061075191906116d5565b8a8a6001818110610764576107646117c6565b905060200201602081019061077991906116d5565b6040516001600160e01b031960e085901b1681526001600160a01b03928316600482015291166024820152604401602060405180830381865afa1580156107c4573d6000803e3d6000fd5b505050506040513d601f19601f820116820180604052508101906107e8919061176e565b905061081833828c8b8b6000818110610803576108036117c6565b90506020020160208101906105b391906116d5565b88600080846108295782600061082d565b6000835b6040516336cd320560e11b815260048101839052602481018290526001600160a01b038c8116604483015292945090925090851690636d9a640a9060640160408051808303816000875af1158015610889573d6000803e3d6000fd5b505050506040513d601f19601f820116820180604052508101906108ad91906117dc565b50505050505050509695505050505050565b600281815481106108cf57600080fd5b6000918252602090912001546001600160a01b0316905081565b600181815481106108cf57600080fd5b600080828042111561091e57604051630407b05b60e31b815260040160405180910390fd5b60405163298d501f60e11b81526001600160a01b038b811660048301528a811660248301526000917f00000000000000000000000000000000000000000000000000000000000000009091169063531aa03e90604401602060405180830381865afa158015610991573d6000803e3d6000fd5b505050506040513d601f19601f820116820180604052508101906109b5919061176e565b6040516323b872dd60e01b81523360048201526001600160a01b03821660248201819052604482018c90529192506323b872dd906064016020604051808303816000875af1158015610a0b573d6000803e3d6000fd5b505050506040513d601f19601f82011682018060405250810190610a2f919061178b565b5060405163226bf2d160e21b81526001600160a01b03878116600483015260009182918416906389afcb449060240160408051808303816000875af1158015610a7c573d6000803e3d6000fd5b505050506040513d601f19601f82011682018060405250810190610aa091906117dc565b915091506000610ab08e8e61110b565b509050806001600160a01b03168e6001600160a01b031614610ad3578183610ad6565b82825b90975095508a871015610b295760405162461bcd60e51b815260206004820152601660248201527508125394d551919250d251539517d057d05353d5539560521b60448201526064015b60405180910390fd5b89861015610b725760405162461bcd60e51b815260206004820152601660248201527508125394d551919250d251539517d097d05353d5539560521b6044820152606401610b20565b505050505097509795505050505050565b6001546060908067ffffffffffffffff811115610ba257610ba2611800565b604051908082528060200260200182016040528015610bfb57816020015b6040805160a081018252600080825260208083018290529282018190526060820181905260808201528252600019909201910181610bc05790505b50915060005b81811015610d7757600060018281548110610c1e57610c1e6117c6565b60009182526020822001546040805163154d950160e31b815281516001600160a01b0390931694508392859263aa6ca80892600480820193918290030181865afa158015610c70573d6000803e3d6000fd5b505050506040513d601f19601f82011682018060405250810190610c949190611816565b91509150600080846001600160a01b0316630902f1ac6040518163ffffffff1660e01b81526004016040805180830381865afa158015610cd8573d6000803e3d6000fd5b505050506040513d601f19601f82011682018060405250810190610cfc91906117dc565b915091506040518060a00160405280866001600160a01b03168152602001856001600160a01b03168152602001846001600160a01b0316815260200183815260200182815250888781518110610d5457610d546117c6565b602002602001018190525050505050508080610d6f90611866565b915050610c01565b5050919050565b604080516001600160a01b0385811660248301528416604482015260648082018490528251808303909101815260849091019091526020810180516001600160e01b03166323b872dd60e01b179052610dd89085906111d9565b50505050565b6000808080806001600160a01b037f00000000000000000000000000000000000000000000000000000000000000001663531aa03e610e2060208901896116d5565b610e3060408a0160208b016116d5565b6040516001600160e01b031960e085901b1681526001600160a01b03928316600482015291166024820152604401602060405180830381865afa158015610e7b573d6000803e3d6000fd5b505050506040513d601f19601f82011682018060405250810190610e9f919061176e565b92506001600160a01b038316610fb9576001600160a01b037f00000000000000000000000000000000000000000000000000000000000000001663c9c65396610eeb60208901896116d5565b610efb60408a0160208b016116d5565b6040516001600160e01b031960e085901b1681526001600160a01b039283166004820152911660248201526044016020604051808303816000875af1158015610f48573d6000803e3d6000fd5b505050506040513d601f19601f82011682018060405250810190610f6c919061176e565b6001805480820182556000919091527fb10e2d527612073b26eecdfd717e6a320cf44b4afac2b0732d9fcbe2b7fa0cf60180546001600160a01b0319166001600160a01b03831617905592505b610fdf83610fca60208901896116d5565b610fda60408a0160208b016116d5565b611241565b909250905081158015610ff0575080155b15611008576040860135945060608601359350611102565b6000611019876040013584846112ed565b905086606001358111611082578660a001358110156110735760405162461bcd60e51b815260206004820152601660248201527508125394d551919250d251539517d097d05353d5539560521b6044820152606401610b20565b60408701359550935083611100565b6000611093886060013584866112ed565b905087604001358111156110a9576110a961187f565b87608001358110156110f65760405162461bcd60e51b815260206004820152601660248201527508125394d551919250d251539517d057d05353d5539560521b6044820152606401610b20565b9550606087013594505b505b50509193909250565b600080826001600160a01b0316846001600160a01b0316036111655760405162461bcd60e51b81526020600482015260136024820152724944454e544943414c5f41444452455353455360681b6044820152606401610b20565b826001600160a01b0316846001600160a01b031610611185578284611188565b83835b90925090506001600160a01b0382166111d25760405162461bcd60e51b815260206004820152600c60248201526b5a45524f5f4144445245535360a01b6044820152606401610b20565b9250929050565b60006111ee6001600160a01b038416836113a6565b90508051600014158015611213575080806020019051810190611211919061178b565b155b1561123c57604051635274afe760e01b81526001600160a01b0384166004820152602401610b20565b505050565b6000806000611250858561110b565b509050600080876001600160a01b0316630902f1ac6040518163ffffffff1660e01b81526004016040805180830381865afa158015611293573d6000803e3d6000fd5b505050506040513d601f19601f820116820180604052508101906112b791906117dc565b91509150826001600160a01b0316876001600160a01b0316146112db5780826112de565b81815b90999098509650505050505050565b60008084116113345760405162461bcd60e51b8152602060048201526013602482015272125394d551919250d251539517d05353d55395606a1b6044820152606401610b20565b6000831180156113445750600082115b6113895760405162461bcd60e51b8152602060048201526016602482015275494e53554646494349454e545f4c495155494449545960501b6044820152606401610b20565b826113948386611895565b61139e91906118ac565b949350505050565b60606113b4838360006113bd565b90505b92915050565b6060814710156113e25760405163cd78605960e01b8152306004820152602401610b20565b600080856001600160a01b031684866040516113fe91906118ce565b60006040518083038185875af1925050503d806000811461143b576040519150601f19603f3d011682016040523d82523d6000602084013e611440565b606091505b509150915061145086838361145c565b925050505b9392505050565b6060826114715761146c826114b8565b611455565b815115801561148857506001600160a01b0384163b155b156114b157604051639996b31560e01b81526001600160a01b0385166004820152602401610b20565b5080611455565b8051156114c85780518082602001fd5b604051630a12f52160e11b815260040160405180910390fd5b50565b6001600160a01b03811681146114e157600080fd5b8035611504816114e4565b919050565b60008060006060848603121561151e57600080fd5b8335611529816114e4565b9250602084013591506040840135611540816114e4565b809150509250925092565b6000610100828403121561155e57600080fd5b50919050565b60008060008060008060a0878903121561157d57600080fd5b8635955060208701359450604087013567ffffffffffffffff808211156115a357600080fd5b818901915089601f8301126115b757600080fd5b8135818111156115c657600080fd5b8a60208260051b85010111156115db57600080fd5b6020830196508095505050506115f3606088016114f9565b9150608087013590509295509295509295565b6020808252825182820181905260009190848201906040850190845b8181101561163e57835183529284019291840191600101611622565b50909695505050505050565b60006020828403121561165c57600080fd5b5035919050565b600080600080600080600060e0888a03121561167e57600080fd5b8735611689816114e4565b96506020880135611699816114e4565b955060408801359450606088013593506080880135925060a08801356116be816114e4565b8092505060c0880135905092959891949750929550565b6000602082840312156116e757600080fd5b8135611455816114e4565b602080825282518282018190526000919060409081850190868401855b8281101561176157815180516001600160a01b03908116865287820151811688870152868201511686860152606080820151908601526080908101519085015260a0909301929085019060010161170f565b5091979650505050505050565b60006020828403121561178057600080fd5b8151611455816114e4565b60006020828403121561179d57600080fd5b8151801515811461145557600080fd5b6000602082840312156117bf57600080fd5b5051919050565b634e487b7160e01b600052603260045260246000fd5b600080604083850312156117ef57600080fd5b505080516020909101519092909150565b634e487b7160e01b600052604160045260246000fd5b6000806040838503121561182957600080fd5b8251611834816114e4565b6020840151909250611845816114e4565b809150509250929050565b634e487b7160e01b600052601160045260246000fd5b60006001820161187857611878611850565b5060010190565b634e487b7160e01b600052600160045260246000fd5b80820281158282048414176113b7576113b7611850565b6000826118c957634e487b7160e01b600052601260045260246000fd5b500490565b6000825160005b818110156118ef57602081860181015185830152016118d5565b50600092019182525091905056fea2646970667358221220e2accbccf8b61f489dea597d3001bd165135f5b051e6a2491619dbfc5cdca33264736f6c63430008140033",
  "linkReferences": {},
  "deployedLinkReferences": {}
}