{
  "_format": "hh-sol-artifact-1",
  "contractName": "LFactory",
  "sourceName": "contracts/LFactory.sol",
  "abi": [
    {
      "inputs": [
        {
          "internalType": "address",
          "name": "swapPool",
          "type": "address"
        }
      ],
      "stateMutability": "nonpayable",
      "type": "constructor"
    },
    {
      "inputs": [
        {
          "internalType": "address",
          "name": "target",
          "type": "address"
        }
      ],
      "name": "AddressEmptyCode",
      "type": "error"
    },
    {
      "inputs": [
        {
          "internalType": "address",
          "name": "account",
          "type": "address"
        }
      ],
      "name": "AddressInsufficientBalance",
      "type": "error"
    },
    {
      "inputs": [],
      "name": "ERC1167FailedCreateClone",
      "type": "error"
    },
    {
      "inputs": [],
      "name": "FailedInnerCall",
      "type": "error"
    },
    {
      "inputs": [
        {
          "internalType": "address",
          "name": "pair",
          "type": "address"
        }
      ],
      "name": "PairAlreadyExist",
      "type": "error"
    },
    {
      "inputs": [
        {
          "internalType": "address",
          "name": "pool",
          "type": "address"
        }
      ],
      "name": "PoolAlreadyExist",
      "type": "error"
    },
    {
      "inputs": [
        {
          "internalType": "address",
          "name": "token",
          "type": "address"
        }
      ],
      "name": "SafeERC20FailedOperation",
      "type": "error"
    },
    {
      "inputs": [],
      "name": "PAIR_REFERENCE",
      "outputs": [
        {
          "internalType": "address",
          "name": "",
          "type": "address"
        }
      ],
      "stateMutability": "view",
      "type": "function"
    },
    {
      "inputs": [
        {
          "internalType": "address",
          "name": "collateral",
          "type": "address"
        },
        {
          "internalType": "address",
          "name": "tokenToBorrow",
          "type": "address"
        },
        {
          "internalType": "uint256",
          "name": "amount",
          "type": "uint256"
        }
      ],
      "name": "borrow",
      "outputs": [],
      "stateMutability": "nonpayable",
      "type": "function"
    },
    {
      "inputs": [
        {
          "internalType": "contract IERC20",
          "name": "_token",
          "type": "address"
        },
        {
          "internalType": "uint256",
          "name": "assets",
          "type": "uint256"
        },
        {
          "internalType": "address",
          "name": "receiver",
          "type": "address"
        }
      ],
      "name": "createCollateralPool",
      "outputs": [
        {
          "internalType": "address",
          "name": "pool",
          "type": "address"
        }
      ],
      "stateMutability": "nonpayable",
      "type": "function"
    },
    {
      "inputs": [
        {
          "internalType": "address",
          "name": "_token0",
          "type": "address"
        },
        {
          "internalType": "address",
          "name": "_token1",
          "type": "address"
        }
      ],
      "name": "createPair",
      "outputs": [
        {
          "internalType": "address",
          "name": "pair",
          "type": "address"
        }
      ],
      "stateMutability": "nonpayable",
      "type": "function"
    },
    {
      "inputs": [
        {
          "internalType": "address",
          "name": "token",
          "type": "address"
        }
      ],
      "name": "getCollateralPool",
      "outputs": [
        {
          "internalType": "address",
          "name": "",
          "type": "address"
        }
      ],
      "stateMutability": "view",
      "type": "function"
    },
    {
      "inputs": [
        {
          "internalType": "address",
          "name": "token0",
          "type": "address"
        },
        {
          "internalType": "address",
          "name": "token1",
          "type": "address"
        }
      ],
      "name": "getPairTokensOrder",
      "outputs": [
        {
          "internalType": "address",
          "name": "",
          "type": "address"
        },
        {
          "internalType": "address",
          "name": "",
          "type": "address"
        }
      ],
      "stateMutability": "pure",
      "type": "function"
    },
    {
      "inputs": [
        {
          "internalType": "address",
          "name": "_token0",
          "type": "address"
        },
        {
          "internalType": "address",
          "name": "_token1",
          "type": "address"
        }
      ],
      "name": "getPool",
      "outputs": [
        {
          "internalType": "address",
          "name": "",
          "type": "address"
        }
      ],
      "stateMutability": "view",
      "type": "function"
    },
    {
      "inputs": [
        {
          "internalType": "address",
          "name": "",
          "type": "address"
        },
        {
          "internalType": "address",
          "name": "",
          "type": "address"
        },
        {
          "internalType": "uint256",
          "name": "",
          "type": "uint256"
        }
      ],
      "name": "userLoan",
      "outputs": [
        {
          "internalType": "address",
          "name": "ammPool",
          "type": "address"
        },
        {
          "internalType": "address",
          "name": "collateralPool",
          "type": "address"
        },
        {
          "internalType": "address",
          "name": "tokenBorrowed",
          "type": "address"
        },
        {
          "internalType": "uint256",
          "name": "amount",
          "type": "uint256"
        },
        {
          "internalType": "uint8",
          "name": "interestRate",
          "type": "uint8"
        },
        {
          "internalType": "uint64",
          "name": "borrowedAt",
          "type": "uint64"
        }
      ],
      "stateMutability": "view",
      "type": "function"
    }
  ],
  "bytecode": "0x60a06040523480156200001157600080fd5b5060405162004f8338038062004f838339818101604052810190620000379190620000dc565b8073ffffffffffffffffffffffffffffffffffffffff1660808173ffffffffffffffffffffffffffffffffffffffff1681525050506200010e565b600080fd5b600073ffffffffffffffffffffffffffffffffffffffff82169050919050565b6000620000a48262000077565b9050919050565b620000b68162000097565b8114620000c257600080fd5b50565b600081519050620000d681620000ab565b92915050565b600060208284031215620000f557620000f462000072565b5b60006200010584828501620000c5565b91505092915050565b608051614e526200013160003960008181610c370152610ca50152614e526000f3fe60806040523480156200001157600080fd5b5060043610620000945760003560e01c806359f6160f116200006357806359f6160f146200015b578063ab0cd03f1462000196578063b3fd868a14620001cd578063c9c6539614620001ef5762000094565b806318815cb714620000995780635224372c14620000cf5780635252f3a214620000ef578063531aa03e1462000125575b600080fd5b620000b76004803603810190620000b19190620017a0565b62000225565b604051620000c691906200180d565b60405180910390f35b620000ed6004803603810190620000e791906200182a565b6200064b565b005b6200010d600480360381019062000107919062001886565b620009d7565b6040516200011c91906200180d565b60405180910390f35b6200014360048036038101906200013d9190620018b8565b62000a40565b6040516200015291906200180d565b60405180910390f35b6200017960048036038101906200017391906200182a565b62000afb565b6040516200018d9695949392919062001953565b60405180910390f35b620001b46004803603810190620001ae9190620018b8565b62000be3565b604051620001c4929190620019c0565b60405180910390f35b620001d762000c35565b604051620001e691906200180d565b60405180910390f35b6200020d6004803603810190620002079190620018b8565b62000c59565b6040516200021c91906200180d565b60405180910390f35b6000808473ffffffffffffffffffffffffffffffffffffffff166306fdde036040518163ffffffff1660e01b8152600401600060405180830381865afa15801562000274573d6000803e3d6000fd5b505050506040513d6000823e3d601f19601f820116820180604052508101906200029f919062001b6c565b905060008573ffffffffffffffffffffffffffffffffffffffff166395d89b416040518163ffffffff1660e01b8152600401600060405180830381865afa158015620002ef573d6000803e3d6000fd5b505050506040513d6000823e3d601f19601f820116820180604052508101906200031a919062001b6c565b90508582826040516200032d9062001699565b6200033b9392919062001c85565b604051809103906000f08015801562000358573d6000803e3d6000fd5b5092506200038a3330878973ffffffffffffffffffffffffffffffffffffffff1662000fc9909392919063ffffffff16565b8573ffffffffffffffffffffffffffffffffffffffff1663095ea7b384876040518363ffffffff1660e01b8152600401620003c792919062001cd0565b6020604051808303816000875af1158015620003e7573d6000803e3d6000fd5b505050506040513d601f19601f820116820180604052508101906200040d919062001d3a565b508273ffffffffffffffffffffffffffffffffffffffff16636e553f6586866040518363ffffffff1660e01b81526004016200044b92919062001d6c565b6020604051808303816000875af11580156200046b573d6000803e3d6000fd5b505050506040513d601f19601f8201168201806040525081019062000491919062001db0565b50600073ffffffffffffffffffffffffffffffffffffffff16600160008873ffffffffffffffffffffffffffffffffffffffff1673ffffffffffffffffffffffffffffffffffffffff16815260200190815260200160002060009054906101000a900473ffffffffffffffffffffffffffffffffffffffff1673ffffffffffffffffffffffffffffffffffffffff1614620005c457600160008773ffffffffffffffffffffffffffffffffffffffff1673ffffffffffffffffffffffffffffffffffffffff16815260200190815260200160002060009054906101000a900473ffffffffffffffffffffffffffffffffffffffff166040517fbad90df2000000000000000000000000000000000000000000000000000000008152600401620005bb91906200180d565b60405180910390fd5b82600160008873ffffffffffffffffffffffffffffffffffffffff1673ffffffffffffffffffffffffffffffffffffffff16815260200190815260200160002060006101000a81548173ffffffffffffffffffffffffffffffffffffffff021916908373ffffffffffffffffffffffffffffffffffffffff16021790555050509392505050565b33836000339050600062000660878762000a40565b905060006200066f88620009d7565b9050600081905060008173ffffffffffffffffffffffffffffffffffffffff166370a08231866040518263ffffffff1660e01b8152600401620006b391906200180d565b602060405180830381865afa158015620006d1573d6000803e3d6000fd5b505050506040513d601f19601f82011682018060405250810190620006f7919062001db0565b90508373ffffffffffffffffffffffffffffffffffffffff16635224372c8a878b6040518463ffffffff1660e01b8152600401620007389392919062001de2565b600060405180830381600087803b1580156200075357600080fd5b505af115801562000768573d6000803e3d6000fd5b50505050600260008673ffffffffffffffffffffffffffffffffffffffff1673ffffffffffffffffffffffffffffffffffffffff16815260200190815260200160002060008b73ffffffffffffffffffffffffffffffffffffffff1673ffffffffffffffffffffffffffffffffffffffff1681526020019081526020016000206040518060c001604052808673ffffffffffffffffffffffffffffffffffffffff1681526020018573ffffffffffffffffffffffffffffffffffffffff1681526020018b73ffffffffffffffffffffffffffffffffffffffff1681526020018a8152602001600160ff1681526020014267ffffffffffffffff16815250908060018154018082558091505060019003906000526020600020906005020160009091909190915060008201518160000160006101000a81548173ffffffffffffffffffffffffffffffffffffffff021916908373ffffffffffffffffffffffffffffffffffffffff16021790555060208201518160010160006101000a81548173ffffffffffffffffffffffffffffffffffffffff021916908373ffffffffffffffffffffffffffffffffffffffff16021790555060408201518160020160006101000a81548173ffffffffffffffffffffffffffffffffffffffff021916908373ffffffffffffffffffffffffffffffffffffffff1602179055506060820151816003015560808201518160040160006101000a81548160ff021916908360ff16021790555060a08201518160040160016101000a81548167ffffffffffffffff021916908367ffffffffffffffff16021790555050505050505050620009d082826200104f565b5050505050565b6000600160008373ffffffffffffffffffffffffffffffffffffffff1673ffffffffffffffffffffffffffffffffffffffff16815260200190815260200160002060009054906101000a900473ffffffffffffffffffffffffffffffffffffffff169050919050565b600080600062000a51858562000be3565b915091506000808373ffffffffffffffffffffffffffffffffffffffff1673ffffffffffffffffffffffffffffffffffffffff16815260200190815260200160002060008273ffffffffffffffffffffffffffffffffffffffff1673ffffffffffffffffffffffffffffffffffffffff16815260200190815260200160002060009054906101000a900473ffffffffffffffffffffffffffffffffffffffff169250505092915050565b6002602052826000526040600020602052816000526040600020818154811062000b2457600080fd5b906000526020600020906005020160009250925050508060000160009054906101000a900473ffffffffffffffffffffffffffffffffffffffff16908060010160009054906101000a900473ffffffffffffffffffffffffffffffffffffffff16908060020160009054906101000a900473ffffffffffffffffffffffffffffffffffffffff16908060030154908060040160009054906101000a900460ff16908060040160019054906101000a900467ffffffffffffffff16905086565b6000808273ffffffffffffffffffffffffffffffffffffffff168473ffffffffffffffffffffffffffffffffffffffff16111562000c275783839150915062000c2e565b8284915091505b9250929050565b7f000000000000000000000000000000000000000000000000000000000000000081565b60008060008062000c6b868662000be3565b9150915081814260405160200162000c869392919062001e94565b60405160208183030381529060405280519060200120925062000ce9837f000000000000000000000000000000000000000000000000000000000000000073ffffffffffffffffffffffffffffffffffffffff166200137a90919063ffffffff16565b93508373ffffffffffffffffffffffffffffffffffffffff1663485cc95583836040518363ffffffff1660e01b815260040162000d28929190620019c0565b600060405180830381600087803b15801562000d4357600080fd5b505af115801562000d58573d6000803e3d6000fd5b50505050600073ffffffffffffffffffffffffffffffffffffffff166000808473ffffffffffffffffffffffffffffffffffffffff1673ffffffffffffffffffffffffffffffffffffffff16815260200190815260200160002060008373ffffffffffffffffffffffffffffffffffffffff1673ffffffffffffffffffffffffffffffffffffffff16815260200190815260200160002060009054906101000a900473ffffffffffffffffffffffffffffffffffffffff1673ffffffffffffffffffffffffffffffffffffffff161462000f06576000808373ffffffffffffffffffffffffffffffffffffffff1673ffffffffffffffffffffffffffffffffffffffff16815260200190815260200160002060008273ffffffffffffffffffffffffffffffffffffffff1673ffffffffffffffffffffffffffffffffffffffff16815260200190815260200160002060009054906101000a900473ffffffffffffffffffffffffffffffffffffffff166040517fc799268600000000000000000000000000000000000000000000000000000000815260040162000efd91906200180d565b60405180910390fd5b836000808473ffffffffffffffffffffffffffffffffffffffff1673ffffffffffffffffffffffffffffffffffffffff16815260200190815260200160002060008373ffffffffffffffffffffffffffffffffffffffff1673ffffffffffffffffffffffffffffffffffffffff16815260200190815260200160002060006101000a81548173ffffffffffffffffffffffffffffffffffffffff021916908373ffffffffffffffffffffffffffffffffffffffff16021790555050505092915050565b62001049848573ffffffffffffffffffffffffffffffffffffffff166323b872dd868686604051602401620010019392919062001de2565b604051602081830303815290604052915060e01b6020820180517bffffffffffffffffffffffffffffffffffffffffffffffffffffffff83818316178352505050506200142e565b50505050565b6000600260008473ffffffffffffffffffffffffffffffffffffffff1673ffffffffffffffffffffffffffffffffffffffff16815260200190815260200160002060008373ffffffffffffffffffffffffffffffffffffffff1673ffffffffffffffffffffffffffffffffffffffff168152602001908152602001600020805480602002602001604051908101604052809291908181526020016000905b828210156200127c57838290600052602060002090600502016040518060c00160405290816000820160009054906101000a900473ffffffffffffffffffffffffffffffffffffffff1673ffffffffffffffffffffffffffffffffffffffff1673ffffffffffffffffffffffffffffffffffffffff1681526020016001820160009054906101000a900473ffffffffffffffffffffffffffffffffffffffff1673ffffffffffffffffffffffffffffffffffffffff1673ffffffffffffffffffffffffffffffffffffffff1681526020016002820160009054906101000a900473ffffffffffffffffffffffffffffffffffffffff1673ffffffffffffffffffffffffffffffffffffffff1673ffffffffffffffffffffffffffffffffffffffff168152602001600382015481526020016004820160009054906101000a900460ff1660ff1660ff1681526020016004820160019054906101000a900467ffffffffffffffff1667ffffffffffffffff1667ffffffffffffffff168152505081526020019060010190620010ed565b50505050905061010081511115620012cb576040517f08c379a0000000000000000000000000000000000000000000000000000000008152600401620012c29062001f27565b60405180910390fd5b600080600090505b825181101562001373576000838281518110620012f557620012f462001f49565b5b602002602001015160a0015167ffffffffffffffff164262001318919062001fa7565b8483815181106200132e576200132d62001f49565b5b60200260200101516080015160ff1662001349919062001fe2565b90506001836200135a91906200202d565b92505080806200136a9062002068565b915050620012d3565b5050505050565b6000763d602d80600a3d3981f3363d3d373d3d3d363d730000008360601b60e81c176000526e5af43d82803e903d91602b57fd5bf38360781b1760205281603760096000f59050600073ffffffffffffffffffffffffffffffffffffffff168173ffffffffffffffffffffffffffffffffffffffff160362001428576040517fc2f868f400000000000000000000000000000000000000000000000000000000815260040160405180910390fd5b92915050565b60006200145b828473ffffffffffffffffffffffffffffffffffffffff16620014cd90919063ffffffff16565b905060008151141580156200148357508080602001905181019062001481919062001d3a565b155b15620014c857826040517f5274afe7000000000000000000000000000000000000000000000000000000008152600401620014bf91906200180d565b60405180910390fd5b505050565b6060620014dd83836000620014e5565b905092915050565b6060814710156200152f57306040517fcd7860590000000000000000000000000000000000000000000000000000000081526004016200152691906200180d565b60405180910390fd5b6000808573ffffffffffffffffffffffffffffffffffffffff1684866040516200155a919062002102565b60006040518083038185875af1925050503d806000811462001599576040519150601f19603f3d011682016040523d82523d6000602084013e6200159e565b606091505b5091509150620015b0868383620015bb565b925050509392505050565b606082620015d457620015ce8262001653565b6200164b565b60008251148015620015fd575060008473ffffffffffffffffffffffffffffffffffffffff163b145b156200164257836040517f9996b3150000000000000000000000000000000000000000000000000000000081526004016200163991906200180d565b60405180910390fd5b8190506200164c565b5b9392505050565b600081511115620016675780518082602001fd5b6040517f1425ea4200000000000000000000000000000000000000000000000000000000815260040160405180910390fd5b612d01806200211c83390190565b6000604051905090565b600080fd5b600080fd5b600073ffffffffffffffffffffffffffffffffffffffff82169050919050565b6000620016e882620016bb565b9050919050565b6000620016fc82620016db565b9050919050565b6200170e81620016ef565b81146200171a57600080fd5b50565b6000813590506200172e8162001703565b92915050565b6000819050919050565b620017498162001734565b81146200175557600080fd5b50565b60008135905062001769816200173e565b92915050565b6200177a81620016db565b81146200178657600080fd5b50565b6000813590506200179a816200176f565b92915050565b600080600060608486031215620017bc57620017bb620016b1565b5b6000620017cc868287016200171d565b9350506020620017df8682870162001758565b9250506040620017f28682870162001789565b9150509250925092565b6200180781620016db565b82525050565b6000602082019050620018246000830184620017fc565b92915050565b600080600060608486031215620018465762001845620016b1565b5b6000620018568682870162001789565b9350506020620018698682870162001789565b92505060406200187c8682870162001758565b9150509250925092565b6000602082840312156200189f576200189e620016b1565b5b6000620018af8482850162001789565b91505092915050565b60008060408385031215620018d257620018d1620016b1565b5b6000620018e28582860162001789565b9250506020620018f58582860162001789565b9150509250929050565b6200190a8162001734565b82525050565b600060ff82169050919050565b620019288162001910565b82525050565b600067ffffffffffffffff82169050919050565b6200194d816200192e565b82525050565b600060c0820190506200196a6000830189620017fc565b620019796020830188620017fc565b620019886040830187620017fc565b620019976060830186620018ff565b620019a660808301856200191d565b620019b560a083018462001942565b979650505050505050565b6000604082019050620019d76000830185620017fc565b620019e66020830184620017fc565b9392505050565b600080fd5b600080fd5b6000601f19601f8301169050919050565b7f4e487b7100000000000000000000000000000000000000000000000000000000600052604160045260246000fd5b62001a4282620019f7565b810181811067ffffffffffffffff8211171562001a645762001a6362001a08565b5b80604052505050565b600062001a79620016a7565b905062001a87828262001a37565b919050565b600067ffffffffffffffff82111562001aaa5762001aa962001a08565b5b62001ab582620019f7565b9050602081019050919050565b60005b8381101562001ae257808201518184015260208101905062001ac5565b60008484015250505050565b600062001b0562001aff8462001a8c565b62001a6d565b90508281526020810184848401111562001b245762001b23620019f2565b5b62001b3184828562001ac2565b509392505050565b600082601f83011262001b515762001b50620019ed565b5b815162001b6384826020860162001aee565b91505092915050565b60006020828403121562001b855762001b84620016b1565b5b600082015167ffffffffffffffff81111562001ba65762001ba5620016b6565b5b62001bb48482850162001b39565b91505092915050565b6000819050919050565b600062001be862001be262001bdc84620016bb565b62001bbd565b620016bb565b9050919050565b600062001bfc8262001bc7565b9050919050565b600062001c108262001bef565b9050919050565b62001c228162001c03565b82525050565b600081519050919050565b600082825260208201905092915050565b600062001c518262001c28565b62001c5d818562001c33565b935062001c6f81856020860162001ac2565b62001c7a81620019f7565b840191505092915050565b600060608201905062001c9c600083018662001c17565b818103602083015262001cb0818562001c44565b9050818103604083015262001cc6818462001c44565b9050949350505050565b600060408201905062001ce76000830185620017fc565b62001cf66020830184620018ff565b9392505050565b60008115159050919050565b62001d148162001cfd565b811462001d2057600080fd5b50565b60008151905062001d348162001d09565b92915050565b60006020828403121562001d535762001d52620016b1565b5b600062001d638482850162001d23565b91505092915050565b600060408201905062001d836000830185620018ff565b62001d926020830184620017fc565b9392505050565b60008151905062001daa816200173e565b92915050565b60006020828403121562001dc95762001dc8620016b1565b5b600062001dd98482850162001d99565b91505092915050565b600060608201905062001df96000830186620017fc565b62001e086020830185620017fc565b62001e176040830184620018ff565b949350505050565b60008160601b9050919050565b600062001e398262001e1f565b9050919050565b600062001e4d8262001e2c565b9050919050565b62001e6962001e6382620016db565b62001e40565b82525050565b6000819050919050565b62001e8e62001e888262001734565b62001e6f565b82525050565b600062001ea2828662001e54565b60148201915062001eb4828562001e54565b60148201915062001ec6828462001e79565b602082019150819050949350505050565b7f546f6f206d616e79206c6f616e73206f6e206120636f6c6c61746572616c0000600082015250565b600062001f0f601e8362001c33565b915062001f1c8262001ed7565b602082019050919050565b6000602082019050818103600083015262001f428162001f00565b9050919050565b7f4e487b7100000000000000000000000000000000000000000000000000000000600052603260045260246000fd5b7f4e487b7100000000000000000000000000000000000000000000000000000000600052601160045260246000fd5b600062001fb48262001734565b915062001fc18362001734565b925082820390508181111562001fdc5762001fdb62001f78565b5b92915050565b600062001fef8262001734565b915062001ffc8362001734565b92508282026200200c8162001734565b9150828204841483151762002026576200202562001f78565b5b5092915050565b60006200203a8262001734565b9150620020478362001734565b925082820190508082111562002062576200206162001f78565b5b92915050565b6000620020758262001734565b91507fffffffffffffffffffffffffffffffffffffffffffffffffffffffffffffffff8203620020aa57620020a962001f78565b5b600182019050919050565b600081519050919050565b600081905092915050565b6000620020d882620020b5565b620020e48185620020c0565b9350620020f681856020860162001ac2565b80840191505092915050565b6000620021108284620020cb565b91508190509291505056fe60e06040523480156200001157600080fd5b5060405162002d0138038062002d01833981810160405281019062000037919062000471565b82826040516020016200004b91906200057e565b604051602081830303815290604052826040516020016200006d91906200057e565b60405160208183030381529060405281600390816200008d9190620007e8565b5080600490816200009f9190620007e8565b505050600080620000b6836200014b60201b60201c565b9150915081620000c8576012620000ca565b805b60ff1660a08160ff16815250508273ffffffffffffffffffffffffffffffffffffffff1660808173ffffffffffffffffffffffffffffffffffffffff16815250505050503373ffffffffffffffffffffffffffffffffffffffff1660c08173ffffffffffffffffffffffffffffffffffffffff168152505050505062000998565b6000806000808473ffffffffffffffffffffffffffffffffffffffff1660405160240160405160208183030381529060405263313ce56760e01b6020820180517bffffffffffffffffffffffffffffffffffffffffffffffffffffffff8381831617835250505050604051620001c291906200091c565b600060405180830381855afa9150503d8060008114620001ff576040519150601f19603f3d011682016040523d82523d6000602084013e62000204565b606091505b50915091508180156200021957506020815110155b15620002565760008180602001905181019062000237919062000966565b905060ff8016811162000254576001819450945050505062000260565b505b6000809350935050505b915091565b6000604051905090565b600080fd5b600080fd5b600073ffffffffffffffffffffffffffffffffffffffff82169050919050565b6000620002a68262000279565b9050919050565b6000620002ba8262000299565b9050919050565b620002cc81620002ad565b8114620002d857600080fd5b50565b600081519050620002ec81620002c1565b92915050565b600080fd5b600080fd5b6000601f19601f8301169050919050565b7f4e487b7100000000000000000000000000000000000000000000000000000000600052604160045260246000fd5b6200034782620002fc565b810181811067ffffffffffffffff821117156200036957620003686200030d565b5b80604052505050565b60006200037e62000265565b90506200038c82826200033c565b919050565b600067ffffffffffffffff821115620003af57620003ae6200030d565b5b620003ba82620002fc565b9050602081019050919050565b60005b83811015620003e7578082015181840152602081019050620003ca565b60008484015250505050565b60006200040a620004048462000391565b62000372565b905082815260208101848484011115620004295762000428620002f7565b5b62000436848285620003c7565b509392505050565b600082601f830112620004565762000455620002f2565b5b815162000468848260208601620003f3565b91505092915050565b6000806000606084860312156200048d576200048c6200026f565b5b60006200049d86828701620002db565b935050602084015167ffffffffffffffff811115620004c157620004c062000274565b5b620004cf868287016200043e565b925050604084015167ffffffffffffffff811115620004f357620004f262000274565b5b62000501868287016200043e565b9150509250925092565b7f4c2d000000000000000000000000000000000000000000000000000000000000815250565b600081519050919050565b600081905092915050565b6000620005548262000531565b6200056081856200053c565b935062000572818560208601620003c7565b80840191505092915050565b60006200058b826200050b565b6002820191506200059d828462000547565b915081905092915050565b7f4e487b7100000000000000000000000000000000000000000000000000000000600052602260045260246000fd5b60006002820490506001821680620005f057607f821691505b602082108103620006065762000605620005a8565b5b50919050565b60008190508160005260206000209050919050565b60006020601f8301049050919050565b600082821b905092915050565b600060088302620006707fffffffffffffffffffffffffffffffffffffffffffffffffffffffffffffffff8262000631565b6200067c868362000631565b95508019841693508086168417925050509392505050565b6000819050919050565b6000819050919050565b6000620006c9620006c3620006bd8462000694565b6200069e565b62000694565b9050919050565b6000819050919050565b620006e583620006a8565b620006fd620006f482620006d0565b8484546200063e565b825550505050565b600090565b6200071462000705565b62000721818484620006da565b505050565b5b8181101562000749576200073d6000826200070a565b60018101905062000727565b5050565b601f821115620007985762000762816200060c565b6200076d8462000621565b810160208510156200077d578190505b620007956200078c8562000621565b83018262000726565b50505b505050565b600082821c905092915050565b6000620007bd600019846008026200079d565b1980831691505092915050565b6000620007d88383620007aa565b9150826002028217905092915050565b620007f38262000531565b67ffffffffffffffff8111156200080f576200080e6200030d565b5b6200081b8254620005d7565b620008288282856200074d565b600060209050601f8311600181146200086057600084156200084b578287015190505b620008578582620007ca565b865550620008c7565b601f19841662000870866200060c565b60005b828110156200089a5784890151825560018201915060208501945060208101905062000873565b86831015620008ba5784890151620008b6601f891682620007aa565b8355505b6001600288020188555050505b505050505050565b600081519050919050565b600081905092915050565b6000620008f282620008cf565b620008fe8185620008da565b935062000910818560208601620003c7565b80840191505092915050565b60006200092a8284620008e5565b915081905092915050565b620009408162000694565b81146200094c57600080fd5b50565b600081519050620009608162000935565b92915050565b6000602082840312156200097f576200097e6200026f565b5b60006200098f848285016200094f565b91505092915050565b60805160a05160c051612324620009dd60003960006107ae015260006107dc0152600081816105f90152818161080e01528181610ef20152610fde01526123246000f3fe608060405234801561001057600080fd5b506004361061018e5760003560e01c806370a08231116100de578063ba08765211610097578063ce96cb7711610071578063ce96cb7714610535578063d905777e14610565578063dd62ed3e14610595578063ef8b30f7146105c55761018e565b8063ba087652146104a5578063c63d75b6146104d5578063c6e6f592146105055761018e565b806370a082311461039757806394bf804d146103c757806395d89b41146103f7578063a9059cbb14610415578063b3d7f6b914610445578063b460af94146104755761018e565b806323b872dd1161014b57806338d52e0f1161012557806338d52e0f146102e9578063402d267d146103075780634cdad506146103375780636e553f65146103675761018e565b806323b872dd1461027d5780632dd31000146102ad578063313ce567146102cb5761018e565b806301e1d1141461019357806306fdde03146101b157806307a2d13a146101cf578063095ea7b3146101ff5780630a28a4771461022f57806318160ddd1461025f575b600080fd5b61019b6105f5565b6040516101a89190611a7d565b60405180910390f35b6101b9610696565b6040516101c69190611b28565b60405180910390f35b6101e960048036038101906101e49190611b7b565b610728565b6040516101f69190611a7d565b60405180910390f35b61021960048036038101906102149190611c06565b61073c565b6040516102269190611c61565b60405180910390f35b61024960048036038101906102449190611b7b565b61075f565b6040516102569190611a7d565b60405180910390f35b610267610773565b6040516102749190611a7d565b60405180910390f35b61029760048036038101906102929190611c7c565b61077d565b6040516102a49190611c61565b60405180910390f35b6102b56107ac565b6040516102c29190611cde565b60405180910390f35b6102d36107d0565b6040516102e09190611d15565b60405180910390f35b6102f161080a565b6040516102fe9190611cde565b60405180910390f35b610321600480360381019061031c9190611d30565b610832565b60405161032e9190611a7d565b60405180910390f35b610351600480360381019061034c9190611b7b565b61085c565b60405161035e9190611a7d565b60405180910390f35b610381600480360381019061037c9190611d5d565b610870565b60405161038e9190611a7d565b60405180910390f35b6103b160048036038101906103ac9190611d30565b6108f2565b6040516103be9190611a7d565b60405180910390f35b6103e160048036038101906103dc9190611d5d565b61093a565b6040516103ee9190611a7d565b60405180910390f35b6103ff6109bc565b60405161040c9190611b28565b60405180910390f35b61042f600480360381019061042a9190611c06565b610a4e565b60405161043c9190611c61565b60405180910390f35b61045f600480360381019061045a9190611b7b565b610a71565b60405161046c9190611a7d565b60405180910390f35b61048f600480360381019061048a9190611d9d565b610a85565b60405161049c9190611a7d565b60405180910390f35b6104bf60048036038101906104ba9190611d9d565b610b09565b6040516104cc9190611a7d565b60405180910390f35b6104ef60048036038101906104ea9190611d30565b610b8d565b6040516104fc9190611a7d565b60405180910390f35b61051f600480360381019061051a9190611b7b565b610bb7565b60405161052c9190611a7d565b60405180910390f35b61054f600480360381019061054a9190611d30565b610bcb565b60405161055c9190611a7d565b60405180910390f35b61057f600480360381019061057a9190611d30565b610be7565b60405161058c9190611a7d565b60405180910390f35b6105af60048036038101906105aa9190611df0565b610bf9565b6040516105bc9190611a7d565b60405180910390f35b6105df60048036038101906105da9190611b7b565b610c80565b6040516105ec9190611a7d565b60405180910390f35b60007f000000000000000000000000000000000000000000000000000000000000000073ffffffffffffffffffffffffffffffffffffffff166370a08231306040518263ffffffff1660e01b81526004016106509190611cde565b602060405180830381865afa15801561066d573d6000803e3d6000fd5b505050506040513d601f19601f820116820180604052508101906106919190611e45565b905090565b6060600380546106a590611ea1565b80601f01602080910402602001604051908101604052809291908181526020018280546106d190611ea1565b801561071e5780601f106106f35761010080835404028352916020019161071e565b820191906000526020600020905b81548152906001019060200180831161070157829003601f168201915b5050505050905090565b6000610735826000610c94565b9050919050565b600080610747610ced565b9050610754818585610cf5565b600191505092915050565b600061076c826001610d07565b9050919050565b6000600254905090565b600080610788610ced565b9050610795858285610d60565b6107a0858585610df4565b60019150509392505050565b7f000000000000000000000000000000000000000000000000000000000000000081565b60006107da610ee8565b7f00000000000000000000000000000000000000000000000000000000000000006108059190611f01565b905090565b60007f0000000000000000000000000000000000000000000000000000000000000000905090565b60007fffffffffffffffffffffffffffffffffffffffffffffffffffffffffffffffff9050919050565b6000610869826000610c94565b9050919050565b60008061087c83610832565b9050808411156108c7578284826040517f79012fb20000000000000000000000000000000000000000000000000000000081526004016108be93929190611f36565b60405180910390fd5b60006108d285610c80565b90506108e76108df610ced565b858784610eed565b809250505092915050565b60008060008373ffffffffffffffffffffffffffffffffffffffff1673ffffffffffffffffffffffffffffffffffffffff168152602001908152602001600020549050919050565b60008061094683610b8d565b905080841115610991578284826040517f284ff66700000000000000000000000000000000000000000000000000000000815260040161098893929190611f36565b60405180910390fd5b600061099c85610a71565b90506109b16109a9610ced565b858388610eed565b809250505092915050565b6060600480546109cb90611ea1565b80601f01602080910402602001604051908101604052809291908181526020018280546109f790611ea1565b8015610a445780601f10610a1957610100808354040283529160200191610a44565b820191906000526020600020905b815481529060010190602001808311610a2757829003601f168201915b5050505050905090565b600080610a59610ced565b9050610a66818585610df4565b600191505092915050565b6000610a7e826001610c94565b9050919050565b600080610a9183610bcb565b905080851115610adc578285826040517ffe9cceec000000000000000000000000000000000000000000000000000000008152600401610ad393929190611f36565b60405180910390fd5b6000610ae78661075f565b9050610afd610af4610ced565b86868985610f90565b80925050509392505050565b600080610b1583610be7565b905080851115610b60578285826040517fb94abeec000000000000000000000000000000000000000000000000000000008152600401610b5793929190611f36565b60405180910390fd5b6000610b6b8661085c565b9050610b81610b78610ced565b8686848a610f90565b80925050509392505050565b60007fffffffffffffffffffffffffffffffffffffffffffffffffffffffffffffffff9050919050565b6000610bc4826000610d07565b9050919050565b6000610be0610bd9836108f2565b6000610c94565b9050919050565b6000610bf2826108f2565b9050919050565b6000600160008473ffffffffffffffffffffffffffffffffffffffff1673ffffffffffffffffffffffffffffffffffffffff16815260200190815260200160002060008373ffffffffffffffffffffffffffffffffffffffff1673ffffffffffffffffffffffffffffffffffffffff16815260200190815260200160002054905092915050565b6000610c8d826000610d07565b9050919050565b6000610ce56001610ca36105f5565b610cad9190611f6d565b610cb5610ee8565b600a610cc191906120d4565b610cc9610773565b610cd39190611f6d565b8486611089909392919063ffffffff16565b905092915050565b600033905090565b610d0283838360016110e0565b505050565b6000610d58610d14610ee8565b600a610d2091906120d4565b610d28610773565b610d329190611f6d565b6001610d3c6105f5565b610d469190611f6d565b8486611089909392919063ffffffff16565b905092915050565b6000610d6c8484610bf9565b90507fffffffffffffffffffffffffffffffffffffffffffffffffffffffffffffffff8114610dee5781811015610dde578281836040517ffb8f41b2000000000000000000000000000000000000000000000000000000008152600401610dd593929190611f36565b60405180910390fd5b610ded848484840360006110e0565b5b50505050565b600073ffffffffffffffffffffffffffffffffffffffff168373ffffffffffffffffffffffffffffffffffffffff1603610e665760006040517f96c6fd1e000000000000000000000000000000000000000000000000000000008152600401610e5d9190611cde565b60405180910390fd5b600073ffffffffffffffffffffffffffffffffffffffff168273ffffffffffffffffffffffffffffffffffffffff1603610ed85760006040517fec442f05000000000000000000000000000000000000000000000000000000008152600401610ecf9190611cde565b60405180910390fd5b610ee38383836112b7565b505050565b600090565b610f197f00000000000000000000000000000000000000000000000000000000000000008530856114dc565b610f23838261155e565b8273ffffffffffffffffffffffffffffffffffffffff168473ffffffffffffffffffffffffffffffffffffffff167fdcbc1c05240f31ff3ad067ef1ee35ce4997762752e3a095284754544f4c709d78484604051610f8292919061211f565b60405180910390a350505050565b8273ffffffffffffffffffffffffffffffffffffffff168573ffffffffffffffffffffffffffffffffffffffff1614610fcf57610fce838683610d60565b5b610fd983826115e0565b6110047f00000000000000000000000000000000000000000000000000000000000000008584611662565b8273ffffffffffffffffffffffffffffffffffffffff168473ffffffffffffffffffffffffffffffffffffffff168673ffffffffffffffffffffffffffffffffffffffff167ffbde797d201c681b91056529119e0b02407c7bb96a4a2c75c01fc9667232c8db858560405161107a92919061211f565b60405180910390a45050505050565b6000806110978686866116e1565b90506110a2836117e8565b80156110bf5750600084806110ba576110b9612148565b5b868809115b156110d4576001816110d19190611f6d565b90505b80915050949350505050565b600073ffffffffffffffffffffffffffffffffffffffff168473ffffffffffffffffffffffffffffffffffffffff16036111525760006040517fe602df050000000000000000000000000000000000000000000000000000000081526004016111499190611cde565b60405180910390fd5b600073ffffffffffffffffffffffffffffffffffffffff168373ffffffffffffffffffffffffffffffffffffffff16036111c45760006040517f94280d620000000000000000000000000000000000000000000000000000000081526004016111bb9190611cde565b60405180910390fd5b81600160008673ffffffffffffffffffffffffffffffffffffffff1673ffffffffffffffffffffffffffffffffffffffff16815260200190815260200160002060008573ffffffffffffffffffffffffffffffffffffffff1673ffffffffffffffffffffffffffffffffffffffff1681526020019081526020016000208190555080156112b1578273ffffffffffffffffffffffffffffffffffffffff168473ffffffffffffffffffffffffffffffffffffffff167f8c5be1e5ebec7d5bd14f71427d1e84f3dd0314c0f7b2291e5b200ac8c7c3b925846040516112a89190611a7d565b60405180910390a35b50505050565b600073ffffffffffffffffffffffffffffffffffffffff168373ffffffffffffffffffffffffffffffffffffffff16036113095780600260008282546112fd9190611f6d565b925050819055506113dc565b60008060008573ffffffffffffffffffffffffffffffffffffffff1673ffffffffffffffffffffffffffffffffffffffff16815260200190815260200160002054905081811015611395578381836040517fe450d38c00000000000000000000000000000000000000000000000000000000815260040161138c93929190611f36565b60405180910390fd5b8181036000808673ffffffffffffffffffffffffffffffffffffffff1673ffffffffffffffffffffffffffffffffffffffff16815260200190815260200160002081905550505b600073ffffffffffffffffffffffffffffffffffffffff168273ffffffffffffffffffffffffffffffffffffffff16036114255780600260008282540392505081905550611472565b806000808473ffffffffffffffffffffffffffffffffffffffff1673ffffffffffffffffffffffffffffffffffffffff168152602001908152602001600020600082825401925050819055505b8173ffffffffffffffffffffffffffffffffffffffff168373ffffffffffffffffffffffffffffffffffffffff167fddf252ad1be2c89b69c2b068fc378daa952ba7f163c4a11628f55a4df523b3ef836040516114cf9190611a7d565b60405180910390a3505050565b611558848573ffffffffffffffffffffffffffffffffffffffff166323b872dd86868660405160240161151193929190612177565b604051602081830303815290604052915060e01b6020820180517bffffffffffffffffffffffffffffffffffffffffffffffffffffffff8381831617835250505050611816565b50505050565b600073ffffffffffffffffffffffffffffffffffffffff168273ffffffffffffffffffffffffffffffffffffffff16036115d05760006040517fec442f050000000000000000000000000000000000000000000000000000000081526004016115c79190611cde565b60405180910390fd5b6115dc600083836112b7565b5050565b600073ffffffffffffffffffffffffffffffffffffffff168273ffffffffffffffffffffffffffffffffffffffff16036116525760006040517f96c6fd1e0000000000000000000000000000000000000000000000000000000081526004016116499190611cde565b60405180910390fd5b61165e826000836112b7565b5050565b6116dc838473ffffffffffffffffffffffffffffffffffffffff1663a9059cbb85856040516024016116959291906121ae565b604051602081830303815290604052915060e01b6020820180517bffffffffffffffffffffffffffffffffffffffffffffffffffffffff8381831617835250505050611816565b505050565b600080838502905060008019858709828110838203039150506000810361171c5783828161171257611711612148565b5b04925050506117e1565b808411611755576040517f227bc15300000000000000000000000000000000000000000000000000000000815260040160405180910390fd5b600084868809905082811182039150808303925060008560000386169050808604955080840493506001818260000304019050808302841793506000600287600302189050808702600203810290508087026002038102905080870260020381029050808702600203810290508087026002038102905080870260020381029050808502955050505050505b9392505050565b600060016002836003811115611801576118006121d7565b5b61180b9190612206565b60ff16149050919050565b6000611841828473ffffffffffffffffffffffffffffffffffffffff166118ad90919063ffffffff16565b905060008151141580156118665750808060200190518101906118649190612263565b155b156118a857826040517f5274afe700000000000000000000000000000000000000000000000000000000815260040161189f9190611cde565b60405180910390fd5b505050565b60606118bb838360006118c3565b905092915050565b60608147101561190a57306040517fcd7860590000000000000000000000000000000000000000000000000000000081526004016119019190611cde565b60405180910390fd5b6000808573ffffffffffffffffffffffffffffffffffffffff16848660405161193391906122d7565b60006040518083038185875af1925050503d8060008114611970576040519150601f19603f3d011682016040523d82523d6000602084013e611975565b606091505b5091509150611985868383611990565b925050509392505050565b6060826119a5576119a082611a1f565b611a17565b600082511480156119cd575060008473ffffffffffffffffffffffffffffffffffffffff163b145b15611a0f57836040517f9996b315000000000000000000000000000000000000000000000000000000008152600401611a069190611cde565b60405180910390fd5b819050611a18565b5b9392505050565b600081511115611a325780518082602001fd5b6040517f1425ea4200000000000000000000000000000000000000000000000000000000815260040160405180910390fd5b6000819050919050565b611a7781611a64565b82525050565b6000602082019050611a926000830184611a6e565b92915050565b600081519050919050565b600082825260208201905092915050565b60005b83811015611ad2578082015181840152602081019050611ab7565b60008484015250505050565b6000601f19601f8301169050919050565b6000611afa82611a98565b611b048185611aa3565b9350611b14818560208601611ab4565b611b1d81611ade565b840191505092915050565b60006020820190508181036000830152611b428184611aef565b905092915050565b600080fd5b611b5881611a64565b8114611b6357600080fd5b50565b600081359050611b7581611b4f565b92915050565b600060208284031215611b9157611b90611b4a565b5b6000611b9f84828501611b66565b91505092915050565b600073ffffffffffffffffffffffffffffffffffffffff82169050919050565b6000611bd382611ba8565b9050919050565b611be381611bc8565b8114611bee57600080fd5b50565b600081359050611c0081611bda565b92915050565b60008060408385031215611c1d57611c1c611b4a565b5b6000611c2b85828601611bf1565b9250506020611c3c85828601611b66565b9150509250929050565b60008115159050919050565b611c5b81611c46565b82525050565b6000602082019050611c766000830184611c52565b92915050565b600080600060608486031215611c9557611c94611b4a565b5b6000611ca386828701611bf1565b9350506020611cb486828701611bf1565b9250506040611cc586828701611b66565b9150509250925092565b611cd881611bc8565b82525050565b6000602082019050611cf36000830184611ccf565b92915050565b600060ff82169050919050565b611d0f81611cf9565b82525050565b6000602082019050611d2a6000830184611d06565b92915050565b600060208284031215611d4657611d45611b4a565b5b6000611d5484828501611bf1565b91505092915050565b60008060408385031215611d7457611d73611b4a565b5b6000611d8285828601611b66565b9250506020611d9385828601611bf1565b9150509250929050565b600080600060608486031215611db657611db5611b4a565b5b6000611dc486828701611b66565b9350506020611dd586828701611bf1565b9250506040611de686828701611bf1565b9150509250925092565b60008060408385031215611e0757611e06611b4a565b5b6000611e1585828601611bf1565b9250506020611e2685828601611bf1565b9150509250929050565b600081519050611e3f81611b4f565b92915050565b600060208284031215611e5b57611e5a611b4a565b5b6000611e6984828501611e30565b91505092915050565b7f4e487b7100000000000000000000000000000000000000000000000000000000600052602260045260246000fd5b60006002820490506001821680611eb957607f821691505b602082108103611ecc57611ecb611e72565b5b50919050565b7f4e487b7100000000000000000000000000000000000000000000000000000000600052601160045260246000fd5b6000611f0c82611cf9565b9150611f1783611cf9565b9250828201905060ff811115611f3057611f2f611ed2565b5b92915050565b6000606082019050611f4b6000830186611ccf565b611f586020830185611a6e565b611f656040830184611a6e565b949350505050565b6000611f7882611a64565b9150611f8383611a64565b9250828201905080821115611f9b57611f9a611ed2565b5b92915050565b60008160011c9050919050565b6000808291508390505b6001851115611ff857808604811115611fd457611fd3611ed2565b5b6001851615611fe35780820291505b8081029050611ff185611fa1565b9450611fb8565b94509492505050565b60008261201157600190506120cd565b8161201f57600090506120cd565b8160018114612035576002811461203f5761206e565b60019150506120cd565b60ff84111561205157612050611ed2565b5b8360020a91508482111561206857612067611ed2565b5b506120cd565b5060208310610133831016604e8410600b84101617156120a35782820a90508381111561209e5761209d611ed2565b5b6120cd565b6120b08484846001611fae565b925090508184048111156120c7576120c6611ed2565b5b81810290505b9392505050565b60006120df82611a64565b91506120ea83611cf9565b92506121177fffffffffffffffffffffffffffffffffffffffffffffffffffffffffffffffff8484612001565b905092915050565b60006040820190506121346000830185611a6e565b6121416020830184611a6e565b9392505050565b7f4e487b7100000000000000000000000000000000000000000000000000000000600052601260045260246000fd5b600060608201905061218c6000830186611ccf565b6121996020830185611ccf565b6121a66040830184611a6e565b949350505050565b60006040820190506121c36000830185611ccf565b6121d06020830184611a6e565b9392505050565b7f4e487b7100000000000000000000000000000000000000000000000000000000600052602160045260246000fd5b600061221182611cf9565b915061221c83611cf9565b92508261222c5761222b612148565b5b828206905092915050565b61224081611c46565b811461224b57600080fd5b50565b60008151905061225d81612237565b92915050565b60006020828403121561227957612278611b4a565b5b60006122878482850161224e565b91505092915050565b600081519050919050565b600081905092915050565b60006122b182612290565b6122bb818561229b565b93506122cb818560208601611ab4565b80840191505092915050565b60006122e382846122a6565b91508190509291505056fea2646970667358221220dd93c6b3167bf15bd595c8711ef895e6ae24806a859f8a3401d8a51a54adf6a764736f6c63430008140033a264697066735822122014230391dbc352d5b0caa86bcd8c56195ea53d84c6f2d983b425d2dd07a7f68d64736f6c63430008140033",
  "linkReferences": {},
  "deployedLinkReferences": {}
}