{
  "_format": "hh-sol-artifact-1",
  "contractName": "LRouter",
  "sourceName": "contracts/periphery/LRouter.sol",
  "abi": [
    {
      "inputs": [
        {
          "internalType": "address",
          "name": "factory",
          "type": "address"
        },
        {
          "internalType": "address",
          "name": "weth",
          "type": "address"
        }
      ],
      "stateMutability": "nonpayable",
      "type": "constructor"
    },
    {
      "inputs": [
        {
          "internalType": "address",
          "name": "target",
          "type": "address"
        }
      ],
      "name": "AddressEmptyCode",
      "type": "error"
    },
    {
      "inputs": [
        {
          "internalType": "address",
          "name": "account",
          "type": "address"
        }
      ],
      "name": "AddressInsufficientBalance",
      "type": "error"
    },
    {
      "inputs": [],
      "name": "Expired",
      "type": "error"
    },
    {
      "inputs": [],
      "name": "FailedInnerCall",
      "type": "error"
    },
    {
      "inputs": [],
      "name": "ReentrancyGuardReentrantCall",
      "type": "error"
    },
    {
      "inputs": [
        {
          "internalType": "address",
          "name": "token",
          "type": "address"
        }
      ],
      "name": "SafeERC20FailedOperation",
      "type": "error"
    },
    {
      "inputs": [],
      "name": "FACTORY",
      "outputs": [
        {
          "internalType": "address",
          "name": "",
          "type": "address"
        }
      ],
      "stateMutability": "view",
      "type": "function"
    },
    {
      "inputs": [
        {
          "components": [
            {
              "internalType": "address",
              "name": "tokenA",
              "type": "address"
            },
            {
              "internalType": "address",
              "name": "tokenB",
              "type": "address"
            },
            {
              "internalType": "uint256",
              "name": "amountADesired",
              "type": "uint256"
            },
            {
              "internalType": "uint256",
              "name": "amountBDesired",
              "type": "uint256"
            },
            {
              "internalType": "uint256",
              "name": "amountAMin",
              "type": "uint256"
            },
            {
              "internalType": "uint256",
              "name": "amountBMin",
              "type": "uint256"
            },
            {
              "internalType": "address",
              "name": "to",
              "type": "address"
            },
            {
              "internalType": "uint256",
              "name": "deadline",
              "type": "uint256"
            }
          ],
          "internalType": "struct LRouter.AddLiquidity",
          "name": "params",
          "type": "tuple"
        }
      ],
      "name": "addLiquidity",
      "outputs": [
        {
          "internalType": "uint256",
          "name": "amountA",
          "type": "uint256"
        },
        {
          "internalType": "uint256",
          "name": "amountB",
          "type": "uint256"
        },
        {
          "internalType": "uint256",
          "name": "liquidity",
          "type": "uint256"
        },
        {
          "internalType": "address",
          "name": "pair",
          "type": "address"
        }
      ],
      "stateMutability": "nonpayable",
      "type": "function"
    },
    {
      "inputs": [
        {
          "internalType": "address",
          "name": "owner",
          "type": "address"
        }
      ],
      "name": "getAmmPools",
      "outputs": [
        {
          "components": [
            {
              "internalType": "address",
              "name": "pool",
              "type": "address"
            },
            {
              "internalType": "address",
              "name": "token0",
              "type": "address"
            },
            {
              "internalType": "address",
              "name": "token1",
              "type": "address"
            },
            {
              "internalType": "uint256",
              "name": "reserve0",
              "type": "uint256"
            },
            {
              "internalType": "uint256",
              "name": "reserve1",
              "type": "uint256"
            }
          ],
          "internalType": "struct LRouter.Pool[]",
          "name": "allPools",
          "type": "tuple[]"
        }
      ],
      "stateMutability": "nonpayable",
      "type": "function"
    },
    {
      "inputs": [
        {
          "internalType": "uint256",
          "name": "",
          "type": "uint256"
        }
      ],
      "name": "pools",
      "outputs": [
        {
          "internalType": "address",
          "name": "",
          "type": "address"
        }
      ],
      "stateMutability": "view",
      "type": "function"
    },
    {
      "inputs": [
        {
          "internalType": "address",
          "name": "tokenA",
          "type": "address"
        },
        {
          "internalType": "address",
          "name": "tokenB",
          "type": "address"
        },
        {
          "internalType": "uint256",
          "name": "liquidity",
          "type": "uint256"
        },
        {
          "internalType": "uint256",
          "name": "amountAMin",
          "type": "uint256"
        },
        {
          "internalType": "uint256",
          "name": "amountBMin",
          "type": "uint256"
        },
        {
          "internalType": "address",
          "name": "to",
          "type": "address"
        },
        {
          "internalType": "uint256",
          "name": "deadline",
          "type": "uint256"
        }
      ],
      "name": "removeLiquidity",
      "outputs": [
        {
          "internalType": "uint256",
          "name": "amountA",
          "type": "uint256"
        },
        {
          "internalType": "uint256",
          "name": "amountB",
          "type": "uint256"
        }
      ],
      "stateMutability": "nonpayable",
      "type": "function"
    },
    {
      "inputs": [
        {
          "internalType": "uint256",
          "name": "amountIn",
          "type": "uint256"
        },
        {
          "internalType": "uint256",
          "name": "amountOutMin",
          "type": "uint256"
        },
        {
          "internalType": "address[]",
          "name": "path",
          "type": "address[]"
        },
        {
          "internalType": "address",
          "name": "to",
          "type": "address"
        },
        {
          "internalType": "uint256",
          "name": "deadline",
          "type": "uint256"
        }
      ],
      "name": "swapExactTokenForToken",
      "outputs": [
        {
          "internalType": "uint256[]",
          "name": "amounts",
          "type": "uint256[]"
        }
      ],
      "stateMutability": "nonpayable",
      "type": "function"
    },
    {
      "stateMutability": "payable",
      "type": "receive"
    }
  ],
  "bytecode": "0x60a060405234801561001057600080fd5b506040516115f63803806115f683398101604081905261002f91610062565b5060016000556001600160a01b0316608052610095565b80516001600160a01b038116811461005d57600080fd5b919050565b6000806040838503121561007557600080fd5b61007e83610046565b915061008c60208401610046565b90509250929050565b60805161152b6100cb6000396000818160c50152818161034601528181610582015281816109c80152610a93015261152b6000f3fe6080604052600436106100595760003560e01c806323790216146100655780632dd31000146100b35780636ca412e1146100ff578063ac4afa381461012c578063baa2abde1461014c578063f96bd4641461018157600080fd5b3661006057005b600080fd5b34801561007157600080fd5b5061008561008036600461111e565b6101ae565b604080519485526020850193909352918301526001600160a01b031660608201526080015b60405180910390f35b3480156100bf57600080fd5b506100e77f000000000000000000000000000000000000000000000000000000000000000081565b6040516001600160a01b0390911681526020016100aa565b34801561010b57600080fd5b5061011f61011a36600461115c565b6102b7565b6040516100aa91906111fe565b34801561013857600080fd5b506100e7610147366004611242565b610509565b34801561015857600080fd5b5061016c61016736600461125b565b610533565b604080519283526020830191909152016100aa565b34801561018d57600080fd5b506101a161019c3660046112cd565b6107bd565b6040516100aa91906112ea565b6000806000808460e00135804211156101da57604051630407b05b60e31b815260040160405180910390fd5b6101e3866109b8565b9196509450915061020e3383876101fd60208b018b6112cd565b6001600160a01b0316929190610ce5565b6102243383866101fd60408b0160208c016112cd565b6001600160a01b038216636a62784261024360e0890160c08a016112cd565b6040516001600160e01b031960e084901b1681526001600160a01b0390911660048201526024016020604051808303816000875af1158015610289573d6000803e3d6000fd5b505050506040513d601f19601f820116820180604052508101906102ad9190611366565b9250509193509193565b606081804211156102db57604051630407b05b60e31b815260040160405180910390fd5b6000868660018181106102f0576102f061137f565b905060200201602081019061030591906112cd565b6001600160a01b0316878760008181106103215761032161137f565b905060200201602081019061033691906112cd565b6001600160a01b031611905060007f00000000000000000000000000000000000000000000000000000000000000006001600160a01b031663531aa03e898960008181106103865761038661137f565b905060200201602081019061039b91906112cd565b8a8a60018181106103ae576103ae61137f565b90506020020160208101906103c391906112cd565b6040516001600160e01b031960e085901b1681526001600160a01b03928316600482015291166024820152604401602060405180830381865afa15801561040e573d6000803e3d6000fd5b505050506040513d601f19601f820116820180604052508101906104329190611395565b905061046233828c8b8b600081811061044d5761044d61137f565b90506020020160208101906101fd91906112cd565b886000808461047357826000610477565b6000835b6040516336cd320560e11b815260048101839052602481018290526001600160a01b038c8116604483015292945090925090851690636d9a640a9060640160408051808303816000875af11580156104d3573d6000803e3d6000fd5b505050506040513d601f19601f820116820180604052508101906104f791906113b2565b50505050505050509695505050505050565b6001818154811061051957600080fd5b6000918252602090912001546001600160a01b0316905081565b600080828042111561055857604051630407b05b60e31b815260040160405180910390fd5b60405163298d501f60e11b81526001600160a01b038b811660048301528a811660248301526000917f00000000000000000000000000000000000000000000000000000000000000009091169063531aa03e90604401602060405180830381865afa1580156105cb573d6000803e3d6000fd5b505050506040513d601f19601f820116820180604052508101906105ef9190611395565b6040516323b872dd60e01b81523360048201526001600160a01b03821660248201819052604482018c90529192506323b872dd906064016020604051808303816000875af1158015610645573d6000803e3d6000fd5b505050506040513d601f19601f8201168201806040525081019061066991906113d6565b5060405163226bf2d160e21b81526001600160a01b03878116600483015260009182918416906389afcb449060240160408051808303816000875af11580156106b6573d6000803e3d6000fd5b505050506040513d601f19601f820116820180604052508101906106da91906113b2565b9150915060006106ea8e8e610d45565b509050806001600160a01b03168e6001600160a01b03161461070d578183610710565b82825b90975095508a8710156107635760405162461bcd60e51b815260206004820152601660248201527508125394d551919250d251539517d057d05353d5539560521b60448201526064015b60405180910390fd5b898610156107ac5760405162461bcd60e51b815260206004820152601660248201527508125394d551919250d251539517d097d05353d5539560521b604482015260640161075a565b505050505097509795505050505050565b6001546060908067ffffffffffffffff8111156107dc576107dc6113f8565b60405190808252806020026020018201604052801561083557816020015b6040805160a0810182526000808252602080830182905292820181905260608201819052608082015282526000199092019101816107fa5790505b50915060005b818110156109b1576000600182815481106108585761085861137f565b60009182526020822001546040805163154d950160e31b815281516001600160a01b0390931694508392859263aa6ca80892600480820193918290030181865afa1580156108aa573d6000803e3d6000fd5b505050506040513d601f19601f820116820180604052508101906108ce919061140e565b91509150600080846001600160a01b0316630902f1ac6040518163ffffffff1660e01b81526004016040805180830381865afa158015610912573d6000803e3d6000fd5b505050506040513d601f19601f8201168201806040525081019061093691906113b2565b915091506040518060a00160405280866001600160a01b03168152602001856001600160a01b03168152602001846001600160a01b031681526020018381526020018281525088878151811061098e5761098e61137f565b6020026020010181905250505050505080806109a99061145e565b91505061083b565b5050919050565b6000808080806001600160a01b037f00000000000000000000000000000000000000000000000000000000000000001663531aa03e6109fa60208901896112cd565b610a0a60408a0160208b016112cd565b6040516001600160e01b031960e085901b1681526001600160a01b03928316600482015291166024820152604401602060405180830381865afa158015610a55573d6000803e3d6000fd5b505050506040513d601f19601f82011682018060405250810190610a799190611395565b92506001600160a01b038316610b93576001600160a01b037f00000000000000000000000000000000000000000000000000000000000000001663c9c65396610ac560208901896112cd565b610ad560408a0160208b016112cd565b6040516001600160e01b031960e085901b1681526001600160a01b039283166004820152911660248201526044016020604051808303816000875af1158015610b22573d6000803e3d6000fd5b505050506040513d601f19601f82011682018060405250810190610b469190611395565b6001805480820182556000919091527fb10e2d527612073b26eecdfd717e6a320cf44b4afac2b0732d9fcbe2b7fa0cf60180546001600160a01b0319166001600160a01b03831617905592505b610bb983610ba460208901896112cd565b610bb460408a0160208b016112cd565b610e13565b909250905081158015610bca575080155b15610be2576040860135945060608601359350610cdc565b6000610bf387604001358484610ebf565b905086606001358111610c5c578660a00135811015610c4d5760405162461bcd60e51b815260206004820152601660248201527508125394d551919250d251539517d097d05353d5539560521b604482015260640161075a565b60408701359550935083610cda565b6000610c6d88606001358486610ebf565b90508760400135811115610c8357610c83611477565b8760800135811015610cd05760405162461bcd60e51b815260206004820152601660248201527508125394d551919250d251539517d057d05353d5539560521b604482015260640161075a565b9550606087013594505b505b50509193909250565b604080516001600160a01b0385811660248301528416604482015260648082018490528251808303909101815260849091019091526020810180516001600160e01b03166323b872dd60e01b179052610d3f908590610f78565b50505050565b600080826001600160a01b0316846001600160a01b031603610d9f5760405162461bcd60e51b81526020600482015260136024820152724944454e544943414c5f41444452455353455360681b604482015260640161075a565b826001600160a01b0316846001600160a01b031610610dbf578284610dc2565b83835b90925090506001600160a01b038216610e0c5760405162461bcd60e51b815260206004820152600c60248201526b5a45524f5f4144445245535360a01b604482015260640161075a565b9250929050565b6000806000610e228585610d45565b509050600080876001600160a01b0316630902f1ac6040518163ffffffff1660e01b81526004016040805180830381865afa158015610e65573d6000803e3d6000fd5b505050506040513d601f19601f82011682018060405250810190610e8991906113b2565b91509150826001600160a01b0316876001600160a01b031614610ead578082610eb0565b81815b90999098509650505050505050565b6000808411610f065760405162461bcd60e51b8152602060048201526013602482015272125394d551919250d251539517d05353d55395606a1b604482015260640161075a565b600083118015610f165750600082115b610f5b5760405162461bcd60e51b8152602060048201526016602482015275494e53554646494349454e545f4c495155494449545960501b604482015260640161075a565b82610f66838661148d565b610f7091906114a4565b949350505050565b6000610f8d6001600160a01b03841683610fe0565b90508051600014158015610fb2575080806020019051810190610fb091906113d6565b155b15610fdb57604051635274afe760e01b81526001600160a01b038416600482015260240161075a565b505050565b6060610fee83836000610ff7565b90505b92915050565b60608147101561101c5760405163cd78605960e01b815230600482015260240161075a565b600080856001600160a01b0316848660405161103891906114c6565b60006040518083038185875af1925050503d8060008114611075576040519150601f19603f3d011682016040523d82523d6000602084013e61107a565b606091505b509150915061108a868383611096565b925050505b9392505050565b6060826110ab576110a6826110f2565b61108f565b81511580156110c257506001600160a01b0384163b155b156110eb57604051639996b31560e01b81526001600160a01b038516600482015260240161075a565b508061108f565b8051156111025780518082602001fd5b604051630a12f52160e11b815260040160405180910390fd5b50565b6000610100828403121561113157600080fd5b50919050565b6001600160a01b038116811461111b57600080fd5b803561115781611137565b919050565b60008060008060008060a0878903121561117557600080fd5b8635955060208701359450604087013567ffffffffffffffff8082111561119b57600080fd5b818901915089601f8301126111af57600080fd5b8135818111156111be57600080fd5b8a60208260051b85010111156111d357600080fd5b6020830196508095505050506111eb6060880161114c565b9150608087013590509295509295509295565b6020808252825182820181905260009190848201906040850190845b818110156112365783518352928401929184019160010161121a565b50909695505050505050565b60006020828403121561125457600080fd5b5035919050565b600080600080600080600060e0888a03121561127657600080fd5b873561128181611137565b9650602088013561129181611137565b955060408801359450606088013593506080880135925060a08801356112b681611137565b8092505060c0880135905092959891949750929550565b6000602082840312156112df57600080fd5b813561108f81611137565b602080825282518282018190526000919060409081850190868401855b8281101561135957815180516001600160a01b03908116865287820151811688870152868201511686860152606080820151908601526080908101519085015260a09093019290850190600101611307565b5091979650505050505050565b60006020828403121561137857600080fd5b5051919050565b634e487b7160e01b600052603260045260246000fd5b6000602082840312156113a757600080fd5b815161108f81611137565b600080604083850312156113c557600080fd5b505080516020909101519092909150565b6000602082840312156113e857600080fd5b8151801515811461108f57600080fd5b634e487b7160e01b600052604160045260246000fd5b6000806040838503121561142157600080fd5b825161142c81611137565b602084015190925061143d81611137565b809150509250929050565b634e487b7160e01b600052601160045260246000fd5b60006001820161147057611470611448565b5060010190565b634e487b7160e01b600052600160045260246000fd5b8082028115828204841417610ff157610ff1611448565b6000826114c157634e487b7160e01b600052601260045260246000fd5b500490565b6000825160005b818110156114e757602081860181015185830152016114cd565b50600092019182525091905056fea2646970667358221220c02de11f4283d9c1fc292cb11f2c2589ec0771875cfe502b2fe8d4e8e9d01db264736f6c63430008140033",
  "linkReferences": {},
  "deployedLinkReferences": {}
}