{
  "_format": "hh-sol-artifact-1",
  "contractName": "LSwapPair",
  "sourceName": "contracts/LSwapPair.sol",
  "abi": [
    {
      "inputs": [
        {
          "internalType": "address",
          "name": "target",
          "type": "address"
        }
      ],
      "name": "AddressEmptyCode",
      "type": "error"
    },
    {
      "inputs": [
        {
          "internalType": "address",
          "name": "account",
          "type": "address"
        }
      ],
      "name": "AddressInsufficientBalance",
      "type": "error"
    },
    {
      "inputs": [],
      "name": "FailedInnerCall",
      "type": "error"
    },
    {
      "inputs": [],
      "name": "Forbidden",
      "type": "error"
    },
    {
      "inputs": [],
      "name": "InsufficientAmountOut",
      "type": "error"
    },
    {
      "inputs": [],
      "name": "InsufficientLiquidityBurned",
      "type": "error"
    },
    {
      "inputs": [],
      "name": "InsufficientOutputAmount",
      "type": "error"
    },
    {
      "inputs": [],
      "name": "KInvariant",
      "type": "error"
    },
    {
      "inputs": [],
      "name": "LoanAmountGreaterThanThreshold",
      "type": "error"
    },
    {
      "inputs": [],
      "name": "MultipleOutputAmounts",
      "type": "error"
    },
    {
      "inputs": [],
      "name": "OnlyFactory",
      "type": "error"
    },
    {
      "inputs": [],
      "name": "ReentrancyGuardReentrantCall",
      "type": "error"
    },
    {
      "inputs": [
        {
          "internalType": "address",
          "name": "token",
          "type": "address"
        }
      ],
      "name": "SafeERC20FailedOperation",
      "type": "error"
    },
    {
      "anonymous": false,
      "inputs": [
        {
          "indexed": true,
          "internalType": "address",
          "name": "owner",
          "type": "address"
        },
        {
          "indexed": true,
          "internalType": "address",
          "name": "spender",
          "type": "address"
        },
        {
          "indexed": false,
          "internalType": "uint256",
          "name": "value",
          "type": "uint256"
        }
      ],
      "name": "Approval",
      "type": "event"
    },
    {
      "anonymous": false,
      "inputs": [
        {
          "indexed": true,
          "internalType": "address",
          "name": "tokenToBorrow",
          "type": "address"
        },
        {
          "indexed": true,
          "internalType": "address",
          "name": "borrower",
          "type": "address"
        },
        {
          "indexed": false,
          "internalType": "uint256",
          "name": "amount",
          "type": "uint256"
        }
      ],
      "name": "Borrow",
      "type": "event"
    },
    {
      "anonymous": false,
      "inputs": [
        {
          "indexed": false,
          "internalType": "address",
          "name": "",
          "type": "address"
        },
        {
          "indexed": false,
          "internalType": "uint256",
          "name": "",
          "type": "uint256"
        },
        {
          "indexed": false,
          "internalType": "uint256",
          "name": "",
          "type": "uint256"
        },
        {
          "indexed": false,
          "internalType": "address",
          "name": "",
          "type": "address"
        }
      ],
      "name": "Burn",
      "type": "event"
    },
    {
      "anonymous": false,
      "inputs": [
        {
          "indexed": false,
          "internalType": "address",
          "name": "",
          "type": "address"
        },
        {
          "indexed": false,
          "internalType": "uint256",
          "name": "",
          "type": "uint256"
        },
        {
          "indexed": false,
          "internalType": "uint256",
          "name": "",
          "type": "uint256"
        }
      ],
      "name": "Mint",
      "type": "event"
    },
    {
      "anonymous": false,
      "inputs": [
        {
          "indexed": true,
          "internalType": "address",
          "name": "tokenToRepay",
          "type": "address"
        },
        {
          "indexed": true,
          "internalType": "address",
          "name": "borrower",
          "type": "address"
        },
        {
          "indexed": false,
          "internalType": "uint256",
          "name": "debt",
          "type": "uint256"
        },
        {
          "indexed": false,
          "internalType": "uint256",
          "name": "interest",
          "type": "uint256"
        }
      ],
      "name": "Repay",
      "type": "event"
    },
    {
      "anonymous": false,
      "inputs": [
        {
          "indexed": false,
          "internalType": "address",
          "name": "",
          "type": "address"
        },
        {
          "indexed": false,
          "internalType": "uint256",
          "name": "",
          "type": "uint256"
        },
        {
          "indexed": false,
          "internalType": "uint256",
          "name": "",
          "type": "uint256"
        },
        {
          "indexed": false,
          "internalType": "uint256",
          "name": "",
          "type": "uint256"
        },
        {
          "indexed": false,
          "internalType": "uint256",
          "name": "",
          "type": "uint256"
        },
        {
          "indexed": false,
          "internalType": "address",
          "name": "",
          "type": "address"
        }
      ],
      "name": "Swap",
      "type": "event"
    },
    {
      "anonymous": false,
      "inputs": [
        {
          "indexed": true,
          "internalType": "address",
          "name": "from",
          "type": "address"
        },
        {
          "indexed": true,
          "internalType": "address",
          "name": "to",
          "type": "address"
        },
        {
          "indexed": false,
          "internalType": "uint256",
          "name": "value",
          "type": "uint256"
        }
      ],
      "name": "Transfer",
      "type": "event"
    },
    {
      "inputs": [],
      "name": "FACTORY",
      "outputs": [
        {
          "internalType": "address",
          "name": "",
          "type": "address"
        }
      ],
      "stateMutability": "view",
      "type": "function"
    },
    {
      "inputs": [],
      "name": "MINIMUM_LIQUIDITY",
      "outputs": [
        {
          "internalType": "uint256",
          "name": "",
          "type": "uint256"
        }
      ],
      "stateMutability": "view",
      "type": "function"
    },
    {
      "inputs": [
        {
          "internalType": "address",
          "name": "_owner",
          "type": "address"
        },
        {
          "internalType": "address",
          "name": "_spender",
          "type": "address"
        }
      ],
      "name": "allowance",
      "outputs": [
        {
          "internalType": "uint256",
          "name": "remaining",
          "type": "uint256"
        }
      ],
      "stateMutability": "view",
      "type": "function"
    },
    {
      "inputs": [
        {
          "internalType": "address",
          "name": "_spender",
          "type": "address"
        },
        {
          "internalType": "uint256",
          "name": "_value",
          "type": "uint256"
        }
      ],
      "name": "approve",
      "outputs": [
        {
          "internalType": "bool",
          "name": "success",
          "type": "bool"
        }
      ],
      "stateMutability": "nonpayable",
      "type": "function"
    },
    {
      "inputs": [
        {
          "internalType": "address",
          "name": "_owner",
          "type": "address"
        }
      ],
      "name": "balanceOf",
      "outputs": [
        {
          "internalType": "uint256",
          "name": "balance",
          "type": "uint256"
        }
      ],
      "stateMutability": "view",
      "type": "function"
    },
    {
      "inputs": [
        {
          "internalType": "address",
          "name": "tokenToBorrow",
          "type": "address"
        },
        {
          "internalType": "address",
          "name": "borrower",
          "type": "address"
        },
        {
          "internalType": "uint256",
          "name": "amount",
          "type": "uint256"
        }
      ],
      "name": "borrow",
      "outputs": [],
      "stateMutability": "nonpayable",
      "type": "function"
    },
    {
      "inputs": [
        {
          "internalType": "address",
          "name": "to",
          "type": "address"
        }
      ],
      "name": "burn",
      "outputs": [
        {
          "internalType": "uint256",
          "name": "amountToken0",
          "type": "uint256"
        },
        {
          "internalType": "uint256",
          "name": "amountToken1",
          "type": "uint256"
        }
      ],
      "stateMutability": "nonpayable",
      "type": "function"
    },
    {
      "inputs": [],
      "name": "decimals",
      "outputs": [
        {
          "internalType": "uint8",
          "name": "",
          "type": "uint8"
        }
      ],
      "stateMutability": "view",
      "type": "function"
    },
    {
      "inputs": [
        {
          "internalType": "address",
          "name": "lp",
          "type": "address"
        }
      ],
      "name": "earned",
      "outputs": [
        {
          "internalType": "uint256",
          "name": "",
          "type": "uint256"
        }
      ],
      "stateMutability": "view",
      "type": "function"
    },
    {
      "inputs": [
        {
          "internalType": "address",
          "name": "",
          "type": "address"
        }
      ],
      "name": "feesPerTokenPaid",
      "outputs": [
        {
          "internalType": "uint256",
          "name": "",
          "type": "uint256"
        }
      ],
      "stateMutability": "view",
      "type": "function"
    },
    {
      "inputs": [],
      "name": "feesPerTokenStored",
      "outputs": [
        {
          "internalType": "uint256",
          "name": "",
          "type": "uint256"
        }
      ],
      "stateMutability": "view",
      "type": "function"
    },
    {
      "inputs": [],
      "name": "getActualReserves",
      "outputs": [
        {
          "internalType": "uint256",
          "name": "reserveToken0",
          "type": "uint256"
        },
        {
          "internalType": "uint256",
          "name": "reserveToken1",
          "type": "uint256"
        }
      ],
      "stateMutability": "view",
      "type": "function"
    },
    {
      "inputs": [],
      "name": "getFACTORY",
      "outputs": [
        {
          "internalType": "address",
          "name": "",
          "type": "address"
        }
      ],
      "stateMutability": "view",
      "type": "function"
    },
    {
      "inputs": [],
      "name": "getPendingLiquidityFees",
      "outputs": [
        {
          "internalType": "uint256",
          "name": "pendingLiquidityFees0",
          "type": "uint256"
        },
        {
          "internalType": "uint256",
          "name": "pendingLiquidityFees1",
          "type": "uint256"
        }
      ],
      "stateMutability": "view",
      "type": "function"
    },
    {
      "inputs": [],
      "name": "getPendingProtocolFees",
      "outputs": [
        {
          "internalType": "uint256",
          "name": "pendingProtocolFees0",
          "type": "uint256"
        },
        {
          "internalType": "uint256",
          "name": "pendingProtocolFees1",
          "type": "uint256"
        }
      ],
      "stateMutability": "view",
      "type": "function"
    },
    {
      "inputs": [],
      "name": "getReserves",
      "outputs": [
        {
          "internalType": "uint256",
          "name": "reserve0",
          "type": "uint256"
        },
        {
          "internalType": "uint256",
          "name": "reserve1",
          "type": "uint256"
        }
      ],
      "stateMutability": "view",
      "type": "function"
    },
    {
      "inputs": [],
      "name": "getTokens",
      "outputs": [
        {
          "internalType": "address",
          "name": "",
          "type": "address"
        },
        {
          "internalType": "address",
          "name": "",
          "type": "address"
        }
      ],
      "stateMutability": "view",
      "type": "function"
    },
    {
      "inputs": [
        {
          "internalType": "address",
          "name": "token0",
          "type": "address"
        },
        {
          "internalType": "address",
          "name": "token1",
          "type": "address"
        }
      ],
      "name": "initialize",
      "outputs": [],
      "stateMutability": "nonpayable",
      "type": "function"
    },
    {
      "inputs": [
        {
          "internalType": "address",
          "name": "",
          "type": "address"
        }
      ],
      "name": "lpFees",
      "outputs": [
        {
          "internalType": "uint256",
          "name": "",
          "type": "uint256"
        }
      ],
      "stateMutability": "view",
      "type": "function"
    },
    {
      "inputs": [
        {
          "internalType": "address",
          "name": "to",
          "type": "address"
        }
      ],
      "name": "mint",
      "outputs": [
        {
          "internalType": "uint256",
          "name": "liquidity",
          "type": "uint256"
        }
      ],
      "stateMutability": "nonpayable",
      "type": "function"
    },
    {
      "inputs": [],
      "name": "name",
      "outputs": [
        {
          "internalType": "string",
          "name": "",
          "type": "string"
        }
      ],
      "stateMutability": "view",
      "type": "function"
    },
    {
      "inputs": [
        {
          "internalType": "address",
          "name": "tokenToRepay",
          "type": "address"
        },
        {
          "internalType": "address",
          "name": "borrower",
          "type": "address"
        },
        {
          "internalType": "uint256",
          "name": "debt",
          "type": "uint256"
        },
        {
          "internalType": "uint256",
          "name": "interest",
          "type": "uint256"
        }
      ],
      "name": "repay",
      "outputs": [],
      "stateMutability": "nonpayable",
      "type": "function"
    },
    {
      "inputs": [
        {
          "internalType": "uint256",
          "name": "amountToken0Out",
          "type": "uint256"
        },
        {
          "internalType": "uint256",
          "name": "amountToken1Out",
          "type": "uint256"
        },
        {
          "internalType": "address",
          "name": "to",
          "type": "address"
        }
      ],
      "name": "swap",
      "outputs": [
        {
          "internalType": "uint256",
          "name": "amountInToken0",
          "type": "uint256"
        },
        {
          "internalType": "uint256",
          "name": "amountInToken1",
          "type": "uint256"
        }
      ],
      "stateMutability": "nonpayable",
      "type": "function"
    },
    {
      "inputs": [],
      "name": "symbol",
      "outputs": [
        {
          "internalType": "string",
          "name": "",
          "type": "string"
        }
      ],
      "stateMutability": "view",
      "type": "function"
    },
    {
      "inputs": [],
      "name": "totalSupply",
      "outputs": [
        {
          "internalType": "uint256",
          "name": "",
          "type": "uint256"
        }
      ],
      "stateMutability": "view",
      "type": "function"
    },
    {
      "inputs": [
        {
          "internalType": "address",
          "name": "_to",
          "type": "address"
        },
        {
          "internalType": "uint256",
          "name": "_value",
          "type": "uint256"
        }
      ],
      "name": "transfer",
      "outputs": [
        {
          "internalType": "bool",
          "name": "success",
          "type": "bool"
        }
      ],
      "stateMutability": "nonpayable",
      "type": "function"
    },
    {
      "inputs": [
        {
          "internalType": "address",
          "name": "_from",
          "type": "address"
        },
        {
          "internalType": "address",
          "name": "_to",
          "type": "address"
        },
        {
          "internalType": "uint256",
          "name": "_value",
          "type": "uint256"
        }
      ],
      "name": "transferFrom",
      "outputs": [
        {
          "internalType": "bool",
          "name": "success",
          "type": "bool"
        }
      ],
      "stateMutability": "nonpayable",
      "type": "function"
    },
    {
      "inputs": [
        {
          "internalType": "address",
          "name": "to",
          "type": "address"
        }
      ],
      "name": "withdrawFees",
      "outputs": [],
      "stateMutability": "nonpayable",
      "type": "function"
    }
  ],
  "bytecode": "0x608060405234801561001057600080fd5b506001600655612033806100256000396000f3fe608060405234801561001057600080fd5b50600436106101c35760003560e01c80636298fb3c116100f957806395d89b4111610097578063aa6ca80811610071578063aa6ca808146103dc578063ba9a7a5614610402578063d5f839fc1461040b578063dd62ed3e1461041657600080fd5b806395d89b41146103b65780639de3beec146103be578063a9059cbb146103c957600080fd5b806370a08231116100d357806370a082311461033a57806381889f111461036357806389afcb441461038357806390d98e001461039657600080fd5b80636298fb3c146103035780636a627842146103145780636d9a640a1461032757600080fd5b80631849d2c511610166578063313ce56711610140578063313ce567146102b0578063485cc955146102ca57806349002749146102dd5780635224372c146102f057600080fd5b80631849d2c51461026757806323b872dd146102725780632dd310001461028557600080fd5b8063095ea7b3116101a2578063095ea7b3146102205780630f8ee22014610243578063164e68de1461024c57806318160ddd1461025f57600080fd5b80628cc262146101c857806306fdde03146101ee5780630902f1ac14610203575b600080fd5b6101db6101d6366004611a86565b61044f565b6040519081526020015b60405180910390f35b6101f6610463565b6040516101e59190611af1565b61020b6104f1565b604080519283526020830191909152016101e5565b61023361022e366004611b04565b610526565b60405190151581526020016101e5565b6101db60105481565b61025d61025a366004611a86565b50565b005b6002546101db565b600a54600b5461020b565b610233610280366004611b2e565b61053c565b600754610298906001600160a01b031681565b6040516001600160a01b0390911681526020016101e5565b6102b8601281565b60405160ff90911681526020016101e5565b61025d6102d8366004611b6a565b6105b7565b61025d6102eb366004611b9d565b610742565b61025d6102fe366004611b2e565b61082f565b6007546001600160a01b0316610298565b6101db610322366004611a86565b610983565b61020b610335366004611bdf565b610bc3565b6101db610348366004611a86565b6001600160a01b031660009081526003602052604090205490565b6101db610371366004611a86565b60136020526000908152604090205481565b61020b610391366004611a86565b610ed3565b6101db6103a4366004611a86565b60146020526000908152604090205481565b6101f66110d9565b600e54600f5461020b565b6102336103d7366004611b04565b6110e6565b600c54600d54604080516001600160a01b039384168152929091166020830152016101e5565b6101db6103e881565b60115460125461020b565b6101db610424366004611b6a565b6001600160a01b03918216600090815260046020908152604080832093909416825291909152205490565b600061045d826010546110f3565b92915050565b6000805461047090611c14565b80601f016020809104026020016040519081016040528092919081815260200182805461049c90611c14565b80156104e95780601f106104be576101008083540402835291602001916104e9565b820191906000526020600020905b8154815290600101906020018083116104cc57829003601f168201915b505050505081565b600080600060085411610505576001610509565b6008545b915060006009541161051c576001610520565b6009545b90509091565b6000610533338484611189565b50600192915050565b6001600160a01b0383166000908152600460209081526040808320338452909152812054600019146105a1576001600160a01b03841660009081526004602090815260408083203384529091528120805484929061059b908490611c64565b90915550505b6105ac8484846111e2565b5060015b9392505050565b60078054336001600160a01b031991821617909155600c805482166001600160a01b03858116918217909255600d805490931691841691909117909155604080516306fdde0360e01b81529051600092916306fdde0391600480830192869291908290030181865afa158015610631573d6000803e3d6000fd5b505050506040513d6000823e601f3d908101601f191682016040526106599190810190611c8d565b90506000600d60009054906101000a90046001600160a01b03166001600160a01b03166306fdde036040518163ffffffff1660e01b8152600401600060405180830381865afa1580156106b0573d6000803e3d6000fd5b505050506040513d6000823e601f3d908101601f191682016040526106d89190810190611c8d565b905081816040516020016106ed929190611d3a565b6040516020818303038152906040526000908161070a9190611de2565b50818160405160200161071e929190611ea2565b6040516020818303038152906040526001908161073b9190611de2565b5050505050565b6007546001600160a01b0316331461076d57604051630636a15760e11b815260040160405180910390fd5b600c546001600160a01b03908116908516036107ad5781600a60008282546107959190611ef0565b909155506107a6905081600061128e565b50506107d3565b81600b60008282546107bf9190611ef0565b909155506107d0905060008261128e565b50505b826001600160a01b0316846001600160a01b03167fe4a1ae657f49cb1fb1c7d3a94ae6093565c4c8c0e03de488f79c377c3c3a24e08484604051610821929190918252602082015260400190565b60405180910390a350505050565b6007546001600160a01b0316331461085a57604051630636a15760e11b815260040160405180910390fd5b600c546001600160a01b03908116908416036108d357600c54610887906001600160a01b0316838361133f565b80600a60008282546108999190611c64565b9091555050600854600a546108af906002611f03565b10156108ce5760405163b0d1026b60e01b815260040160405180910390fd5b610931565b600d546108ea906001600160a01b0316838361133f565b80600b60008282546108fc9190611c64565b9091555050600954600b54610912906002611f03565b10156109315760405163b0d1026b60e01b815260040160405180910390fd5b816001600160a01b0316836001600160a01b03167f312a5e5e1079f5dda4e95dbbd0b908b291fd5b992ef22073643ab691572c5b528360405161097691815260200190565b60405180910390a3505050565b600061098d611396565b600061099860025490565b600c546040516370a0823160e01b81523060048201529192506000916001600160a01b03909116906370a0823190602401602060405180830381865afa1580156109e6573d6000803e3d6000fd5b505050506040513d601f19601f82011682018060405250810190610a0a9190611f1a565b600d546040516370a0823160e01b81523060048201529192506000916001600160a01b03909116906370a0823190602401602060405180830381865afa158015610a58573d6000803e3d6000fd5b505050506040513d601f19601f82011682018060405250810190610a7c9190611f1a565b9050600080610a896104f1565b909250905060008080610a9c8588611c64565b610aa69190611c64565b9050600082610ab58588611c64565b610abf9190611c64565b9050610aca8a6113c0565b87600003610b1f57610adf60006103e86113f8565b610aea600183611ef0565b9150610af7600182611ef0565b90506103e8610b0e610b098385611f03565b611517565b610b189190611c64565b9850610b54565b610b5185610b2d8a85611f03565b610b379190611f49565b85610b428b85611f03565b610b4c9190611f49565b6115fb565b98505b610b5e8a8a6113f8565b610b6b8282600080611611565b60408051338152602081018490529081018290527f4c209b5fc8ad50758f13e2e1088ba56a560dff690a1c6fef26394f4c03821c4f9060600160405180910390a15050505050505050610bbe6001600655565b919050565b600080610bce611396565b60008086158015610bdd575085155b15610bfb576040516342301c2360e01b815260040160405180910390fd5b600080610c0b600a54600b549091565b9150915081891180610c1c57508088115b15610c3a57604051637294b85560e11b815260040160405180910390fd5b8815610cd057600d546040516370a0823160e01b815230600482015282916001600160a01b0316906370a0823190602401602060405180830381865afa158015610c88573d6000803e3d6000fd5b505050506040513d601f19601f82011682018060405250810190610cac9190611f1a565b610cb69190611c64565b600c54909550610cd0906001600160a01b0316888b61133f565b8715610d6657600c546040516370a0823160e01b815230600482015283916001600160a01b0316906370a0823190602401602060405180830381865afa158015610d1e573d6000803e3d6000fd5b505050506040513d601f19601f82011682018060405250810190610d429190611f1a565b610d4c9190611c64565b600d54909650610d66906001600160a01b0316888a61133f565b610d70868661168a565b505060408051808201909152600281526124b760f11b60208201529195509350610d9b9087876116d6565b610da58487611c64565b9550610db18386611c64565b9450610dbf86868b8b611611565b6040805180820190915260028152614b4960f01b6020820152610ded90610de68385611f03565b848461171d565b610e266040518060400160405280600281526020016125a360f11b815250600954600854610e1b9190611f03565b60085460095461171d565b600954600854610e369190611f03565b610e408284611f03565b1115610e5f5760405163bf6056e760e01b815260040160405180910390fd5b5050604080513381526020810186905290810184905260608101889052608081018790526001600160a01b03861660a08201527fd78ad95fa46c994b6551d0da85fc275fe613ce37657fb8d5e3d130840159d8229060c00160405180910390a15050610ecb6001600655565b935093915050565b3060009081526003602052604081205481906000610ef060025490565b90508060085483610f019190611f03565b610f0b9190611f49565b93508060095483610f1c9190611f03565b610f269190611f49565b9250831580610f33575082155b15610f515760405163749383ad60e01b815260040160405180910390fd5b610f5a856113c0565b610f64308361176c565b600c54610f7b906001600160a01b0316868661133f565b600d54610f92906001600160a01b0316868561133f565b600c546040516370a0823160e01b81523060048201526000916001600160a01b0316906370a0823190602401602060405180830381865afa158015610fdb573d6000803e3d6000fd5b505050506040513d601f19601f82011682018060405250810190610fff9190611f1a565b600d546040516370a0823160e01b81523060048201529192506000916001600160a01b03909116906370a0823190602401602060405180830381865afa15801561104d573d6000803e3d6000fd5b505050506040513d601f19601f820116820180604052508101906110719190611f1a565b90506110808282600080611611565b60408051338152602081018890529081018690526001600160a01b03881660608201527fdccd412f0b1252819cb1fd330b93224ca42612892bb3f4f789976e6d819364969060800160405180910390a150505050915091565b6001805461047090611c14565b60006105333384846111e2565b6001600160a01b03821660009081526014602052604081205481906111189084611c64565b90506000670de0b6b3a764000082611145876001600160a01b031660009081526003602052604090205490565b61114f9190611f03565b6111599190611f49565b6001600160a01b038616600090815260136020526040902054909150611180908290611ef0565b95945050505050565b6001600160a01b0383811660008181526004602090815260408083209487168084529482529182902085905590518481527f8c5be1e5ebec7d5bd14f71427d1e84f3dd0314c0f7b2291e5b200ac8c7c3b9259101610976565b6111ed8383836117f7565b6001600160a01b03831660009081526003602052604081208054839290611215908490611c64565b90915550506001600160a01b03821660009081526003602052604081208054839290611242908490611ef0565b92505081905550816001600160a01b0316836001600160a01b03167fddf252ad1be2c89b69c2b068fc378daa952ba7f163c4a11628f55a4df523b3ef8360405161097691815260200190565b600080606461129e85605a611f03565b6112a89190611f49565b915060646112b784605a611f03565b6112c19190611f49565b90506112cd8285611c64565b601160008282546112de9190611ef0565b909155506112ee90508184611c64565b601260008282546112ff9190611ef0565b9250508190555081600e60008282546113189190611ef0565b9250508190555080600f60008282546113319190611ef0565b925050819055509250929050565b604080516001600160a01b038416602482015260448082018490528251808303909101815260649091019091526020810180516001600160e01b031663a9059cbb60e01b179052611391908490611819565b505050565b6002600654036113b957604051633ee5aeb560e01b815260040160405180910390fd5b6002600655565b6010546113cd82826110f3565b6001600160a01b03909216600090815260136020908152604080832094909455601490529190912055565b6000600254821115611418576114116202a30042611ef0565b905061143f565b6002546114286202a30084611f03565b6114329190611f49565b61143c9042611ef0565b90505b6001600160a01b03831660009081526005602052604090205463ffffffff9081169082161115611495576001600160a01b0383166000908152600560205260409020805463ffffffff191663ffffffff83161790555b81600260008282546114a79190611ef0565b90915550506001600160a01b038316600090815260036020526040812080548492906114d4908490611ef0565b90915550506040518281526001600160a01b038416906000907fddf252ad1be2c89b69c2b068fc378daa952ba7f163c4a11628f55a4df523b3ef90602001610976565b60008160000361152957506000919050565b6000600161153684611881565b901c6001901b9050600181848161154f5761154f611f33565b048201901c9050600181848161156757611567611f33565b048201901c9050600181848161157f5761157f611f33565b048201901c9050600181848161159757611597611f33565b048201901c905060018184816115af576115af611f33565b048201901c905060018184816115c7576115c7611f33565b048201901c905060018184816115df576115df611f33565b048201901c90506105b0818285816115f9576115f9611f33565b045b600081831061160a57816105b0565b5090919050565b83826008546116209190611c64565b61162a9190611ef0565b600855600954839061163d908390611c64565b6116479190611ef0565b600955600a54849061165a908490611c64565b6116649190611ef0565b600a55600b548390611677908390611c64565b6116819190611ef0565b600b5550505050565b6000808080606461169c876001611f03565b6116a69190611f49565b935060646116b5866001611f03565b6116bf9190611f49565b92506116cb848461128e565b505092959194509250565b6113918383836040516024016116ee93929190611f6b565b60408051601f198184030181529190526020810180516001600160e01b031663ca47c4eb60e01b179052611915565b611766848484846040516024016117379493929190611f90565b60408051601f198184030181529190526020810180516001600160e01b031663a7a8785360e01b179052611915565b50505050565b6001600160a01b03821660009081526003602052604081208054839290611794908490611c64565b9250508190555080600260008282546117ad9190611c64565b90915550506040518181526000906001600160a01b038416907fddf252ad1be2c89b69c2b068fc378daa952ba7f163c4a11628f55a4df523b3ef9060200160405180910390a35050565b611800836113c0565b6001600160a01b038216301461139157611391826113c0565b600061182e6001600160a01b0384168361191e565b905080516000141580156118535750808060200190518101906118519190611fbf565b155b1561139157604051635274afe760e01b81526001600160a01b03841660048201526024015b60405180910390fd5b600080608083901c1561189657608092831c92015b604083901c156118a857604092831c92015b602083901c156118ba57602092831c92015b601083901c156118cc57601092831c92015b600883901c156118de57600892831c92015b600483901c156118f057600492831c92015b600283901c1561190257600292831c92015b600183901c1561045d5760010192915050565b61025a8161192c565b60606105b08383600061194d565b60006a636f6e736f6c652e6c6f679050600080835160208501845afa505050565b6060814710156119725760405163cd78605960e01b8152306004820152602401611878565b600080856001600160a01b0316848660405161198e9190611fe1565b60006040518083038185875af1925050503d80600081146119cb576040519150601f19603f3d011682016040523d82523d6000602084013e6119d0565b606091505b50915091506119e08683836119ea565b9695505050505050565b6060826119ff576119fa82611a46565b6105b0565b8151158015611a1657506001600160a01b0384163b155b15611a3f57604051639996b31560e01b81526001600160a01b0385166004820152602401611878565b50806105b0565b805115611a565780518082602001fd5b604051630a12f52160e11b815260040160405180910390fd5b80356001600160a01b0381168114610bbe57600080fd5b600060208284031215611a9857600080fd5b6105b082611a6f565b60005b83811015611abc578181015183820152602001611aa4565b50506000910152565b60008151808452611add816020860160208601611aa1565b601f01601f19169290920160200192915050565b6020815260006105b06020830184611ac5565b60008060408385031215611b1757600080fd5b611b2083611a6f565b946020939093013593505050565b600080600060608486031215611b4357600080fd5b611b4c84611a6f565b9250611b5a60208501611a6f565b9150604084013590509250925092565b60008060408385031215611b7d57600080fd5b611b8683611a6f565b9150611b9460208401611a6f565b90509250929050565b60008060008060808587031215611bb357600080fd5b611bbc85611a6f565b9350611bca60208601611a6f565b93969395505050506040820135916060013590565b600080600060608486031215611bf457600080fd5b8335925060208401359150611c0b60408501611a6f565b90509250925092565b600181811c90821680611c2857607f821691505b602082108103611c4857634e487b7160e01b600052602260045260246000fd5b50919050565b634e487b7160e01b600052601160045260246000fd5b8181038181111561045d5761045d611c4e565b634e487b7160e01b600052604160045260246000fd5b600060208284031215611c9f57600080fd5b815167ffffffffffffffff80821115611cb757600080fd5b818401915084601f830112611ccb57600080fd5b815181811115611cdd57611cdd611c77565b604051601f8201601f19908116603f01168101908382118183101715611d0557611d05611c77565b81604052828152876020848701011115611d1e57600080fd5b611d2f836020830160208801611aa1565b979650505050505050565b7102629bbb0b82a3930b234b733a837b7b61d160751b815260008351611d67816012850160208801611aa1565b602f60f81b6012918401918201528351611d88816013840160208801611aa1565b01601301949350505050565b601f82111561139157600081815260208120601f850160051c81016020861015611dbb5750805b601f850160051c820191505b81811015611dda57828155600101611dc7565b505050505050565b815167ffffffffffffffff811115611dfc57611dfc611c77565b611e1081611e0a8454611c14565b84611d94565b602080601f831160018114611e455760008415611e2d5750858301515b600019600386901b1c1916600185901b178555611dda565b600085815260208120601f198616915b82811015611e7457888601518255948401946001909101908401611e55565b5085821015611e925787850151600019600388901b60f8161c191681555b5050505050600190811b01905550565b654c537761702d60d01b815260008351611ec3816006850160208801611aa1565b602d60f81b6006918401918201528351611ee4816007840160208801611aa1565b01600701949350505050565b8082018082111561045d5761045d611c4e565b808202811582820484141761045d5761045d611c4e565b600060208284031215611f2c57600080fd5b5051919050565b634e487b7160e01b600052601260045260246000fd5b600082611f6657634e487b7160e01b600052601260045260246000fd5b500490565b606081526000611f7e6060830186611ac5565b60208301949094525060400152919050565b608081526000611fa36080830187611ac5565b6020830195909552506040810192909252606090910152919050565b600060208284031215611fd157600080fd5b815180151581146105b057600080fd5b60008251611ff3818460208701611aa1565b919091019291505056fea26469706673582212201caf5b3331fee24e7a57d4c0297654cebb3e96fb2635a498bce98a43f0b2eb1564736f6c63430008140033",
  "linkReferences": {},
  "deployedLinkReferences": {}
}