{
  "_format": "hh-sol-artifact-1",
  "contractName": "LSwapPair",
  "sourceName": "contracts/LSwapPair.sol",
  "abi": [
    {
      "inputs": [
        {
          "internalType": "address",
          "name": "target",
          "type": "address"
        }
      ],
      "name": "AddressEmptyCode",
      "type": "error"
    },
    {
      "inputs": [
        {
          "internalType": "address",
          "name": "account",
          "type": "address"
        }
      ],
      "name": "AddressInsufficientBalance",
      "type": "error"
    },
    {
      "inputs": [],
      "name": "FailedInnerCall",
      "type": "error"
    },
    {
      "inputs": [],
      "name": "Forbidden",
      "type": "error"
    },
    {
      "inputs": [],
      "name": "InsufficientAmountOut",
      "type": "error"
    },
    {
      "inputs": [],
      "name": "InsufficientLiquidityBurned",
      "type": "error"
    },
    {
      "inputs": [],
      "name": "InsufficientOutputAmount",
      "type": "error"
    },
    {
      "inputs": [],
      "name": "KInvariant",
      "type": "error"
    },
    {
      "inputs": [],
      "name": "LoanAmountGreaterThanThreshold",
      "type": "error"
    },
    {
      "inputs": [],
      "name": "MultipleOutputAmounts",
      "type": "error"
    },
    {
      "inputs": [],
      "name": "OnlyFactory",
      "type": "error"
    },
    {
      "inputs": [],
      "name": "ReentrancyGuardReentrantCall",
      "type": "error"
    },
    {
      "inputs": [
        {
          "internalType": "address",
          "name": "token",
          "type": "address"
        }
      ],
      "name": "SafeERC20FailedOperation",
      "type": "error"
    },
    {
      "anonymous": false,
      "inputs": [
        {
          "indexed": true,
          "internalType": "address",
          "name": "owner",
          "type": "address"
        },
        {
          "indexed": true,
          "internalType": "address",
          "name": "spender",
          "type": "address"
        },
        {
          "indexed": false,
          "internalType": "uint256",
          "name": "value",
          "type": "uint256"
        }
      ],
      "name": "Approval",
      "type": "event"
    },
    {
      "anonymous": false,
      "inputs": [
        {
          "indexed": true,
          "internalType": "address",
          "name": "tokenToBorrow",
          "type": "address"
        },
        {
          "indexed": true,
          "internalType": "address",
          "name": "borrower",
          "type": "address"
        },
        {
          "indexed": false,
          "internalType": "uint256",
          "name": "amount",
          "type": "uint256"
        }
      ],
      "name": "Borrow",
      "type": "event"
    },
    {
      "anonymous": false,
      "inputs": [
        {
          "indexed": false,
          "internalType": "address",
          "name": "",
          "type": "address"
        },
        {
          "indexed": false,
          "internalType": "uint256",
          "name": "",
          "type": "uint256"
        },
        {
          "indexed": false,
          "internalType": "uint256",
          "name": "",
          "type": "uint256"
        },
        {
          "indexed": false,
          "internalType": "address",
          "name": "",
          "type": "address"
        }
      ],
      "name": "Burn",
      "type": "event"
    },
    {
      "anonymous": false,
      "inputs": [
        {
          "indexed": false,
          "internalType": "address",
          "name": "",
          "type": "address"
        },
        {
          "indexed": false,
          "internalType": "uint256",
          "name": "",
          "type": "uint256"
        },
        {
          "indexed": false,
          "internalType": "uint256",
          "name": "",
          "type": "uint256"
        }
      ],
      "name": "Mint",
      "type": "event"
    },
    {
      "anonymous": false,
      "inputs": [
        {
          "indexed": false,
          "internalType": "address",
          "name": "",
          "type": "address"
        },
        {
          "indexed": false,
          "internalType": "uint256",
          "name": "",
          "type": "uint256"
        },
        {
          "indexed": false,
          "internalType": "uint256",
          "name": "",
          "type": "uint256"
        },
        {
          "indexed": false,
          "internalType": "uint256",
          "name": "",
          "type": "uint256"
        },
        {
          "indexed": false,
          "internalType": "uint256",
          "name": "",
          "type": "uint256"
        },
        {
          "indexed": false,
          "internalType": "address",
          "name": "",
          "type": "address"
        }
      ],
      "name": "Swap",
      "type": "event"
    },
    {
      "anonymous": false,
      "inputs": [
        {
          "indexed": true,
          "internalType": "address",
          "name": "from",
          "type": "address"
        },
        {
          "indexed": true,
          "internalType": "address",
          "name": "to",
          "type": "address"
        },
        {
          "indexed": false,
          "internalType": "uint256",
          "name": "value",
          "type": "uint256"
        }
      ],
      "name": "Transfer",
      "type": "event"
    },
    {
      "inputs": [],
      "name": "FACTORY",
      "outputs": [
        {
          "internalType": "address",
          "name": "",
          "type": "address"
        }
      ],
      "stateMutability": "view",
      "type": "function"
    },
    {
      "inputs": [],
      "name": "MINIMUM_LIQUIDITY",
      "outputs": [
        {
          "internalType": "uint256",
          "name": "",
          "type": "uint256"
        }
      ],
      "stateMutability": "view",
      "type": "function"
    },
    {
      "inputs": [
        {
          "internalType": "address",
          "name": "_owner",
          "type": "address"
        },
        {
          "internalType": "address",
          "name": "_spender",
          "type": "address"
        }
      ],
      "name": "allowance",
      "outputs": [
        {
          "internalType": "uint256",
          "name": "remaining",
          "type": "uint256"
        }
      ],
      "stateMutability": "view",
      "type": "function"
    },
    {
      "inputs": [
        {
          "internalType": "address",
          "name": "_spender",
          "type": "address"
        },
        {
          "internalType": "uint256",
          "name": "_value",
          "type": "uint256"
        }
      ],
      "name": "approve",
      "outputs": [
        {
          "internalType": "bool",
          "name": "success",
          "type": "bool"
        }
      ],
      "stateMutability": "nonpayable",
      "type": "function"
    },
    {
      "inputs": [
        {
          "internalType": "address",
          "name": "_owner",
          "type": "address"
        }
      ],
      "name": "balanceOf",
      "outputs": [
        {
          "internalType": "uint256",
          "name": "balance",
          "type": "uint256"
        }
      ],
      "stateMutability": "view",
      "type": "function"
    },
    {
      "inputs": [
        {
          "internalType": "address",
          "name": "tokenToBorrow",
          "type": "address"
        },
        {
          "internalType": "address",
          "name": "borrower",
          "type": "address"
        },
        {
          "internalType": "uint256",
          "name": "amount",
          "type": "uint256"
        }
      ],
      "name": "borrow",
      "outputs": [],
      "stateMutability": "nonpayable",
      "type": "function"
    },
    {
      "inputs": [
        {
          "internalType": "address",
          "name": "to",
          "type": "address"
        }
      ],
      "name": "burn",
      "outputs": [
        {
          "internalType": "uint256",
          "name": "amountToken0",
          "type": "uint256"
        },
        {
          "internalType": "uint256",
          "name": "amountToken1",
          "type": "uint256"
        }
      ],
      "stateMutability": "nonpayable",
      "type": "function"
    },
    {
      "inputs": [],
      "name": "decimals",
      "outputs": [
        {
          "internalType": "uint8",
          "name": "",
          "type": "uint8"
        }
      ],
      "stateMutability": "view",
      "type": "function"
    },
    {
      "inputs": [
        {
          "internalType": "address",
          "name": "lp",
          "type": "address"
        }
      ],
      "name": "earned",
      "outputs": [
        {
          "internalType": "uint256",
          "name": "",
          "type": "uint256"
        }
      ],
      "stateMutability": "view",
      "type": "function"
    },
    {
      "inputs": [
        {
          "internalType": "address",
          "name": "",
          "type": "address"
        }
      ],
      "name": "feesPerTokenPaid",
      "outputs": [
        {
          "internalType": "uint256",
          "name": "",
          "type": "uint256"
        }
      ],
      "stateMutability": "view",
      "type": "function"
    },
    {
      "inputs": [],
      "name": "feesPerTokenStored",
      "outputs": [
        {
          "internalType": "uint256",
          "name": "",
          "type": "uint256"
        }
      ],
      "stateMutability": "view",
      "type": "function"
    },
    {
      "inputs": [],
      "name": "getFACTORY",
      "outputs": [
        {
          "internalType": "address",
          "name": "",
          "type": "address"
        }
      ],
      "stateMutability": "view",
      "type": "function"
    },
    {
      "inputs": [],
      "name": "getPendingLiquidityFees",
      "outputs": [
        {
          "internalType": "uint256",
          "name": "pendingLiquidityFees0",
          "type": "uint256"
        },
        {
          "internalType": "uint256",
          "name": "pendingLiquidityFees1",
          "type": "uint256"
        }
      ],
      "stateMutability": "view",
      "type": "function"
    },
    {
      "inputs": [],
      "name": "getPendingProtocolFees",
      "outputs": [
        {
          "internalType": "uint256",
          "name": "pendingProtocolFees0",
          "type": "uint256"
        },
        {
          "internalType": "uint256",
          "name": "pendingProtocolFees1",
          "type": "uint256"
        }
      ],
      "stateMutability": "view",
      "type": "function"
    },
    {
      "inputs": [],
      "name": "getReserves",
      "outputs": [
        {
          "internalType": "uint256",
          "name": "reserve0",
          "type": "uint256"
        },
        {
          "internalType": "uint256",
          "name": "reserve1",
          "type": "uint256"
        }
      ],
      "stateMutability": "view",
      "type": "function"
    },
    {
      "inputs": [
        {
          "internalType": "address",
          "name": "token0",
          "type": "address"
        },
        {
          "internalType": "address",
          "name": "token1",
          "type": "address"
        }
      ],
      "name": "initialize",
      "outputs": [],
      "stateMutability": "nonpayable",
      "type": "function"
    },
    {
      "inputs": [
        {
          "internalType": "address",
          "name": "",
          "type": "address"
        }
      ],
      "name": "lpFees",
      "outputs": [
        {
          "internalType": "uint256",
          "name": "",
          "type": "uint256"
        }
      ],
      "stateMutability": "view",
      "type": "function"
    },
    {
      "inputs": [
        {
          "internalType": "address",
          "name": "to",
          "type": "address"
        }
      ],
      "name": "mint",
      "outputs": [
        {
          "internalType": "uint256",
          "name": "liquidity",
          "type": "uint256"
        }
      ],
      "stateMutability": "nonpayable",
      "type": "function"
    },
    {
      "inputs": [],
      "name": "name",
      "outputs": [
        {
          "internalType": "string",
          "name": "",
          "type": "string"
        }
      ],
      "stateMutability": "view",
      "type": "function"
    },
    {
      "inputs": [
        {
          "internalType": "uint256",
          "name": "amountToken0Out",
          "type": "uint256"
        },
        {
          "internalType": "uint256",
          "name": "amountToken1Out",
          "type": "uint256"
        },
        {
          "internalType": "address",
          "name": "to",
          "type": "address"
        }
      ],
      "name": "swap",
      "outputs": [
        {
          "internalType": "uint256",
          "name": "amountInToken0",
          "type": "uint256"
        },
        {
          "internalType": "uint256",
          "name": "amountInToken1",
          "type": "uint256"
        }
      ],
      "stateMutability": "nonpayable",
      "type": "function"
    },
    {
      "inputs": [],
      "name": "symbol",
      "outputs": [
        {
          "internalType": "string",
          "name": "",
          "type": "string"
        }
      ],
      "stateMutability": "view",
      "type": "function"
    },
    {
      "inputs": [],
      "name": "totalSupply",
      "outputs": [
        {
          "internalType": "uint256",
          "name": "",
          "type": "uint256"
        }
      ],
      "stateMutability": "view",
      "type": "function"
    },
    {
      "inputs": [
        {
          "internalType": "address",
          "name": "_to",
          "type": "address"
        },
        {
          "internalType": "uint256",
          "name": "_value",
          "type": "uint256"
        }
      ],
      "name": "transfer",
      "outputs": [
        {
          "internalType": "bool",
          "name": "success",
          "type": "bool"
        }
      ],
      "stateMutability": "nonpayable",
      "type": "function"
    },
    {
      "inputs": [
        {
          "internalType": "address",
          "name": "_from",
          "type": "address"
        },
        {
          "internalType": "address",
          "name": "_to",
          "type": "address"
        },
        {
          "internalType": "uint256",
          "name": "_value",
          "type": "uint256"
        }
      ],
      "name": "transferFrom",
      "outputs": [
        {
          "internalType": "bool",
          "name": "success",
          "type": "bool"
        }
      ],
      "stateMutability": "nonpayable",
      "type": "function"
    },
    {
      "inputs": [
        {
          "internalType": "address",
          "name": "to",
          "type": "address"
        }
      ],
      "name": "withdrawFees",
      "outputs": [],
      "stateMutability": "nonpayable",
      "type": "function"
    }
  ],
  "bytecode": "0x608060405234801561001057600080fd5b50600160068190555061341c806100286000396000f3fe608060405234801561001057600080fd5b50600436106101725760003560e01c80636298fb3c116100de57806390d98e0011610097578063a9059cbb11610071578063a9059cbb1461048d578063ba9a7a56146104bd578063d5f839fc146104db578063dd62ed3e146104fa57610172565b806390d98e001461042057806395d89b41146104505780639de3beec1461046e57610172565b80636298fb3c146103105780636a6278421461032e5780636d9a640a1461035e57806370a082311461038f57806381889f11146103bf57806389afcb44146103ef57610172565b806318160ddd1161013057806318160ddd1461024e57806323b872dd1461026c5780632dd310001461029c578063313ce567146102ba578063485cc955146102d85780635224372c146102f457610172565b80628cc2621461017757806306fdde03146101a75780630902f1ac146101c5578063095ea7b3146101e45780630f8ee22014610214578063164e68de14610232575b600080fd5b610191600480360381019061018c91906126a3565b61052a565b60405161019e91906126e9565b60405180910390f35b6101af61053f565b6040516101bc9190612794565b60405180910390f35b6101cd6105cd565b6040516101db9291906127b6565b60405180910390f35b6101fe60048036038101906101f9919061280b565b610602565b60405161020b9190612866565b60405180910390f35b61021c610619565b60405161022991906126e9565b60405180910390f35b61024c600480360381019061024791906126a3565b61061f565b005b610256610622565b60405161026391906126e9565b60405180910390f35b61028660048036038101906102819190612881565b61062c565b6040516102939190612866565b60405180910390f35b6102a461077b565b6040516102b191906128e3565b60405180910390f35b6102c26107a1565b6040516102cf919061291a565b60405180910390f35b6102f260048036038101906102ed9190612935565b6107a6565b005b61030e60048036038101906103099190612881565b610a05565b005b610318610cb1565b60405161032591906128e3565b60405180910390f35b610348600480360381019061034391906126a3565b610cdb565b60405161035591906126e9565b60405180910390f35b61037860048036038101906103739190612975565b610f7b565b6040516103869291906127b6565b60405180910390f35b6103a960048036038101906103a491906126a3565b6113d4565b6040516103b691906126e9565b60405180910390f35b6103d960048036038101906103d491906126a3565b61141d565b6040516103e691906126e9565b60405180910390f35b610409600480360381019061040491906126a3565b611435565b6040516104179291906127b6565b60405180910390f35b61043a600480360381019061043591906126a3565b61170d565b60405161044791906126e9565b60405180910390f35b610458611725565b6040516104659190612794565b60405180910390f35b6104766117b3565b6040516104849291906127b6565b60405180910390f35b6104a760048036038101906104a2919061280b565b6117c4565b6040516104b49190612866565b60405180910390f35b6104c56117db565b6040516104d291906126e9565b60405180910390f35b6104e36117e1565b6040516104f19291906127b6565b60405180910390f35b610514600480360381019061050f9190612935565b6117f2565b60405161052191906126e9565b60405180910390f35b600061053882601054611879565b9050919050565b6000805461054c906129f7565b80601f0160208091040260200160405190810160405280929190818152602001828054610578906129f7565b80156105c55780601f1061059a576101008083540402835291602001916105c5565b820191906000526020600020905b8154815290600101906020018083116105a857829003601f168201915b505050505081565b6000806000600854116105e15760016105e5565b6008545b91506000600954116105f85760016105fc565b6009545b90509091565b600061060f338484611949565b6001905092915050565b60105481565b50565b6000600254905090565b60007fffffffffffffffffffffffffffffffffffffffffffffffffffffffffffffffff600460008673ffffffffffffffffffffffffffffffffffffffff1673ffffffffffffffffffffffffffffffffffffffff16815260200190815260200160002060003373ffffffffffffffffffffffffffffffffffffffff1673ffffffffffffffffffffffffffffffffffffffff16815260200190815260200160002054146107655781600460008673ffffffffffffffffffffffffffffffffffffffff1673ffffffffffffffffffffffffffffffffffffffff16815260200190815260200160002060003373ffffffffffffffffffffffffffffffffffffffff1673ffffffffffffffffffffffffffffffffffffffff168152602001908152602001600020600082825461075d9190612a57565b925050819055505b610770848484611a34565b600190509392505050565b600760009054906101000a900473ffffffffffffffffffffffffffffffffffffffff1681565b601281565b33600760006101000a81548173ffffffffffffffffffffffffffffffffffffffff021916908373ffffffffffffffffffffffffffffffffffffffff16021790555081600c60006101000a81548173ffffffffffffffffffffffffffffffffffffffff021916908373ffffffffffffffffffffffffffffffffffffffff16021790555080600d60006101000a81548173ffffffffffffffffffffffffffffffffffffffff021916908373ffffffffffffffffffffffffffffffffffffffff1602179055506000600c60009054906101000a900473ffffffffffffffffffffffffffffffffffffffff1673ffffffffffffffffffffffffffffffffffffffff166306fdde036040518163ffffffff1660e01b8152600401600060405180830381865afa1580156108d8573d6000803e3d6000fd5b505050506040513d6000823e3d601f19601f820116820180604052508101906109019190612bb1565b90506000600d60009054906101000a900473ffffffffffffffffffffffffffffffffffffffff1673ffffffffffffffffffffffffffffffffffffffff166306fdde036040518163ffffffff1660e01b8152600401600060405180830381865afa158015610972573d6000803e3d6000fd5b505050506040513d6000823e3d601f19601f8201168201806040525081019061099b9190612bb1565b905081816040516020016109b0929190612cce565b604051602081830303815290604052600090816109cd9190612eb4565b5081816040516020016109e192919061301e565b604051602081830303815290604052600190816109fe9190612eb4565b5050505050565b600760009054906101000a900473ffffffffffffffffffffffffffffffffffffffff1673ffffffffffffffffffffffffffffffffffffffff163373ffffffffffffffffffffffffffffffffffffffff1614610a8c576040517f0c6d42ae00000000000000000000000000000000000000000000000000000000815260040160405180910390fd5b600c60009054906101000a900473ffffffffffffffffffffffffffffffffffffffff1673ffffffffffffffffffffffffffffffffffffffff168373ffffffffffffffffffffffffffffffffffffffff1603610b9657610b2e8282600c60009054906101000a900473ffffffffffffffffffffffffffffffffffffffff1673ffffffffffffffffffffffffffffffffffffffff16611b559092919063ffffffff16565b80600a6000828254610b409190612a57565b925050819055506008546002600a54610b599190613058565b1015610b91576040517fb0d1026b00000000000000000000000000000000000000000000000000000000815260040160405180910390fd5b610c47565b610be38282600d60009054906101000a900473ffffffffffffffffffffffffffffffffffffffff1673ffffffffffffffffffffffffffffffffffffffff16611b559092919063ffffffff16565b80600b6000828254610bf59190612a57565b925050819055506009546002600b54610c0e9190613058565b1015610c46576040517fb0d1026b00000000000000000000000000000000000000000000000000000000815260040160405180910390fd5b5b8173ffffffffffffffffffffffffffffffffffffffff168373ffffffffffffffffffffffffffffffffffffffff167f312a5e5e1079f5dda4e95dbbd0b908b291fd5b992ef22073643ab691572c5b5283604051610ca491906126e9565b60405180910390a3505050565b6000600760009054906101000a900473ffffffffffffffffffffffffffffffffffffffff16905090565b6000610ce5611bd4565b6000610cef610622565b90506000600c60009054906101000a900473ffffffffffffffffffffffffffffffffffffffff1673ffffffffffffffffffffffffffffffffffffffff166370a08231306040518263ffffffff1660e01b8152600401610d4e91906128e3565b602060405180830381865afa158015610d6b573d6000803e3d6000fd5b505050506040513d601f19601f82011682018060405250810190610d8f91906130af565b90506000600d60009054906101000a900473ffffffffffffffffffffffffffffffffffffffff1673ffffffffffffffffffffffffffffffffffffffff166370a08231306040518263ffffffff1660e01b8152600401610dee91906128e3565b602060405180830381865afa158015610e0b573d6000803e3d6000fd5b505050506040513d601f19601f82011682018060405250810190610e2f91906130af565b9050600080610e3c6105cd565b91509150600080818487610e509190612a57565b610e5a9190612a57565b90506000828487610e6b9190612a57565b610e759190612a57565b9050610e808a611c1a565b60008803610edb57610e9560006103e8611cb6565b600182610ea291906130dc565b9150600181610eb191906130dc565b90506103e8610eca8284610ec59190613058565b611e9e565b610ed49190612a57565b9850610f14565b610f11858984610eeb9190613058565b610ef5919061313f565b858a84610f029190613058565b610f0c919061313f565b611f97565b98505b610f1e8a8a611cb6565b610f2b8282600080611fb0565b7f4c209b5fc8ad50758f13e2e1088ba56a560dff690a1c6fef26394f4c03821c4f338383604051610f5e93929190613170565b60405180910390a15050505050505050610f76612032565b919050565b600080610f86611bd4565b600080600087148015610f995750600086145b15610fd0576040517f42301c2300000000000000000000000000000000000000000000000000000000815260040160405180910390fd5b600080610fdb61203c565b9150915081891180610fec57508088115b15611023576040517fe52970aa00000000000000000000000000000000000000000000000000000000815260040160405180910390fd5b60008911156111235780600d60009054906101000a900473ffffffffffffffffffffffffffffffffffffffff1673ffffffffffffffffffffffffffffffffffffffff166370a08231306040518263ffffffff1660e01b815260040161108891906128e3565b602060405180830381865afa1580156110a5573d6000803e3d6000fd5b505050506040513d601f19601f820116820180604052508101906110c991906130af565b6110d39190612a57565b9450611122878a600c60009054906101000a900473ffffffffffffffffffffffffffffffffffffffff1673ffffffffffffffffffffffffffffffffffffffff16611b559092919063ffffffff16565b5b60008811156112235781600c60009054906101000a900473ffffffffffffffffffffffffffffffffffffffff1673ffffffffffffffffffffffffffffffffffffffff166370a08231306040518263ffffffff1660e01b815260040161118891906128e3565b602060405180830381865afa1580156111a5573d6000803e3d6000fd5b505050506040513d601f19601f820116820180604052508101906111c991906130af565b6111d39190612a57565b95506112228789600d60009054906101000a900473ffffffffffffffffffffffffffffffffffffffff1673ffffffffffffffffffffffffffffffffffffffff16611b559092919063ffffffff16565b5b6112636040518060400160405280600281526020017f496e000000000000000000000000000000000000000000000000000000000000815250878761204d565b838661126f9190612a57565b9550828561127d9190612a57565b945061128b86868b8b611fb0565b6112d76040518060400160405280600281526020017f4b4900000000000000000000000000000000000000000000000000000000000081525082846112d09190613058565b84846120ec565b61132b6040518060400160405280600281526020017f4b460000000000000000000000000000000000000000000000000000000000008152506009546008546113209190613058565b6008546009546120ec565b60095460085461133b9190613058565b81836113479190613058565b111561137f576040517fbf6056e700000000000000000000000000000000000000000000000000000000815260040160405180910390fd5b50507fd78ad95fa46c994b6551d0da85fc275fe613ce37657fb8d5e3d130840159d8223385858a8a8a6040516113ba969594939291906131a7565b60405180910390a150506113cc612032565b935093915050565b6000600360008373ffffffffffffffffffffffffffffffffffffffff1673ffffffffffffffffffffffffffffffffffffffff168152602001908152602001600020549050919050565b60136020528060005260406000206000915090505481565b6000806000611443306113d4565b9050600061144f610622565b905080600854836114609190613058565b61146a919061313f565b9350806009548361147b9190613058565b611485919061313f565b925060008414806114965750600083145b156114cd576040517f749383ad00000000000000000000000000000000000000000000000000000000815260040160405180910390fd5b6114d685611c1a565b6114e0308361218e565b61152d8585600c60009054906101000a900473ffffffffffffffffffffffffffffffffffffffff1673ffffffffffffffffffffffffffffffffffffffff16611b559092919063ffffffff16565b61157a8584600d60009054906101000a900473ffffffffffffffffffffffffffffffffffffffff1673ffffffffffffffffffffffffffffffffffffffff16611b559092919063ffffffff16565b6000600c60009054906101000a900473ffffffffffffffffffffffffffffffffffffffff1673ffffffffffffffffffffffffffffffffffffffff166370a08231306040518263ffffffff1660e01b81526004016115d791906128e3565b602060405180830381865afa1580156115f4573d6000803e3d6000fd5b505050506040513d601f19601f8201168201806040525081019061161891906130af565b90506000600d60009054906101000a900473ffffffffffffffffffffffffffffffffffffffff1673ffffffffffffffffffffffffffffffffffffffff166370a08231306040518263ffffffff1660e01b815260040161167791906128e3565b602060405180830381865afa158015611694573d6000803e3d6000fd5b505050506040513d601f19601f820116820180604052508101906116b891906130af565b90506116c78282600080611fb0565b7fdccd412f0b1252819cb1fd330b93224ca42612892bb3f4f789976e6d819364963387878a6040516116fc9493929190613208565b60405180910390a150505050915091565b60146020528060005260406000206000915090505481565b60018054611732906129f7565b80601f016020809104026020016040519081016040528092919081815260200182805461175e906129f7565b80156117ab5780601f10611780576101008083540402835291602001916117ab565b820191906000526020600020905b81548152906001019060200180831161178e57829003601f168201915b505050505081565b600080600e549150600f5490509091565b60006117d1338484611a34565b6001905092915050565b6103e881565b600080601154915060125490509091565b6000600460008473ffffffffffffffffffffffffffffffffffffffff1673ffffffffffffffffffffffffffffffffffffffff16815260200190815260200160002060008373ffffffffffffffffffffffffffffffffffffffff1673ffffffffffffffffffffffffffffffffffffffff16815260200190815260200160002054905092915050565b600080601460008573ffffffffffffffffffffffffffffffffffffffff1673ffffffffffffffffffffffffffffffffffffffff16815260200190815260200160002054836118c79190612a57565b90506000670de0b6b3a7640000826118de876113d4565b6118e89190613058565b6118f2919061313f565b905080601360008773ffffffffffffffffffffffffffffffffffffffff1673ffffffffffffffffffffffffffffffffffffffff1681526020019081526020016000205461193f91906130dc565b9250505092915050565b80600460008573ffffffffffffffffffffffffffffffffffffffff1673ffffffffffffffffffffffffffffffffffffffff16815260200190815260200160002060008473ffffffffffffffffffffffffffffffffffffffff1673ffffffffffffffffffffffffffffffffffffffff168152602001908152602001600020819055508173ffffffffffffffffffffffffffffffffffffffff168373ffffffffffffffffffffffffffffffffffffffff167f8c5be1e5ebec7d5bd14f71427d1e84f3dd0314c0f7b2291e5b200ac8c7c3b92583604051611a2791906126e9565b60405180910390a3505050565b611a3f838383612267565b80600360008573ffffffffffffffffffffffffffffffffffffffff1673ffffffffffffffffffffffffffffffffffffffff1681526020019081526020016000206000828254611a8e9190612a57565b9250508190555080600360008473ffffffffffffffffffffffffffffffffffffffff1673ffffffffffffffffffffffffffffffffffffffff1681526020019081526020016000206000828254611ae491906130dc565b925050819055508173ffffffffffffffffffffffffffffffffffffffff168373ffffffffffffffffffffffffffffffffffffffff167fddf252ad1be2c89b69c2b068fc378daa952ba7f163c4a11628f55a4df523b3ef83604051611b4891906126e9565b60405180910390a3505050565b611bcf838473ffffffffffffffffffffffffffffffffffffffff1663a9059cbb8585604051602401611b8892919061324d565b604051602081830303815290604052915060e01b6020820180517bffffffffffffffffffffffffffffffffffffffffffffffffffffffff83818316178352505050506122b2565b505050565b600260065403611c10576040517f3ee5aeb500000000000000000000000000000000000000000000000000000000815260040160405180910390fd5b6002600681905550565b60006010549050611c2b8282611879565b601360008473ffffffffffffffffffffffffffffffffffffffff1673ffffffffffffffffffffffffffffffffffffffff1681526020019081526020016000208190555080601460008473ffffffffffffffffffffffffffffffffffffffff1673ffffffffffffffffffffffffffffffffffffffff168152602001908152602001600020819055505050565b6000600254821115611cd8576202a30042611cd191906130dc565b9050611d02565b6002546202a30083611cea9190613058565b611cf4919061313f565b42611cff91906130dc565b90505b600560008473ffffffffffffffffffffffffffffffffffffffff1673ffffffffffffffffffffffffffffffffffffffff16815260200190815260200160002060009054906101000a900463ffffffff1663ffffffff168163ffffffff161115611dc45780600560008573ffffffffffffffffffffffffffffffffffffffff1673ffffffffffffffffffffffffffffffffffffffff16815260200190815260200160002060006101000a81548163ffffffff021916908363ffffffff1602179055505b8160026000828254611dd691906130dc565b9250508190555081600360008573ffffffffffffffffffffffffffffffffffffffff1673ffffffffffffffffffffffffffffffffffffffff1681526020019081526020016000206000828254611e2c91906130dc565b925050819055508273ffffffffffffffffffffffffffffffffffffffff16600073ffffffffffffffffffffffffffffffffffffffff167fddf252ad1be2c89b69c2b068fc378daa952ba7f163c4a11628f55a4df523b3ef84604051611e9191906126e9565b60405180910390a3505050565b6000808203611eb05760009050611f92565b60006001611ebd84612349565b901c6001901b90506001818481611ed757611ed6613110565b5b048201901c90506001818481611ef057611eef613110565b5b048201901c90506001818481611f0957611f08613110565b5b048201901c90506001818481611f2257611f21613110565b5b048201901c90506001818481611f3b57611f3a613110565b5b048201901c90506001818481611f5457611f53613110565b5b048201901c90506001818481611f6d57611f6c613110565b5b048201901c9050611f8e81828581611f8857611f87613110565b5b04611f97565b9150505b919050565b6000818310611fa65781611fa8565b825b905092915050565b8382600854611fbf9190612a57565b611fc991906130dc565b6008819055508281600954611fde9190612a57565b611fe891906130dc565b6009819055508382600a54611ffd9190612a57565b61200791906130dc565b600a819055508281600b5461201c9190612a57565b61202691906130dc565b600b8190555050505050565b6001600681905550565b600080600a549150600b5490509091565b6120e783838360405160240161206593929190613276565b6040516020818303038152906040527fca47c4eb000000000000000000000000000000000000000000000000000000007bffffffffffffffffffffffffffffffffffffffffffffffffffffffff19166020820180517bffffffffffffffffffffffffffffffffffffffffffffffffffffffff838183161783525050505061242a565b505050565b6121888484848460405160240161210694939291906132b4565b6040516020818303038152906040527fa7a87853000000000000000000000000000000000000000000000000000000007bffffffffffffffffffffffffffffffffffffffffffffffffffffffff19166020820180517bffffffffffffffffffffffffffffffffffffffffffffffffffffffff838183161783525050505061242a565b50505050565b80600360008473ffffffffffffffffffffffffffffffffffffffff1673ffffffffffffffffffffffffffffffffffffffff16815260200190815260200160002060008282546121dd9190612a57565b9250508190555080600260008282546121f69190612a57565b92505081905550600073ffffffffffffffffffffffffffffffffffffffff168273ffffffffffffffffffffffffffffffffffffffff167fddf252ad1be2c89b69c2b068fc378daa952ba7f163c4a11628f55a4df523b3ef8360405161225b91906126e9565b60405180910390a35050565b61227083611c1a565b3073ffffffffffffffffffffffffffffffffffffffff168273ffffffffffffffffffffffffffffffffffffffff16146122ad576122ac82611c1a565b5b505050565b60006122dd828473ffffffffffffffffffffffffffffffffffffffff1661244490919063ffffffff16565b90506000815114158015612302575080806020019051810190612300919061332c565b155b1561234457826040517f5274afe700000000000000000000000000000000000000000000000000000000815260040161233b91906128e3565b60405180910390fd5b505050565b600080600090506000608084901c111561236b57608083901c92506080810190505b6000604084901c111561238657604083901c92506040810190505b6000602084901c11156123a157602083901c92506020810190505b6000601084901c11156123bc57601083901c92506010810190505b6000600884901c11156123d757600883901c92506008810190505b6000600484901c11156123f257600483901c92506004810190505b6000600284901c111561240d57600283901c92506002810190505b6000600184901c1115612421576001810190505b80915050919050565b6124418161243961245a61247b565b63ffffffff16565b50565b606061245283836000612486565b905092915050565b60006a636f6e736f6c652e6c6f679050600080835160208501845afa505050565b612627819050919050565b6060814710156124cd57306040517fcd7860590000000000000000000000000000000000000000000000000000000081526004016124c491906128e3565b60405180910390fd5b6000808573ffffffffffffffffffffffffffffffffffffffff1684866040516124f691906133a0565b60006040518083038185875af1925050503d8060008114612533576040519150601f19603f3d011682016040523d82523d6000602084013e612538565b606091505b5091509150612548868383612553565b925050509392505050565b60608261256857612563826125e2565b6125da565b60008251148015612590575060008473ffffffffffffffffffffffffffffffffffffffff163b145b156125d257836040517f9996b3150000000000000000000000000000000000000000000000000000000081526004016125c991906128e3565b60405180910390fd5b8190506125db565b5b9392505050565b6000815111156125f55780518082602001fd5b6040517f1425ea4200000000000000000000000000000000000000000000000000000000815260040160405180910390fd5b61262f6133b7565b565b6000604051905090565b600080fd5b600080fd5b600073ffffffffffffffffffffffffffffffffffffffff82169050919050565b600061267082612645565b9050919050565b61268081612665565b811461268b57600080fd5b50565b60008135905061269d81612677565b92915050565b6000602082840312156126b9576126b861263b565b5b60006126c78482850161268e565b91505092915050565b6000819050919050565b6126e3816126d0565b82525050565b60006020820190506126fe60008301846126da565b92915050565b600081519050919050565b600082825260208201905092915050565b60005b8381101561273e578082015181840152602081019050612723565b60008484015250505050565b6000601f19601f8301169050919050565b600061276682612704565b612770818561270f565b9350612780818560208601612720565b6127898161274a565b840191505092915050565b600060208201905081810360008301526127ae818461275b565b905092915050565b60006040820190506127cb60008301856126da565b6127d860208301846126da565b9392505050565b6127e8816126d0565b81146127f357600080fd5b50565b600081359050612805816127df565b92915050565b600080604083850312156128225761282161263b565b5b60006128308582860161268e565b9250506020612841858286016127f6565b9150509250929050565b60008115159050919050565b6128608161284b565b82525050565b600060208201905061287b6000830184612857565b92915050565b60008060006060848603121561289a5761289961263b565b5b60006128a88682870161268e565b93505060206128b98682870161268e565b92505060406128ca868287016127f6565b9150509250925092565b6128dd81612665565b82525050565b60006020820190506128f860008301846128d4565b92915050565b600060ff82169050919050565b612914816128fe565b82525050565b600060208201905061292f600083018461290b565b92915050565b6000806040838503121561294c5761294b61263b565b5b600061295a8582860161268e565b925050602061296b8582860161268e565b9150509250929050565b60008060006060848603121561298e5761298d61263b565b5b600061299c868287016127f6565b93505060206129ad868287016127f6565b92505060406129be8682870161268e565b9150509250925092565b7f4e487b7100000000000000000000000000000000000000000000000000000000600052602260045260246000fd5b60006002820490506001821680612a0f57607f821691505b602082108103612a2257612a216129c8565b5b50919050565b7f4e487b7100000000000000000000000000000000000000000000000000000000600052601160045260246000fd5b6000612a62826126d0565b9150612a6d836126d0565b9250828203905081811115612a8557612a84612a28565b5b92915050565b600080fd5b600080fd5b7f4e487b7100000000000000000000000000000000000000000000000000000000600052604160045260246000fd5b612acd8261274a565b810181811067ffffffffffffffff82111715612aec57612aeb612a95565b5b80604052505050565b6000612aff612631565b9050612b0b8282612ac4565b919050565b600067ffffffffffffffff821115612b2b57612b2a612a95565b5b612b348261274a565b9050602081019050919050565b6000612b54612b4f84612b10565b612af5565b905082815260208101848484011115612b7057612b6f612a90565b5b612b7b848285612720565b509392505050565b600082601f830112612b9857612b97612a8b565b5b8151612ba8848260208601612b41565b91505092915050565b600060208284031215612bc757612bc661263b565b5b600082015167ffffffffffffffff811115612be557612be4612640565b5b612bf184828501612b83565b91505092915050565b600081905092915050565b7f4c5377617054726164696e67506f6f6c3a200000000000000000000000000000600082015250565b6000612c3b601283612bfa565b9150612c4682612c05565b601282019050919050565b6000612c5c82612704565b612c668185612bfa565b9350612c76818560208601612720565b80840191505092915050565b7f2f00000000000000000000000000000000000000000000000000000000000000600082015250565b6000612cb8600183612bfa565b9150612cc382612c82565b600182019050919050565b6000612cd982612c2e565b9150612ce58285612c51565b9150612cf082612cab565b9150612cfc8284612c51565b91508190509392505050565b60008190508160005260206000209050919050565b60006020601f8301049050919050565b600082821b905092915050565b600060088302612d6a7fffffffffffffffffffffffffffffffffffffffffffffffffffffffffffffffff82612d2d565b612d748683612d2d565b95508019841693508086168417925050509392505050565b6000819050919050565b6000612db1612dac612da7846126d0565b612d8c565b6126d0565b9050919050565b6000819050919050565b612dcb83612d96565b612ddf612dd782612db8565b848454612d3a565b825550505050565b600090565b612df4612de7565b612dff818484612dc2565b505050565b5b81811015612e2357612e18600082612dec565b600181019050612e05565b5050565b601f821115612e6857612e3981612d08565b612e4284612d1d565b81016020851015612e51578190505b612e65612e5d85612d1d565b830182612e04565b50505b505050565b600082821c905092915050565b6000612e8b60001984600802612e6d565b1980831691505092915050565b6000612ea48383612e7a565b9150826002028217905092915050565b612ebd82612704565b67ffffffffffffffff811115612ed657612ed5612a95565b5b612ee082546129f7565b612eeb828285612e27565b600060209050601f831160018114612f1e5760008415612f0c578287015190505b612f168582612e98565b865550612f7e565b601f198416612f2c86612d08565b60005b82811015612f5457848901518255600182019150602085019450602081019050612f2f565b86831015612f715784890151612f6d601f891682612e7a565b8355505b6001600288020188555050505b505050505050565b7f4c537761702d0000000000000000000000000000000000000000000000000000600082015250565b6000612fbc600683612bfa565b9150612fc782612f86565b600682019050919050565b7f2d00000000000000000000000000000000000000000000000000000000000000600082015250565b6000613008600183612bfa565b915061301382612fd2565b600182019050919050565b600061302982612faf565b91506130358285612c51565b915061304082612ffb565b915061304c8284612c51565b91508190509392505050565b6000613063826126d0565b915061306e836126d0565b925082820261307c816126d0565b9150828204841483151761309357613092612a28565b5b5092915050565b6000815190506130a9816127df565b92915050565b6000602082840312156130c5576130c461263b565b5b60006130d38482850161309a565b91505092915050565b60006130e7826126d0565b91506130f2836126d0565b925082820190508082111561310a57613109612a28565b5b92915050565b7f4e487b7100000000000000000000000000000000000000000000000000000000600052601260045260246000fd5b600061314a826126d0565b9150613155836126d0565b92508261316557613164613110565b5b828204905092915050565b600060608201905061318560008301866128d4565b61319260208301856126da565b61319f60408301846126da565b949350505050565b600060c0820190506131bc60008301896128d4565b6131c960208301886126da565b6131d660408301876126da565b6131e360608301866126da565b6131f060808301856126da565b6131fd60a08301846128d4565b979650505050505050565b600060808201905061321d60008301876128d4565b61322a60208301866126da565b61323760408301856126da565b61324460608301846128d4565b95945050505050565b600060408201905061326260008301856128d4565b61326f60208301846126da565b9392505050565b60006060820190508181036000830152613290818661275b565b905061329f60208301856126da565b6132ac60408301846126da565b949350505050565b600060808201905081810360008301526132ce818761275b565b90506132dd60208301866126da565b6132ea60408301856126da565b6132f760608301846126da565b95945050505050565b6133098161284b565b811461331457600080fd5b50565b60008151905061332681613300565b92915050565b6000602082840312156133425761334161263b565b5b600061335084828501613317565b91505092915050565b600081519050919050565b600081905092915050565b600061337a82613359565b6133848185613364565b9350613394818560208601612720565b80840191505092915050565b60006133ac828461336f565b915081905092915050565b7f4e487b7100000000000000000000000000000000000000000000000000000000600052605160045260246000fdfea2646970667358221220b16461115e38c28f9fdcb58c1ecfd4f1da9461e3e016b3dee34f8c3681e505c064736f6c63430008140033",
  "linkReferences": {},
  "deployedLinkReferences": {}
}