{
  "_format": "hh-sol-artifact-1",
  "contractName": "LSwapPair",
  "sourceName": "contracts/LSwapPair.sol",
  "abi": [
    {
      "inputs": [
        {
          "internalType": "address",
          "name": "target",
          "type": "address"
        }
      ],
      "name": "AddressEmptyCode",
      "type": "error"
    },
    {
      "inputs": [
        {
          "internalType": "address",
          "name": "account",
          "type": "address"
        }
      ],
      "name": "AddressInsufficientBalance",
      "type": "error"
    },
    {
      "inputs": [],
      "name": "AlreadyInitialized",
      "type": "error"
    },
    {
      "inputs": [],
      "name": "CannotRemoveLiquidity",
      "type": "error"
    },
    {
      "inputs": [],
      "name": "FailedInnerCall",
      "type": "error"
    },
    {
      "inputs": [],
      "name": "Forbidden",
      "type": "error"
    },
    {
      "inputs": [],
      "name": "InsufficientAmountOut",
      "type": "error"
    },
    {
      "inputs": [],
      "name": "InsufficientLiquidityBurned",
      "type": "error"
    },
    {
      "inputs": [],
      "name": "InsufficientOutputAmount",
      "type": "error"
    },
    {
      "inputs": [],
      "name": "KInvariant",
      "type": "error"
    },
    {
      "inputs": [],
      "name": "LoanAmountGreaterThanThreshold",
      "type": "error"
    },
    {
      "inputs": [],
      "name": "MultipleOutputAmounts",
      "type": "error"
    },
    {
      "inputs": [],
      "name": "OnlyFactory",
      "type": "error"
    },
    {
      "inputs": [],
      "name": "ReentrancyGuardReentrantCall",
      "type": "error"
    },
    {
      "inputs": [
        {
          "internalType": "uint8",
          "name": "bits",
          "type": "uint8"
        },
        {
          "internalType": "uint256",
          "name": "value",
          "type": "uint256"
        }
      ],
      "name": "SafeCastOverflowedUintDowncast",
      "type": "error"
    },
    {
      "inputs": [
        {
          "internalType": "address",
          "name": "token",
          "type": "address"
        }
      ],
      "name": "SafeERC20FailedOperation",
      "type": "error"
    },
    {
      "anonymous": false,
      "inputs": [
        {
          "indexed": true,
          "internalType": "address",
          "name": "owner",
          "type": "address"
        },
        {
          "indexed": true,
          "internalType": "address",
          "name": "spender",
          "type": "address"
        },
        {
          "indexed": false,
          "internalType": "uint256",
          "name": "value",
          "type": "uint256"
        }
      ],
      "name": "Approval",
      "type": "event"
    },
    {
      "anonymous": false,
      "inputs": [
        {
          "indexed": true,
          "internalType": "address",
          "name": "tokenToBorrow",
          "type": "address"
        },
        {
          "indexed": true,
          "internalType": "address",
          "name": "borrower",
          "type": "address"
        },
        {
          "indexed": false,
          "internalType": "uint112",
          "name": "amount",
          "type": "uint112"
        }
      ],
      "name": "Borrow",
      "type": "event"
    },
    {
      "anonymous": false,
      "inputs": [
        {
          "indexed": false,
          "internalType": "address",
          "name": "",
          "type": "address"
        },
        {
          "indexed": false,
          "internalType": "uint256",
          "name": "",
          "type": "uint256"
        },
        {
          "indexed": false,
          "internalType": "uint256",
          "name": "",
          "type": "uint256"
        },
        {
          "indexed": false,
          "internalType": "address",
          "name": "",
          "type": "address"
        }
      ],
      "name": "Burn",
      "type": "event"
    },
    {
      "anonymous": false,
      "inputs": [
        {
          "indexed": false,
          "internalType": "address",
          "name": "",
          "type": "address"
        },
        {
          "indexed": false,
          "internalType": "uint256",
          "name": "",
          "type": "uint256"
        },
        {
          "indexed": false,
          "internalType": "uint256",
          "name": "",
          "type": "uint256"
        }
      ],
      "name": "Mint",
      "type": "event"
    },
    {
      "anonymous": false,
      "inputs": [
        {
          "indexed": true,
          "internalType": "address",
          "name": "tokenToRepay",
          "type": "address"
        },
        {
          "indexed": true,
          "internalType": "address",
          "name": "borrower",
          "type": "address"
        },
        {
          "indexed": false,
          "internalType": "uint112",
          "name": "debt",
          "type": "uint112"
        },
        {
          "indexed": false,
          "internalType": "uint112",
          "name": "interest",
          "type": "uint112"
        }
      ],
      "name": "Repay",
      "type": "event"
    },
    {
      "anonymous": false,
      "inputs": [
        {
          "indexed": false,
          "internalType": "address",
          "name": "",
          "type": "address"
        },
        {
          "indexed": false,
          "internalType": "uint256",
          "name": "",
          "type": "uint256"
        },
        {
          "indexed": false,
          "internalType": "uint256",
          "name": "",
          "type": "uint256"
        },
        {
          "indexed": false,
          "internalType": "uint256",
          "name": "",
          "type": "uint256"
        },
        {
          "indexed": false,
          "internalType": "uint256",
          "name": "",
          "type": "uint256"
        },
        {
          "indexed": false,
          "internalType": "address",
          "name": "",
          "type": "address"
        }
      ],
      "name": "Swap",
      "type": "event"
    },
    {
      "anonymous": false,
      "inputs": [
        {
          "indexed": true,
          "internalType": "uint112",
          "name": "reserve0",
          "type": "uint112"
        },
        {
          "indexed": true,
          "internalType": "uint112",
          "name": "reserve1",
          "type": "uint112"
        }
      ],
      "name": "Sync",
      "type": "event"
    },
    {
      "anonymous": false,
      "inputs": [
        {
          "indexed": true,
          "internalType": "address",
          "name": "from",
          "type": "address"
        },
        {
          "indexed": true,
          "internalType": "address",
          "name": "to",
          "type": "address"
        },
        {
          "indexed": false,
          "internalType": "uint256",
          "name": "value",
          "type": "uint256"
        }
      ],
      "name": "Transfer",
      "type": "event"
    },
    {
      "inputs": [],
      "name": "FACTORY",
      "outputs": [
        {
          "internalType": "address",
          "name": "",
          "type": "address"
        }
      ],
      "stateMutability": "view",
      "type": "function"
    },
    {
      "inputs": [],
      "name": "MINIMUM_LIQUIDITY",
      "outputs": [
        {
          "internalType": "uint256",
          "name": "",
          "type": "uint256"
        }
      ],
      "stateMutability": "view",
      "type": "function"
    },
    {
      "inputs": [
        {
          "internalType": "address",
          "name": "_owner",
          "type": "address"
        },
        {
          "internalType": "address",
          "name": "_spender",
          "type": "address"
        }
      ],
      "name": "allowance",
      "outputs": [
        {
          "internalType": "uint256",
          "name": "remaining",
          "type": "uint256"
        }
      ],
      "stateMutability": "view",
      "type": "function"
    },
    {
      "inputs": [
        {
          "internalType": "address",
          "name": "_spender",
          "type": "address"
        },
        {
          "internalType": "uint256",
          "name": "_value",
          "type": "uint256"
        }
      ],
      "name": "approve",
      "outputs": [
        {
          "internalType": "bool",
          "name": "success",
          "type": "bool"
        }
      ],
      "stateMutability": "nonpayable",
      "type": "function"
    },
    {
      "inputs": [
        {
          "internalType": "address",
          "name": "_owner",
          "type": "address"
        }
      ],
      "name": "balanceOf",
      "outputs": [
        {
          "internalType": "uint256",
          "name": "balance",
          "type": "uint256"
        }
      ],
      "stateMutability": "view",
      "type": "function"
    },
    {
      "inputs": [],
      "name": "blockTimestampLast",
      "outputs": [
        {
          "internalType": "uint32",
          "name": "",
          "type": "uint32"
        }
      ],
      "stateMutability": "view",
      "type": "function"
    },
    {
      "inputs": [
        {
          "internalType": "address",
          "name": "tokenToBorrow",
          "type": "address"
        },
        {
          "internalType": "address",
          "name": "borrower",
          "type": "address"
        },
        {
          "internalType": "uint112",
          "name": "amount",
          "type": "uint112"
        }
      ],
      "name": "borrow",
      "outputs": [],
      "stateMutability": "nonpayable",
      "type": "function"
    },
    {
      "inputs": [
        {
          "internalType": "address",
          "name": "to",
          "type": "address"
        }
      ],
      "name": "burn",
      "outputs": [
        {
          "internalType": "uint112",
          "name": "amountToken0",
          "type": "uint112"
        },
        {
          "internalType": "uint112",
          "name": "amountToken1",
          "type": "uint112"
        }
      ],
      "stateMutability": "nonpayable",
      "type": "function"
    },
    {
      "inputs": [],
      "name": "decimals",
      "outputs": [
        {
          "internalType": "uint8",
          "name": "",
          "type": "uint8"
        }
      ],
      "stateMutability": "view",
      "type": "function"
    },
    {
      "inputs": [
        {
          "internalType": "address",
          "name": "lp",
          "type": "address"
        }
      ],
      "name": "earned",
      "outputs": [
        {
          "internalType": "uint256",
          "name": "",
          "type": "uint256"
        },
        {
          "internalType": "uint256",
          "name": "",
          "type": "uint256"
        }
      ],
      "stateMutability": "view",
      "type": "function"
    },
    {
      "inputs": [
        {
          "internalType": "address",
          "name": "",
          "type": "address"
        }
      ],
      "name": "feesPerTokenPaid0",
      "outputs": [
        {
          "internalType": "uint256",
          "name": "",
          "type": "uint256"
        }
      ],
      "stateMutability": "view",
      "type": "function"
    },
    {
      "inputs": [
        {
          "internalType": "address",
          "name": "",
          "type": "address"
        }
      ],
      "name": "feesPerTokenPaid1",
      "outputs": [
        {
          "internalType": "uint256",
          "name": "",
          "type": "uint256"
        }
      ],
      "stateMutability": "view",
      "type": "function"
    },
    {
      "inputs": [],
      "name": "feesPerTokenStored0",
      "outputs": [
        {
          "internalType": "uint256",
          "name": "",
          "type": "uint256"
        }
      ],
      "stateMutability": "view",
      "type": "function"
    },
    {
      "inputs": [],
      "name": "feesPerTokenStored1",
      "outputs": [
        {
          "internalType": "uint256",
          "name": "",
          "type": "uint256"
        }
      ],
      "stateMutability": "view",
      "type": "function"
    },
    {
      "inputs": [],
      "name": "getActualReserves",
      "outputs": [
        {
          "internalType": "uint112",
          "name": "reserveToken0",
          "type": "uint112"
        },
        {
          "internalType": "uint112",
          "name": "reserveToken1",
          "type": "uint112"
        }
      ],
      "stateMutability": "view",
      "type": "function"
    },
    {
      "inputs": [],
      "name": "getFACTORY",
      "outputs": [
        {
          "internalType": "address",
          "name": "",
          "type": "address"
        }
      ],
      "stateMutability": "view",
      "type": "function"
    },
    {
      "inputs": [],
      "name": "getPendingLiquidityFees",
      "outputs": [
        {
          "internalType": "uint256",
          "name": "pendingLiquidityFees0",
          "type": "uint256"
        },
        {
          "internalType": "uint256",
          "name": "pendingLiquidityFees1",
          "type": "uint256"
        }
      ],
      "stateMutability": "view",
      "type": "function"
    },
    {
      "inputs": [],
      "name": "getPendingProtocolFees",
      "outputs": [
        {
          "internalType": "uint256",
          "name": "pendingProtocolFees0",
          "type": "uint256"
        },
        {
          "internalType": "uint256",
          "name": "pendingProtocolFees1",
          "type": "uint256"
        }
      ],
      "stateMutability": "view",
      "type": "function"
    },
    {
      "inputs": [],
      "name": "getReserves",
      "outputs": [
        {
          "internalType": "uint112",
          "name": "reserve0",
          "type": "uint112"
        },
        {
          "internalType": "uint112",
          "name": "reserve1",
          "type": "uint112"
        },
        {
          "internalType": "uint32",
          "name": "_blockTimestampLast",
          "type": "uint32"
        }
      ],
      "stateMutability": "view",
      "type": "function"
    },
    {
      "inputs": [],
      "name": "getTokens",
      "outputs": [
        {
          "internalType": "address",
          "name": "",
          "type": "address"
        },
        {
          "internalType": "address",
          "name": "",
          "type": "address"
        }
      ],
      "stateMutability": "view",
      "type": "function"
    },
    {
      "inputs": [
        {
          "internalType": "address",
          "name": "token0",
          "type": "address"
        },
        {
          "internalType": "address",
          "name": "token1",
          "type": "address"
        }
      ],
      "name": "initialize",
      "outputs": [],
      "stateMutability": "nonpayable",
      "type": "function"
    },
    {
      "inputs": [
        {
          "internalType": "address",
          "name": "",
          "type": "address"
        }
      ],
      "name": "lpFees0",
      "outputs": [
        {
          "internalType": "uint256",
          "name": "",
          "type": "uint256"
        }
      ],
      "stateMutability": "view",
      "type": "function"
    },
    {
      "inputs": [
        {
          "internalType": "address",
          "name": "",
          "type": "address"
        }
      ],
      "name": "lpFees1",
      "outputs": [
        {
          "internalType": "uint256",
          "name": "",
          "type": "uint256"
        }
      ],
      "stateMutability": "view",
      "type": "function"
    },
    {
      "inputs": [
        {
          "internalType": "address",
          "name": "to",
          "type": "address"
        }
      ],
      "name": "mint",
      "outputs": [
        {
          "internalType": "uint256",
          "name": "liquidity",
          "type": "uint256"
        }
      ],
      "stateMutability": "nonpayable",
      "type": "function"
    },
    {
      "inputs": [],
      "name": "name",
      "outputs": [
        {
          "internalType": "string",
          "name": "",
          "type": "string"
        }
      ],
      "stateMutability": "view",
      "type": "function"
    },
    {
      "inputs": [],
      "name": "price0CumulativeLast",
      "outputs": [
        {
          "internalType": "uint256",
          "name": "",
          "type": "uint256"
        }
      ],
      "stateMutability": "view",
      "type": "function"
    },
    {
      "inputs": [],
      "name": "price1CumulativeLast",
      "outputs": [
        {
          "internalType": "uint256",
          "name": "",
          "type": "uint256"
        }
      ],
      "stateMutability": "view",
      "type": "function"
    },
    {
      "inputs": [
        {
          "internalType": "address",
          "name": "tokenToRepay",
          "type": "address"
        },
        {
          "internalType": "address",
          "name": "borrower",
          "type": "address"
        },
        {
          "internalType": "uint112",
          "name": "debt",
          "type": "uint112"
        },
        {
          "internalType": "uint112",
          "name": "interest",
          "type": "uint112"
        }
      ],
      "name": "repay",
      "outputs": [],
      "stateMutability": "nonpayable",
      "type": "function"
    },
    {
      "inputs": [
        {
          "internalType": "address",
          "name": "debtor",
          "type": "address"
        },
        {
          "internalType": "address",
          "name": "liquidator",
          "type": "address"
        },
        {
          "internalType": "uint256",
          "name": "amount",
          "type": "uint256"
        }
      ],
      "name": "seizeTokens",
      "outputs": [],
      "stateMutability": "nonpayable",
      "type": "function"
    },
    {
      "inputs": [
        {
          "internalType": "uint112",
          "name": "amountToken0Out",
          "type": "uint112"
        },
        {
          "internalType": "uint112",
          "name": "amountToken1Out",
          "type": "uint112"
        },
        {
          "internalType": "address",
          "name": "to",
          "type": "address"
        }
      ],
      "name": "swap",
      "outputs": [
        {
          "internalType": "uint112",
          "name": "amountInToken0",
          "type": "uint112"
        },
        {
          "internalType": "uint112",
          "name": "amountInToken1",
          "type": "uint112"
        }
      ],
      "stateMutability": "nonpayable",
      "type": "function"
    },
    {
      "inputs": [],
      "name": "symbol",
      "outputs": [
        {
          "internalType": "string",
          "name": "",
          "type": "string"
        }
      ],
      "stateMutability": "view",
      "type": "function"
    },
    {
      "inputs": [],
      "name": "totalSupply",
      "outputs": [
        {
          "internalType": "uint256",
          "name": "",
          "type": "uint256"
        }
      ],
      "stateMutability": "view",
      "type": "function"
    },
    {
      "inputs": [
        {
          "internalType": "address",
          "name": "_to",
          "type": "address"
        },
        {
          "internalType": "uint256",
          "name": "_value",
          "type": "uint256"
        }
      ],
      "name": "transfer",
      "outputs": [
        {
          "internalType": "bool",
          "name": "success",
          "type": "bool"
        }
      ],
      "stateMutability": "nonpayable",
      "type": "function"
    },
    {
      "inputs": [
        {
          "internalType": "address",
          "name": "_from",
          "type": "address"
        },
        {
          "internalType": "address",
          "name": "_to",
          "type": "address"
        },
        {
          "internalType": "uint256",
          "name": "_value",
          "type": "uint256"
        }
      ],
      "name": "transferFrom",
      "outputs": [
        {
          "internalType": "bool",
          "name": "success",
          "type": "bool"
        }
      ],
      "stateMutability": "nonpayable",
      "type": "function"
    },
    {
      "inputs": [
        {
          "internalType": "address",
          "name": "to",
          "type": "address"
        }
      ],
      "name": "withdrawFees",
      "outputs": [],
      "stateMutability": "nonpayable",
      "type": "function"
    }
  ],
  "bytecode": "0x608060405234801561001057600080fd5b50600160075561291f806100256000396000f3fe608060405234801561001057600080fd5b50600436106102105760003560e01c80636101cb36116101255780639de3beec116100ad578063ba9a7a561161007c578063ba9a7a5614610505578063c5700a021461050e578063d03c1ec614610533578063d5f839fc14610546578063dd62ed3e1461055157600080fd5b80639de3beec146104a15780639f0f79be146104ac578063a9059cbb146104cc578063aa6ca808146104df57600080fd5b80637c8e91d2116100f45780637c8e91d21461044a57806380b125b51461045d57806389afcb441461046657806395d89b411461047957806397951def1461048157600080fd5b80636101cb36146103f45780636298fb3c146103fd5780636a6278421461040e57806370a082311461042157600080fd5b80631d3d39eb116101a8578063313ce56711610177578063313ce567146103a2578063322ca4d6146103bc578063485cc955146103cf5780635909c0d5146103e25780635a3d5493146103eb57600080fd5b80631d3d39eb14610331578063217d988b1461034457806323b872dd146103645780632dd310001461037757600080fd5b80630d9e5b9b116101e45780630d9e5b9b146102ae578063164e68de146102dc57806318160ddd146102f15780631849d2c5146102f957600080fd5b80628cc2621461021557806306fdde03146102425780630902f1ac14610257578063095ea7b31461028b575b600080fd5b6102286102233660046122a6565b61058a565b604080519283526020830191909152015b60405180910390f35b61024a6105a5565b60405161023991906122e5565b61025f610633565b604080516001600160701b03948516815293909216602084015263ffffffff1690820152606001610239565b61029e610299366004612318565b6106b0565b6040519015158152602001610239565b6102ce6102bc3660046122a6565b60176020526000908152604090205481565b604051908152602001610239565b6102ef6102ea3660046122a6565b6106c7565b005b6003546102ce565b6009546001600160701b0380821691600160701b9004165b604080516001600160701b03938416815292909116602083015201610239565b6102ef61033f366004612359565b6107a4565b6102ce6103523660046122a6565b60156020526000908152604090205481565b61029e61037236600461239c565b61098e565b60005461038a906001600160a01b031681565b6040516001600160a01b039091168152602001610239565b6103aa601281565b60405160ff9091168152602001610239565b6102ef6103ca36600461239c565b610aa1565b6102ef6103dd3660046123d8565b610ad8565b6102ce60105481565b6102ce60115481565b6102ce600e5481565b6000546001600160a01b031661038a565b6102ce61041c3660046122a6565b610c5f565b6102ce61042f3660046122a6565b6001600160a01b031660009081526004602052604090205490565b6102ef61045836600461240b565b610ea5565b6102ce600f5481565b6103116104743660046122a6565b610fe9565b61024a61123b565b6102ce61048f3660046122a6565b60186020526000908152604090205481565b600c54600d54610228565b6102ce6104ba3660046122a6565b60166020526000908152604090205481565b61029e6104da366004612318565b611248565b600a54600b54604080516001600160a01b03938416815292909116602083015201610239565b6102ce6103e881565b60125461051e9063ffffffff1681565b60405163ffffffff9091168152602001610239565b61031161054136600461245f565b6112f3565b601354601454610228565b6102ce61055f3660046123d8565b6001600160a01b03918216600090815260056020908152604080832093909416825291909152205490565b60008061059c83600e54600f546115e7565b91509150915091565b600180546105b290612499565b80601f01602080910402602001604051908101604052809291908181526020018280546105de90612499565b801561062b5780601f106106005761010080835404028352916020019161062b565b820191906000526020600020905b81548152906001019060200180831161060e57829003601f168201915b505050505081565b6008546000908190819061010090046001600160701b0316610656576001610668565b60085461010090046001600160701b03165b600854909350600160781b90046001600160701b031661068957600161069d565b600854600160781b90046001600160701b03165b6012549394909363ffffffff1692509050565b60006106bd3384846116f7565b5060015b92915050565b6000806106d983600e54600f546115e7565b915091508160001461073f57600e546001600160a01b03841660009081526017602090815260408083209390935560159052908120819055600c80548492906107239084906124e9565b9091555050600a5461073f906001600160a01b03168484611750565b801561079f57600f546001600160a01b03841660009081526018602090815260408083209390935560169052908120819055600d80548392906107839084906124e9565b9091555050600b5461079f906001600160a01b03168483611750565b505050565b6000546001600160a01b031633146107cf57604051630636a15760e11b815260040160405180910390fd5b600a546001600160a01b039081169084160361088a57600a54610805906001600160a01b0316836001600160701b038416611750565b600980548291906000906108239084906001600160701b03166124fc565b82546001600160701b0391821661010093840a90810290830219909116179092556008546009549190048216925061085d91166002612523565b6001600160701b031610156108855760405163b0d1026b60e01b815260040160405180910390fd5b61093c565b600b546108aa906001600160a01b0316836001600160701b038416611750565b806009600e8282829054906101000a90046001600160701b03166108ce91906124fc565b82546101009290920a6001600160701b03818102199093169183160217909155600854600954600160781b9091048216925061091491600160701b909104166002612523565b6001600160701b0316101561093c5760405163b0d1026b60e01b815260040160405180910390fd5b6040516001600160701b03821681526001600160a01b0380841691908516907fe178ec2130bfc4af9b4e9240b9174f6b743fcc1fed155efe7252c5bf4d3dee7d906020015b60405180910390a3505050565b6001600160a01b0383166000908152600560209081526040808320338452909152812054600019146109f3576001600160a01b0384166000908152600560209081526040808320338452909152812080548492906109ed9084906124e9565b90915550505b6109fe8484846117af565b60008054604051633966a28b60e01b81526001600160a01b03878116600483015230602483015290911690633966a28b90604401602060405180830381865afa158015610a4f573d6000803e3d6000fd5b505050506040513d601f19601f82011682018060405250810190610a73919061254e565b90508015610a945760405163c49354c560e01b815260040160405180910390fd5b60019150505b9392505050565b6000546001600160a01b03163314610acc57604051630636a15760e11b815260040160405180910390fd5b61079f3084848461185b565b60008054336001600160a01b0319918216178255600a805482166001600160a01b03868116918217909255600b805490931691851691909117909155604080516306fdde0360e01b815290516306fdde039160048082019286929091908290030181865afa158015610b4e573d6000803e3d6000fd5b505050506040513d6000823e601f3d908101601f19168201604052610b769190810190612586565b90506000600b60009054906101000a90046001600160a01b03166001600160a01b03166306fdde036040518163ffffffff1660e01b8152600401600060405180830381865afa158015610bcd573d6000803e3d6000fd5b505050506040513d6000823e601f3d908101601f19168201604052610bf59190810190612586565b90508181604051602001610c0a929190612633565b60405160208183030381529060405260019081610c2791906126db565b508181604051602001610c3b92919061279b565b60405160208183030381529060405260029081610c5891906126db565b5050505050565b6000610c6961189a565b6000610c7460035490565b600a546040516370a0823160e01b8152306004820152919250600091610cee916001600160a01b0316906370a08231906024015b602060405180830381865afa158015610cc5573d6000803e3d6000fd5b505050506040513d601f19601f82011682018060405250810190610ce991906127e9565b6118c4565b600b546040516370a0823160e01b8152306004820152919250600091610d26916001600160a01b0316906370a0823190602401610ca8565b9050600080610d496009546001600160701b0380821692600160701b9092041690565b909250905060008080610d5c85886124fc565b610d6691906124fc565b9050600082610d7585886124fc565b610d7f91906124fc565b9050610d8a8a611901565b87600003610dd157610d9f60006103e8611953565b6103e8610dc0610dbb6001600160701b03808516908616612802565b611a72565b610dca91906124e9565b9850610e2e565b610e2b856001600160701b031689846001600160701b0316610df39190612802565b610dfd919061282f565b856001600160701b03168a846001600160701b0316610e1c9190612802565b610e26919061282f565b611b56565b98505b610e388a8a611953565b610e458282600080611b6c565b604080513381526001600160701b03848116602083015283168183015290517f4c209b5fc8ad50758f13e2e1088ba56a560dff690a1c6fef26394f4c03821c4f9181900360600190a15050505050505050610ea06001600755565b919050565b6000546001600160a01b03163314610ed057604051630636a15760e11b815260040160405180910390fd5b600a546001600160a01b0390811690851603610f3a5760098054839190600090610f049084906001600160701b0316612843565b92506101000a8154816001600160701b0302191690836001600160701b03160217905550610f33816000611e3b565b5050610f90565b816009600e8282829054906101000a90046001600160701b0316610f5e9190612843565b92506101000a8154816001600160701b0302191690836001600160701b03160217905550610f8d600082611e3b565b50505b604080516001600160701b038085168252831660208201526001600160a01b0380861692908716917f50b1c9b6fb94865e068e98bf8aaa1f3903d658a60245e1874090bd6ea3a13b6d910160405180910390a350505050565b306000908152600460205260408120548190600061100660035490565b60085490915081906110269061010090046001600160701b031684612802565b611030919061282f565b600854909450819061105290600160781b90046001600160701b031684612802565b61105c919061282f565b92506001600160701b038416158061107b57506001600160701b038316155b156110995760405163749383ad60e01b815260040160405180910390fd5b6110a285611901565b6110ac3083611f98565b600a546110cc906001600160a01b0316866001600160701b038716611750565b600b546110ec906001600160a01b0316866001600160701b038616611750565b600a546040516370a0823160e01b81523060048201526000916001600160a01b0316906370a0823190602401602060405180830381865afa158015611135573d6000803e3d6000fd5b505050506040513d601f19601f8201168201806040525081019061115991906127e9565b600b546040516370a0823160e01b81523060048201529192506000916001600160a01b03909116906370a0823190602401602060405180830381865afa1580156111a7573d6000803e3d6000fd5b505050506040513d601f19601f820116820180604052508101906111cb91906127e9565b90506111da8282600080611b6c565b604080513381526001600160701b0388811660208301528716818301526001600160a01b038916606082015290517fdccd412f0b1252819cb1fd330b93224ca42612892bb3f4f789976e6d819364969181900360800190a150505050915091565b600280546105b290612499565b60006112553384846117af565b60008054604051633966a28b60e01b81523360048201523060248201526001600160a01b0390911690633966a28b90604401602060405180830381865afa1580156112a4573d6000803e3d6000fd5b505050506040513d601f19601f820116820180604052508101906112c8919061254e565b905080156112e95760405163c49354c560e01b815260040160405180910390fd5b5060019392505050565b6000806112fe61189a565b6000806001600160701b03871615801561131f57506001600160701b038616155b1561133d576040516342301c2360e01b815260040160405180910390fd5b60008061135e6009546001600160701b0380821692600160701b9092041690565b91509150816001600160701b0316896001600160701b031611806113935750806001600160701b0316886001600160701b0316115b156113b157604051637294b85560e11b815260040160405180910390fd5b6001600160701b0389161561146957600b546040516370a0823160e01b8152306004820152611446916001600160701b038416916001600160a01b03909116906370a08231906024015b602060405180830381865afa158015611418573d6000803e3d6000fd5b505050506040513d601f19601f8201168201806040525081019061143c91906127e9565b610ce991906124e9565b600a54909550611469906001600160a01b0316886001600160701b038c16611750565b6001600160701b038816156114da57600a546040516370a0823160e01b81523060048201526114b7916001600160701b038516916001600160a01b03909116906370a08231906024016113fb565b600b549096506114da906001600160a01b0316886001600160701b038b16611750565b6114e48686612023565b5091955093506114f6905084876124fc565b955061150283866124fc565b945061151086868b8b611b6c565b600854611534906001600160701b03600160781b8204811691610100900416612802565b61154a6001600160701b03808416908516612802565b11156115695760405163bf6056e760e01b815260040160405180910390fd5b5050604080513381526001600160701b038681166020830152858116828401528981166060830152881660808201526001600160a01b03871660a082015290517fd78ad95fa46c994b6551d0da85fc275fe613ce37657fb8d5e3d130840159d8229181900360c00190a150506115df6001600755565b935093915050565b600080600061160b866001600160a01b031660009081526004602052604090205490565b6001600160a01b0387166000908152601760205260408120549192509061163290876124e9565b6001600160a01b0388166000908152601860205260408120549192509061165990876124e9565b90506000670de0b6b3a76400006116708486612802565b61167a919061282f565b90506000670de0b6b3a76400006116918487612802565b61169b919061282f565b6001600160a01b038b166000908152601560205260409020549091506116c2908390612863565b6001600160a01b038b166000908152601660205260409020546116e6908390612863565b965096505050505050935093915050565b6001600160a01b0383811660008181526005602090815260408083209487168084529482529182902085905590518481527f8c5be1e5ebec7d5bd14f71427d1e84f3dd0314c0f7b2291e5b200ac8c7c3b9259101610981565b6040516001600160a01b0383811660248301526044820183905261079f91859182169063a9059cbb906064015b604051602081830303815290604052915060e01b6020820180516001600160e01b03838183161783525050505061206f565b6117ba8383836120d2565b6001600160a01b038316600090815260046020526040812080548392906117e29084906124e9565b90915550506001600160a01b0382166000908152600460205260408120805483929061180f908490612863565b92505081905550816001600160a01b0316836001600160a01b03167fddf252ad1be2c89b69c2b068fc378daa952ba7f163c4a11628f55a4df523b3ef8360405161098191815260200190565b6040516001600160a01b0384811660248301528381166044830152606482018390526118949186918216906323b872dd9060840161177d565b50505050565b6002600754036118bd57604051633ee5aeb560e01b815260040160405180910390fd5b6002600755565b60006001600160701b038211156118fd576040516306dfcc6560e41b815260706004820152602481018390526044015b60405180910390fd5b5090565b600e54600f546119128383836115e7565b6001600160a01b0390941660009081526015602090815260408083206016835281842097909755929095556017855281812093909355601890935291902055565b60006003548211156119735761196c6202a30042612863565b905061199a565b6003546119836202a30084612802565b61198d919061282f565b6119979042612863565b90505b6001600160a01b03831660009081526006602052604090205463ffffffff90811690821611156119f0576001600160a01b0383166000908152600660205260409020805463ffffffff191663ffffffff83161790555b8160036000828254611a029190612863565b90915550506001600160a01b03831660009081526004602052604081208054849290611a2f908490612863565b90915550506040518281526001600160a01b038416906000907fddf252ad1be2c89b69c2b068fc378daa952ba7f163c4a11628f55a4df523b3ef90602001610981565b600081600003611a8457506000919050565b60006001611a91846120f4565b901c6001901b90506001818481611aaa57611aaa612819565b048201901c90506001818481611ac257611ac2612819565b048201901c90506001818481611ada57611ada612819565b048201901c90506001818481611af257611af2612819565b048201901c90506001818481611b0a57611b0a612819565b048201901c90506001818481611b2257611b22612819565b048201901c90506001818481611b3a57611b3a612819565b048201901c9050610a9a81828581611b5457611b54612819565b045b6000818310611b655781610a9a565b5090919050565b6008546001600160701b036101008204811691600160781b90041683611b928784612843565b611b9c91906124fc565b600880546001600160701b0392909216610100026effffffffffffffffffffffffffff001990921691909117905582611bd58683612843565b611bdf91906124fc565b600880546dffffffffffffffffffffffffffff60781b1916600160781b6001600160701b03938416021790556009548791611c1c918791166124fc565b611c269190612843565b600980546dffffffffffffffffffffffffffff19166001600160701b0392831617908190558691611c61918691600160701b909104166124fc565b611c6b9190612843565b600980546001600160701b0392909216600160701b026dffffffffffffffffffffffffffff60701b199092169190911790556000611cae64010000000042612876565b601254909150600090611cc79063ffffffff168361288a565b905060008163ffffffff16118015611ce757506001600160701b03841615155b8015611cfb57506001600160701b03831615155b15611d87576001600160701b038416611d1a63ffffffff831685612523565b6001600160701b0316611d2d919061282f565b60106000828254611d3e9190612863565b90915550506001600160701b038316611d5d63ffffffff831686612523565b6001600160701b0316611d70919061282f565b60116000828254611d819190612863565b90915550505b6012805463ffffffff191663ffffffff8416179055600054604051630e0dc3b960e11b81523060048201526001600160a01b0390911690631c1b877290602401600060405180830381600087803b158015611de157600080fd5b505af1158015611df5573d6000803e3d6000fd5b50506040516001600160701b038087169350871691507f1c411e9a96e071241c2f21f7726b17ae89e3cab4c78be50e062b03a9fffbbad190600090a35050505050505050565b6000806000611e4960035490565b90506064611e5886605a612523565b611e6291906128a7565b92506064611e7185605a612523565b611e7b91906128a7565b9150611e8783866124fc565b6001600160701b031660136000828254611ea19190612863565b90915550611eb1905082856124fc565b6001600160701b031660146000828254611ecb9190612863565b92505081905550826001600160701b0316600c6000828254611eed9190612863565b92505081905550816001600160701b0316600d6000828254611f0f9190612863565b90915550819050611f316001600160701b038516670de0b6b3a7640000612802565b611f3b919061282f565b600e6000828254611f4c9190612863565b90915550819050611f6e6001600160701b038416670de0b6b3a7640000612802565b611f78919061282f565b600f6000828254611f899190612863565b92505081905550509250929050565b6001600160a01b03821660009081526004602052604081208054839290611fc09084906124e9565b925050819055508060036000828254611fd991906124e9565b90915550506040518181526000906001600160a01b038416907fddf252ad1be2c89b69c2b068fc378daa952ba7f163c4a11628f55a4df523b3ef9060200160405180910390a35050565b60008080806064612035876001612523565b61203f91906128a7565b9350606461204e866001612523565b61205891906128a7565b92506120648484611e3b565b505092959194509250565b60006120846001600160a01b03841683612188565b905080516000141580156120a95750808060200190518101906120a7919061254e565b155b1561079f57604051635274afe760e01b81526001600160a01b03841660048201526024016118f4565b6120db83611901565b6001600160a01b038216301461079f5761079f82611901565b600080608083901c1561210957608092831c92015b604083901c1561211b57604092831c92015b602083901c1561212d57602092831c92015b601083901c1561213f57601092831c92015b600883901c1561215157600892831c92015b600483901c1561216357600492831c92015b600283901c1561217557600292831c92015b600183901c156106c15760010192915050565b6060610a9a8383600084600080856001600160a01b031684866040516121ae91906128cd565b60006040518083038185875af1925050503d80600081146121eb576040519150601f19603f3d011682016040523d82523d6000602084013e6121f0565b606091505b509150915061220086838361220a565b9695505050505050565b60608261221f5761221a82612266565b610a9a565b815115801561223657506001600160a01b0384163b155b1561225f57604051639996b31560e01b81526001600160a01b03851660048201526024016118f4565b5080610a9a565b8051156122765780518082602001fd5b604051630a12f52160e11b815260040160405180910390fd5b80356001600160a01b0381168114610ea057600080fd5b6000602082840312156122b857600080fd5b610a9a8261228f565b60005b838110156122dc5781810151838201526020016122c4565b50506000910152565b60208152600082518060208401526123048160408501602087016122c1565b601f01601f19169190910160400192915050565b6000806040838503121561232b57600080fd5b6123348361228f565b946020939093013593505050565b80356001600160701b0381168114610ea057600080fd5b60008060006060848603121561236e57600080fd5b6123778461228f565b92506123856020850161228f565b915061239360408501612342565b90509250925092565b6000806000606084860312156123b157600080fd5b6123ba8461228f565b92506123c86020850161228f565b9150604084013590509250925092565b600080604083850312156123eb57600080fd5b6123f48361228f565b91506124026020840161228f565b90509250929050565b6000806000806080858703121561242157600080fd5b61242a8561228f565b93506124386020860161228f565b925061244660408601612342565b915061245460608601612342565b905092959194509250565b60008060006060848603121561247457600080fd5b61247d84612342565b925061248b60208501612342565b91506123936040850161228f565b600181811c908216806124ad57607f821691505b6020821081036124cd57634e487b7160e01b600052602260045260246000fd5b50919050565b634e487b7160e01b600052601160045260246000fd5b818103818111156106c1576106c16124d3565b6001600160701b0382811682821603908082111561251c5761251c6124d3565b5092915050565b6001600160701b03818116838216028082169190828114612546576125466124d3565b505092915050565b60006020828403121561256057600080fd5b81518015158114610a9a57600080fd5b634e487b7160e01b600052604160045260246000fd5b60006020828403121561259857600080fd5b815167ffffffffffffffff808211156125b057600080fd5b818401915084601f8301126125c457600080fd5b8151818111156125d6576125d6612570565b604051601f8201601f19908116603f011681019083821181831017156125fe576125fe612570565b8160405282815287602084870101111561261757600080fd5b6126288360208301602088016122c1565b979650505050505050565b7102629bbb0b82a3930b234b733a837b7b61d160751b8152600083516126608160128501602088016122c1565b602f60f81b60129184019182015283516126818160138401602088016122c1565b01601301949350505050565b601f82111561079f57600081815260208120601f850160051c810160208610156126b45750805b601f850160051c820191505b818110156126d3578281556001016126c0565b505050505050565b815167ffffffffffffffff8111156126f5576126f5612570565b612709816127038454612499565b8461268d565b602080601f83116001811461273e57600084156127265750858301515b600019600386901b1c1916600185901b1785556126d3565b600085815260208120601f198616915b8281101561276d5788860151825594840194600190910190840161274e565b508582101561278b5787850151600019600388901b60f8161c191681555b5050505050600190811b01905550565b654c537761702d60d01b8152600083516127bc8160068501602088016122c1565b602d60f81b60069184019182015283516127dd8160078401602088016122c1565b01600701949350505050565b6000602082840312156127fb57600080fd5b5051919050565b80820281158282048414176106c1576106c16124d3565b634e487b7160e01b600052601260045260246000fd5b60008261283e5761283e612819565b500490565b6001600160701b0381811683821601908082111561251c5761251c6124d3565b808201808211156106c1576106c16124d3565b60008261288557612885612819565b500690565b63ffffffff82811682821603908082111561251c5761251c6124d3565b60006001600160701b03808416806128c1576128c1612819565b92169190910492915050565b600082516128df8184602087016122c1565b919091019291505056fea26469706673582212208cf822beee961a5a4c31ff47de49d763c014245299f9580356999d2a9cd9015864736f6c63430008140033",
  "linkReferences": {},
  "deployedLinkReferences": {}
}