{
  "_format": "hh-sol-artifact-1",
  "contractName": "LSwapPair",
  "sourceName": "contracts/LSwapPair.sol",
  "abi": [
    {
      "inputs": [
        {
          "internalType": "address",
          "name": "target",
          "type": "address"
        }
      ],
      "name": "AddressEmptyCode",
      "type": "error"
    },
    {
      "inputs": [
        {
          "internalType": "address",
          "name": "account",
          "type": "address"
        }
      ],
      "name": "AddressInsufficientBalance",
      "type": "error"
    },
    {
      "inputs": [],
      "name": "FailedInnerCall",
      "type": "error"
    },
    {
      "inputs": [],
      "name": "Forbidden",
      "type": "error"
    },
    {
      "inputs": [],
      "name": "InsufficientAmountOut",
      "type": "error"
    },
    {
      "inputs": [],
      "name": "InsufficientLiquidityBurned",
      "type": "error"
    },
    {
      "inputs": [],
      "name": "InsufficientOutputAmount",
      "type": "error"
    },
    {
      "inputs": [],
      "name": "KInvariant",
      "type": "error"
    },
    {
      "inputs": [],
      "name": "LoanAmountGreaterThanThreshold",
      "type": "error"
    },
    {
      "inputs": [],
      "name": "MultipleOutputAmounts",
      "type": "error"
    },
    {
      "inputs": [],
      "name": "OnlyFactory",
      "type": "error"
    },
    {
      "inputs": [],
      "name": "ReentrancyGuardReentrantCall",
      "type": "error"
    },
    {
      "inputs": [
        {
          "internalType": "uint8",
          "name": "bits",
          "type": "uint8"
        },
        {
          "internalType": "uint256",
          "name": "value",
          "type": "uint256"
        }
      ],
      "name": "SafeCastOverflowedUintDowncast",
      "type": "error"
    },
    {
      "inputs": [
        {
          "internalType": "address",
          "name": "token",
          "type": "address"
        }
      ],
      "name": "SafeERC20FailedOperation",
      "type": "error"
    },
    {
      "anonymous": false,
      "inputs": [
        {
          "indexed": true,
          "internalType": "address",
          "name": "owner",
          "type": "address"
        },
        {
          "indexed": true,
          "internalType": "address",
          "name": "spender",
          "type": "address"
        },
        {
          "indexed": false,
          "internalType": "uint256",
          "name": "value",
          "type": "uint256"
        }
      ],
      "name": "Approval",
      "type": "event"
    },
    {
      "anonymous": false,
      "inputs": [
        {
          "indexed": true,
          "internalType": "address",
          "name": "tokenToBorrow",
          "type": "address"
        },
        {
          "indexed": true,
          "internalType": "address",
          "name": "borrower",
          "type": "address"
        },
        {
          "indexed": false,
          "internalType": "uint112",
          "name": "amount",
          "type": "uint112"
        }
      ],
      "name": "Borrow",
      "type": "event"
    },
    {
      "anonymous": false,
      "inputs": [
        {
          "indexed": false,
          "internalType": "address",
          "name": "",
          "type": "address"
        },
        {
          "indexed": false,
          "internalType": "uint256",
          "name": "",
          "type": "uint256"
        },
        {
          "indexed": false,
          "internalType": "uint256",
          "name": "",
          "type": "uint256"
        },
        {
          "indexed": false,
          "internalType": "address",
          "name": "",
          "type": "address"
        }
      ],
      "name": "Burn",
      "type": "event"
    },
    {
      "anonymous": false,
      "inputs": [
        {
          "indexed": false,
          "internalType": "address",
          "name": "",
          "type": "address"
        },
        {
          "indexed": false,
          "internalType": "uint256",
          "name": "",
          "type": "uint256"
        },
        {
          "indexed": false,
          "internalType": "uint256",
          "name": "",
          "type": "uint256"
        }
      ],
      "name": "Mint",
      "type": "event"
    },
    {
      "anonymous": false,
      "inputs": [
        {
          "indexed": true,
          "internalType": "address",
          "name": "tokenToRepay",
          "type": "address"
        },
        {
          "indexed": true,
          "internalType": "address",
          "name": "borrower",
          "type": "address"
        },
        {
          "indexed": false,
          "internalType": "uint112",
          "name": "debt",
          "type": "uint112"
        },
        {
          "indexed": false,
          "internalType": "uint112",
          "name": "interest",
          "type": "uint112"
        }
      ],
      "name": "Repay",
      "type": "event"
    },
    {
      "anonymous": false,
      "inputs": [
        {
          "indexed": false,
          "internalType": "address",
          "name": "",
          "type": "address"
        },
        {
          "indexed": false,
          "internalType": "uint256",
          "name": "",
          "type": "uint256"
        },
        {
          "indexed": false,
          "internalType": "uint256",
          "name": "",
          "type": "uint256"
        },
        {
          "indexed": false,
          "internalType": "uint256",
          "name": "",
          "type": "uint256"
        },
        {
          "indexed": false,
          "internalType": "uint256",
          "name": "",
          "type": "uint256"
        },
        {
          "indexed": false,
          "internalType": "address",
          "name": "",
          "type": "address"
        }
      ],
      "name": "Swap",
      "type": "event"
    },
    {
      "anonymous": false,
      "inputs": [
        {
          "indexed": true,
          "internalType": "uint112",
          "name": "reserve0",
          "type": "uint112"
        },
        {
          "indexed": true,
          "internalType": "uint112",
          "name": "reserve1",
          "type": "uint112"
        }
      ],
      "name": "Sync",
      "type": "event"
    },
    {
      "anonymous": false,
      "inputs": [
        {
          "indexed": true,
          "internalType": "address",
          "name": "from",
          "type": "address"
        },
        {
          "indexed": true,
          "internalType": "address",
          "name": "to",
          "type": "address"
        },
        {
          "indexed": false,
          "internalType": "uint256",
          "name": "value",
          "type": "uint256"
        }
      ],
      "name": "Transfer",
      "type": "event"
    },
    {
      "inputs": [],
      "name": "FACTORY",
      "outputs": [
        {
          "internalType": "address",
          "name": "",
          "type": "address"
        }
      ],
      "stateMutability": "view",
      "type": "function"
    },
    {
      "inputs": [],
      "name": "MINIMUM_LIQUIDITY",
      "outputs": [
        {
          "internalType": "uint256",
          "name": "",
          "type": "uint256"
        }
      ],
      "stateMutability": "view",
      "type": "function"
    },
    {
      "inputs": [
        {
          "internalType": "address",
          "name": "_owner",
          "type": "address"
        },
        {
          "internalType": "address",
          "name": "_spender",
          "type": "address"
        }
      ],
      "name": "allowance",
      "outputs": [
        {
          "internalType": "uint256",
          "name": "remaining",
          "type": "uint256"
        }
      ],
      "stateMutability": "view",
      "type": "function"
    },
    {
      "inputs": [
        {
          "internalType": "address",
          "name": "_spender",
          "type": "address"
        },
        {
          "internalType": "uint256",
          "name": "_value",
          "type": "uint256"
        }
      ],
      "name": "approve",
      "outputs": [
        {
          "internalType": "bool",
          "name": "success",
          "type": "bool"
        }
      ],
      "stateMutability": "nonpayable",
      "type": "function"
    },
    {
      "inputs": [
        {
          "internalType": "address",
          "name": "_owner",
          "type": "address"
        }
      ],
      "name": "balanceOf",
      "outputs": [
        {
          "internalType": "uint256",
          "name": "balance",
          "type": "uint256"
        }
      ],
      "stateMutability": "view",
      "type": "function"
    },
    {
      "inputs": [],
      "name": "blockTimestampLast",
      "outputs": [
        {
          "internalType": "uint32",
          "name": "",
          "type": "uint32"
        }
      ],
      "stateMutability": "view",
      "type": "function"
    },
    {
      "inputs": [
        {
          "internalType": "address",
          "name": "tokenToBorrow",
          "type": "address"
        },
        {
          "internalType": "address",
          "name": "borrower",
          "type": "address"
        },
        {
          "internalType": "uint112",
          "name": "amount",
          "type": "uint112"
        }
      ],
      "name": "borrow",
      "outputs": [],
      "stateMutability": "nonpayable",
      "type": "function"
    },
    {
      "inputs": [
        {
          "internalType": "address",
          "name": "to",
          "type": "address"
        }
      ],
      "name": "burn",
      "outputs": [
        {
          "internalType": "uint112",
          "name": "amountToken0",
          "type": "uint112"
        },
        {
          "internalType": "uint112",
          "name": "amountToken1",
          "type": "uint112"
        }
      ],
      "stateMutability": "nonpayable",
      "type": "function"
    },
    {
      "inputs": [],
      "name": "decimals",
      "outputs": [
        {
          "internalType": "uint8",
          "name": "",
          "type": "uint8"
        }
      ],
      "stateMutability": "view",
      "type": "function"
    },
    {
      "inputs": [
        {
          "internalType": "address",
          "name": "lp",
          "type": "address"
        }
      ],
      "name": "earned",
      "outputs": [
        {
          "internalType": "uint256",
          "name": "",
          "type": "uint256"
        },
        {
          "internalType": "uint256",
          "name": "",
          "type": "uint256"
        }
      ],
      "stateMutability": "view",
      "type": "function"
    },
    {
      "inputs": [
        {
          "internalType": "address",
          "name": "",
          "type": "address"
        }
      ],
      "name": "feesPerTokenPaid0",
      "outputs": [
        {
          "internalType": "uint256",
          "name": "",
          "type": "uint256"
        }
      ],
      "stateMutability": "view",
      "type": "function"
    },
    {
      "inputs": [
        {
          "internalType": "address",
          "name": "",
          "type": "address"
        }
      ],
      "name": "feesPerTokenPaid1",
      "outputs": [
        {
          "internalType": "uint256",
          "name": "",
          "type": "uint256"
        }
      ],
      "stateMutability": "view",
      "type": "function"
    },
    {
      "inputs": [],
      "name": "feesPerTokenStored0",
      "outputs": [
        {
          "internalType": "uint256",
          "name": "",
          "type": "uint256"
        }
      ],
      "stateMutability": "view",
      "type": "function"
    },
    {
      "inputs": [],
      "name": "feesPerTokenStored1",
      "outputs": [
        {
          "internalType": "uint256",
          "name": "",
          "type": "uint256"
        }
      ],
      "stateMutability": "view",
      "type": "function"
    },
    {
      "inputs": [],
      "name": "getActualReserves",
      "outputs": [
        {
          "internalType": "uint112",
          "name": "reserveToken0",
          "type": "uint112"
        },
        {
          "internalType": "uint112",
          "name": "reserveToken1",
          "type": "uint112"
        }
      ],
      "stateMutability": "view",
      "type": "function"
    },
    {
      "inputs": [],
      "name": "getFACTORY",
      "outputs": [
        {
          "internalType": "address",
          "name": "",
          "type": "address"
        }
      ],
      "stateMutability": "view",
      "type": "function"
    },
    {
      "inputs": [],
      "name": "getPendingLiquidityFees",
      "outputs": [
        {
          "internalType": "uint256",
          "name": "pendingLiquidityFees0",
          "type": "uint256"
        },
        {
          "internalType": "uint256",
          "name": "pendingLiquidityFees1",
          "type": "uint256"
        }
      ],
      "stateMutability": "view",
      "type": "function"
    },
    {
      "inputs": [],
      "name": "getPendingProtocolFees",
      "outputs": [
        {
          "internalType": "uint256",
          "name": "pendingProtocolFees0",
          "type": "uint256"
        },
        {
          "internalType": "uint256",
          "name": "pendingProtocolFees1",
          "type": "uint256"
        }
      ],
      "stateMutability": "view",
      "type": "function"
    },
    {
      "inputs": [],
      "name": "getReserves",
      "outputs": [
        {
          "internalType": "uint112",
          "name": "reserve0",
          "type": "uint112"
        },
        {
          "internalType": "uint112",
          "name": "reserve1",
          "type": "uint112"
        },
        {
          "internalType": "uint32",
          "name": "_blockTimestampLast",
          "type": "uint32"
        }
      ],
      "stateMutability": "view",
      "type": "function"
    },
    {
      "inputs": [],
      "name": "getTokens",
      "outputs": [
        {
          "internalType": "address",
          "name": "",
          "type": "address"
        },
        {
          "internalType": "address",
          "name": "",
          "type": "address"
        }
      ],
      "stateMutability": "view",
      "type": "function"
    },
    {
      "inputs": [
        {
          "internalType": "address",
          "name": "token0",
          "type": "address"
        },
        {
          "internalType": "address",
          "name": "token1",
          "type": "address"
        }
      ],
      "name": "initialize",
      "outputs": [],
      "stateMutability": "nonpayable",
      "type": "function"
    },
    {
      "inputs": [
        {
          "internalType": "address",
          "name": "",
          "type": "address"
        }
      ],
      "name": "lpFees0",
      "outputs": [
        {
          "internalType": "uint256",
          "name": "",
          "type": "uint256"
        }
      ],
      "stateMutability": "view",
      "type": "function"
    },
    {
      "inputs": [
        {
          "internalType": "address",
          "name": "",
          "type": "address"
        }
      ],
      "name": "lpFees1",
      "outputs": [
        {
          "internalType": "uint256",
          "name": "",
          "type": "uint256"
        }
      ],
      "stateMutability": "view",
      "type": "function"
    },
    {
      "inputs": [
        {
          "internalType": "address",
          "name": "to",
          "type": "address"
        }
      ],
      "name": "mint",
      "outputs": [
        {
          "internalType": "uint256",
          "name": "liquidity",
          "type": "uint256"
        }
      ],
      "stateMutability": "nonpayable",
      "type": "function"
    },
    {
      "inputs": [],
      "name": "name",
      "outputs": [
        {
          "internalType": "string",
          "name": "",
          "type": "string"
        }
      ],
      "stateMutability": "view",
      "type": "function"
    },
    {
      "inputs": [],
      "name": "price0CumulativeLast",
      "outputs": [
        {
          "internalType": "uint256",
          "name": "",
          "type": "uint256"
        }
      ],
      "stateMutability": "view",
      "type": "function"
    },
    {
      "inputs": [],
      "name": "price1CumulativeLast",
      "outputs": [
        {
          "internalType": "uint256",
          "name": "",
          "type": "uint256"
        }
      ],
      "stateMutability": "view",
      "type": "function"
    },
    {
      "inputs": [
        {
          "internalType": "address",
          "name": "tokenToRepay",
          "type": "address"
        },
        {
          "internalType": "address",
          "name": "borrower",
          "type": "address"
        },
        {
          "internalType": "uint112",
          "name": "debt",
          "type": "uint112"
        },
        {
          "internalType": "uint112",
          "name": "interest",
          "type": "uint112"
        }
      ],
      "name": "repay",
      "outputs": [],
      "stateMutability": "nonpayable",
      "type": "function"
    },
    {
      "inputs": [
        {
          "internalType": "uint112",
          "name": "amountToken0Out",
          "type": "uint112"
        },
        {
          "internalType": "uint112",
          "name": "amountToken1Out",
          "type": "uint112"
        },
        {
          "internalType": "address",
          "name": "to",
          "type": "address"
        }
      ],
      "name": "swap",
      "outputs": [
        {
          "internalType": "uint112",
          "name": "amountInToken0",
          "type": "uint112"
        },
        {
          "internalType": "uint112",
          "name": "amountInToken1",
          "type": "uint112"
        }
      ],
      "stateMutability": "nonpayable",
      "type": "function"
    },
    {
      "inputs": [],
      "name": "symbol",
      "outputs": [
        {
          "internalType": "string",
          "name": "",
          "type": "string"
        }
      ],
      "stateMutability": "view",
      "type": "function"
    },
    {
      "inputs": [],
      "name": "totalSupply",
      "outputs": [
        {
          "internalType": "uint256",
          "name": "",
          "type": "uint256"
        }
      ],
      "stateMutability": "view",
      "type": "function"
    },
    {
      "inputs": [
        {
          "internalType": "address",
          "name": "_to",
          "type": "address"
        },
        {
          "internalType": "uint256",
          "name": "_value",
          "type": "uint256"
        }
      ],
      "name": "transfer",
      "outputs": [
        {
          "internalType": "bool",
          "name": "success",
          "type": "bool"
        }
      ],
      "stateMutability": "nonpayable",
      "type": "function"
    },
    {
      "inputs": [
        {
          "internalType": "address",
          "name": "_from",
          "type": "address"
        },
        {
          "internalType": "address",
          "name": "_to",
          "type": "address"
        },
        {
          "internalType": "uint256",
          "name": "_value",
          "type": "uint256"
        }
      ],
      "name": "transferFrom",
      "outputs": [
        {
          "internalType": "bool",
          "name": "success",
          "type": "bool"
        }
      ],
      "stateMutability": "nonpayable",
      "type": "function"
    },
    {
      "inputs": [
        {
          "internalType": "address",
          "name": "to",
          "type": "address"
        }
      ],
      "name": "withdrawFees",
      "outputs": [],
      "stateMutability": "nonpayable",
      "type": "function"
    }
  ],
  "bytecode": "0x608060405234801561001057600080fd5b506001600655612970806100256000396000f3fe608060405234801561001057600080fd5b50600436106102055760003560e01c80636298fb3c1161011a5780639de3beec116100ad578063ba9a7a561161007c578063ba9a7a56146104e7578063c5700a02146104f0578063d03c1ec614610515578063d5f839fc14610528578063dd62ed3e1461053357600080fd5b80639de3beec146104835780639f0f79be1461048e578063a9059cbb146104ae578063aa6ca808146104c157600080fd5b806380b125b5116100e957806380b125b51461043f57806389afcb441461044857806395d89b411461045b57806397951def1461046357600080fd5b80636298fb3c146103df5780636a627842146103f057806370a08231146104035780637c8e91d21461042c57600080fd5b80631d3d39eb1161019d578063313ce5671161016c578063313ce56714610397578063485cc955146103b15780635909c0d5146103c45780635a3d5493146103cd5780636101cb36146103d657600080fd5b80631d3d39eb14610326578063217d988b1461033957806323b872dd146103595780632dd310001461036c57600080fd5b80630d9e5b9b116101d95780630d9e5b9b146102a3578063164e68de146102d157806318160ddd146102e65780631849d2c5146102ee57600080fd5b80628cc2621461020a57806306fdde03146102375780630902f1ac1461024c578063095ea7b314610280575b600080fd5b61021d610218366004612297565b61056c565b604080519283526020830191909152015b60405180910390f35b61023f610587565b60405161022e9190612302565b610254610615565b604080516001600160701b03948516815293909216602084015263ffffffff169082015260600161022e565b61029361028e366004612315565b610688565b604051901515815260200161022e565b6102c36102b1366004612297565b60176020526000908152604090205481565b60405190815260200161022e565b6102e46102df366004612297565b61069f565b005b6002546102c3565b6009546001600160701b0380821691600160701b9004165b604080516001600160701b0393841681529290911660208301520161022e565b6102e4610334366004612356565b61077c565b6102c3610347366004612297565b60156020526000908152604090205481565b610293610367366004612399565b61095f565b60075461037f906001600160a01b031681565b6040516001600160a01b03909116815260200161022e565b61039f601281565b60405160ff909116815260200161022e565b6102e46103bf3660046123d5565b6109da565b6102c360105481565b6102c360115481565b6102c3600e5481565b6007546001600160a01b031661037f565b6102c36103fe366004612297565b610b65565b6102c3610411366004612297565b6001600160a01b031660009081526003602052604090205490565b6102e461043a366004612408565b610dab565b6102c3600f5481565b610306610456366004612297565b610eef565b61023f61113c565b6102c3610471366004612297565b60186020526000908152604090205481565b600c54600d5461021d565b6102c361049c366004612297565b60166020526000908152604090205481565b6102936104bc366004612315565b611149565b600a54600b54604080516001600160a01b0393841681529290911660208301520161022e565b6102c36103e881565b6012546105009063ffffffff1681565b60405163ffffffff909116815260200161022e565b61030661052336600461245c565b611156565b60135460145461021d565b6102c36105413660046123d5565b6001600160a01b03918216600090815260046020908152604080832093909416825291909152205490565b60008061057e83600e54600f5461155f565b91509150915091565b6000805461059490612496565b80601f01602080910402602001604051908101604052809291908181526020018280546105c090612496565b801561060d5780601f106105e25761010080835404028352916020019161060d565b820191906000526020600020905b8154815290600101906020018083116105f057829003601f168201915b505050505081565b600854600090819081906001600160701b0316610633576001610640565b6008546001600160701b03165b600854909350600160701b90046001600160701b0316610661576001610675565b600854600160701b90046001600160701b03165b6012549394909363ffffffff1692509050565b600061069533848461166f565b5060015b92915050565b6000806106b183600e54600f5461155f565b915091508160001461071757600e546001600160a01b03841660009081526017602090815260408083209390935560159052908120819055600c80548492906106fb9084906124e6565b9091555050600a54610717906001600160a01b031684846116c8565b801561077757600f546001600160a01b03841660009081526018602090815260408083209390935560169052908120819055600d805483929061075b9084906124e6565b9091555050600b54610777906001600160a01b031684836116c8565b505050565b6007546001600160a01b031633146107a757604051630636a15760e11b815260040160405180910390fd5b600a546001600160a01b039081169084160361085f57600a546107dd906001600160a01b0316836001600160701b0384166116c8565b600980548291906000906107fb9084906001600160701b03166124f9565b82546101009290920a6001600160701b03818102199093169183160217909155600854600954908216925061083291166002612520565b6001600160701b0316101561085a5760405163b0d1026b60e01b815260040160405180910390fd5b61090d565b600b5461087f906001600160a01b0316836001600160701b0384166116c8565b806009600e8282829054906101000a90046001600160701b03166108a391906124f9565b82546101009290920a6001600160701b03818102199093169183160217909155600854600954600160701b91829004831693506108e592919004166002612520565b6001600160701b0316101561090d5760405163b0d1026b60e01b815260040160405180910390fd5b6040516001600160701b03821681526001600160a01b0380841691908516907fe178ec2130bfc4af9b4e9240b9174f6b743fcc1fed155efe7252c5bf4d3dee7d906020015b60405180910390a3505050565b6001600160a01b0383166000908152600460209081526040808320338452909152812054600019146109c4576001600160a01b0384166000908152600460209081526040808320338452909152812080548492906109be9084906124e6565b90915550505b6109cf84848461171a565b5060015b9392505050565b60078054336001600160a01b031991821617909155600a805482166001600160a01b03858116918217909255600b805490931691841691909117909155604080516306fdde0360e01b81529051600092916306fdde0391600480830192869291908290030181865afa158015610a54573d6000803e3d6000fd5b505050506040513d6000823e601f3d908101601f19168201604052610a7c9190810190612561565b90506000600b60009054906101000a90046001600160a01b03166001600160a01b03166306fdde036040518163ffffffff1660e01b8152600401600060405180830381865afa158015610ad3573d6000803e3d6000fd5b505050506040513d6000823e601f3d908101601f19168201604052610afb9190810190612561565b90508181604051602001610b1092919061260e565b60405160208183030381529060405260009081610b2d91906126b6565b508181604051602001610b41929190612776565b60405160208183030381529060405260019081610b5e91906126b6565b5050505050565b6000610b6f6117c6565b6000610b7a60025490565b600a546040516370a0823160e01b8152306004820152919250600091610bf4916001600160a01b0316906370a08231906024015b602060405180830381865afa158015610bcb573d6000803e3d6000fd5b505050506040513d601f19601f82011682018060405250810190610bef91906127c4565b6117f0565b600b546040516370a0823160e01b8152306004820152919250600091610c2c916001600160a01b0316906370a0823190602401610bae565b9050600080610c4f6009546001600160701b0380821692600160701b9092041690565b909250905060008080610c6285886124f9565b610c6c91906124f9565b9050600082610c7b85886124f9565b610c8591906124f9565b9050610c908a61182d565b87600003610cd757610ca560006103e861187f565b6103e8610cc6610cc16001600160701b038085169086166127dd565b61199e565b610cd091906124e6565b9850610d34565b610d31856001600160701b031689846001600160701b0316610cf991906127dd565b610d03919061280a565b856001600160701b03168a846001600160701b0316610d2291906127dd565b610d2c919061280a565b611a82565b98505b610d3e8a8a61187f565b610d4b8282600080611a98565b604080513381526001600160701b03848116602083015283168183015290517f4c209b5fc8ad50758f13e2e1088ba56a560dff690a1c6fef26394f4c03821c4f9181900360600190a15050505050505050610da66001600655565b919050565b6007546001600160a01b03163314610dd657604051630636a15760e11b815260040160405180910390fd5b600a546001600160a01b0390811690851603610e405760098054839190600090610e0a9084906001600160701b031661281e565b92506101000a8154816001600160701b0302191690836001600160701b03160217905550610e39816000611d40565b5050610e96565b816009600e8282829054906101000a90046001600160701b0316610e64919061281e565b92506101000a8154816001600160701b0302191690836001600160701b03160217905550610e93600082611d40565b50505b604080516001600160701b038085168252831660208201526001600160a01b0380861692908716917f50b1c9b6fb94865e068e98bf8aaa1f3903d658a60245e1874090bd6ea3a13b6d910160405180910390a350505050565b3060009081526003602052604081205481906000610f0c60025490565b6008549091508190610f27906001600160701b0316846127dd565b610f31919061280a565b6008549094508190610f5390600160701b90046001600160701b0316846127dd565b610f5d919061280a565b92506001600160701b0384161580610f7c57506001600160701b038316155b15610f9a5760405163749383ad60e01b815260040160405180910390fd5b610fa38561182d565b610fad3083611e9d565b600a54610fcd906001600160a01b0316866001600160701b0387166116c8565b600b54610fed906001600160a01b0316866001600160701b0386166116c8565b600a546040516370a0823160e01b81523060048201526000916001600160a01b0316906370a0823190602401602060405180830381865afa158015611036573d6000803e3d6000fd5b505050506040513d601f19601f8201168201806040525081019061105a91906127c4565b600b546040516370a0823160e01b81523060048201529192506000916001600160a01b03909116906370a0823190602401602060405180830381865afa1580156110a8573d6000803e3d6000fd5b505050506040513d601f19601f820116820180604052508101906110cc91906127c4565b90506110db8282600080611a98565b604080513381526001600160701b0388811660208301528716818301526001600160a01b038916606082015290517fdccd412f0b1252819cb1fd330b93224ca42612892bb3f4f789976e6d819364969181900360800190a150505050915091565b6001805461059490612496565b600061069533848461171a565b6000806111616117c6565b6000806001600160701b03871615801561118257506001600160701b038616155b156111a0576040516342301c2360e01b815260040160405180910390fd5b6000806111c16009546001600160701b0380821692600160701b9092041690565b91509150816001600160701b0316896001600160701b031611806111f65750806001600160701b0316886001600160701b0316115b1561121457604051637294b85560e11b815260040160405180910390fd5b6001600160701b038916156112cc57600b546040516370a0823160e01b81523060048201526112a9916001600160701b038416916001600160a01b03909116906370a08231906024015b602060405180830381865afa15801561127b573d6000803e3d6000fd5b505050506040513d601f19601f8201168201806040525081019061129f91906127c4565b610bef91906124e6565b600a549095506112cc906001600160a01b0316886001600160701b038c166116c8565b6001600160701b0388161561133d57600a546040516370a0823160e01b815230600482015261131a916001600160701b038516916001600160a01b03909116906370a082319060240161125e565b600b5490965061133d906001600160a01b0316886001600160701b038b166116c8565b6113478686611f28565b5050604080518082019091526005815264024b71d10160dd1b60208201529195509350611381906001600160701b03808916908816611f74565b6113bb60405180604001604052806005815260200164027baba1d160dd1b8152508a6001600160701b03168a6001600160701b0316611f74565b6113c584876124f9565b95506113d183866124f9565b94506113df86868b8b611a98565b611434604051806040016040528060028152602001614b4960f01b815250826001600160701b0316846001600160701b031661141b91906127dd565b846001600160701b0316846001600160701b0316611fbb565b60408051808201909152600281526125a360f11b602082015260085461148d9190611471906001600160701b03600160701b8204811691166127dd565b6008546001600160701b0380821691600160701b900416611fbb565b6008546114ac906001600160701b03600160701b8204811691166127dd565b6114c26001600160701b038084169085166127dd565b11156114e15760405163bf6056e760e01b815260040160405180910390fd5b5050604080513381526001600160701b038681166020830152858116828401528981166060830152881660808201526001600160a01b03871660a082015290517fd78ad95fa46c994b6551d0da85fc275fe613ce37657fb8d5e3d130840159d8229181900360c00190a150506115576001600655565b935093915050565b6000806000611583866001600160a01b031660009081526003602052604090205490565b6001600160a01b038716600090815260176020526040812054919250906115aa90876124e6565b6001600160a01b038816600090815260186020526040812054919250906115d190876124e6565b90506000670de0b6b3a76400006115e884866127dd565b6115f2919061280a565b90506000670de0b6b3a764000061160984876127dd565b611613919061280a565b6001600160a01b038b1660009081526015602052604090205490915061163a90839061283e565b6001600160a01b038b1660009081526016602052604090205461165e90839061283e565b965096505050505050935093915050565b6001600160a01b0383811660008181526004602090815260408083209487168084529482529182902085905590518481527f8c5be1e5ebec7d5bd14f71427d1e84f3dd0314c0f7b2291e5b200ac8c7c3b9259101610952565b604080516001600160a01b038416602482015260448082018490528251808303909101815260649091019091526020810180516001600160e01b031663a9059cbb60e01b17905261077790849061200a565b61172583838361206d565b6001600160a01b0383166000908152600360205260408120805483929061174d9084906124e6565b90915550506001600160a01b0382166000908152600360205260408120805483929061177a90849061283e565b92505081905550816001600160a01b0316836001600160a01b03167fddf252ad1be2c89b69c2b068fc378daa952ba7f163c4a11628f55a4df523b3ef8360405161095291815260200190565b6002600654036117e957604051633ee5aeb560e01b815260040160405180910390fd5b6002600655565b60006001600160701b03821115611829576040516306dfcc6560e41b815260706004820152602481018390526044015b60405180910390fd5b5090565b600e54600f5461183e83838361155f565b6001600160a01b0390941660009081526015602090815260408083206016835281842097909755929095556017855281812093909355601890935291902055565b600060025482111561189f576118986202a3004261283e565b90506118c6565b6002546118af6202a300846127dd565b6118b9919061280a565b6118c3904261283e565b90505b6001600160a01b03831660009081526005602052604090205463ffffffff908116908216111561191c576001600160a01b0383166000908152600560205260409020805463ffffffff191663ffffffff83161790555b816002600082825461192e919061283e565b90915550506001600160a01b0383166000908152600360205260408120805484929061195b90849061283e565b90915550506040518281526001600160a01b038416906000907fddf252ad1be2c89b69c2b068fc378daa952ba7f163c4a11628f55a4df523b3ef90602001610952565b6000816000036119b057506000919050565b600060016119bd8461208f565b901c6001901b905060018184816119d6576119d66127f4565b048201901c905060018184816119ee576119ee6127f4565b048201901c90506001818481611a0657611a066127f4565b048201901c90506001818481611a1e57611a1e6127f4565b048201901c90506001818481611a3657611a366127f4565b048201901c90506001818481611a4e57611a4e6127f4565b048201901c90506001818481611a6657611a666127f4565b048201901c90506109d381828581611a8057611a806127f4565b045b6000818310611a9157816109d3565b5090919050565b6008546001600160701b0380821691600160701b90041683611aba878461281e565b611ac491906124f9565b600880546001600160701b0319166001600160701b039290921691909117905582611aef868361281e565b611af991906124f9565b60088054600160701b600160e01b031916600160701b6001600160701b03938416021790556009548791611b2f918791166124f9565b611b39919061281e565b600980546001600160701b0319166001600160701b0392831617908190558691611b6d918691600160701b909104166124f9565b611b77919061281e565b600980546001600160701b0392909216600160701b02600160701b600160e01b03199092169190911790556000611bb364010000000042612851565b601254909150600090611bcc9063ffffffff1683612865565b905060008163ffffffff16118015611bec57506001600160701b03841615155b8015611c0057506001600160701b03831615155b15611c8c576001600160701b038416611c1f63ffffffff831685612520565b6001600160701b0316611c32919061280a565b60106000828254611c43919061283e565b90915550506001600160701b038316611c6263ffffffff831686612520565b6001600160701b0316611c75919061280a565b60116000828254611c86919061283e565b90915550505b6012805463ffffffff191663ffffffff8416179055600754604051630e0dc3b960e11b81523060048201526001600160a01b0390911690631c1b877290602401600060405180830381600087803b158015611ce657600080fd5b505af1158015611cfa573d6000803e3d6000fd5b50506040516001600160701b038087169350871691507f1c411e9a96e071241c2f21f7726b17ae89e3cab4c78be50e062b03a9fffbbad190600090a35050505050505050565b6000806000611d4e60025490565b90506064611d5d86605a612520565b611d679190612882565b92506064611d7685605a612520565b611d809190612882565b9150611d8c83866124f9565b6001600160701b031660136000828254611da6919061283e565b90915550611db6905082856124f9565b6001600160701b031660146000828254611dd0919061283e565b92505081905550826001600160701b0316600c6000828254611df2919061283e565b92505081905550816001600160701b0316600d6000828254611e14919061283e565b90915550819050611e366001600160701b038516670de0b6b3a76400006127dd565b611e40919061280a565b600e6000828254611e51919061283e565b90915550819050611e736001600160701b038416670de0b6b3a76400006127dd565b611e7d919061280a565b600f6000828254611e8e919061283e565b92505081905550509250929050565b6001600160a01b03821660009081526003602052604081208054839290611ec59084906124e6565b925050819055508060026000828254611ede91906124e6565b90915550506040518181526000906001600160a01b038416907fddf252ad1be2c89b69c2b068fc378daa952ba7f163c4a11628f55a4df523b3ef9060200160405180910390a35050565b60008080806064611f3a876001612520565b611f449190612882565b93506064611f53866001612520565b611f5d9190612882565b9250611f698484611d40565b505092959194509250565b610777838383604051602401611f8c939291906128a8565b60408051601f198184030181529190526020810180516001600160e01b031663ca47c4eb60e01b179052612123565b61200484848484604051602401611fd594939291906128cd565b60408051601f198184030181529190526020810180516001600160e01b031663a7a8785360e01b179052612123565b50505050565b600061201f6001600160a01b0384168361212f565b9050805160001415801561204457508080602001905181019061204291906128fc565b155b1561077757604051635274afe760e01b81526001600160a01b0384166004820152602401611820565b6120768361182d565b6001600160a01b0382163014610777576107778261182d565b600080608083901c156120a457608092831c92015b604083901c156120b657604092831c92015b602083901c156120c857602092831c92015b601083901c156120da57601092831c92015b600883901c156120ec57600892831c92015b600483901c156120fe57600492831c92015b600283901c1561211057600292831c92015b600183901c156106995760010192915050565b61212c8161213d565b50565b60606109d38383600061215e565b60006a636f6e736f6c652e6c6f679050600080835160208501845afa505050565b6060814710156121835760405163cd78605960e01b8152306004820152602401611820565b600080856001600160a01b0316848660405161219f919061291e565b60006040518083038185875af1925050503d80600081146121dc576040519150601f19603f3d011682016040523d82523d6000602084013e6121e1565b606091505b50915091506121f18683836121fb565b9695505050505050565b6060826122105761220b82612257565b6109d3565b815115801561222757506001600160a01b0384163b155b1561225057604051639996b31560e01b81526001600160a01b0385166004820152602401611820565b50806109d3565b8051156122675780518082602001fd5b604051630a12f52160e11b815260040160405180910390fd5b80356001600160a01b0381168114610da657600080fd5b6000602082840312156122a957600080fd5b6109d382612280565b60005b838110156122cd5781810151838201526020016122b5565b50506000910152565b600081518084526122ee8160208601602086016122b2565b601f01601f19169290920160200192915050565b6020815260006109d360208301846122d6565b6000806040838503121561232857600080fd5b61233183612280565b946020939093013593505050565b80356001600160701b0381168114610da657600080fd5b60008060006060848603121561236b57600080fd5b61237484612280565b925061238260208501612280565b91506123906040850161233f565b90509250925092565b6000806000606084860312156123ae57600080fd5b6123b784612280565b92506123c560208501612280565b9150604084013590509250925092565b600080604083850312156123e857600080fd5b6123f183612280565b91506123ff60208401612280565b90509250929050565b6000806000806080858703121561241e57600080fd5b61242785612280565b935061243560208601612280565b92506124436040860161233f565b91506124516060860161233f565b905092959194509250565b60008060006060848603121561247157600080fd5b61247a8461233f565b92506124886020850161233f565b915061239060408501612280565b600181811c908216806124aa57607f821691505b6020821081036124ca57634e487b7160e01b600052602260045260246000fd5b50919050565b634e487b7160e01b600052601160045260246000fd5b81810381811115610699576106996124d0565b6001600160701b03828116828216039080821115612519576125196124d0565b5092915050565b6001600160701b03818116838216028082169190828114612543576125436124d0565b505092915050565b634e487b7160e01b600052604160045260246000fd5b60006020828403121561257357600080fd5b815167ffffffffffffffff8082111561258b57600080fd5b818401915084601f83011261259f57600080fd5b8151818111156125b1576125b161254b565b604051601f8201601f19908116603f011681019083821181831017156125d9576125d961254b565b816040528281528760208487010111156125f257600080fd5b6126038360208301602088016122b2565b979650505050505050565b7102629bbb0b82a3930b234b733a837b7b61d160751b81526000835161263b8160128501602088016122b2565b602f60f81b601291840191820152835161265c8160138401602088016122b2565b01601301949350505050565b601f82111561077757600081815260208120601f850160051c8101602086101561268f5750805b601f850160051c820191505b818110156126ae5782815560010161269b565b505050505050565b815167ffffffffffffffff8111156126d0576126d061254b565b6126e4816126de8454612496565b84612668565b602080601f83116001811461271957600084156127015750858301515b600019600386901b1c1916600185901b1785556126ae565b600085815260208120601f198616915b8281101561274857888601518255948401946001909101908401612729565b50858210156127665787850151600019600388901b60f8161c191681555b5050505050600190811b01905550565b654c537761702d60d01b8152600083516127978160068501602088016122b2565b602d60f81b60069184019182015283516127b88160078401602088016122b2565b01600701949350505050565b6000602082840312156127d657600080fd5b5051919050565b8082028115828204841417610699576106996124d0565b634e487b7160e01b600052601260045260246000fd5b600082612819576128196127f4565b500490565b6001600160701b03818116838216019080821115612519576125196124d0565b80820180821115610699576106996124d0565b600082612860576128606127f4565b500690565b63ffffffff828116828216039080821115612519576125196124d0565b60006001600160701b038084168061289c5761289c6127f4565b92169190910492915050565b6060815260006128bb60608301866122d6565b60208301949094525060400152919050565b6080815260006128e060808301876122d6565b6020830195909552506040810192909252606090910152919050565b60006020828403121561290e57600080fd5b815180151581146109d357600080fd5b600082516129308184602087016122b2565b919091019291505056fea2646970667358221220a52338899fa603a4883ad76dd1994d58be0429e45ae3fd1e25c48eb0bd6c63bd64736f6c63430008140033",
  "linkReferences": {},
  "deployedLinkReferences": {}
}