{
  "_format": "hh-sol-artifact-1",
  "contractName": "LSwapPair",
  "sourceName": "contracts/LSwapPair.sol",
  "abi": [
    {
      "inputs": [
        {
          "internalType": "address",
          "name": "target",
          "type": "address"
        }
      ],
      "name": "AddressEmptyCode",
      "type": "error"
    },
    {
      "inputs": [
        {
          "internalType": "address",
          "name": "account",
          "type": "address"
        }
      ],
      "name": "AddressInsufficientBalance",
      "type": "error"
    },
    {
      "inputs": [],
      "name": "FailedInnerCall",
      "type": "error"
    },
    {
      "inputs": [],
      "name": "Forbidden",
      "type": "error"
    },
    {
      "inputs": [],
      "name": "InsufficientAmountOut",
      "type": "error"
    },
    {
      "inputs": [],
      "name": "InsufficientLiquidityBurned",
      "type": "error"
    },
    {
      "inputs": [],
      "name": "InsufficientOutputAmount",
      "type": "error"
    },
    {
      "inputs": [],
      "name": "KInvariant",
      "type": "error"
    },
    {
      "inputs": [],
      "name": "LoanAmountGreaterThanThreshold",
      "type": "error"
    },
    {
      "inputs": [],
      "name": "MultipleOutputAmounts",
      "type": "error"
    },
    {
      "inputs": [],
      "name": "OnlyFactory",
      "type": "error"
    },
    {
      "inputs": [],
      "name": "ReentrancyGuardReentrantCall",
      "type": "error"
    },
    {
      "inputs": [
        {
          "internalType": "uint8",
          "name": "bits",
          "type": "uint8"
        },
        {
          "internalType": "uint256",
          "name": "value",
          "type": "uint256"
        }
      ],
      "name": "SafeCastOverflowedUintDowncast",
      "type": "error"
    },
    {
      "inputs": [
        {
          "internalType": "address",
          "name": "token",
          "type": "address"
        }
      ],
      "name": "SafeERC20FailedOperation",
      "type": "error"
    },
    {
      "anonymous": false,
      "inputs": [
        {
          "indexed": true,
          "internalType": "address",
          "name": "owner",
          "type": "address"
        },
        {
          "indexed": true,
          "internalType": "address",
          "name": "spender",
          "type": "address"
        },
        {
          "indexed": false,
          "internalType": "uint256",
          "name": "value",
          "type": "uint256"
        }
      ],
      "name": "Approval",
      "type": "event"
    },
    {
      "anonymous": false,
      "inputs": [
        {
          "indexed": true,
          "internalType": "address",
          "name": "tokenToBorrow",
          "type": "address"
        },
        {
          "indexed": true,
          "internalType": "address",
          "name": "borrower",
          "type": "address"
        },
        {
          "indexed": false,
          "internalType": "uint112",
          "name": "amount",
          "type": "uint112"
        }
      ],
      "name": "Borrow",
      "type": "event"
    },
    {
      "anonymous": false,
      "inputs": [
        {
          "indexed": false,
          "internalType": "address",
          "name": "",
          "type": "address"
        },
        {
          "indexed": false,
          "internalType": "uint256",
          "name": "",
          "type": "uint256"
        },
        {
          "indexed": false,
          "internalType": "uint256",
          "name": "",
          "type": "uint256"
        },
        {
          "indexed": false,
          "internalType": "address",
          "name": "",
          "type": "address"
        }
      ],
      "name": "Burn",
      "type": "event"
    },
    {
      "anonymous": false,
      "inputs": [
        {
          "indexed": false,
          "internalType": "address",
          "name": "",
          "type": "address"
        },
        {
          "indexed": false,
          "internalType": "uint256",
          "name": "",
          "type": "uint256"
        },
        {
          "indexed": false,
          "internalType": "uint256",
          "name": "",
          "type": "uint256"
        }
      ],
      "name": "Mint",
      "type": "event"
    },
    {
      "anonymous": false,
      "inputs": [
        {
          "indexed": true,
          "internalType": "address",
          "name": "tokenToRepay",
          "type": "address"
        },
        {
          "indexed": true,
          "internalType": "address",
          "name": "borrower",
          "type": "address"
        },
        {
          "indexed": false,
          "internalType": "uint112",
          "name": "debt",
          "type": "uint112"
        },
        {
          "indexed": false,
          "internalType": "uint112",
          "name": "interest",
          "type": "uint112"
        }
      ],
      "name": "Repay",
      "type": "event"
    },
    {
      "anonymous": false,
      "inputs": [
        {
          "indexed": false,
          "internalType": "address",
          "name": "",
          "type": "address"
        },
        {
          "indexed": false,
          "internalType": "uint256",
          "name": "",
          "type": "uint256"
        },
        {
          "indexed": false,
          "internalType": "uint256",
          "name": "",
          "type": "uint256"
        },
        {
          "indexed": false,
          "internalType": "uint256",
          "name": "",
          "type": "uint256"
        },
        {
          "indexed": false,
          "internalType": "uint256",
          "name": "",
          "type": "uint256"
        },
        {
          "indexed": false,
          "internalType": "address",
          "name": "",
          "type": "address"
        }
      ],
      "name": "Swap",
      "type": "event"
    },
    {
      "anonymous": false,
      "inputs": [
        {
          "indexed": true,
          "internalType": "uint112",
          "name": "reserve0",
          "type": "uint112"
        },
        {
          "indexed": true,
          "internalType": "uint112",
          "name": "reserve1",
          "type": "uint112"
        }
      ],
      "name": "Sync",
      "type": "event"
    },
    {
      "anonymous": false,
      "inputs": [
        {
          "indexed": true,
          "internalType": "address",
          "name": "from",
          "type": "address"
        },
        {
          "indexed": true,
          "internalType": "address",
          "name": "to",
          "type": "address"
        },
        {
          "indexed": false,
          "internalType": "uint256",
          "name": "value",
          "type": "uint256"
        }
      ],
      "name": "Transfer",
      "type": "event"
    },
    {
      "inputs": [],
      "name": "FACTORY",
      "outputs": [
        {
          "internalType": "address",
          "name": "",
          "type": "address"
        }
      ],
      "stateMutability": "view",
      "type": "function"
    },
    {
      "inputs": [],
      "name": "MINIMUM_LIQUIDITY",
      "outputs": [
        {
          "internalType": "uint256",
          "name": "",
          "type": "uint256"
        }
      ],
      "stateMutability": "view",
      "type": "function"
    },
    {
      "inputs": [
        {
          "internalType": "address",
          "name": "_owner",
          "type": "address"
        },
        {
          "internalType": "address",
          "name": "_spender",
          "type": "address"
        }
      ],
      "name": "allowance",
      "outputs": [
        {
          "internalType": "uint256",
          "name": "remaining",
          "type": "uint256"
        }
      ],
      "stateMutability": "view",
      "type": "function"
    },
    {
      "inputs": [
        {
          "internalType": "address",
          "name": "_spender",
          "type": "address"
        },
        {
          "internalType": "uint256",
          "name": "_value",
          "type": "uint256"
        }
      ],
      "name": "approve",
      "outputs": [
        {
          "internalType": "bool",
          "name": "success",
          "type": "bool"
        }
      ],
      "stateMutability": "nonpayable",
      "type": "function"
    },
    {
      "inputs": [
        {
          "internalType": "address",
          "name": "_owner",
          "type": "address"
        }
      ],
      "name": "balanceOf",
      "outputs": [
        {
          "internalType": "uint256",
          "name": "balance",
          "type": "uint256"
        }
      ],
      "stateMutability": "view",
      "type": "function"
    },
    {
      "inputs": [],
      "name": "blockTimestampLast",
      "outputs": [
        {
          "internalType": "uint32",
          "name": "",
          "type": "uint32"
        }
      ],
      "stateMutability": "view",
      "type": "function"
    },
    {
      "inputs": [
        {
          "internalType": "address",
          "name": "tokenToBorrow",
          "type": "address"
        },
        {
          "internalType": "address",
          "name": "borrower",
          "type": "address"
        },
        {
          "internalType": "uint112",
          "name": "amount",
          "type": "uint112"
        }
      ],
      "name": "borrow",
      "outputs": [],
      "stateMutability": "nonpayable",
      "type": "function"
    },
    {
      "inputs": [
        {
          "internalType": "address",
          "name": "to",
          "type": "address"
        }
      ],
      "name": "burn",
      "outputs": [
        {
          "internalType": "uint112",
          "name": "amountToken0",
          "type": "uint112"
        },
        {
          "internalType": "uint112",
          "name": "amountToken1",
          "type": "uint112"
        }
      ],
      "stateMutability": "nonpayable",
      "type": "function"
    },
    {
      "inputs": [],
      "name": "decimals",
      "outputs": [
        {
          "internalType": "uint8",
          "name": "",
          "type": "uint8"
        }
      ],
      "stateMutability": "view",
      "type": "function"
    },
    {
      "inputs": [
        {
          "internalType": "address",
          "name": "lp",
          "type": "address"
        }
      ],
      "name": "earned",
      "outputs": [
        {
          "internalType": "uint256",
          "name": "",
          "type": "uint256"
        },
        {
          "internalType": "uint256",
          "name": "",
          "type": "uint256"
        }
      ],
      "stateMutability": "view",
      "type": "function"
    },
    {
      "inputs": [
        {
          "internalType": "address",
          "name": "",
          "type": "address"
        }
      ],
      "name": "feesPerTokenPaid0",
      "outputs": [
        {
          "internalType": "uint256",
          "name": "",
          "type": "uint256"
        }
      ],
      "stateMutability": "view",
      "type": "function"
    },
    {
      "inputs": [
        {
          "internalType": "address",
          "name": "",
          "type": "address"
        }
      ],
      "name": "feesPerTokenPaid1",
      "outputs": [
        {
          "internalType": "uint256",
          "name": "",
          "type": "uint256"
        }
      ],
      "stateMutability": "view",
      "type": "function"
    },
    {
      "inputs": [],
      "name": "feesPerTokenStored0",
      "outputs": [
        {
          "internalType": "uint256",
          "name": "",
          "type": "uint256"
        }
      ],
      "stateMutability": "view",
      "type": "function"
    },
    {
      "inputs": [],
      "name": "feesPerTokenStored1",
      "outputs": [
        {
          "internalType": "uint256",
          "name": "",
          "type": "uint256"
        }
      ],
      "stateMutability": "view",
      "type": "function"
    },
    {
      "inputs": [],
      "name": "getActualReserves",
      "outputs": [
        {
          "internalType": "uint112",
          "name": "reserveToken0",
          "type": "uint112"
        },
        {
          "internalType": "uint112",
          "name": "reserveToken1",
          "type": "uint112"
        }
      ],
      "stateMutability": "view",
      "type": "function"
    },
    {
      "inputs": [],
      "name": "getFACTORY",
      "outputs": [
        {
          "internalType": "address",
          "name": "",
          "type": "address"
        }
      ],
      "stateMutability": "view",
      "type": "function"
    },
    {
      "inputs": [],
      "name": "getPendingLiquidityFees",
      "outputs": [
        {
          "internalType": "uint256",
          "name": "pendingLiquidityFees0",
          "type": "uint256"
        },
        {
          "internalType": "uint256",
          "name": "pendingLiquidityFees1",
          "type": "uint256"
        }
      ],
      "stateMutability": "view",
      "type": "function"
    },
    {
      "inputs": [],
      "name": "getPendingProtocolFees",
      "outputs": [
        {
          "internalType": "uint256",
          "name": "pendingProtocolFees0",
          "type": "uint256"
        },
        {
          "internalType": "uint256",
          "name": "pendingProtocolFees1",
          "type": "uint256"
        }
      ],
      "stateMutability": "view",
      "type": "function"
    },
    {
      "inputs": [],
      "name": "getReserves",
      "outputs": [
        {
          "internalType": "uint112",
          "name": "reserve0",
          "type": "uint112"
        },
        {
          "internalType": "uint112",
          "name": "reserve1",
          "type": "uint112"
        },
        {
          "internalType": "uint32",
          "name": "_blockTimestampLast",
          "type": "uint32"
        }
      ],
      "stateMutability": "view",
      "type": "function"
    },
    {
      "inputs": [],
      "name": "getTokens",
      "outputs": [
        {
          "internalType": "address",
          "name": "",
          "type": "address"
        },
        {
          "internalType": "address",
          "name": "",
          "type": "address"
        }
      ],
      "stateMutability": "view",
      "type": "function"
    },
    {
      "inputs": [
        {
          "internalType": "address",
          "name": "token0",
          "type": "address"
        },
        {
          "internalType": "address",
          "name": "token1",
          "type": "address"
        }
      ],
      "name": "initialize",
      "outputs": [],
      "stateMutability": "nonpayable",
      "type": "function"
    },
    {
      "inputs": [
        {
          "internalType": "address",
          "name": "",
          "type": "address"
        }
      ],
      "name": "lpFees0",
      "outputs": [
        {
          "internalType": "uint256",
          "name": "",
          "type": "uint256"
        }
      ],
      "stateMutability": "view",
      "type": "function"
    },
    {
      "inputs": [
        {
          "internalType": "address",
          "name": "",
          "type": "address"
        }
      ],
      "name": "lpFees1",
      "outputs": [
        {
          "internalType": "uint256",
          "name": "",
          "type": "uint256"
        }
      ],
      "stateMutability": "view",
      "type": "function"
    },
    {
      "inputs": [
        {
          "internalType": "address",
          "name": "to",
          "type": "address"
        }
      ],
      "name": "mint",
      "outputs": [
        {
          "internalType": "uint256",
          "name": "liquidity",
          "type": "uint256"
        }
      ],
      "stateMutability": "nonpayable",
      "type": "function"
    },
    {
      "inputs": [],
      "name": "name",
      "outputs": [
        {
          "internalType": "string",
          "name": "",
          "type": "string"
        }
      ],
      "stateMutability": "view",
      "type": "function"
    },
    {
      "inputs": [],
      "name": "price0CumulativeLast",
      "outputs": [
        {
          "internalType": "uint256",
          "name": "",
          "type": "uint256"
        }
      ],
      "stateMutability": "view",
      "type": "function"
    },
    {
      "inputs": [],
      "name": "price1CumulativeLast",
      "outputs": [
        {
          "internalType": "uint256",
          "name": "",
          "type": "uint256"
        }
      ],
      "stateMutability": "view",
      "type": "function"
    },
    {
      "inputs": [
        {
          "internalType": "address",
          "name": "tokenToRepay",
          "type": "address"
        },
        {
          "internalType": "address",
          "name": "borrower",
          "type": "address"
        },
        {
          "internalType": "uint112",
          "name": "debt",
          "type": "uint112"
        },
        {
          "internalType": "uint112",
          "name": "interest",
          "type": "uint112"
        }
      ],
      "name": "repay",
      "outputs": [],
      "stateMutability": "nonpayable",
      "type": "function"
    },
    {
      "inputs": [
        {
          "internalType": "uint112",
          "name": "amountToken0Out",
          "type": "uint112"
        },
        {
          "internalType": "uint112",
          "name": "amountToken1Out",
          "type": "uint112"
        },
        {
          "internalType": "address",
          "name": "to",
          "type": "address"
        }
      ],
      "name": "swap",
      "outputs": [
        {
          "internalType": "uint112",
          "name": "amountInToken0",
          "type": "uint112"
        },
        {
          "internalType": "uint112",
          "name": "amountInToken1",
          "type": "uint112"
        }
      ],
      "stateMutability": "nonpayable",
      "type": "function"
    },
    {
      "inputs": [],
      "name": "symbol",
      "outputs": [
        {
          "internalType": "string",
          "name": "",
          "type": "string"
        }
      ],
      "stateMutability": "view",
      "type": "function"
    },
    {
      "inputs": [],
      "name": "totalSupply",
      "outputs": [
        {
          "internalType": "uint256",
          "name": "",
          "type": "uint256"
        }
      ],
      "stateMutability": "view",
      "type": "function"
    },
    {
      "inputs": [
        {
          "internalType": "address",
          "name": "_to",
          "type": "address"
        },
        {
          "internalType": "uint256",
          "name": "_value",
          "type": "uint256"
        }
      ],
      "name": "transfer",
      "outputs": [
        {
          "internalType": "bool",
          "name": "success",
          "type": "bool"
        }
      ],
      "stateMutability": "nonpayable",
      "type": "function"
    },
    {
      "inputs": [
        {
          "internalType": "address",
          "name": "_from",
          "type": "address"
        },
        {
          "internalType": "address",
          "name": "_to",
          "type": "address"
        },
        {
          "internalType": "uint256",
          "name": "_value",
          "type": "uint256"
        }
      ],
      "name": "transferFrom",
      "outputs": [
        {
          "internalType": "bool",
          "name": "success",
          "type": "bool"
        }
      ],
      "stateMutability": "nonpayable",
      "type": "function"
    },
    {
      "inputs": [
        {
          "internalType": "address",
          "name": "to",
          "type": "address"
        }
      ],
      "name": "withdrawFees",
      "outputs": [],
      "stateMutability": "nonpayable",
      "type": "function"
    }
  ],
  "bytecode": "0x608060405234801561001057600080fd5b50600160065561280b806100256000396000f3fe608060405234801561001057600080fd5b50600436106102055760003560e01c80636298fb3c1161011a5780639de3beec116100ad578063ba9a7a561161007c578063ba9a7a56146104e5578063c5700a02146104ee578063d03c1ec614610513578063d5f839fc14610526578063dd62ed3e1461053157600080fd5b80639de3beec146104815780639f0f79be1461048c578063a9059cbb146104ac578063aa6ca808146104bf57600080fd5b806380b125b5116100e957806380b125b51461043d57806389afcb441461044657806395d89b411461045957806397951def1461046157600080fd5b80636298fb3c146103dd5780636a627842146103ee57806370a08231146104015780637c8e91d21461042a57600080fd5b80631d3d39eb1161019d578063313ce5671161016c578063313ce56714610395578063485cc955146103af5780635909c0d5146103c25780635a3d5493146103cb5780636101cb36146103d457600080fd5b80631d3d39eb14610324578063217d988b1461033757806323b872dd146103575780632dd310001461036a57600080fd5b80630d9e5b9b116101d95780630d9e5b9b146102a3578063164e68de146102d157806318160ddd146102e45780631849d2c5146102ec57600080fd5b80628cc2621461020a57806306fdde03146102375780630902f1ac1461024c578063095ea7b314610280575b600080fd5b61021d610218366004612132565b61056a565b604080519283526020830191909152015b60405180910390f35b61023f610585565b60405161022e919061219d565b610254610613565b604080516001600160701b03948516815293909216602084015263ffffffff169082015260600161022e565b61029361028e3660046121b0565b610686565b604051901515815260200161022e565b6102c36102b1366004612132565b60176020526000908152604090205481565b60405190815260200161022e565b6102e26102df366004612132565b50565b005b6002546102c3565b6009546001600160701b0380821691600160701b9004165b604080516001600160701b0393841681529290911660208301520161022e565b6102e26103323660046121f1565b61069d565b6102c3610345366004612132565b60156020526000908152604090205481565b610293610365366004612234565b610880565b60075461037d906001600160a01b031681565b6040516001600160a01b03909116815260200161022e565b61039d601281565b60405160ff909116815260200161022e565b6102e26103bd366004612270565b6108fb565b6102c360105481565b6102c360115481565b6102c3600e5481565b6007546001600160a01b031661037d565b6102c36103fc366004612132565b610a86565b6102c361040f366004612132565b6001600160a01b031660009081526003602052604090205490565b6102e26104383660046122a3565b610ccc565b6102c3600f5481565b610304610454366004612132565b610e10565b61023f61105d565b6102c361046f366004612132565b60186020526000908152604090205481565b600c54600d5461021d565b6102c361049a366004612132565b60166020526000908152604090205481565b6102936104ba3660046121b0565b61106a565b600a54600b54604080516001600160a01b0393841681529290911660208301520161022e565b6102c36103e881565b6012546104fe9063ffffffff1681565b60405163ffffffff909116815260200161022e565b6103046105213660046122f7565b611077565b60135460145461021d565b6102c361053f366004612270565b6001600160a01b03918216600090815260046020908152604080832093909416825291909152205490565b60008061057c83600e54600f54611480565b91509150915091565b6000805461059290612331565b80601f01602080910402602001604051908101604052809291908181526020018280546105be90612331565b801561060b5780601f106105e05761010080835404028352916020019161060b565b820191906000526020600020905b8154815290600101906020018083116105ee57829003601f168201915b505050505081565b600854600090819081906001600160701b031661063157600161063e565b6008546001600160701b03165b600854909350600160701b90046001600160701b031661065f576001610673565b600854600160701b90046001600160701b03165b6012549394909363ffffffff1692509050565b6000610693338484611590565b5060015b92915050565b6007546001600160a01b031633146106c857604051630636a15760e11b815260040160405180910390fd5b600a546001600160a01b039081169084160361078057600a546106fe906001600160a01b0316836001600160701b0384166115e9565b6009805482919060009061071c9084906001600160701b0316612381565b82546101009290920a6001600160701b038181021990931691831602179091556008546009549082169250610753911660026123a8565b6001600160701b0316101561077b5760405163b0d1026b60e01b815260040160405180910390fd5b61082e565b600b546107a0906001600160a01b0316836001600160701b0384166115e9565b806009600e8282829054906101000a90046001600160701b03166107c49190612381565b82546101009290920a6001600160701b03818102199093169183160217909155600854600954600160701b9182900483169350610806929190041660026123a8565b6001600160701b0316101561082e5760405163b0d1026b60e01b815260040160405180910390fd5b6040516001600160701b03821681526001600160a01b0380841691908516907fe178ec2130bfc4af9b4e9240b9174f6b743fcc1fed155efe7252c5bf4d3dee7d906020015b60405180910390a3505050565b6001600160a01b0383166000908152600460209081526040808320338452909152812054600019146108e5576001600160a01b0384166000908152600460209081526040808320338452909152812080548492906108df9084906123d3565b90915550505b6108f0848484611640565b5060015b9392505050565b60078054336001600160a01b031991821617909155600a805482166001600160a01b03858116918217909255600b805490931691841691909117909155604080516306fdde0360e01b81529051600092916306fdde0391600480830192869291908290030181865afa158015610975573d6000803e3d6000fd5b505050506040513d6000823e601f3d908101601f1916820160405261099d91908101906123fc565b90506000600b60009054906101000a90046001600160a01b03166001600160a01b03166306fdde036040518163ffffffff1660e01b8152600401600060405180830381865afa1580156109f4573d6000803e3d6000fd5b505050506040513d6000823e601f3d908101601f19168201604052610a1c91908101906123fc565b90508181604051602001610a319291906124a9565b60405160208183030381529060405260009081610a4e9190612551565b508181604051602001610a62929190612611565b60405160208183030381529060405260019081610a7f9190612551565b5050505050565b6000610a906116ec565b6000610a9b60025490565b600a546040516370a0823160e01b8152306004820152919250600091610b15916001600160a01b0316906370a08231906024015b602060405180830381865afa158015610aec573d6000803e3d6000fd5b505050506040513d601f19601f82011682018060405250810190610b10919061265f565b611716565b600b546040516370a0823160e01b8152306004820152919250600091610b4d916001600160a01b0316906370a0823190602401610acf565b9050600080610b706009546001600160701b0380821692600160701b9092041690565b909250905060008080610b838588612381565b610b8d9190612381565b9050600082610b9c8588612381565b610ba69190612381565b9050610bb18a611753565b87600003610bf857610bc660006103e86117a5565b6103e8610be7610be26001600160701b03808516908616612678565b6118c4565b610bf191906123d3565b9850610c55565b610c52856001600160701b031689846001600160701b0316610c1a9190612678565b610c2491906126a5565b856001600160701b03168a846001600160701b0316610c439190612678565b610c4d91906126a5565b6119a8565b98505b610c5f8a8a6117a5565b610c6c82826000806119be565b604080513381526001600160701b03848116602083015283168183015290517f4c209b5fc8ad50758f13e2e1088ba56a560dff690a1c6fef26394f4c03821c4f9181900360600190a15050505050505050610cc76001600655565b919050565b6007546001600160a01b03163314610cf757604051630636a15760e11b815260040160405180910390fd5b600a546001600160a01b0390811690851603610d615760098054839190600090610d2b9084906001600160701b03166126b9565b92506101000a8154816001600160701b0302191690836001600160701b03160217905550610d5a816000611c66565b5050610db7565b816009600e8282829054906101000a90046001600160701b0316610d8591906126b9565b92506101000a8154816001600160701b0302191690836001600160701b03160217905550610db4600082611c66565b50505b604080516001600160701b038085168252831660208201526001600160a01b0380861692908716917f50b1c9b6fb94865e068e98bf8aaa1f3903d658a60245e1874090bd6ea3a13b6d910160405180910390a350505050565b3060009081526003602052604081205481906000610e2d60025490565b6008549091508190610e48906001600160701b031684612678565b610e5291906126a5565b6008549094508190610e7490600160701b90046001600160701b031684612678565b610e7e91906126a5565b92506001600160701b0384161580610e9d57506001600160701b038316155b15610ebb5760405163749383ad60e01b815260040160405180910390fd5b610ec485611753565b610ece3083611d3b565b600a54610eee906001600160a01b0316866001600160701b0387166115e9565b600b54610f0e906001600160a01b0316866001600160701b0386166115e9565b600a546040516370a0823160e01b81523060048201526000916001600160a01b0316906370a0823190602401602060405180830381865afa158015610f57573d6000803e3d6000fd5b505050506040513d601f19601f82011682018060405250810190610f7b919061265f565b600b546040516370a0823160e01b81523060048201529192506000916001600160a01b03909116906370a0823190602401602060405180830381865afa158015610fc9573d6000803e3d6000fd5b505050506040513d601f19601f82011682018060405250810190610fed919061265f565b9050610ffc82826000806119be565b604080513381526001600160701b0388811660208301528716818301526001600160a01b038916606082015290517fdccd412f0b1252819cb1fd330b93224ca42612892bb3f4f789976e6d819364969181900360800190a150505050915091565b6001805461059290612331565b6000610693338484611640565b6000806110826116ec565b6000806001600160701b0387161580156110a357506001600160701b038616155b156110c1576040516342301c2360e01b815260040160405180910390fd5b6000806110e26009546001600160701b0380821692600160701b9092041690565b91509150816001600160701b0316896001600160701b031611806111175750806001600160701b0316886001600160701b0316115b1561113557604051637294b85560e11b815260040160405180910390fd5b6001600160701b038916156111ed57600b546040516370a0823160e01b81523060048201526111ca916001600160701b038416916001600160a01b03909116906370a08231906024015b602060405180830381865afa15801561119c573d6000803e3d6000fd5b505050506040513d601f19601f820116820180604052508101906111c0919061265f565b610b1091906123d3565b600a549095506111ed906001600160a01b0316886001600160701b038c166115e9565b6001600160701b0388161561125e57600a546040516370a0823160e01b815230600482015261123b916001600160701b038516916001600160a01b03909116906370a082319060240161117f565b600b5490965061125e906001600160a01b0316886001600160701b038b166115e9565b6112688686611dc6565b5050604080518082019091526005815264024b71d10160dd1b602082015291955093506112a2906001600160701b03808916908816611e12565b6112dc60405180604001604052806005815260200164027baba1d160dd1b8152508a6001600160701b03168a6001600160701b0316611e12565b6112e68487612381565b95506112f28386612381565b945061130086868b8b6119be565b611355604051806040016040528060028152602001614b4960f01b815250826001600160701b0316846001600160701b031661133c9190612678565b846001600160701b0316846001600160701b0316611e59565b60408051808201909152600281526125a360f11b60208201526008546113ae9190611392906001600160701b03600160701b820481169116612678565b6008546001600160701b0380821691600160701b900416611e59565b6008546113cd906001600160701b03600160701b820481169116612678565b6113e36001600160701b03808416908516612678565b11156114025760405163bf6056e760e01b815260040160405180910390fd5b5050604080513381526001600160701b038681166020830152858116828401528981166060830152881660808201526001600160a01b03871660a082015290517fd78ad95fa46c994b6551d0da85fc275fe613ce37657fb8d5e3d130840159d8229181900360c00190a150506114786001600655565b935093915050565b60008060006114a4866001600160a01b031660009081526003602052604090205490565b6001600160a01b038716600090815260176020526040812054919250906114cb90876123d3565b6001600160a01b038816600090815260186020526040812054919250906114f290876123d3565b90506000670de0b6b3a76400006115098486612678565b61151391906126a5565b90506000670de0b6b3a764000061152a8487612678565b61153491906126a5565b6001600160a01b038b1660009081526015602052604090205490915061155b9083906126d9565b6001600160a01b038b1660009081526016602052604090205461157f9083906126d9565b965096505050505050935093915050565b6001600160a01b0383811660008181526004602090815260408083209487168084529482529182902085905590518481527f8c5be1e5ebec7d5bd14f71427d1e84f3dd0314c0f7b2291e5b200ac8c7c3b9259101610873565b604080516001600160a01b038416602482015260448082018490528251808303909101815260649091019091526020810180516001600160e01b031663a9059cbb60e01b17905261163b908490611ea8565b505050565b61164b838383611f0b565b6001600160a01b038316600090815260036020526040812080548392906116739084906123d3565b90915550506001600160a01b038216600090815260036020526040812080548392906116a09084906126d9565b92505081905550816001600160a01b0316836001600160a01b03167fddf252ad1be2c89b69c2b068fc378daa952ba7f163c4a11628f55a4df523b3ef8360405161087391815260200190565b60026006540361170f57604051633ee5aeb560e01b815260040160405180910390fd5b6002600655565b60006001600160701b0382111561174f576040516306dfcc6560e41b815260706004820152602481018390526044015b60405180910390fd5b5090565b600e54600f54611764838383611480565b6001600160a01b0390941660009081526015602090815260408083206016835281842097909755929095556017855281812093909355601890935291902055565b60006002548211156117c5576117be6202a300426126d9565b90506117ec565b6002546117d56202a30084612678565b6117df91906126a5565b6117e990426126d9565b90505b6001600160a01b03831660009081526005602052604090205463ffffffff9081169082161115611842576001600160a01b0383166000908152600560205260409020805463ffffffff191663ffffffff83161790555b816002600082825461185491906126d9565b90915550506001600160a01b038316600090815260036020526040812080548492906118819084906126d9565b90915550506040518281526001600160a01b038416906000907fddf252ad1be2c89b69c2b068fc378daa952ba7f163c4a11628f55a4df523b3ef90602001610873565b6000816000036118d657506000919050565b600060016118e384611f2d565b901c6001901b905060018184816118fc576118fc61268f565b048201901c905060018184816119145761191461268f565b048201901c9050600181848161192c5761192c61268f565b048201901c905060018184816119445761194461268f565b048201901c9050600181848161195c5761195c61268f565b048201901c905060018184816119745761197461268f565b048201901c9050600181848161198c5761198c61268f565b048201901c90506108f4818285816119a6576119a661268f565b045b60008183106119b757816108f4565b5090919050565b6008546001600160701b0380821691600160701b900416836119e087846126b9565b6119ea9190612381565b600880546001600160701b0319166001600160701b039290921691909117905582611a1586836126b9565b611a1f9190612381565b60088054600160701b600160e01b031916600160701b6001600160701b03938416021790556009548791611a5591879116612381565b611a5f91906126b9565b600980546001600160701b0319166001600160701b0392831617908190558691611a93918691600160701b90910416612381565b611a9d91906126b9565b600980546001600160701b0392909216600160701b02600160701b600160e01b03199092169190911790556000611ad9640100000000426126ec565b601254909150600090611af29063ffffffff1683612700565b905060008163ffffffff16118015611b1257506001600160701b03841615155b8015611b2657506001600160701b03831615155b15611bb2576001600160701b038416611b4563ffffffff8316856123a8565b6001600160701b0316611b5891906126a5565b60106000828254611b6991906126d9565b90915550506001600160701b038316611b8863ffffffff8316866123a8565b6001600160701b0316611b9b91906126a5565b60116000828254611bac91906126d9565b90915550505b6012805463ffffffff191663ffffffff8416179055600754604051630e0dc3b960e11b81523060048201526001600160a01b0390911690631c1b877290602401600060405180830381600087803b158015611c0c57600080fd5b505af1158015611c20573d6000803e3d6000fd5b50506040516001600160701b038087169350871691507f1c411e9a96e071241c2f21f7726b17ae89e3cab4c78be50e062b03a9fffbbad190600090a35050505050505050565b6000806064611c7685605a6123a8565b611c80919061271d565b91506064611c8f84605a6123a8565b611c99919061271d565b9050611ca58285612381565b6001600160701b031660136000828254611cbf91906126d9565b90915550611ccf90508184612381565b6001600160701b031660146000828254611ce991906126d9565b92505081905550816001600160701b0316600c6000828254611d0b91906126d9565b92505081905550806001600160701b0316600d6000828254611d2d91906126d9565b925050819055509250929050565b6001600160a01b03821660009081526003602052604081208054839290611d639084906123d3565b925050819055508060026000828254611d7c91906123d3565b90915550506040518181526000906001600160a01b038416907fddf252ad1be2c89b69c2b068fc378daa952ba7f163c4a11628f55a4df523b3ef9060200160405180910390a35050565b60008080806064611dd88760016123a8565b611de2919061271d565b93506064611df18660016123a8565b611dfb919061271d565b9250611e078484611c66565b505092959194509250565b61163b838383604051602401611e2a93929190612743565b60408051601f198184030181529190526020810180516001600160e01b031663ca47c4eb60e01b179052611fc1565b611ea284848484604051602401611e739493929190612768565b60408051601f198184030181529190526020810180516001600160e01b031663a7a8785360e01b179052611fc1565b50505050565b6000611ebd6001600160a01b03841683611fca565b90508051600014158015611ee2575080806020019051810190611ee09190612797565b155b1561163b57604051635274afe760e01b81526001600160a01b0384166004820152602401611746565b611f1483611753565b6001600160a01b038216301461163b5761163b82611753565b600080608083901c15611f4257608092831c92015b604083901c15611f5457604092831c92015b602083901c15611f6657602092831c92015b601083901c15611f7857601092831c92015b600883901c15611f8a57600892831c92015b600483901c15611f9c57600492831c92015b600283901c15611fae57600292831c92015b600183901c156106975760010192915050565b6102df81611fd8565b60606108f483836000611ff9565b60006a636f6e736f6c652e6c6f679050600080835160208501845afa505050565b60608147101561201e5760405163cd78605960e01b8152306004820152602401611746565b600080856001600160a01b0316848660405161203a91906127b9565b60006040518083038185875af1925050503d8060008114612077576040519150601f19603f3d011682016040523d82523d6000602084013e61207c565b606091505b509150915061208c868383612096565b9695505050505050565b6060826120ab576120a6826120f2565b6108f4565b81511580156120c257506001600160a01b0384163b155b156120eb57604051639996b31560e01b81526001600160a01b0385166004820152602401611746565b50806108f4565b8051156121025780518082602001fd5b604051630a12f52160e11b815260040160405180910390fd5b80356001600160a01b0381168114610cc757600080fd5b60006020828403121561214457600080fd5b6108f48261211b565b60005b83811015612168578181015183820152602001612150565b50506000910152565b6000815180845261218981602086016020860161214d565b601f01601f19169290920160200192915050565b6020815260006108f46020830184612171565b600080604083850312156121c357600080fd5b6121cc8361211b565b946020939093013593505050565b80356001600160701b0381168114610cc757600080fd5b60008060006060848603121561220657600080fd5b61220f8461211b565b925061221d6020850161211b565b915061222b604085016121da565b90509250925092565b60008060006060848603121561224957600080fd5b6122528461211b565b92506122606020850161211b565b9150604084013590509250925092565b6000806040838503121561228357600080fd5b61228c8361211b565b915061229a6020840161211b565b90509250929050565b600080600080608085870312156122b957600080fd5b6122c28561211b565b93506122d06020860161211b565b92506122de604086016121da565b91506122ec606086016121da565b905092959194509250565b60008060006060848603121561230c57600080fd5b612315846121da565b9250612323602085016121da565b915061222b6040850161211b565b600181811c9082168061234557607f821691505b60208210810361236557634e487b7160e01b600052602260045260246000fd5b50919050565b634e487b7160e01b600052601160045260246000fd5b6001600160701b038281168282160390808211156123a1576123a161236b565b5092915050565b6001600160701b038181168382160280821691908281146123cb576123cb61236b565b505092915050565b818103818111156106975761069761236b565b634e487b7160e01b600052604160045260246000fd5b60006020828403121561240e57600080fd5b815167ffffffffffffffff8082111561242657600080fd5b818401915084601f83011261243a57600080fd5b81518181111561244c5761244c6123e6565b604051601f8201601f19908116603f01168101908382118183101715612474576124746123e6565b8160405282815287602084870101111561248d57600080fd5b61249e83602083016020880161214d565b979650505050505050565b7102629bbb0b82a3930b234b733a837b7b61d160751b8152600083516124d681601285016020880161214d565b602f60f81b60129184019182015283516124f781601384016020880161214d565b01601301949350505050565b601f82111561163b57600081815260208120601f850160051c8101602086101561252a5750805b601f850160051c820191505b8181101561254957828155600101612536565b505050505050565b815167ffffffffffffffff81111561256b5761256b6123e6565b61257f816125798454612331565b84612503565b602080601f8311600181146125b4576000841561259c5750858301515b600019600386901b1c1916600185901b178555612549565b600085815260208120601f198616915b828110156125e3578886015182559484019460019091019084016125c4565b50858210156126015787850151600019600388901b60f8161c191681555b5050505050600190811b01905550565b654c537761702d60d01b81526000835161263281600685016020880161214d565b602d60f81b600691840191820152835161265381600784016020880161214d565b01600701949350505050565b60006020828403121561267157600080fd5b5051919050565b80820281158282048414176106975761069761236b565b634e487b7160e01b600052601260045260246000fd5b6000826126b4576126b461268f565b500490565b6001600160701b038181168382160190808211156123a1576123a161236b565b808201808211156106975761069761236b565b6000826126fb576126fb61268f565b500690565b63ffffffff8281168282160390808211156123a1576123a161236b565b60006001600160701b03808416806127375761273761268f565b92169190910492915050565b6060815260006127566060830186612171565b60208301949094525060400152919050565b60808152600061277b6080830187612171565b6020830195909552506040810192909252606090910152919050565b6000602082840312156127a957600080fd5b815180151581146108f457600080fd5b600082516127cb81846020870161214d565b919091019291505056fea26469706673582212205ce0db8f81caefcecb0689a5a6d256956d7c117d53be3b8af658853865d970b064736f6c63430008140033",
  "linkReferences": {},
  "deployedLinkReferences": {}
}