{
  "_format": "hh-sol-artifact-1",
  "contractName": "LRouter",
  "sourceName": "contracts/periphery/LRouter.sol",
  "abi": [
    {
      "inputs": [
        {
          "internalType": "address",
          "name": "factory",
          "type": "address"
        },
        {
          "internalType": "address",
          "name": "weth",
          "type": "address"
        }
      ],
      "stateMutability": "nonpayable",
      "type": "constructor"
    },
    {
      "inputs": [
        {
          "internalType": "address",
          "name": "target",
          "type": "address"
        }
      ],
      "name": "AddressEmptyCode",
      "type": "error"
    },
    {
      "inputs": [
        {
          "internalType": "address",
          "name": "account",
          "type": "address"
        }
      ],
      "name": "AddressInsufficientBalance",
      "type": "error"
    },
    {
      "inputs": [],
      "name": "Expired",
      "type": "error"
    },
    {
      "inputs": [],
      "name": "FailedInnerCall",
      "type": "error"
    },
    {
      "inputs": [],
      "name": "ReentrancyGuardReentrantCall",
      "type": "error"
    },
    {
      "inputs": [
        {
          "internalType": "address",
          "name": "token",
          "type": "address"
        }
      ],
      "name": "SafeERC20FailedOperation",
      "type": "error"
    },
    {
      "inputs": [],
      "name": "FACTORY",
      "outputs": [
        {
          "internalType": "address",
          "name": "",
          "type": "address"
        }
      ],
      "stateMutability": "view",
      "type": "function"
    },
    {
      "inputs": [
        {
          "components": [
            {
              "internalType": "address",
              "name": "tokenA",
              "type": "address"
            },
            {
              "internalType": "address",
              "name": "tokenB",
              "type": "address"
            },
            {
              "internalType": "uint256",
              "name": "amountADesired",
              "type": "uint256"
            },
            {
              "internalType": "uint256",
              "name": "amountBDesired",
              "type": "uint256"
            },
            {
              "internalType": "uint256",
              "name": "amountAMin",
              "type": "uint256"
            },
            {
              "internalType": "uint256",
              "name": "amountBMin",
              "type": "uint256"
            },
            {
              "internalType": "address",
              "name": "to",
              "type": "address"
            },
            {
              "internalType": "uint256",
              "name": "deadline",
              "type": "uint256"
            }
          ],
          "internalType": "struct LRouter.AddLiquidity",
          "name": "params",
          "type": "tuple"
        }
      ],
      "name": "addLiquidity",
      "outputs": [
        {
          "internalType": "uint256",
          "name": "amountA",
          "type": "uint256"
        },
        {
          "internalType": "uint256",
          "name": "amountB",
          "type": "uint256"
        },
        {
          "internalType": "uint256",
          "name": "liquidity",
          "type": "uint256"
        }
      ],
      "stateMutability": "nonpayable",
      "type": "function"
    },
    {
      "inputs": [
        {
          "internalType": "address",
          "name": "tokenA",
          "type": "address"
        },
        {
          "internalType": "address",
          "name": "tokenB",
          "type": "address"
        },
        {
          "internalType": "uint256",
          "name": "liquidity",
          "type": "uint256"
        },
        {
          "internalType": "uint256",
          "name": "amountAMin",
          "type": "uint256"
        },
        {
          "internalType": "uint256",
          "name": "amountBMin",
          "type": "uint256"
        },
        {
          "internalType": "address",
          "name": "to",
          "type": "address"
        },
        {
          "internalType": "uint256",
          "name": "deadline",
          "type": "uint256"
        }
      ],
      "name": "removeLiquidity",
      "outputs": [
        {
          "internalType": "uint256",
          "name": "amountA",
          "type": "uint256"
        },
        {
          "internalType": "uint256",
          "name": "amountB",
          "type": "uint256"
        }
      ],
      "stateMutability": "nonpayable",
      "type": "function"
    },
    {
      "stateMutability": "payable",
      "type": "receive"
    }
  ],
  "bytecode": "0x60a06040523480156200001157600080fd5b506040516200184e3803806200184e8339818101604052810190620000379190620000e5565b60016000819055508173ffffffffffffffffffffffffffffffffffffffff1660808173ffffffffffffffffffffffffffffffffffffffff168152505050506200012c565b600080fd5b600073ffffffffffffffffffffffffffffffffffffffff82169050919050565b6000620000ad8262000080565b9050919050565b620000bf81620000a0565b8114620000cb57600080fd5b50565b600081519050620000df81620000b4565b92915050565b60008060408385031215620000ff57620000fe6200007b565b5b60006200010f85828601620000ce565b92505060206200012285828601620000ce565b9150509250929050565b6080516116ea62000164600039600081816101340152818161031f015281816103830152818161062d015261070801526116ea6000f3fe6080604052600436106100385760003560e01c806323790216146100445780632dd3100014610083578063baa2abde146100ae5761003f565b3661003f57005b600080fd5b34801561005057600080fd5b5061006b60048036038101906100669190610ee0565b6100ec565b60405161007a93929190610f27565b60405180910390f35b34801561008f57600080fd5b5061009861031d565b6040516100a59190610f9f565b60405180910390f35b3480156100ba57600080fd5b506100d560048036038101906100d09190611012565b610341565b6040516100e39291906110b4565b60405180910390f35b60008060008360e0013580421115610130576040517f203d82d800000000000000000000000000000000000000000000000000000000815260040160405180910390fd5b60007f000000000000000000000000000000000000000000000000000000000000000073ffffffffffffffffffffffffffffffffffffffff1663531aa03e87600001602081019061018191906110dd565b88602001602081019061019491906110dd565b6040518363ffffffff1660e01b81526004016101b192919061110a565b602060405180830381865afa1580156101ce573d6000803e3d6000fd5b505050506040513d601f19601f820116820180604052508101906101f29190611148565b90506101fe868261060d565b809550819650505061024533828789600001602081019061021f91906110dd565b73ffffffffffffffffffffffffffffffffffffffff16610930909392919063ffffffff16565b61028433828689602001602081019061025e91906110dd565b73ffffffffffffffffffffffffffffffffffffffff16610930909392919063ffffffff16565b8073ffffffffffffffffffffffffffffffffffffffff16636a6278428760c00160208101906102b391906110dd565b6040518263ffffffff1660e01b81526004016102cf9190610f9f565b6020604051808303816000875af11580156102ee573d6000803e3d6000fd5b505050506040513d601f19601f82011682018060405250810190610312919061118a565b925050509193909250565b7f000000000000000000000000000000000000000000000000000000000000000081565b600080828042111561037f576040517f203d82d800000000000000000000000000000000000000000000000000000000815260040160405180910390fd5b60007f000000000000000000000000000000000000000000000000000000000000000073ffffffffffffffffffffffffffffffffffffffff1663531aa03e8c8c6040518363ffffffff1660e01b81526004016103dc92919061110a565b602060405180830381865afa1580156103f9573d6000803e3d6000fd5b505050506040513d601f19601f8201168201806040525081019061041d9190611148565b90508073ffffffffffffffffffffffffffffffffffffffff166323b872dd33838c6040518463ffffffff1660e01b815260040161045c939291906111b7565b6020604051808303816000875af115801561047b573d6000803e3d6000fd5b505050506040513d601f19601f8201168201806040525081019061049f9190611226565b506000808273ffffffffffffffffffffffffffffffffffffffff166389afcb44896040518263ffffffff1660e01b81526004016104dc9190610f9f565b60408051808303816000875af11580156104fa573d6000803e3d6000fd5b505050506040513d601f19601f8201168201806040525081019061051e9190611253565b91509150600061052e8e8e6109b2565b5090508073ffffffffffffffffffffffffffffffffffffffff168e73ffffffffffffffffffffffffffffffffffffffff161461056b57818361056e565b82825b80975081985050508a8710156105b9576040517f08c379a00000000000000000000000000000000000000000000000000000000081526004016105b0906112f0565b60405180910390fd5b898610156105fc576040517f08c379a00000000000000000000000000000000000000000000000000000000081526004016105f39061135c565b60405180910390fd5b505050505097509795505050505050565b600080600080600073ffffffffffffffffffffffffffffffffffffffff167f000000000000000000000000000000000000000000000000000000000000000073ffffffffffffffffffffffffffffffffffffffff1663531aa03e88600001602081019061067a91906110dd565b89602001602081019061068d91906110dd565b6040518363ffffffff1660e01b81526004016106aa92919061110a565b602060405180830381865afa1580156106c7573d6000803e3d6000fd5b505050506040513d601f19601f820116820180604052508101906106eb9190611148565b73ffffffffffffffffffffffffffffffffffffffff16036107cb577f000000000000000000000000000000000000000000000000000000000000000073ffffffffffffffffffffffffffffffffffffffff1663c9c6539687600001602081019061075591906110dd565b88602001602081019061076891906110dd565b6040518363ffffffff1660e01b815260040161078592919061110a565b6020604051808303816000875af11580156107a4573d6000803e3d6000fd5b505050506040513d601f19601f820116820180604052508101906107c89190611148565b94505b6107fa858760000160208101906107e291906110dd565b8860200160208101906107f591906110dd565b610ade565b80925081935050506000821480156108125750600081145b1561082e57856040013586606001358094508195505050610927565b600061083f87604001358484610bb5565b9050866060013581116108a6578660a00135811015610893576040517f08c379a000000000000000000000000000000000000000000000000000000000815260040161088a9061135c565b60405180910390fd5b8660400135818095508196505050610925565b60006108b788606001358486610bb5565b905087604001358111156108ce576108cd61137c565b5b8760800135811015610915576040517f08c379a000000000000000000000000000000000000000000000000000000000815260040161090c906112f0565b60405180910390fd5b8088606001358096508197505050505b505b50509250929050565b6109ac848573ffffffffffffffffffffffffffffffffffffffff166323b872dd868686604051602401610965939291906111b7565b604051602081830303815290604052915060e01b6020820180517bffffffffffffffffffffffffffffffffffffffffffffffffffffffff8381831617835250505050610c68565b50505050565b6000808273ffffffffffffffffffffffffffffffffffffffff168473ffffffffffffffffffffffffffffffffffffffff1603610a23576040517f08c379a0000000000000000000000000000000000000000000000000000000008152600401610a1a906113f7565b60405180910390fd5b8273ffffffffffffffffffffffffffffffffffffffff168473ffffffffffffffffffffffffffffffffffffffff1610610a5d578284610a60565b83835b8092508193505050600073ffffffffffffffffffffffffffffffffffffffff168273ffffffffffffffffffffffffffffffffffffffff1603610ad7576040517f08c379a0000000000000000000000000000000000000000000000000000000008152600401610ace90611463565b60405180910390fd5b9250929050565b6000806000610aed85856109b2565b5090506000808773ffffffffffffffffffffffffffffffffffffffff16630902f1ac6040518163ffffffff1660e01b81526004016040805180830381865afa158015610b3d573d6000803e3d6000fd5b505050506040513d601f19601f82011682018060405250810190610b619190611253565b915091508273ffffffffffffffffffffffffffffffffffffffff168773ffffffffffffffffffffffffffffffffffffffff1614610b9f578082610ba2565b81815b8095508196505050505050935093915050565b6000808411610bf9576040517f08c379a0000000000000000000000000000000000000000000000000000000008152600401610bf0906114cf565b60405180910390fd5b600083118015610c095750600082115b610c48576040517f08c379a0000000000000000000000000000000000000000000000000000000008152600401610c3f9061153b565b60405180910390fd5b828285610c55919061158a565b610c5f91906115fb565b90509392505050565b6000610c93828473ffffffffffffffffffffffffffffffffffffffff16610cff90919063ffffffff16565b90506000815114158015610cb8575080806020019051810190610cb69190611226565b155b15610cfa57826040517f5274afe7000000000000000000000000000000000000000000000000000000008152600401610cf19190610f9f565b60405180910390fd5b505050565b6060610d0d83836000610d15565b905092915050565b606081471015610d5c57306040517fcd786059000000000000000000000000000000000000000000000000000000008152600401610d539190610f9f565b60405180910390fd5b6000808573ffffffffffffffffffffffffffffffffffffffff168486604051610d85919061169d565b60006040518083038185875af1925050503d8060008114610dc2576040519150601f19603f3d011682016040523d82523d6000602084013e610dc7565b606091505b5091509150610dd7868383610de2565b925050509392505050565b606082610df757610df282610e71565b610e69565b60008251148015610e1f575060008473ffffffffffffffffffffffffffffffffffffffff163b145b15610e6157836040517f9996b315000000000000000000000000000000000000000000000000000000008152600401610e589190610f9f565b60405180910390fd5b819050610e6a565b5b9392505050565b600081511115610e845780518082602001fd5b6040517f1425ea4200000000000000000000000000000000000000000000000000000000815260040160405180910390fd5b600080fd5b600080fd5b60006101008284031215610ed757610ed6610ebb565b5b81905092915050565b60006101008284031215610ef757610ef6610eb6565b5b6000610f0584828501610ec0565b91505092915050565b6000819050919050565b610f2181610f0e565b82525050565b6000606082019050610f3c6000830186610f18565b610f496020830185610f18565b610f566040830184610f18565b949350505050565b600073ffffffffffffffffffffffffffffffffffffffff82169050919050565b6000610f8982610f5e565b9050919050565b610f9981610f7e565b82525050565b6000602082019050610fb46000830184610f90565b92915050565b610fc381610f7e565b8114610fce57600080fd5b50565b600081359050610fe081610fba565b92915050565b610fef81610f0e565b8114610ffa57600080fd5b50565b60008135905061100c81610fe6565b92915050565b600080600080600080600060e0888a03121561103157611030610eb6565b5b600061103f8a828b01610fd1565b97505060206110508a828b01610fd1565b96505060406110618a828b01610ffd565b95505060606110728a828b01610ffd565b94505060806110838a828b01610ffd565b93505060a06110948a828b01610fd1565b92505060c06110a58a828b01610ffd565b91505092959891949750929550565b60006040820190506110c96000830185610f18565b6110d66020830184610f18565b9392505050565b6000602082840312156110f3576110f2610eb6565b5b600061110184828501610fd1565b91505092915050565b600060408201905061111f6000830185610f90565b61112c6020830184610f90565b9392505050565b60008151905061114281610fba565b92915050565b60006020828403121561115e5761115d610eb6565b5b600061116c84828501611133565b91505092915050565b60008151905061118481610fe6565b92915050565b6000602082840312156111a05761119f610eb6565b5b60006111ae84828501611175565b91505092915050565b60006060820190506111cc6000830186610f90565b6111d96020830185610f90565b6111e66040830184610f18565b949350505050565b60008115159050919050565b611203816111ee565b811461120e57600080fd5b50565b600081519050611220816111fa565b92915050565b60006020828403121561123c5761123b610eb6565b5b600061124a84828501611211565b91505092915050565b6000806040838503121561126a57611269610eb6565b5b600061127885828601611175565b925050602061128985828601611175565b9150509250929050565b600082825260208201905092915050565b7f20494e53554646494349454e545f415f414d4f554e5400000000000000000000600082015250565b60006112da601683611293565b91506112e5826112a4565b602082019050919050565b60006020820190508181036000830152611309816112cd565b9050919050565b7f20494e53554646494349454e545f425f414d4f554e5400000000000000000000600082015250565b6000611346601683611293565b915061135182611310565b602082019050919050565b6000602082019050818103600083015261137581611339565b9050919050565b7f4e487b7100000000000000000000000000000000000000000000000000000000600052600160045260246000fd5b7f4944454e544943414c5f41444452455353455300000000000000000000000000600082015250565b60006113e1601383611293565b91506113ec826113ab565b602082019050919050565b60006020820190508181036000830152611410816113d4565b9050919050565b7f5a45524f5f414444524553530000000000000000000000000000000000000000600082015250565b600061144d600c83611293565b915061145882611417565b602082019050919050565b6000602082019050818103600083015261147c81611440565b9050919050565b7f494e53554646494349454e545f414d4f554e5400000000000000000000000000600082015250565b60006114b9601383611293565b91506114c482611483565b602082019050919050565b600060208201905081810360008301526114e8816114ac565b9050919050565b7f494e53554646494349454e545f4c495155494449545900000000000000000000600082015250565b6000611525601683611293565b9150611530826114ef565b602082019050919050565b6000602082019050818103600083015261155481611518565b9050919050565b7f4e487b7100000000000000000000000000000000000000000000000000000000600052601160045260246000fd5b600061159582610f0e565b91506115a083610f0e565b92508282026115ae81610f0e565b915082820484148315176115c5576115c461155b565b5b5092915050565b7f4e487b7100000000000000000000000000000000000000000000000000000000600052601260045260246000fd5b600061160682610f0e565b915061161183610f0e565b925082611621576116206115cc565b5b828204905092915050565b600081519050919050565b600081905092915050565b60005b83811015611660578082015181840152602081019050611645565b60008484015250505050565b60006116778261162c565b6116818185611637565b9350611691818560208601611642565b80840191505092915050565b60006116a9828461166c565b91508190509291505056fea26469706673582212201e98f96d6c3eb4ffb44355ca87bc7427f42afb0eac353b9190160d81f0a8d16764736f6c63430008140033",
  "linkReferences": {},
  "deployedLinkReferences": {}
}