{
  "_format": "hh-sol-artifact-1",
  "contractName": "LSwapPair",
  "sourceName": "contracts/LSwapPair.sol",
  "abi": [
    {
      "inputs": [
        {
          "internalType": "address",
          "name": "target",
          "type": "address"
        }
      ],
      "name": "AddressEmptyCode",
      "type": "error"
    },
    {
      "inputs": [
        {
          "internalType": "address",
          "name": "account",
          "type": "address"
        }
      ],
      "name": "AddressInsufficientBalance",
      "type": "error"
    },
    {
      "inputs": [],
      "name": "FailedInnerCall",
      "type": "error"
    },
    {
      "inputs": [],
      "name": "Forbidden",
      "type": "error"
    },
    {
      "inputs": [],
      "name": "InsufficientAmountOut",
      "type": "error"
    },
    {
      "inputs": [],
      "name": "InsufficientLiquidityBurned",
      "type": "error"
    },
    {
      "inputs": [],
      "name": "InsufficientOutputAmount",
      "type": "error"
    },
    {
      "inputs": [],
      "name": "KInvariant",
      "type": "error"
    },
    {
      "inputs": [],
      "name": "LoanAmountGreaterThanThreshold",
      "type": "error"
    },
    {
      "inputs": [],
      "name": "MultipleOutputAmounts",
      "type": "error"
    },
    {
      "inputs": [],
      "name": "OnlyFactory",
      "type": "error"
    },
    {
      "inputs": [],
      "name": "ReentrancyGuardReentrantCall",
      "type": "error"
    },
    {
      "inputs": [
        {
          "internalType": "address",
          "name": "token",
          "type": "address"
        }
      ],
      "name": "SafeERC20FailedOperation",
      "type": "error"
    },
    {
      "anonymous": false,
      "inputs": [
        {
          "indexed": true,
          "internalType": "address",
          "name": "owner",
          "type": "address"
        },
        {
          "indexed": true,
          "internalType": "address",
          "name": "spender",
          "type": "address"
        },
        {
          "indexed": false,
          "internalType": "uint256",
          "name": "value",
          "type": "uint256"
        }
      ],
      "name": "Approval",
      "type": "event"
    },
    {
      "anonymous": false,
      "inputs": [
        {
          "indexed": true,
          "internalType": "address",
          "name": "tokenToBorrow",
          "type": "address"
        },
        {
          "indexed": true,
          "internalType": "address",
          "name": "borrower",
          "type": "address"
        },
        {
          "indexed": false,
          "internalType": "uint256",
          "name": "amount",
          "type": "uint256"
        }
      ],
      "name": "Borrow",
      "type": "event"
    },
    {
      "anonymous": false,
      "inputs": [
        {
          "indexed": false,
          "internalType": "address",
          "name": "",
          "type": "address"
        },
        {
          "indexed": false,
          "internalType": "uint256",
          "name": "",
          "type": "uint256"
        },
        {
          "indexed": false,
          "internalType": "uint256",
          "name": "",
          "type": "uint256"
        },
        {
          "indexed": false,
          "internalType": "address",
          "name": "",
          "type": "address"
        }
      ],
      "name": "Burn",
      "type": "event"
    },
    {
      "anonymous": false,
      "inputs": [
        {
          "indexed": false,
          "internalType": "address",
          "name": "",
          "type": "address"
        },
        {
          "indexed": false,
          "internalType": "uint256",
          "name": "",
          "type": "uint256"
        },
        {
          "indexed": false,
          "internalType": "uint256",
          "name": "",
          "type": "uint256"
        }
      ],
      "name": "Mint",
      "type": "event"
    },
    {
      "anonymous": false,
      "inputs": [
        {
          "indexed": false,
          "internalType": "address",
          "name": "",
          "type": "address"
        },
        {
          "indexed": false,
          "internalType": "uint256",
          "name": "",
          "type": "uint256"
        },
        {
          "indexed": false,
          "internalType": "uint256",
          "name": "",
          "type": "uint256"
        },
        {
          "indexed": false,
          "internalType": "uint256",
          "name": "",
          "type": "uint256"
        },
        {
          "indexed": false,
          "internalType": "uint256",
          "name": "",
          "type": "uint256"
        },
        {
          "indexed": false,
          "internalType": "address",
          "name": "",
          "type": "address"
        }
      ],
      "name": "Swap",
      "type": "event"
    },
    {
      "anonymous": false,
      "inputs": [
        {
          "indexed": true,
          "internalType": "address",
          "name": "from",
          "type": "address"
        },
        {
          "indexed": true,
          "internalType": "address",
          "name": "to",
          "type": "address"
        },
        {
          "indexed": false,
          "internalType": "uint256",
          "name": "value",
          "type": "uint256"
        }
      ],
      "name": "Transfer",
      "type": "event"
    },
    {
      "inputs": [],
      "name": "FACTORY",
      "outputs": [
        {
          "internalType": "address",
          "name": "",
          "type": "address"
        }
      ],
      "stateMutability": "view",
      "type": "function"
    },
    {
      "inputs": [],
      "name": "MINIMUM_LIQUIDITY",
      "outputs": [
        {
          "internalType": "uint256",
          "name": "",
          "type": "uint256"
        }
      ],
      "stateMutability": "view",
      "type": "function"
    },
    {
      "inputs": [
        {
          "internalType": "address",
          "name": "_owner",
          "type": "address"
        },
        {
          "internalType": "address",
          "name": "_spender",
          "type": "address"
        }
      ],
      "name": "allowance",
      "outputs": [
        {
          "internalType": "uint256",
          "name": "remaining",
          "type": "uint256"
        }
      ],
      "stateMutability": "view",
      "type": "function"
    },
    {
      "inputs": [
        {
          "internalType": "address",
          "name": "_spender",
          "type": "address"
        },
        {
          "internalType": "uint256",
          "name": "_value",
          "type": "uint256"
        }
      ],
      "name": "approve",
      "outputs": [
        {
          "internalType": "bool",
          "name": "success",
          "type": "bool"
        }
      ],
      "stateMutability": "nonpayable",
      "type": "function"
    },
    {
      "inputs": [
        {
          "internalType": "address",
          "name": "_owner",
          "type": "address"
        }
      ],
      "name": "balanceOf",
      "outputs": [
        {
          "internalType": "uint256",
          "name": "balance",
          "type": "uint256"
        }
      ],
      "stateMutability": "view",
      "type": "function"
    },
    {
      "inputs": [
        {
          "internalType": "address",
          "name": "tokenToBorrow",
          "type": "address"
        },
        {
          "internalType": "address",
          "name": "borrower",
          "type": "address"
        },
        {
          "internalType": "uint256",
          "name": "amount",
          "type": "uint256"
        }
      ],
      "name": "borrow",
      "outputs": [],
      "stateMutability": "nonpayable",
      "type": "function"
    },
    {
      "inputs": [
        {
          "internalType": "address",
          "name": "to",
          "type": "address"
        }
      ],
      "name": "burn",
      "outputs": [
        {
          "internalType": "uint256",
          "name": "amountToken0",
          "type": "uint256"
        },
        {
          "internalType": "uint256",
          "name": "amountToken1",
          "type": "uint256"
        }
      ],
      "stateMutability": "nonpayable",
      "type": "function"
    },
    {
      "inputs": [],
      "name": "decimals",
      "outputs": [
        {
          "internalType": "uint8",
          "name": "",
          "type": "uint8"
        }
      ],
      "stateMutability": "view",
      "type": "function"
    },
    {
      "inputs": [
        {
          "internalType": "address",
          "name": "lp",
          "type": "address"
        }
      ],
      "name": "earned",
      "outputs": [
        {
          "internalType": "uint256",
          "name": "",
          "type": "uint256"
        }
      ],
      "stateMutability": "view",
      "type": "function"
    },
    {
      "inputs": [
        {
          "internalType": "address",
          "name": "",
          "type": "address"
        }
      ],
      "name": "feesPerTokenPaid",
      "outputs": [
        {
          "internalType": "uint256",
          "name": "",
          "type": "uint256"
        }
      ],
      "stateMutability": "view",
      "type": "function"
    },
    {
      "inputs": [],
      "name": "feesPerTokenStored",
      "outputs": [
        {
          "internalType": "uint256",
          "name": "",
          "type": "uint256"
        }
      ],
      "stateMutability": "view",
      "type": "function"
    },
    {
      "inputs": [],
      "name": "getFACTORY",
      "outputs": [
        {
          "internalType": "address",
          "name": "",
          "type": "address"
        }
      ],
      "stateMutability": "view",
      "type": "function"
    },
    {
      "inputs": [],
      "name": "getPendingLiquidityFees",
      "outputs": [
        {
          "internalType": "uint256",
          "name": "pendingLiquidityFees0",
          "type": "uint256"
        },
        {
          "internalType": "uint256",
          "name": "pendingLiquidityFees1",
          "type": "uint256"
        }
      ],
      "stateMutability": "view",
      "type": "function"
    },
    {
      "inputs": [],
      "name": "getPendingProtocolFees",
      "outputs": [
        {
          "internalType": "uint256",
          "name": "pendingProtocolFees0",
          "type": "uint256"
        },
        {
          "internalType": "uint256",
          "name": "pendingProtocolFees1",
          "type": "uint256"
        }
      ],
      "stateMutability": "view",
      "type": "function"
    },
    {
      "inputs": [],
      "name": "getReserves",
      "outputs": [
        {
          "internalType": "uint256",
          "name": "reserve0",
          "type": "uint256"
        },
        {
          "internalType": "uint256",
          "name": "reserve1",
          "type": "uint256"
        }
      ],
      "stateMutability": "view",
      "type": "function"
    },
    {
      "inputs": [
        {
          "internalType": "address",
          "name": "token0",
          "type": "address"
        },
        {
          "internalType": "address",
          "name": "token1",
          "type": "address"
        }
      ],
      "name": "initialize",
      "outputs": [],
      "stateMutability": "nonpayable",
      "type": "function"
    },
    {
      "inputs": [
        {
          "internalType": "address",
          "name": "",
          "type": "address"
        }
      ],
      "name": "lpFees",
      "outputs": [
        {
          "internalType": "uint256",
          "name": "",
          "type": "uint256"
        }
      ],
      "stateMutability": "view",
      "type": "function"
    },
    {
      "inputs": [
        {
          "internalType": "address",
          "name": "to",
          "type": "address"
        }
      ],
      "name": "mint",
      "outputs": [
        {
          "internalType": "uint256",
          "name": "liquidity",
          "type": "uint256"
        }
      ],
      "stateMutability": "nonpayable",
      "type": "function"
    },
    {
      "inputs": [],
      "name": "name",
      "outputs": [
        {
          "internalType": "string",
          "name": "",
          "type": "string"
        }
      ],
      "stateMutability": "view",
      "type": "function"
    },
    {
      "inputs": [
        {
          "internalType": "uint256",
          "name": "amountToken0Out",
          "type": "uint256"
        },
        {
          "internalType": "uint256",
          "name": "amountToken1Out",
          "type": "uint256"
        },
        {
          "internalType": "address",
          "name": "to",
          "type": "address"
        }
      ],
      "name": "swap",
      "outputs": [
        {
          "internalType": "uint256",
          "name": "amountInToken0",
          "type": "uint256"
        },
        {
          "internalType": "uint256",
          "name": "amountInToken1",
          "type": "uint256"
        }
      ],
      "stateMutability": "nonpayable",
      "type": "function"
    },
    {
      "inputs": [],
      "name": "symbol",
      "outputs": [
        {
          "internalType": "string",
          "name": "",
          "type": "string"
        }
      ],
      "stateMutability": "view",
      "type": "function"
    },
    {
      "inputs": [],
      "name": "totalSupply",
      "outputs": [
        {
          "internalType": "uint256",
          "name": "",
          "type": "uint256"
        }
      ],
      "stateMutability": "view",
      "type": "function"
    },
    {
      "inputs": [
        {
          "internalType": "address",
          "name": "_to",
          "type": "address"
        },
        {
          "internalType": "uint256",
          "name": "_value",
          "type": "uint256"
        }
      ],
      "name": "transfer",
      "outputs": [
        {
          "internalType": "bool",
          "name": "success",
          "type": "bool"
        }
      ],
      "stateMutability": "nonpayable",
      "type": "function"
    },
    {
      "inputs": [
        {
          "internalType": "address",
          "name": "_from",
          "type": "address"
        },
        {
          "internalType": "address",
          "name": "_to",
          "type": "address"
        },
        {
          "internalType": "uint256",
          "name": "_value",
          "type": "uint256"
        }
      ],
      "name": "transferFrom",
      "outputs": [
        {
          "internalType": "bool",
          "name": "success",
          "type": "bool"
        }
      ],
      "stateMutability": "nonpayable",
      "type": "function"
    },
    {
      "inputs": [
        {
          "internalType": "address",
          "name": "to",
          "type": "address"
        }
      ],
      "name": "withdrawFees",
      "outputs": [],
      "stateMutability": "nonpayable",
      "type": "function"
    }
  ],
  "bytecode": "0x608060405234801561001057600080fd5b50600160068190555061340b806100286000396000f3fe608060405234801561001057600080fd5b50600436106101725760003560e01c80636298fb3c116100de57806390d98e0011610097578063a9059cbb11610071578063a9059cbb1461048d578063ba9a7a56146104bd578063d5f839fc146104db578063dd62ed3e146104fa57610172565b806390d98e001461042057806395d89b41146104505780639de3beec1461046e57610172565b80636298fb3c146103105780636a6278421461032e5780636d9a640a1461035e57806370a082311461038f57806381889f11146103bf57806389afcb44146103ef57610172565b806318160ddd1161013057806318160ddd1461024e57806323b872dd1461026c5780632dd310001461029c578063313ce567146102ba578063485cc955146102d85780635224372c146102f457610172565b80628cc2621461017757806306fdde03146101a75780630902f1ac146101c5578063095ea7b3146101e45780630f8ee22014610214578063164e68de14610232575b600080fd5b610191600480360381019061018c91906126d0565b61052a565b60405161019e9190612716565b60405180910390f35b6101af61053f565b6040516101bc91906127c1565b60405180910390f35b6101cd6105cd565b6040516101db9291906127e3565b60405180910390f35b6101fe60048036038101906101f99190612838565b610602565b60405161020b9190612893565b60405180910390f35b61021c610619565b6040516102299190612716565b60405180910390f35b61024c600480360381019061024791906126d0565b61061f565b005b610256610622565b6040516102639190612716565b60405180910390f35b610286600480360381019061028191906128ae565b61062c565b6040516102939190612893565b60405180910390f35b6102a461077b565b6040516102b19190612910565b60405180910390f35b6102c26107a1565b6040516102cf9190612947565b60405180910390f35b6102f260048036038101906102ed9190612962565b6107a6565b005b61030e600480360381019061030991906128ae565b610a05565b005b610318610cb1565b6040516103259190612910565b60405180910390f35b610348600480360381019061034391906126d0565b610cdb565b6040516103559190612716565b60405180910390f35b610378600480360381019061037391906129a2565b610f7b565b6040516103869291906127e3565b60405180910390f35b6103a960048036038101906103a491906126d0565b6113a9565b6040516103b69190612716565b60405180910390f35b6103d960048036038101906103d491906126d0565b6113f2565b6040516103e69190612716565b60405180910390f35b610409600480360381019061040491906126d0565b61140a565b6040516104179291906127e3565b60405180910390f35b61043a600480360381019061043591906126d0565b6116e2565b6040516104479190612716565b60405180910390f35b6104586116fa565b60405161046591906127c1565b60405180910390f35b610476611788565b6040516104849291906127e3565b60405180910390f35b6104a760048036038101906104a29190612838565b611799565b6040516104b49190612893565b60405180910390f35b6104c56117b0565b6040516104d29190612716565b60405180910390f35b6104e36117b6565b6040516104f19291906127e3565b60405180910390f35b610514600480360381019061050f9190612962565b6117c7565b6040516105219190612716565b60405180910390f35b60006105388260105461184e565b9050919050565b6000805461054c90612a24565b80601f016020809104026020016040519081016040528092919081815260200182805461057890612a24565b80156105c55780601f1061059a576101008083540402835291602001916105c5565b820191906000526020600020905b8154815290600101906020018083116105a857829003601f168201915b505050505081565b6000806000600854116105e15760016105e5565b6008545b91506000600954116105f85760016105fc565b6009545b90509091565b600061060f33848461191e565b6001905092915050565b60105481565b50565b6000600254905090565b60007fffffffffffffffffffffffffffffffffffffffffffffffffffffffffffffffff600460008673ffffffffffffffffffffffffffffffffffffffff1673ffffffffffffffffffffffffffffffffffffffff16815260200190815260200160002060003373ffffffffffffffffffffffffffffffffffffffff1673ffffffffffffffffffffffffffffffffffffffff16815260200190815260200160002054146107655781600460008673ffffffffffffffffffffffffffffffffffffffff1673ffffffffffffffffffffffffffffffffffffffff16815260200190815260200160002060003373ffffffffffffffffffffffffffffffffffffffff1673ffffffffffffffffffffffffffffffffffffffff168152602001908152602001600020600082825461075d9190612a84565b925050819055505b610770848484611a09565b600190509392505050565b600760009054906101000a900473ffffffffffffffffffffffffffffffffffffffff1681565b601281565b33600760006101000a81548173ffffffffffffffffffffffffffffffffffffffff021916908373ffffffffffffffffffffffffffffffffffffffff16021790555081600c60006101000a81548173ffffffffffffffffffffffffffffffffffffffff021916908373ffffffffffffffffffffffffffffffffffffffff16021790555080600d60006101000a81548173ffffffffffffffffffffffffffffffffffffffff021916908373ffffffffffffffffffffffffffffffffffffffff1602179055506000600c60009054906101000a900473ffffffffffffffffffffffffffffffffffffffff1673ffffffffffffffffffffffffffffffffffffffff166306fdde036040518163ffffffff1660e01b8152600401600060405180830381865afa1580156108d8573d6000803e3d6000fd5b505050506040513d6000823e3d601f19601f820116820180604052508101906109019190612bde565b90506000600d60009054906101000a900473ffffffffffffffffffffffffffffffffffffffff1673ffffffffffffffffffffffffffffffffffffffff166306fdde036040518163ffffffff1660e01b8152600401600060405180830381865afa158015610972573d6000803e3d6000fd5b505050506040513d6000823e3d601f19601f8201168201806040525081019061099b9190612bde565b905081816040516020016109b0929190612cfb565b604051602081830303815290604052600090816109cd9190612ee1565b5081816040516020016109e192919061304b565b604051602081830303815290604052600190816109fe9190612ee1565b5050505050565b600760009054906101000a900473ffffffffffffffffffffffffffffffffffffffff1673ffffffffffffffffffffffffffffffffffffffff163373ffffffffffffffffffffffffffffffffffffffff1614610a8c576040517f0c6d42ae00000000000000000000000000000000000000000000000000000000815260040160405180910390fd5b600c60009054906101000a900473ffffffffffffffffffffffffffffffffffffffff1673ffffffffffffffffffffffffffffffffffffffff168373ffffffffffffffffffffffffffffffffffffffff1603610b9657610b2e8282600c60009054906101000a900473ffffffffffffffffffffffffffffffffffffffff1673ffffffffffffffffffffffffffffffffffffffff16611b2a9092919063ffffffff16565b80600a6000828254610b409190612a84565b925050819055506008546002600a54610b599190613085565b1015610b91576040517fb0d1026b00000000000000000000000000000000000000000000000000000000815260040160405180910390fd5b610c47565b610be38282600d60009054906101000a900473ffffffffffffffffffffffffffffffffffffffff1673ffffffffffffffffffffffffffffffffffffffff16611b2a9092919063ffffffff16565b80600b6000828254610bf59190612a84565b925050819055506009546002600b54610c0e9190613085565b1015610c46576040517fb0d1026b00000000000000000000000000000000000000000000000000000000815260040160405180910390fd5b5b8173ffffffffffffffffffffffffffffffffffffffff168373ffffffffffffffffffffffffffffffffffffffff167f312a5e5e1079f5dda4e95dbbd0b908b291fd5b992ef22073643ab691572c5b5283604051610ca49190612716565b60405180910390a3505050565b6000600760009054906101000a900473ffffffffffffffffffffffffffffffffffffffff16905090565b6000610ce5611ba9565b6000610cef610622565b90506000600c60009054906101000a900473ffffffffffffffffffffffffffffffffffffffff1673ffffffffffffffffffffffffffffffffffffffff166370a08231306040518263ffffffff1660e01b8152600401610d4e9190612910565b602060405180830381865afa158015610d6b573d6000803e3d6000fd5b505050506040513d601f19601f82011682018060405250810190610d8f91906130dc565b90506000600d60009054906101000a900473ffffffffffffffffffffffffffffffffffffffff1673ffffffffffffffffffffffffffffffffffffffff166370a08231306040518263ffffffff1660e01b8152600401610dee9190612910565b602060405180830381865afa158015610e0b573d6000803e3d6000fd5b505050506040513d601f19601f82011682018060405250810190610e2f91906130dc565b9050600080610e3c6105cd565b91509150600080818487610e509190612a84565b610e5a9190612a84565b90506000828487610e6b9190612a84565b610e759190612a84565b9050610e808a611bef565b60008803610edb57610e9560006103e8611c8b565b600182610ea29190613109565b9150600181610eb19190613109565b90506103e8610eca8284610ec59190613085565b611e73565b610ed49190612a84565b9850610f14565b610f11858984610eeb9190613085565b610ef5919061316c565b858a84610f029190613085565b610f0c919061316c565b611f6c565b98505b610f1e8a8a611c8b565b610f2b8282600080611f85565b7f4c209b5fc8ad50758f13e2e1088ba56a560dff690a1c6fef26394f4c03821c4f338383604051610f5e9392919061319d565b60405180910390a15050505050505050610f76612007565b919050565b600080610f86611ba9565b600080600087148015610f995750600086145b15610fd0576040517f42301c2300000000000000000000000000000000000000000000000000000000815260040160405180910390fd5b600080610fdb612011565b9150915081891180610fec57508088115b15611023576040517fe52970aa00000000000000000000000000000000000000000000000000000000815260040160405180910390fd5b60008911156111235780600d60009054906101000a900473ffffffffffffffffffffffffffffffffffffffff1673ffffffffffffffffffffffffffffffffffffffff166370a08231306040518263ffffffff1660e01b81526004016110889190612910565b602060405180830381865afa1580156110a5573d6000803e3d6000fd5b505050506040513d601f19601f820116820180604052508101906110c991906130dc565b6110d39190612a84565b9450611122878a600c60009054906101000a900473ffffffffffffffffffffffffffffffffffffffff1673ffffffffffffffffffffffffffffffffffffffff16611b2a9092919063ffffffff16565b5b60008811156112235781600c60009054906101000a900473ffffffffffffffffffffffffffffffffffffffff1673ffffffffffffffffffffffffffffffffffffffff166370a08231306040518263ffffffff1660e01b81526004016111889190612910565b602060405180830381865afa1580156111a5573d6000803e3d6000fd5b505050506040513d601f19601f820116820180604052508101906111c991906130dc565b6111d39190612a84565b95506112228789600d60009054906101000a900473ffffffffffffffffffffffffffffffffffffffff1673ffffffffffffffffffffffffffffffffffffffff16611b2a9092919063ffffffff16565b5b61122d8686612022565b905050809450819550505083866112449190612a84565b955082856112529190612a84565b945061126086868b8b611f85565b6009546008546112709190613085565b818361127c9190613085565b11156112b4576040517fbf6056e700000000000000000000000000000000000000000000000000000000815260040160405180910390fd5b6113006040518060400160405280600281526020017f4b4900000000000000000000000000000000000000000000000000000000000081525082846112f99190613085565b8484612119565b6113546040518060400160405280600281526020017f4b460000000000000000000000000000000000000000000000000000000000008152506009546008546113499190613085565b600854600954612119565b50507fd78ad95fa46c994b6551d0da85fc275fe613ce37657fb8d5e3d130840159d8223385858a8a8a60405161138f969594939291906131d4565b60405180910390a150506113a1612007565b935093915050565b6000600360008373ffffffffffffffffffffffffffffffffffffffff1673ffffffffffffffffffffffffffffffffffffffff168152602001908152602001600020549050919050565b60136020528060005260406000206000915090505481565b6000806000611418306113a9565b90506000611424610622565b905080600854836114359190613085565b61143f919061316c565b935080600954836114509190613085565b61145a919061316c565b9250600084148061146b5750600083145b156114a2576040517f749383ad00000000000000000000000000000000000000000000000000000000815260040160405180910390fd5b6114ab85611bef565b6114b530836121bb565b6115028585600c60009054906101000a900473ffffffffffffffffffffffffffffffffffffffff1673ffffffffffffffffffffffffffffffffffffffff16611b2a9092919063ffffffff16565b61154f8584600d60009054906101000a900473ffffffffffffffffffffffffffffffffffffffff1673ffffffffffffffffffffffffffffffffffffffff16611b2a9092919063ffffffff16565b6000600c60009054906101000a900473ffffffffffffffffffffffffffffffffffffffff1673ffffffffffffffffffffffffffffffffffffffff166370a08231306040518263ffffffff1660e01b81526004016115ac9190612910565b602060405180830381865afa1580156115c9573d6000803e3d6000fd5b505050506040513d601f19601f820116820180604052508101906115ed91906130dc565b90506000600d60009054906101000a900473ffffffffffffffffffffffffffffffffffffffff1673ffffffffffffffffffffffffffffffffffffffff166370a08231306040518263ffffffff1660e01b815260040161164c9190612910565b602060405180830381865afa158015611669573d6000803e3d6000fd5b505050506040513d601f19601f8201168201806040525081019061168d91906130dc565b905061169c8282600080611f85565b7fdccd412f0b1252819cb1fd330b93224ca42612892bb3f4f789976e6d819364963387878a6040516116d19493929190613235565b60405180910390a150505050915091565b60146020528060005260406000206000915090505481565b6001805461170790612a24565b80601f016020809104026020016040519081016040528092919081815260200182805461173390612a24565b80156117805780601f1061175557610100808354040283529160200191611780565b820191906000526020600020905b81548152906001019060200180831161176357829003601f168201915b505050505081565b600080600e549150600f5490509091565b60006117a6338484611a09565b6001905092915050565b6103e881565b600080601154915060125490509091565b6000600460008473ffffffffffffffffffffffffffffffffffffffff1673ffffffffffffffffffffffffffffffffffffffff16815260200190815260200160002060008373ffffffffffffffffffffffffffffffffffffffff1673ffffffffffffffffffffffffffffffffffffffff16815260200190815260200160002054905092915050565b600080601460008573ffffffffffffffffffffffffffffffffffffffff1673ffffffffffffffffffffffffffffffffffffffff168152602001908152602001600020548361189c9190612a84565b90506000670de0b6b3a7640000826118b3876113a9565b6118bd9190613085565b6118c7919061316c565b905080601360008773ffffffffffffffffffffffffffffffffffffffff1673ffffffffffffffffffffffffffffffffffffffff168152602001908152602001600020546119149190613109565b9250505092915050565b80600460008573ffffffffffffffffffffffffffffffffffffffff1673ffffffffffffffffffffffffffffffffffffffff16815260200190815260200160002060008473ffffffffffffffffffffffffffffffffffffffff1673ffffffffffffffffffffffffffffffffffffffff168152602001908152602001600020819055508173ffffffffffffffffffffffffffffffffffffffff168373ffffffffffffffffffffffffffffffffffffffff167f8c5be1e5ebec7d5bd14f71427d1e84f3dd0314c0f7b2291e5b200ac8c7c3b925836040516119fc9190612716565b60405180910390a3505050565b611a14838383612294565b80600360008573ffffffffffffffffffffffffffffffffffffffff1673ffffffffffffffffffffffffffffffffffffffff1681526020019081526020016000206000828254611a639190612a84565b9250508190555080600360008473ffffffffffffffffffffffffffffffffffffffff1673ffffffffffffffffffffffffffffffffffffffff1681526020019081526020016000206000828254611ab99190613109565b925050819055508173ffffffffffffffffffffffffffffffffffffffff168373ffffffffffffffffffffffffffffffffffffffff167fddf252ad1be2c89b69c2b068fc378daa952ba7f163c4a11628f55a4df523b3ef83604051611b1d9190612716565b60405180910390a3505050565b611ba4838473ffffffffffffffffffffffffffffffffffffffff1663a9059cbb8585604051602401611b5d92919061327a565b604051602081830303815290604052915060e01b6020820180517bffffffffffffffffffffffffffffffffffffffffffffffffffffffff83818316178352505050506122df565b505050565b600260065403611be5576040517f3ee5aeb500000000000000000000000000000000000000000000000000000000815260040160405180910390fd5b6002600681905550565b60006010549050611c00828261184e565b601360008473ffffffffffffffffffffffffffffffffffffffff1673ffffffffffffffffffffffffffffffffffffffff1681526020019081526020016000208190555080601460008473ffffffffffffffffffffffffffffffffffffffff1673ffffffffffffffffffffffffffffffffffffffff168152602001908152602001600020819055505050565b6000600254821115611cad576202a30042611ca69190613109565b9050611cd7565b6002546202a30083611cbf9190613085565b611cc9919061316c565b42611cd49190613109565b90505b600560008473ffffffffffffffffffffffffffffffffffffffff1673ffffffffffffffffffffffffffffffffffffffff16815260200190815260200160002060009054906101000a900463ffffffff1663ffffffff168163ffffffff161115611d995780600560008573ffffffffffffffffffffffffffffffffffffffff1673ffffffffffffffffffffffffffffffffffffffff16815260200190815260200160002060006101000a81548163ffffffff021916908363ffffffff1602179055505b8160026000828254611dab9190613109565b9250508190555081600360008573ffffffffffffffffffffffffffffffffffffffff1673ffffffffffffffffffffffffffffffffffffffff1681526020019081526020016000206000828254611e019190613109565b925050819055508273ffffffffffffffffffffffffffffffffffffffff16600073ffffffffffffffffffffffffffffffffffffffff167fddf252ad1be2c89b69c2b068fc378daa952ba7f163c4a11628f55a4df523b3ef84604051611e669190612716565b60405180910390a3505050565b6000808203611e855760009050611f67565b60006001611e9284612376565b901c6001901b90506001818481611eac57611eab61313d565b5b048201901c90506001818481611ec557611ec461313d565b5b048201901c90506001818481611ede57611edd61313d565b5b048201901c90506001818481611ef757611ef661313d565b5b048201901c90506001818481611f1057611f0f61313d565b5b048201901c90506001818481611f2957611f2861313d565b5b048201901c90506001818481611f4257611f4161313d565b5b048201901c9050611f6381828581611f5d57611f5c61313d565b5b04611f6c565b9150505b919050565b6000818310611f7b5781611f7d565b825b905092915050565b8382600854611f949190612a84565b611f9e9190613109565b6008819055508281600954611fb39190612a84565b611fbd9190613109565b6009819055508382600a54611fd29190612a84565b611fdc9190613109565b600a819055508281600b54611ff19190612a84565b611ffb9190613109565b600b8190555050505050565b6001600681905550565b600080600a549150600b5490509091565b6000806000806127106063876120389190613085565b612042919061316c565b93506127106063866120549190613085565b61205e919061316c565b92506064605a8561206f9190613085565b612079919061316c565b91506064605a8461208a9190613085565b612094919061316c565b905081846120a29190612a84565b601160008282546120b39190613109565b9250508190555080836120c69190612a84565b601260008282546120d79190613109565b9250508190555081600e60008282546120f09190613109565b9250508190555080600f60008282546121099190613109565b9250508190555092959194509250565b6121b58484848460405160240161213394939291906132a3565b6040516020818303038152906040527fa7a87853000000000000000000000000000000000000000000000000000000007bffffffffffffffffffffffffffffffffffffffffffffffffffffffff19166020820180517bffffffffffffffffffffffffffffffffffffffffffffffffffffffff8381831617835250505050612457565b50505050565b80600360008473ffffffffffffffffffffffffffffffffffffffff1673ffffffffffffffffffffffffffffffffffffffff168152602001908152602001600020600082825461220a9190612a84565b9250508190555080600260008282546122239190612a84565b92505081905550600073ffffffffffffffffffffffffffffffffffffffff168273ffffffffffffffffffffffffffffffffffffffff167fddf252ad1be2c89b69c2b068fc378daa952ba7f163c4a11628f55a4df523b3ef836040516122889190612716565b60405180910390a35050565b61229d83611bef565b3073ffffffffffffffffffffffffffffffffffffffff168273ffffffffffffffffffffffffffffffffffffffff16146122da576122d982611bef565b5b505050565b600061230a828473ffffffffffffffffffffffffffffffffffffffff1661247190919063ffffffff16565b9050600081511415801561232f57508080602001905181019061232d919061331b565b155b1561237157826040517f5274afe70000000000000000000000000000000000000000000000000000000081526004016123689190612910565b60405180910390fd5b505050565b600080600090506000608084901c111561239857608083901c92506080810190505b6000604084901c11156123b357604083901c92506040810190505b6000602084901c11156123ce57602083901c92506020810190505b6000601084901c11156123e957601083901c92506010810190505b6000600884901c111561240457600883901c92506008810190505b6000600484901c111561241f57600483901c92506004810190505b6000600284901c111561243a57600283901c92506002810190505b6000600184901c111561244e576001810190505b80915050919050565b61246e816124666124876124a8565b63ffffffff16565b50565b606061247f838360006124b3565b905092915050565b60006a636f6e736f6c652e6c6f679050600080835160208501845afa505050565b612654819050919050565b6060814710156124fa57306040517fcd7860590000000000000000000000000000000000000000000000000000000081526004016124f19190612910565b60405180910390fd5b6000808573ffffffffffffffffffffffffffffffffffffffff168486604051612523919061338f565b60006040518083038185875af1925050503d8060008114612560576040519150601f19603f3d011682016040523d82523d6000602084013e612565565b606091505b5091509150612575868383612580565b925050509392505050565b606082612595576125908261260f565b612607565b600082511480156125bd575060008473ffffffffffffffffffffffffffffffffffffffff163b145b156125ff57836040517f9996b3150000000000000000000000000000000000000000000000000000000081526004016125f69190612910565b60405180910390fd5b819050612608565b5b9392505050565b6000815111156126225780518082602001fd5b6040517f1425ea4200000000000000000000000000000000000000000000000000000000815260040160405180910390fd5b61265c6133a6565b565b6000604051905090565b600080fd5b600080fd5b600073ffffffffffffffffffffffffffffffffffffffff82169050919050565b600061269d82612672565b9050919050565b6126ad81612692565b81146126b857600080fd5b50565b6000813590506126ca816126a4565b92915050565b6000602082840312156126e6576126e5612668565b5b60006126f4848285016126bb565b91505092915050565b6000819050919050565b612710816126fd565b82525050565b600060208201905061272b6000830184612707565b92915050565b600081519050919050565b600082825260208201905092915050565b60005b8381101561276b578082015181840152602081019050612750565b60008484015250505050565b6000601f19601f8301169050919050565b600061279382612731565b61279d818561273c565b93506127ad81856020860161274d565b6127b681612777565b840191505092915050565b600060208201905081810360008301526127db8184612788565b905092915050565b60006040820190506127f86000830185612707565b6128056020830184612707565b9392505050565b612815816126fd565b811461282057600080fd5b50565b6000813590506128328161280c565b92915050565b6000806040838503121561284f5761284e612668565b5b600061285d858286016126bb565b925050602061286e85828601612823565b9150509250929050565b60008115159050919050565b61288d81612878565b82525050565b60006020820190506128a86000830184612884565b92915050565b6000806000606084860312156128c7576128c6612668565b5b60006128d5868287016126bb565b93505060206128e6868287016126bb565b92505060406128f786828701612823565b9150509250925092565b61290a81612692565b82525050565b60006020820190506129256000830184612901565b92915050565b600060ff82169050919050565b6129418161292b565b82525050565b600060208201905061295c6000830184612938565b92915050565b6000806040838503121561297957612978612668565b5b6000612987858286016126bb565b9250506020612998858286016126bb565b9150509250929050565b6000806000606084860312156129bb576129ba612668565b5b60006129c986828701612823565b93505060206129da86828701612823565b92505060406129eb868287016126bb565b9150509250925092565b7f4e487b7100000000000000000000000000000000000000000000000000000000600052602260045260246000fd5b60006002820490506001821680612a3c57607f821691505b602082108103612a4f57612a4e6129f5565b5b50919050565b7f4e487b7100000000000000000000000000000000000000000000000000000000600052601160045260246000fd5b6000612a8f826126fd565b9150612a9a836126fd565b9250828203905081811115612ab257612ab1612a55565b5b92915050565b600080fd5b600080fd5b7f4e487b7100000000000000000000000000000000000000000000000000000000600052604160045260246000fd5b612afa82612777565b810181811067ffffffffffffffff82111715612b1957612b18612ac2565b5b80604052505050565b6000612b2c61265e565b9050612b388282612af1565b919050565b600067ffffffffffffffff821115612b5857612b57612ac2565b5b612b6182612777565b9050602081019050919050565b6000612b81612b7c84612b3d565b612b22565b905082815260208101848484011115612b9d57612b9c612abd565b5b612ba884828561274d565b509392505050565b600082601f830112612bc557612bc4612ab8565b5b8151612bd5848260208601612b6e565b91505092915050565b600060208284031215612bf457612bf3612668565b5b600082015167ffffffffffffffff811115612c1257612c1161266d565b5b612c1e84828501612bb0565b91505092915050565b600081905092915050565b7f4c5377617054726164696e67506f6f6c3a200000000000000000000000000000600082015250565b6000612c68601283612c27565b9150612c7382612c32565b601282019050919050565b6000612c8982612731565b612c938185612c27565b9350612ca381856020860161274d565b80840191505092915050565b7f2f00000000000000000000000000000000000000000000000000000000000000600082015250565b6000612ce5600183612c27565b9150612cf082612caf565b600182019050919050565b6000612d0682612c5b565b9150612d128285612c7e565b9150612d1d82612cd8565b9150612d298284612c7e565b91508190509392505050565b60008190508160005260206000209050919050565b60006020601f8301049050919050565b600082821b905092915050565b600060088302612d977fffffffffffffffffffffffffffffffffffffffffffffffffffffffffffffffff82612d5a565b612da18683612d5a565b95508019841693508086168417925050509392505050565b6000819050919050565b6000612dde612dd9612dd4846126fd565b612db9565b6126fd565b9050919050565b6000819050919050565b612df883612dc3565b612e0c612e0482612de5565b848454612d67565b825550505050565b600090565b612e21612e14565b612e2c818484612def565b505050565b5b81811015612e5057612e45600082612e19565b600181019050612e32565b5050565b601f821115612e9557612e6681612d35565b612e6f84612d4a565b81016020851015612e7e578190505b612e92612e8a85612d4a565b830182612e31565b50505b505050565b600082821c905092915050565b6000612eb860001984600802612e9a565b1980831691505092915050565b6000612ed18383612ea7565b9150826002028217905092915050565b612eea82612731565b67ffffffffffffffff811115612f0357612f02612ac2565b5b612f0d8254612a24565b612f18828285612e54565b600060209050601f831160018114612f4b5760008415612f39578287015190505b612f438582612ec5565b865550612fab565b601f198416612f5986612d35565b60005b82811015612f8157848901518255600182019150602085019450602081019050612f5c565b86831015612f9e5784890151612f9a601f891682612ea7565b8355505b6001600288020188555050505b505050505050565b7f4c537761702d0000000000000000000000000000000000000000000000000000600082015250565b6000612fe9600683612c27565b9150612ff482612fb3565b600682019050919050565b7f2d00000000000000000000000000000000000000000000000000000000000000600082015250565b6000613035600183612c27565b915061304082612fff565b600182019050919050565b600061305682612fdc565b91506130628285612c7e565b915061306d82613028565b91506130798284612c7e565b91508190509392505050565b6000613090826126fd565b915061309b836126fd565b92508282026130a9816126fd565b915082820484148315176130c0576130bf612a55565b5b5092915050565b6000815190506130d68161280c565b92915050565b6000602082840312156130f2576130f1612668565b5b6000613100848285016130c7565b91505092915050565b6000613114826126fd565b915061311f836126fd565b925082820190508082111561313757613136612a55565b5b92915050565b7f4e487b7100000000000000000000000000000000000000000000000000000000600052601260045260246000fd5b6000613177826126fd565b9150613182836126fd565b9250826131925761319161313d565b5b828204905092915050565b60006060820190506131b26000830186612901565b6131bf6020830185612707565b6131cc6040830184612707565b949350505050565b600060c0820190506131e96000830189612901565b6131f66020830188612707565b6132036040830187612707565b6132106060830186612707565b61321d6080830185612707565b61322a60a0830184612901565b979650505050505050565b600060808201905061324a6000830187612901565b6132576020830186612707565b6132646040830185612707565b6132716060830184612901565b95945050505050565b600060408201905061328f6000830185612901565b61329c6020830184612707565b9392505050565b600060808201905081810360008301526132bd8187612788565b90506132cc6020830186612707565b6132d96040830185612707565b6132e66060830184612707565b95945050505050565b6132f881612878565b811461330357600080fd5b50565b600081519050613315816132ef565b92915050565b60006020828403121561333157613330612668565b5b600061333f84828501613306565b91505092915050565b600081519050919050565b600081905092915050565b600061336982613348565b6133738185613353565b935061338381856020860161274d565b80840191505092915050565b600061339b828461335e565b915081905092915050565b7f4e487b7100000000000000000000000000000000000000000000000000000000600052605160045260246000fdfea2646970667358221220e9e64a5b409022e217d3462c79c282080493809d7982e91100d9c8020505949764736f6c63430008140033",
  "linkReferences": {},
  "deployedLinkReferences": {}
}